:0400000013EF0DF0FD
:1000080000C01EF001C01DF002C01CF003C01BF0B0
:1000180004C01AF005C019F008C018F009C017F09C
:100028000AC016F00BC015F0E1CF27F0E2CF28F098
:10003800E9CF25F0EACF26F0F3CF23F0F4CF24F070
:10004800F5CF22F0F8CF1FF0F7CF20F0F6CF21F050
:1000580023EC0BF0F2A406D0F2940B0ED76EDC0E54
:10006800D66E422A9EA005D09E903C0ECF6EB00E52
:10007800CE6E9EB29E92A1A205D0A1923C0EB36E06
:10008800B00EB26EF2A203D0010E3C6EF292F0A056
:1000980003D0010E3B6EF090F0B2F09222C0F5FF53
:1000A8001FC0F8FF20C0F7FF21C0F6FF23C0F3FFF1
:1000B80024C0F4FF1EC000F01DC001F01CC002F0F7
:1000C8001BC003F01AC004F019C005F018C008F0EE
:1000D80017C009F016C00AF015C00BF025C0E9FFDB
:0E00E80026C0EAFF27C0E1FF28C0E2FF11009A
:1000F6001E0E716E100E00018F6F040E906F8FC072
:10010600E1FF90C0E2FFE69E8FC0E1FF90C0E2FFF4
:10011600E69C040E8F25E16E000E9021E26EE68CC1
:10012600180E4A6E040E4B6E4AC0E1FF4BC0E2FF4A
:10013600E69E4AC0E1FF4BC0E2FFE69C040E4A245D
:10014600E16E000E4B20E26EE68C020E8F25E16E0C
:10015600000E9021E26E43C0E6FF44C0E6FF010EAA
:100166008F25E16E000E9021E26E400EE66E8FC086
:10017600E9FF90C0EAFFEECF00F08FC0E1FF90C02C
:10018600E2FF400E0014E66E8FC0E9FF90C0EAFF62
:10019600EECF00F08FC0E1FF90C0E2FF880E0010A6
:1001A600E66E8FC046F090C047F0040E8F19006EC1
:0601B60000C08FF01200F2
:1001BC000B6A0A6A096A00500402F4CF09F0F3CF03
:1001CC0008F001500502F4CF0BF0F3CF0AF0005009
:1001DC000502F3500926F4500A22E86A0B2201505A
:1001EC000402F3500926F4500A22E86A0B2208C0D4
:1001FC0000F009C001F00AC002F00BC003F01200BD
:10020C0004012251010A13E120C401F01F0E011652
:10021C000150000A0CE10001AA8F04012151030ACC
:10022C0004E1010E0001A66F02D00001A66B0401CF
:10023C002251000AD8A48DD020C401F01F0E011643
:10024C000150020AD8A485D024C401F00F0E011667
:10025C000150000AD8B47DD00001AA8F040124BF3C
:10026C0016D024C403F00F0E031603C000F0000ECA
:10027C00016E0036009001368D0E0024E96E000EE2
:10028C000120EA6EEECF04F0EECF05F015D024C4B9
:10029C0003F00F0E031603C000F0000E016E0036C3
:1002AC0000900136480E0024E96E000E0120EA6E23
:1002BC00EECF04F0EECF05F02151030A07E104C0A4
:1002CC00E1FF05C0E2FF840EE66E43D024C400F0CB
:1002DC000F0E0016700E026E0F0E036E00500226EB
:1002EC00D8B0032A02C0E9FF03C0EAFFFE0EEE14E9
:1002FC00006EEECF01F0FF0E011602C0E1FF03C04D
:10030C00E2FF00C0E6FF01C0E6FF24AF11D004C03D
:10031C00E1FF05C0E2FFE66A040E0418006E00C09F
:10032C0004F004C0E1FF05C0E2FF400EE66E11D000
:10033C0004C0E1FF05C0E2FF880EE66E040E04184F
:10034C00006E00C004F004C0E1FF05C0E2FFC80E5F
:04035C00E66E120037
:10036000000E0001AC5D02E1080EAB5D10E2ABC017
:1003700003F0ACC004F09651000A03E1010E966F41
:1003800005D09651010A02E1020E966F04D0080EC4
:10039000036E000E046E48C0E1FF49C0E2FFE69222
:1003A00048C0E1FF49C0E2FFE69048C0E9FF49C00C
:1003B000EAFFEECF00F048C0E1FF49C0E2FF045081
:1003C0000010E66E010E4824E16E000E4920E26E38
:1003D00003C0E6FF0350AB5D006E0450AC59016EE4
:1003E00000C0ABF001C0ACF0280E0101196F040E83
:1003F0001A6F0001AAB131D0035004102DE0A7C03C
:10040000F6FFA8C0F7FFA9C0F8FF0900F5CF00F07C
:1004100019C1E1FF1AC1E2FF00C0E6FF0101194B5B
:100420001A2B010E0001A725006E000EA821016EF7
:10043000000EA921026E00C0A7F001C0A8F002C002
:10044000A9F0010E035C006E000E0458016E00C09E
:1004500003F001C004F0D0D726D00350041023E0ED
:10046000A7C0E9FFA8C0EAFF19C1E1FF1AC1E2FF76
:10047000EECFE6FF0101194B1A2B010E0001A72553
:10048000006E000EA821016E00C0A7F001C0A8F008
:10049000010E035C006E000E0458016E00C003F0F4
:0804A00001C004F0DAD71200DC
:1004A80020C401F01F0E01160150010A01E094D08A
:1004B80004012451000A01E08FD02151060A42E1CB
:1004C80037D000019251010A17E1020E006E1E0E8C
:1004D800016E000E026E120E0026000E012202228C
:1004E80000C0A7F001C0A8F002C0A9F0090EAB6FC8
:1004F800000EAC6FC00EAA6F25D000019251010A00
:1005080012E14D0E006E1E0E016E000E026E00C04E
:10051800A7F001C0A8F002C0A9F0210EAB6F000E31
:10052800AC6FC00EAA6F0ED00001800EAA6F0AD061
:1005380004012351210AC5E02351220ADEE0235198
:10054800230AF2E020C401F0600E0116050E006EC9
:10055800005004E00132019EFF0FFBD70150010A51
:1005680001E03AD026D038D037D0950E0001A76FD9
:10057800000EA86F010EAB6F000EAC6FC10EAA6F14
:100588002BD00001800EAA6F23C495F025D000015E
:10059800170EA76F010EA86F010EAB6F000EAC6FA0
:1005A800810EAA6F19D00001800EAA6F22C417F11C
:1005B80013D004012151010AD6E02151090AD4E0DF
:1005C8002151020AD2E021510A0ADBE02151030A33
:0A05D800DEE021510B0AE7E01200FB
:1005E20004012051800AD8A478D0C00E0001AA6F5D
:1005F20069D00001880E006E1E0E016E000E026EA2
:1006020000C0A7F001C0A8F002C0A9F0120EAB6FA3
:10061200000EAC6F62D00001030E006E000E016E80
:1006220022C404F0000E056EC8DDAD0E0024E96E92
:10063200000E0120EA6EEECFA7F0EECFA8F0EECFCB
:10064200A9F0020EA725F66E000EA821F76E000E85
:10065200A921F86E0900F5CF00F00900F5CF01F0ED
:1006620000C0ABF001C0ACF038D00401225100014F
:10067200995D23E3030E006E000E016E22C404F0A6
:10068200000E056E9ADDB00E0024E96E000E012008
:10069200EA6EEECFA7F0EECFA8F0EECFA9F0A7C09A
:1006A200F6FFA8C0F7FFA9C0F8FF0900F5CF00F0D8
:1006B20000C0ABF0000EAC6F01D0AA6B0ED00001EF
:1006C200AA6B0BD004012351010A93E02351020AC1
:0C06D200A2E02351030AC9E0F2D7120095
:1006DE000001AA8F716A9A6B22C492F09251000A9D
:1006EE0003E1100E456E03D0200E456EFDDC1200A8
:1006FE000401286B296B4AD00001AA8F04012881BE
:10070E000001A651010A02E10401288354D0000120
:10071E00AA8F51D00001AA8F040124BF16D024C481
:10072E0003F00F0E031603C000F0000E016E00362C
:10073E00009001368D0E0024E96E000E0120EA6E47
:10074E00EECF04F0EECF05F015D024C403F00F0E5B
:10075E00031603C000F0000E016E00360090013645
:10076E00480E0024E96E000E0120EA6EEECF04F072
:10077E00EECF05F004C0E9FF05C0EAFFEECF01F0B1
:10078E0001A403D00401010E286F15D020C401F07E
:10079E001F0E01160150000AAFE020C401F01F0E1B
:1007AE0001160150010AB3E020C401F01F0E01161C
:1007BE000150020AAFE00001AAAF07D0280EA76FC2
:0C07CE00040EA86FAA81020EAB6F12008F
:1007DA006D980001AABF49D09DAF28D0020E946F30
:1007EA00010E4824E16E000E4920E26EE66A48C016
:1007FA00E1FF49C0E2FFC80EE66E010E9725E16EE1
:10080A00000E9821E26E080EE66E020E9725E16E42
:10081A00000E9821E26E280EE66E040EE66E97C070
:10082A00E1FF98C0E2FFC80EE66E1ED0010E9725C2
:10083A00E16E000E9821E26E080EE66E020E972512
:10084A00E16E000E9821E26E200EE66E040EE66E50
:10085A0097C0E1FF98C0E2FF8C0EE66E48C0E1FF48
:10086A0049C0E2FF840EE66E82D09DBF80D00401AB
:10087A0020AF55D00001AC510401275D04E100010D
:10088A00AB510401265D04E226C4ABF027C4ACF0E8
:10089A0062DD010E946F010E9725E16E000E98211C
:1008AA00E26E080EE66E020E9725E16E000E9821A2
:1008BA00E26E200EE66E040EE66E97C0E1FF98C067
:1008CA00E2FF800EE66E936B010EA425E16E000E28
:1008DA00A521E26E080EE66E020EA425E16E000E58
:1008EA00A521E26E200EE66E040EE66EA4C0E1FFBC
:1008FA00A5C0E2FF840EE66E010E936F020E482435
:10090A00E16E000E4920E26E280EE66E040EE66ED7
:10091A0048C0E1FF49C0E2FFC80EE66E28D00001D8
:10092A00020E946F010E4824E16E000E4920E26E19
:10093A00E66A48C0E1FF49C0E2FFC80EE66E010E52
:10094A009725E16E000E9821E26E080EE66E020E01
:10095A009725E16E000E9821E26E280EE66E040ECF
:10096A00E66E97C0E1FF98C0E2FFC80EE66E12007D
:10097A000001946B48C0E1FF49C0E2FFE66A040E39
:10098A004818E16E49C0E2FF000EE21AE66A9DAF1E
:06099A0001D09D9F120038
:1009A00020C401F0600E0116050E006E005004E038
:1009B0000132019EFF0FFBD70150000A01E05ED01B
:1009C0003AD00001AA8F080E456E58D00ADE56D0E4
:1009D00086DE54D00001920EA76F000EA86FAA8188
:1009E000010EAB6FAA8F4AD08ADE48D00FDC46D00A
:1009F0009A0E006E000E016E040124510026D8B03C
:100A0000012A00C0A7F001C0A8F00001AA81010ED0
:100A1000AB6FAA8F33D00001AA8F9A0EE16E000E41
:100A2000E26E04012451E126D8B0E22A22C4E6FF96
:100A300025D024D023D004012151050AC2E0215140
:100A4000060AC4E02151090AC3E02151080AC2E0A4
:100A50002151000AC9E02151010AC8E02151030ACD
:100A6000C5E021510A0AC4E021510B0AD4E021510A
:0E0A7000070ADFE021510C0ADDE0DCD712009E
:100A7E00010E0001A425E96E000EA521EA6EEECF4F
:100A8E0000F000C002F0000E9F5D02E102509E5D7C
:100A9E0003E29EC002F00AD002509E5D006E000E70
:100AAE009F59016E00C09EF001C09FF0036A025074
:100ABE00035C1CE2280EE96E040EEA6E0350E92672
:100ACE00D8B0EA2AEECF00F09BC0E1FF9CC0E2FF57
:100ADE0000C0E6FF010E9B25006E000E9C21016EEC
:100AEE0000C09BF001C09CF0032AE1D7000E006EFF
:100AFE009F51005C02E19E51000828E2010E9725ED
:100B0E00E16E000E9821E26E080EE66E020E97253B
:100B1E00E16E000E9821E26E280EE66E040EE66E71
:100B2E00A4C0E9FFA5C0EAFFEECF00F000BC07D0DD
:100B3E0097C0E1FF98C0E2FFC80EE66E06D097C0E0
:100B4E00E1FF98C0E2FF880EE66E19D0010E9725E0
:100B5E00E16E000E9821E26E080EE66E020E9725EB
:100B6E00E16E000E9821E26E200EE66E040EE66E29
:100B7E0097C0E1FF98C0E2FF840EE66E9D9F1200C3
:0A0B8E000101185301E089DC120098
:0E0B9800160E6F6E9F0E6B6E3B0E696E120096
:100BA600020E0001AD6F1E0EAE6F000EAF6FAA0EE5
:100BB600B06F1E0EB16F000EB26F2B0EB36F1E0E0E
:100BC600B46F000EB56F9A0EB66F1E0EB76F000E9D
:040BD600B86F1200E2
:0A0BDA006984EF0E68166D821200A8
:100BE40070A019D0A4C0E9FFA5C0EAFFEECF01F0C0
:100BF4000150800A0FE148C0E9FF49C0EAFFEECF87
:100C040001F00150840A06E1A4C0E1FFA5C0E2FF9F
:0C0C14008C0EE66E7090DF0E6816120069
:100C200048C0E9FF49C0EAFFEECF00F000AE05D0B2
:100C300048C0E1FF49C0E2FFE66A0001966B946B91
:0E0C4000AB6BAC6BAA6BACDEA2DFC7DD1200A3
:100C4E00040E4818006E00C048F04550080A0AE12C
:100C5E0022C46EFF6E50000803E2100E456E02D0E5
:100C6E00040E456E00019451010A3BE1020E482428
:100C7E00E16E000E4920E26E280EE66E040EE66E60
:100C8E00B0EC01F09651020A07E148C0E1FF49C0FD
:100C9E00E2FF840EE66E24D0040E4818006E00C0EB
:100CAE0048F048C0E9FF49C0EAFFEECF00F000BCB3
:100CBE000CD0040E4818006E00C048F048C0E1FF8A
:100CCE0049C0E2FFC80EE66E0BD0040E4818006E47
:100CDE0000C048F048C0E1FF49C0E2FF880EE66E52
:060CEE0001D044DE1200FB
:100CF40000019451020A02E1C0DE1ED03CDE935191
:100D0400000A19E1010E9725E16E000E9821E26EAA
:100D1400080EE66E020E9725E16E000E9821E26E33
:100D2400200EE66E040EE66E97C0E1FF98C0E2FF67
:0A0D34008C0EE66E01D0936B1200E6
:040D3E00000012009F
:100D4200080E0C6E230E0D6E0D2EFED70C2EFCD748
:020D520012008D
:100D540028DF466A476A01010C6B0D6B6A6A686A90
:100D640019DF6D8C6E6A716A6D9C156B166B000EC3
:100D7400165D02E1080E155D17E215C100F016C1FB
:100D840001F0003600900136003600900136000E66
:100D94000024E16E040E0120E26EE66AE66AE66A69
:100DA400E66A154B162BE3D7160E706E68A603D0B1
:100DB400F70E6816FBD70001AA6B9D6B9E6B9F6BA9
:100DC4006D98080E486E040E496E926B456A1200C7
:040DD400A19A1200CE
:0C0DD800100E0D6E0D2EFED70000120054
:100DE4006D92699468A403D0FB0E6816FBD71200B9
:0A0DF400D08EA28AA08AF28E1200AF
:100DFE00880E006E1E0E016E000E026E0E0E002488
:100E0E00F66E000E0120F76E000E0220F86E09003D
:100E1E00F5CF03F003C004F00F0E0024F66E000EA3
:100E2E000120F76E000E0220F86E0900F5CF01F0DA
:100E3E000150035C12E2880E006E1E0E016E000E53
:100E4E00026E0F0E0024F66E000E0120F76E000EDD
:100E5E000220F86E0900F5CF04F0880E006E1E0E0B
:100E6E00016E000E026E100E0024F66E000E0120B2
:100E7E00F76E000E0220F86E0900F5CF01F001505A
:100E8E00045C12E2880E006E1E0E016E000E026EE3
:100E9E00100E0024F66E000E0120F76E000E0220DA
:0E0EAE00F86E0900F5CF04F004C000F0120049
:100EBC00010127BF02D0809001D0808027BD02D0D5
:100ECC00809201D0808227BB02D0809401D0808494
:100EDC0027B902D0809601D080860001C1B102D022
:100EEC00808A01D0809A808824DF8098010127B7FE
:100EFC0002D0809001D0808027B502D0809201D0A2
:100F0C00808227B302D0809401D0808427B102D094
:100F1C00809601D080860001C1B102D0808A01D0B8
:100F2C00809A808806DF8098C1A102D004DF01D0AE
:040F3C004DDF120073
:100F400001012A6B2B6B2C6B020E2725F66E000E0F
:100F50002821F76E000E2921F86E0900F5CF05F063
:100F6000030E2725F66E000E2821F76E000E2921AC
:100F7000F86E0900F5CF00F000C003F0000E046E1B
:100F800003C001F0006A05500024066E000E012027
:100F9000076E27C108F028C109F029C10AF0010E27
:100FA0000824F66E000E0920F76E000E0A20F86E77
:100FB0000900F5CF01F00150020A1BE1060E0824DA
:100FC000F66E000E0920F76E000E0A20F86E09007A
:100FD000F5CF01F001502A5D0CE2060E0824F66EF2
:100FE000000E0920F76E000E0A20F86E0900F5CFFA
:100FF0002AF1010E0824F66E000E0920F76E000E8D
:101000000A20F86E0900F5CF01F00150040A1BE137
:10101000080E0824F66E000E0920F76E000E0A2056
:10102000F86E0900F5CF01F001502A5D0CE2080EC0
:101030000824F66E000E0920F76E000E0A20F86EE6
:101040000900F5CF2AF108C0F6FF09C0F7FF0AC072
:10105000F8FF0900F5CF00F000502B25016E000EBF
:101060002C21026E01C02BF102C02CF10750025C52
:1010700002E10650015C01E30FD008C0F6FF09C091
:10108000F7FF0AC0F8FF0900F5CF00F0005008266E
:0E109000000E09220A2283D72AC100F01200A6
:10109E0001012851000A12E027C100F0000E016E76
:1010AE00003600900136480E0024E96E000E012035
:1010BE00EA6EEECF04F0EECF05F011D027C100F0AE
:1010CE00000E016E0036009001368D0E0024E96E82
:1010DE00000E0120EA6EEECF04F0EECF05F0020E08
:1010EE000424E16E000E0520E26E29C1E6FF2AC13E
:1010FE00E6FF010E0424E16E000E0520E26E2BC108
:10110E00E6FF04C0E9FF05C0EAFFEECF00F004C021
:10111E00E1FF05C0E2FF400E0014E66E04C0E9FFD9
:10112E0005C0EAFFEECF00F004C0E1FF05C0E2FF0C
:10113E00880E0010E66E2851000A1BE027C100F051
:10114E00000E016E003600900136480E0024026E2D
:10115E00000E0120036E02C0E9FF03C0EAFF040E79
:10116E00EE18006E02C0E1FF03C0E2FF00C0E6FF12
:10117E001AD027C100F0000E016E00360090013625
:10118E008D0E0024026E000E0120036E02C0E9FFD8
:10119E0003C0EAFF040EEE18006E02C0E1FF03C0AA
:1011AE00E2FF00C0E6FF04C000F005C001F012002F
:1011BE00000E0101281902E1000E271902E1016A51
:1011CE000AD027C1E9FF28C1EAFFEECF00F0000EDA
:0C11DE0000BE010E016E01C000F0120006
:1011EA004550000A09E16D6A696AD1DC6DB602D020
:1011FA006D86FCD7010E456E4550010A08E16DBAAD
:10120A0006D0686A696A69806988020E456E68A4B0
:10121A0005D069A403D0FB0E6816DFDD6DA202D0EB
:10122A00D4DDD8D068A018D069A016D08EDD040EFF
:10123A00456E200E0401026F040E036F080E016F43
:10124A00000E0015006E00C000F48C0E0011006E36
:10125A0000C000F4FE0E681668A805D069A803D07D
:10126A00B7DCEF0E681668AC04D069AC02D0BF0ECA
:10127A00681668AA03D069AA01D0AFDC68A202D0B6
:10128A0069B26A6A040E455C02E29FDDA3D069A6D0
:10129A00A0D00101286B040E285DD8B09AD068A6A8
:1012AA0094D06CCF10F1F70E6816780E1015016EF7
:1012BA000150000AD8A488D0FD0E1015016E026AEA
:1012CA00FF0E0216000E021802E1000E01186DE16F
:1012DA007E0E1015016E01C003F00332039E03C097
:1012EA0000F0000E016E00360090013600360090C4
:1012FA000136000E0024026E040E0120036E02C0A5
:10130A00A4F003C0A5F002C097F003C098F0040E41
:10131A0000019719006E00C097F002C0E9FF03C0F0
:10132A00EAFFEECF00F000C001F03C0E01160132D8
:10133A00019E0132019E01500D0A35E1020EA425DB
:10134A00E96E000EA521EA6EEECF01F0EECF02F0B3
:10135A000250040A02E1280E011823E1020EA42514
:10136A00E16E000EA521E26E200EE66E040EE66E18
:10137A000101276B080E275D14E2200EE16E040EB0
:10138A00E26E2751E126D8B0E22A280EE96E040E51
:10139A00EA6E2751E926D8B0EA2AEECFE6FF272BD4
:1013AA00E9D739DC01D0A1DC0ED0FD0E0101101500
:1013BA00016E026AFF0E0216000E021802E1040E06
:1013CA00011801E13FDC00D001D003D00101282B34
:0613DA0062D7FBDC1200EB
:0E13E0000001C19120C127F169DDC181120019
:1013EE00200E455C03E36DB201D002D0006A46D0F8
:1013FE000CC127F10DC128F1DBDE00523EE123C105
:10140E0027F1010E286F20C129F121C12AF122C135
:10141E002BF13EDE00C00CF101C00DF1116B126B11
:10142E00136B146B0CC127F10DC128F1C1DE0052F4
:10143E000FE0010E016E0150000A01E1CFDE010145
:10144E00115112111311141102E0006A17D0EAD7CC
:10145E000CC124F10DC125F1000E0D1902E1000E93
:10146E000C1909E0010E2425E96E000E2521EA6E05
:0E147E00EECF00F003D0006A01D0006A120029
:10148C004550000A0BE16D6A696ACCEC05F0ACDCE6
:0E149C006DB602D06D86FCD7010E456E1200B3
:0E14AA00ACB202D00000FCD720C1ADFF120092
:1014B800A2DC00C020F1020E0101276F1E0E286F6A
:1014C800000E296F39DD00C021F12051005C03E2D4
:0C14D80020C100F002D021C100F0120081
:1014E4000101266B200E455C03E36DB201D002D0EE
:1014F400006A2DD046C027F147C028F15EDE0052B5
:1015040025E146C024F147C025F1000E471802E149
:10151400000E46180AE0010E2425E96E000E25216E
:10152400EA6EEECF00F000C026F123C127F1286B4C
:1015340020C129F121C12AF122C12BF1AEDD00C065
:1015440046F001C047F026C100F001D0006A120045
:101554000900F5CFE6FF0006FBE10106F9E1120000
:10156400AECF01F0ABA202D0AB98AB8801C000F0C3
:02157400120063
:0A157600000E9EBA010E006E120076
:101580009298929A92969294929292908098809A3F
:101590008090809280948096A1EC06F0A1EC06F0F9
:1015A000A1EC06F08084808680889FEC06F080980D
:1015B000A1EC06F080889FEC06F08098A1EC06F084
:1015C00080889FEC06F08098A1EC06F080968088D9
:1015D0009FEC06F08098A1EC06F080889FEC06F066
:1015E00080988094808080889FEC06F08098A1ECA1
:1015F00006F08090808680889FEC06F08098809628
:1016000080889FEC06F08098A1EC06F080889FEC23
:1016100006F08098808680889FEC06F08098A1EC88
:1016200006F0809680889FEC06F08098808080820B
:101630008084808680889FEC06F08098A1EC06F07C
:061640000001C18112004F
:101646004550010A07E16DBA05D0686A6980698864
:10165600020E456E68A406D069A404D0FB0E681677
:10166600F2EC06F06DA203D0EAEC06F0E0D068A03A
:1016760019D069A017D0AAEC06F0040E456E200E0C
:101686000401026F040E036F080E016F000E0015B1
:10169600006E00C000F48C0E0011006E00C000F455
:1016A600FE0E681668A806D069A804D0EDEC05F011
:1016B600EF0E681668AC04D069AC02D0BF0E68168F
:1016C60068AA04D069AA02D0F2EC05F068A202D09A
:1016D60069B26A6A040E455C03E2EAEC06F0A7D03A
:1016E60069A6A3D001012E6B040E2E5DD8B09DD045
:1016F60068A697D06CCF10F1F70E6816780E101505
:10170600016E0150000AD8A48BD0FD0E1015016E93
:10171600026AFF0E0216000E021802E1000E011800
:101726006FE17E0E1015016E01C003F00332039EB9
:1017360003C000F0000E016E003600900136003640
:1017460000900136000E0024026E040E0120036E86
:1017560002C0A4F003C0A5F002C097F003C098F041
:10176600040E00019719006E00C097F002C0E9FF51
:1017760003C0EAFFEECF00F000C001F03C0E0116F8
:101786000132019E0132019E01500D0A36E1020E20
:10179600A425E96E000EA521EA6EEECF01F0EECF8C
:1017A60002F00250040A02E1280E011823E1020E9B
:1017B600A425E16E000EA521E26E200EE66E040E53
:1017C600E66E01012D6B080E2D5D14E2200EE16E12
:1017D600040EE26E2D51E126D8B0E22A280EE96EFB
:1017E600040EEA6E2D51E926D8B0EA2AEECFE6FFBE
:1017F6002D2BE9D710EC06F002D07AEC06F00FD0CC
:10180600FD0E01011015016E026AFF0E0216000E92
:10181600021802E1040E011802E127EC06F000D0DE
:1018260001D003D001012E2B5FD7EAEC06F012009F
:1018360010D0800E01011B6F1AD0C00E1B6F17D07F
:10184600940E1B6F14D0D40E1B6F11D0800E1B6F1D
:101856000ED001011B51010AECE01B51020AEDE01A
:101866001B51030AEDE01B51040AEDE0EFD71C05FE
:10187600006E1B51002600C01BF10001C18100C093
:1018860027F15EEC07F0C1911DC127F15EEC07F070
:04189600C1811200FA
:10189A0010D0800E01011B6F1AD0C00E1B6F17D01B
:1018AA00940E1B6F14D0D40E1B6F11D0800E1B6FB9
:1018BA000ED001011B51010AECE01B51020AEDE0B6
:1018CA001B51030AEDE01B51040AEDE0EFD71C059A
:1018DA00006E1B51002600C01BF100C027F15EEC10
:1018EA0007F0C19101011F6B1F511D25E96E000E02
:1018FA001E21EA6EEE520CE01F511D25E96E000E04
:10190A001E21EA6EEECF20F166DD01011F2BECD716
:06191A000001C181120072
:101920001BC120F11CC121F11DC122F1010E0101D9
:06193000236F5DDD1200D3
:08193600F086F28EF090120021
:10193E00830ED56E0B0ED76EDC0ED66EF28EF28A3D
:02194E00120085
:08195000F288F28EF2921200FF
:1019580043C020F144C021F1400E0101226F010E65
:06196800236FBCDD12003C
:10196E0001011E6B1BC1E9FF1CC1EAFFEECF1DF189
:10197E001D51000A0EE01DC120F190DD01011E2B4C
:10198E001E511B25E96E000E1C21EA6EEECF1DF1D5
:04199E00EFD712006D
:1019A200AA0E0001BD6F140EBE6F200EBF6F010E96
:1019B200C06F640EC66F150EC76F000EC86F000EA3
:1019C200C96F760EC26F150EC36F000EC46F000E84
:1019D200C56FFF0EB96FFF0EBA6F000EBB6F000E20
:1019E200BC6FAC8A900EAB6E948E949C9EAA03D070
:0819F200AECF00F0FBD712009C
:1019FA005EDD00C099F0010E186F1BC143F01CC1D7
:101A0A0044F01DC10EF11EC10FF1AAEC06F0010E41
:0C1A1A00016E0150010A01E134DD1200F0
:101A260057EC0FF00F0EC112070EB412926A936AAA
:101A3600946A956A806A816A826A836A9EDD010E6B
:101A460001011B6F010E1C6F290E1D6F000E1E6F0C
:101A560021DF060E0B6E130E0C6EAD0E0D6E0D2EE7
:101A6600FED70C2EFCD70B2EFAD700000000010E75
:101A76000101276F5EEC07F0B886B06A670EAF6E9D
:101A8600AC848CDF000E01011B6F050E1C6F400E2F
:101A96001D6F050E1E6FAEDF4FDF57DF49DF59DFC3
:101AA60000C091F00050000AD8B4C1D081B0BFD0B8
:101AB60081B2BDD04C6A000191514C5C14E2400EDB
:101AC600E16E050EE26E4C50E126D8B0E22A000E19
:101AD600E96E050EEA6E4C50E926D8B0EA2AEECF3A
:101AE600E6FF4C2AE8D7400E01011B6F050E1C6F5E
:101AF60091C01DF112DF005201E1F5D705014051F9
:101B0600310A29E182B027D082B225D082B423D00F
:101B1600010E4C6E000191514C5C17E24C04006EB4
:101B2600016A000E015A4D0E0024E16E000E0120DE
:101B3600E26E000EE96E050EEA6E4C50E926D8B04C
:101B4600EA2AEECFE6FF4C2AE5D74D0E01011B6FC0
:101B5600000E1C6F09DF05014051320A29E182A0FF
:101B660027D082B225D082B423D0010E4C6E00015C
:101B760091514C5C17E24C04006E016A000E015A4A
:101B8600CB0E0024E16E000E0120E26E000EE96E1F
:101B9600050EEA6E4C50E926D8B0EA2AEECFE6FFEB
:101BA6004C2AE5D7CB0E01011B6F000E1C6FDCDE45
:101BB60005014051350A3BE14151310A38E182B015
:101BC60036D082B234D082B432D04C6A030E4C5C2A
:101BD6002EE2820E0C6EDD0E0D6E0D2EFED70C2E35
:101BE600FCD700000000210E0101206F5BDC580EBF
:101BF6000101206F57DC0D0E0101206F53DC820EB0
:101C06000C6EDD0E0D6E0D2EFED70C2EFCD70000D1
:101C16000000210E0101206F45DC4F0E0101206FEF
:101C260041DC0D0E0101206F3DDC4C2ACFD73C5024
:101C3600010A03E1010E3A6E3C6A3B50010A12E1C9
:101C46003A50010A0FE1210E0101206F2BDC580EDC
:101C56000101206F27DC0D0E0101206F23DC3B6A9A
:101C6600010E3D6E81B004D03D50010A01E107D05E
:101C760081B204D03D50010A01E101D00ED0210EFF
:101C86000101206F0FDC4F0E0101206F0BDC0D0EE2
:101C96000101206F07DC3D6A3A6A4250010A54E1AD
:101CA60081B052D081B250D082908292829460DC10
:101CB60000521CE054DC00C00BF13EC01BF140C0DA
:101CC6001CF100C01DF1B4DD01010B51110A0CE13C
:101CD600010E276F5EEC07F0010E406E000E416E9E
:101CE600010E3E6E000E3F6E404A412A000E41181C
:101CF60002E1110E40180EE1000E3F1802E1010E3E
:101D06003E1808E1020E3E6E000E3F6E010E406E5A
:101D1600000E416E000E3F1802E1020E3E1814E15D
:101D2600000E411802E1110E40180EE1010E0101EC
:101D3600276F5EEC07F0010E406E000E416E010E3D
:101D46003E6E000E3F6E426A4250020A55E181B075
:101D560053D081B251D082808292829409DC0052A3
:101D66001DE0B2EC0AF000C0CAF03EC01BF140C054
:101D76001CF100C01DF15CDDCA51110A0DE1010E16
:101D86000101276F5EEC07F0010E406E000E416EFA
:101D9600010E3E6E000E3F6E404A412A000E41186B
:101DA60002E1110E40180EE1000E3F1802E1010E8D
:101DB6003E1808E1020E3E6E000E3F6E010E406EAA
:101DC600000E416E000E3F1802E1020E3E1814E1AD
:101DD600000E411802E1110E40180EE1010E01013C
:101DE600276F5EEC07F0010E406E000E416E010E8D
:0C1DF6003E6E000E3F6E426A52D6FFD7D0
:101EAE0010EE29F01A0E006E010E016E6E0EF66E19
:0E1EBE001E0EF76E000EF86EAAEC0AF012006F
:101E020009022900010100803209040000020300D6
:101E12000000092101010001222100070581034080
:091E220000010705010340000165
:101E2B0022034400750072006D0061007A002000EF
:101E3B00540065006B006E006F006C006F006A0051
:021E4B0069002C
:101E4D000600FF0901A10119012940150026FF0017
:101E5D007508954081021901294075089540910238
:011E6D00C0B4
:101E6E0047756C6D61792047656E2E2054657374CD
:011E7E000063
:011E7F000062
:011E80000061
:011E81000060
:011E8200005F
:021E830001005C
:021E850001005A
:011E8700005A
:101E880012010002000000083412010001000102E2
:021E9800000147
:101E9A001003530079006E00630042006F0078005F
:041EAA000403090420
:020000040030CA
:0E000000200C391EFF8381FF0FC00FE00F4060
:00000001FF
