:0200000058287E
:1000060083160313981809280000032883124F0843
:040016009900080045
:0E001A00831203134A088A0049088200080076
:100028008316031398169030831298008316871747
:10003800071383128C1E23281A08F0001D280800B5
:1000480083120313CE014C0884000008CD004D082C
:10005800003A031939284D08CF000320CE0A4E086C
:0C0068004C0784000008CD002B28080085
:100074000D208A110A128000840AC90A0319CA0AC7
:08008400F003031D3A280800F7
:0E008C000030831203138C1A0130F0000800BC
:10009A00831203131A08F100981C5528181218160F
:0600AA007108F0000800DF
:1000B000D220831603178801890103138801FF30BA
:1000C00083128800333083169900181514200230EB
:1000D000FB000430FC00BA30FD00FD0B6D28FC0B6A
:1000E0006D28FB0B6D280000462070080319A2281C
:1000F0004D207008CB007008413A031D892820303C
:10010000CC0024200D30CF0003200A30CF00032084
:10011000A0284B08423A031D97282B30CC002420FE
:100120000D30CF0003200A30CF000320A028363046
:10013000CC0024200D30CF0003200A30CF00032054
:080140004B0888007428A32875
:1001A40020308400293083120313F000A930C900E1
:0801B4000030CA003A200800E7
:1001520059346F34753420347434793470346534DE
:060162002034413400349A
:1001680059346F34753420347434793470346534C8
:0601780020344234003483
:10017E004934203464346F346E342734743420346C
:10018E0075346E346434653472347334743461345B
:06019E006E3464340034ED
:04400E00F22F000786
:00000001FF
