:0400000044EF00F0D9
:10000800F2A012D01580F29081AE02D0070E166EC3
:1000180081AC02D0060E166E81AA02D0050E166EAD
:0A00280081A802D0040E166E11002C
:10003200C30E0C6ECD0E0D6E0D2EFED70C2EFCD700
:020042001200AA
:10004400020E0B6E450E0C6EA90E0D6E0D2EFED714
:0E0054000C2EFCD70B2EFAD700000000120075
:1000620017C08CFFE5DF8C6AECDFEBDF17C08CFF7B
:10007200DFDF8C6AE6DFE5DF17C08CFFD9DF8C6A31
:06008200E0DFDFDF1200E9
:100088001590166A0F0EC16EFF0E936E8C6A956AF4
:10009800F286F290F28E15A024D015D0030E176EBA
:1000A800DCDF166A1DD00C0E176ED7DF166A18D063
:1000B800300E176ED2DF166A13D0C00E176ECDDF62
:1000C800166A0ED00DD01650040AE8E01650050A3C
:1000D800EAE01650060AECE01650070AEEE0F2D7FE
:0600E8001590D9D7FFD7E7
:020000040030CA
:0E000000000C1F1EFF8381FF0FC00FE00F409A
:00000001FF
