:1000000095EF00F00000000000EF00F0000000009D
:0A0010000000000000000000F3D71C
:0A001C00000EA4BA010E006E1200DF
:0E002600ACB202D00000FCD73DC0ADFF12000E
:1000340074CF01F071A202D07198718801C000F0F0
:020044001200A8
:100046000900F5CFE6FF0006FBE10106F9E1120023
:0C00560072B201D0FDD73DC073FF120054
:10006200560E216E000E226E3D0E236E000E246E81
:10007200340E156E000E166E000E176E000E186E00
:100082001C0E1D6E000E1E6E000E1F6E000E206EE8
:10009200FF0E196EFF0E1A6E000E1B6E000E1C6E06
:1000A200728A900E716E938E939CA4AA03D074CF21
:0600B20000F0FBD7120074
:1000B800260E216E000E226E3D0E236E000E246E5B
:1000C8000E0E156E010E166E000E176E000E186ECF
:1000D800200E1D6E010E1E6E000E1F6E000E206E8D
:1000E800FF0E196EFF0E1A6E000E1B6E000E1C6EB0
:1000F800AC8A900EAB6E948E949C9EAA03D0AECF21
:0601080000F0FBD712001D
:10010E00AECF01F0ABA202D0AB98AB8801C000F02D
:02011E001200CD
:0A012000000E9EBA010E006E1200E0
:10012A000F013A6BB886B06A670EAF6EAC84BFDF58
:10013A007086766A670E756E72848EDF82B02DD0F5
:10014A0082B22BD082B429D0E6DF005226E0396A87
:10015A00040E395C11E2250E3B6E000E3C6E3950DE
:10016A003B26D8B03C2ACEDF3BC0E1FF3CC0E2FFD1
:10017A0000C0E6FF392AECD7396A040E395C0DE271
:10018A00250EE96E000EEA6E3950E926D8B0EA2A41
:10019A00EECF3DF043DF392AF0D782A00DD082B2EC
:1001AA000BD082B409D035DF005206E03EDF00C032
:0C01BA003AF000C03DF04ADFC1D7FFD78B
:020000040030CA
:0D000100231F3CFFBF81FF0FC00FE00F4029
:00000001FF
