:100000009C0304000000000000000000000000004D
:1000100000000000000000000000000000000000E0
:1000200000000000000000000000000000000000D0
:1000300000000000000000000000000000000000C0
:1000400000000000000000000000000000000000B0
:100738000F032100F0FF270020A0B70010202000A1
:1007480032A0B700400020004420B7006A0402002D
:10075800000000008A1F78008B1F78008C1F78002B
:100768006004200046A7B7004427EF000E2EEF00D4
:100778001E2EEF002E2EEF003E2EEF004E2EEF0025
:100788006E2EEF00B5FF07001AC0B3007DFF07000B
:10079800CAC0B3007BFF07005C0221006B00200089
:1007A8001A00200041FF07001C0121006B002000F7
:1007B8002A0020003DFF0700C81A20000700240077
:1007C8000E20ED00FEFF3A001020ED00FCFF3A007D
:1007D8001AC0B3006BFF07000C0021001B002000AB
:1007E8001A00200031FF07009C0121005B00200057
:1007F8002A0020002DFF0700C81A20000700240047
:100808000E20ED00FEFF3A001020ED00FCFF3A003C
:10081800D10221000020EF0080487800D00221009A
:10082800104078006404E10007003100CAC1B30039
:1008380054FF07004AFF070011C0B300D00221008F
:1008480010C84000F5FF3700D10221000020EF005A
:1008580080487800D0022100104078006804E10048
:10086800070031008AC1B30046FF07003CFF0700BC
:1008780011C0B300D002210010C84000F5FF3700B6
:10088800D10221000020EF0080487800D00221002A
:10089800104078006804E10007003100CAC1B300C5
:1008A80038FF07002EFF070011C0B300D002210057
:1008B80010C84000F5FF3700E3FF37004F06780007
:0C08C800CF0578004F057800FFFF3700D7
:100664000000FA0082FF070081FF0700306EA90036
:10067400304EA900308EA90030AEA90030CEA900BA
:1006840030EEA900346EA900344EA90034EEA9005E
:1006940034CEA90034AEA900348EA90034AEA8002B
:1006A400348EA8007BFF07005AFF070079FF07007C
:1006B40058FF070077FF070056FF0700348EA90094
:1006C40074FF070053FF070072FF070034AEA90050
:1006D40034EEA8006FFF07004EFF070034EEA900B8
:1006E400348EA8006BFF0700348EA90069FF070051
:1006F40048FF070067FF0700348EA80065FF070066
:1007040044FF0700348EA90062FF070034EEA800FE
:1007140034CEA80034AEA800348EA8005DFF0700D4
:100724003CFF0700E00221001000A0000080FA0056
:0407340000000600BB
:100474002800200007582B000E20ED00FEFF3A0054
:100484001020ED00FCFF3A00000000000000000016
:04049400000006005E
:100498000000FA00346EA800D7FF0700346EA900E8
:0C04A800D5FF07000080FA0000000600ED
:10040000E70020000E20ED00FEFF3A000000000093
:080410000000000000000600DE
:100418002800200087CC22000E20ED00FEFF3A00C5
:100428001020ED00FCFF3A00000000000000000072
:0404380000000600BA
:10058C000000FA008A80FB0002E0AE0034EEA90005
:10059C0002E0AF0034EEA80002C0AE0034CEA900D9
:1005AC0002C0AF0034CEA80002A0AE0034AEA90049
:1005BC0002A0AF0034AEA8000280AE00348EA900B9
:1005CC000280AF00348EA800E00221001000A600CB
:1005DC00344EA8001000A700344EA900ABFF070052
:1005EC000260AE0034EEA9000260AF0034EEA80049
:1005FC000240AE0034CEA9000240AF0034CEA800B9
:10060C000220AE0034AEA9000220AF0034AEA80028
:10061C000200AE00348EA9000200AF00348EA80098
:10062C00E00221001000A600344EA8001000A70024
:10063C00344EA90095FF0700E00221001000A6002F
:10064C000200370071FF07000100370080FF070030
:08065C000080FA000000060016
:10045C00C72B20000E20ED00FEFF3A00000000002C
:08046C00000000000000060082
:1004B4000000FA008A1F78000A0037000A082000AA
:1004C400110037000A0C20000F0037004A092000F1
:1004D4000D0037004A0D20000B0037000A082000E9
:1004E400090037006150E100F4FF32006250E1007E
:1004F400F4FF32006350E100F4FF32006450E10085
:10050400F4FF3200F5FF370061805500000045001C
:1005140000057800004578001B000700E002210078
:100524001000A1000420EF00020046001004E000C7
:1005340007003200020046008A1F78001045780048
:10054400BDFF07004F0578000420EC00F6FF3700DC
:10055400E00221001000A0004F0578000080FA009E
:04056400000006008D
:10043C000000FA00E00221001000A10050000700AB
:10044C00E00221001000A0000080FA00000006006D
:00045C00A0
:10056800B8062000F7FF2C000E20ED00FEFF3A0031
:100578001020ED00FCFF3A00000000000000000021
:040588000000060069
:1008D400010021000000280015000900B01878006C
:0808E400B05878000000060086
:020000040001F9
:100000006D6900006B7200006F4500006C650000B8
:100010006B740000726F00006E6900006B6100007D
:1000200000650000786100006D7000006C650000E4
:100030000045000061730000796400007350000007
:100040004943000034410000004C0000636400009C
:0C00500034620000697400000000000031
:0200000401F009
:1C0008000300000087000000A70000007F0000003F000000D70000000300000013
:00000001FF
