:0400000066EF02F0B5
:1000080000C017F001C016F002C015F0E1CF1AF0D9
:10001800E2CF1BF0E9CF18F0EACF19F0320E4B6EA1
:10002800000E4C6E3DD817C000F016C001F015C088
:1000380002F018C0E9FF19C0EAFF1AC0E1FF1BC0AF
:04004800E2FF1100C2
:10004C00AECF01F0ABA202D0AB98AB8801C000F0F0
:02005C00120090
:0E005E00ACB202D00000FCD74AC0ADFF1200C9
:0A006C00000E9EBA010E006E120095
:0A007600000EACB2010E006E120085
:10008000F250026EF29E0500FF6A0150FE6E0050B3
:08009000FD6E02BEF28E1200AB
:100098000900F5CFE6FF0006FBE10106F9E11200D1
:1000A80028C000F029C001F0E7DF005201E11DD1AE
:1000B8002CC000F02DC001F0DFDF00C041F0FAD005
:1000C8004150960A03E1020E306E426A0ED141C0D9
:1000D80040F0030E306E060E4B24E16E000E4C20ED
:1000E800E26E41C0E6FF4150421AFFD0800E411433
:1000F800016E0150000A21E141AC0BD0060E4B24E1
:10010800E16E000E4C20E26E010E4018006E00C039
:10011800E6FF41C03DF04150421A030E4114016E02
:1001280001C03EF00150000A03E1050E306E04D014
:10013800010E3F6E040E306E0AD0050E4B24E16EA0
:10014800000E4C20E26EFF0EE66E010E306ECDD032
:100158004150A90A0BE1050E4B24E16E000E4C201C
:10016800E26EFF0EE66E010E306EBFD03F503E5C71
:10017800006E016A000E015A0050011011E03F04A0
:10018800006E016A000E015A00504B24E16E0150C6
:100198004C20E26E41C0E6FF4150421A3F2A11D07E
:1001A8003F04006E016A000E015A00504B24E16EB4
:1001B80001504C20E26E41C0E6FF050E306E415002
:1001C800421A93D0421C016E01C042F00150960AB7
:1001D80004E04250A90A01E001D0422A42504118E5
:1001E80003E1060E306E0AD0050E4B24E16E000EB8
:1001F8004C20E26EFF0EE66E010E306E76D0415056
:10020800A90A3FE1010E306E040E4B24E16E000E88
:100218004C20E26EFF0EE66E030E4B24E16E000EDC
:100228004C20E26E3EC0E6FF010E3F6E3F503E5C42
:1002380027E33FC001F0020E006E015004E00036D3
:100248000090FF0FFBD73D50001618E03F04006EEA
:10025800016A000E015A00504B24026E01504C20D6
:10026800036E02C0E9FF03C0EAFF010EEE18006E3C
:1002780002C0E1FF03C0E2FF00C0E6FF3F2AD6D775
:100288000AD0050E4B24E16E000E4C20E26EFF0EE4
:10029800E66E010E306E29D0050E4B24E16E000E7D
:1002A8004C20E26EFF0EE66E010E306E1ED0010E7F
:1002B800306E1BD03050010AD8B402D73050020A31
:1002C800D8B405D73050030AD8B410D73050040A30
:1002D800D8B43ED73050050AD8B474D73050060A7F
:0C02E8008EE03050070AD8E0E2D7120088
:1002F4005E0E246E000E256E4A0E266E000E276ECC
:100304004C0E2C6E000E2D6E000E2E6E000E2F6EF7
:100314006C0E286E000E296E000E2A6E000E2B6ED7
:10032400760E206E000E216E000E226E000E236EDD
:10033400AC8A900EAB6E948E949C9EAA03D0AECFE2
:0603440000F0FBD71200DF
:10034A00828445C049F026C0E1FF27C0E2FF960E2D
:10035A00E66E24C000F025C001F08DDE4650960AF4
:10036A0004E04650A90A01E002D04670458C26C036
:10037A00E1FF27C0E2FF46C0E6FF24C000F025C027
:10038A0001F079DE4906476A4750495C34E3475031
:10039A004324E96E000E4420EA6EEE50960A0AE003
:1003AA0047504324E96E000E4420EA6EEE50A90A33
:1003BA0001E01FD047504324016E000E4420026E14
:1003CA0001C0E9FF02C0EAFF010EEE18006E01C08B
:1003DA00E1FF02C0E2FF00C0E6FF47C001F0040EE1
:1003EA00006E015004E000360090FF0FFBD700506A
:1003FA004512472AC9D7800E4510006E00C045F045
:10040A0026C0E1FF27C0E2FF00C0E6FF24C000F0DB
:10041A0025C001F030DE46504518486E476A4750FD
:10042A00495C1DE347504324006E000E4420016ED0
:10043A0000C0D9FF01C0DAFFDE50481A26C0E1FF2A
:10044A0027C0E2FF00C0E9FF01C0EAFFEECFE6FFE6
:10045A0024C000F025C001F00EDE472AE0D7481C70
:10046A00016E01C048F00150960A04E04850A90AFA
:10047A0001E001D0482A26C0E1FF27C0E2FF48C0B8
:10048A00E6FF24C000F025C001F0F5DD26C0E1FF3B
:10049A0027C0E2FFA90EE66E24C000F025C001F0D5
:1004AA00EADD20C000F021C001F0E5DD0050000ABD
:0804BA0001E1F7D78294120062
:0A04C20094948294010E306E120033
:1004CC001C6A1D6A1E6A1F6A0F0EC16E070EB46E7F
:1004DC00816A826A836A936A946A956AB886B06AFA
:1004EC00670EAF6EAC8400DF820E0C6EDD0E0D6EEF
:1004FC000D2EFED70C2EFCD700000000DCDFAA0E60
:10050C00326EF00E336E0F0E346E366A376A386AFE
:10051C009D8A9D98F28CF28E010E316E315003083B
:10052C0023E38380410E0C6EEE0E0D6E0D2EFED766
:10053C000C2EFCD7000083908382410E0C6EEE0EC5
:10054C000D6E0D2EFED70C2EFCD7000083928384EB
:10055C00410E0C6EEE0E0D6E0D2EFED70C2EFCD732
:10056C0000008394312ADAD7030E0B6E8A0E0C6EC0
:10057C00550E0D6E0D2EFED70C2EFCD70B2EFAD76A
:10058C0000000000320E436E000E446E010E456EEC
:10059C00A00E466ED4DE010E1C26000E1D221E225D
:1005AC001F223752D8A48380365231E01C6A1D6A50
:1005BC001E6A1F6A366A35C03CF03104006E016A4F
:1005CC00000E015A320E0024E96E000E0120EA6E74
:1005DC00EECF81FF8382410E0C6EEE0E0D6E0D2E52
:1005EC00FED70C2EFCD700008392322A020E0C6E22
:1005FC004B0E0D6E0D2EFED70C2EFCD7320E436E0D
:10060C00000E446E010E456EA00E466E98DE800EF6
:10061C00000A006E800E1F18005C08E11E500108D5
:10062C0005E11D50860802E11C50A0082DE2010EC8
:10063C00316E315004081BE33104006E016A000E68
:10064C00015A320E0024E96E000E0120EA6EEECF44
:10065C0081FF8384820E0C6EDD0E0D6E0D2EFED787
:10066C000C2EFCD7000000008394312AE2D71C6AC0
:10067C001D6A1E6A1F6A320E436E000E446E010E16
:0C068C00456E320E466E5BDE86D7FFD74F
:020000040030CA
:0E000000000C1F1EFF8381FF0FC00FE00F409A
:00000001FF
