:0400000057EF01F0C5
:10000800F2A407D0F294D80ED76EF00ED66E154A29
:10001800162A9EA005D09E903C0ECF6EB00ECE6ED6
:100028009EB29E92A1A205D0A1923C0EB36EB00ED4
:10003800B26EF2A203D0010E176EF292F0A003D0B6
:0C004800010E296EF090F0B2F092110051
:0C005400100E0D6E0D2EFED700001200E5
:10006000080E0C6E230E0D6E0D2EFED70C2EFCD737
:0200700012007C
:040072000000120078
:1000760042BE02D0809001D0808042BC02D08092E5
:1000860001D0808242BA02D0809401D0808442B8E6
:1000960002D0809601D0808636B002D0808A01D008
:1000A600809A8088E3DF809842B602D0809001D0A3
:1000B600808042B402D0809201D0808242B202D0C7
:1000C600809401D0808442B002D0809601D0808690
:1000D60036B002D0808A01D0809A8088C7DF8098A7
:0C00E60036A002D0BADF01D0B2DF120059
:0C00F200369041C042F0BEDF36801200A4
:0800FE00F288F28EF29212006A
:0A010600000E9EBA010E006E1200FA
:10011000AECF01F0ABA202D0AB98AB8801C000F02B
:020120001200CB
:08012200F086F28EF09012004D
:10012A009298929A92969294929292908098809AA9
:10013A0080908092809480968EDF8DDF8CDF808421
:10014A008086808891DF809886DF80888DDF80981E
:10015A0082DF808889DF80987EDF8096808884DFCE
:10016A00809879DF808880DF80988094808080887A
:10017A007BDF809870DF80908086808875DF80982A
:10018A008096808871DF809866DF80886DDF80982E
:10019A008086808869DF80985EDF8096808864DF49
:1001AA008098808080828084808680885DDF8098C5
:0601BA0052DF3680120046
:1001C0000900F5CFE6FF0006FBE10106F9E11200A8
:0E01D000ACB202D00000FCD73CC0ADFF120064
:1001DE00D00E386E010E396E3C0E3A6E000E3B6E2E
:1001EE00100E326E010E336E000E346E000E356E32
:1001FE00060E2A6E010E2B6E000E2C6E000E2D6E4C
:10020E00FF0E2E6EFF0E2F6E000E306E000E316E34
:10021E00AC8A900EAB6E948E949C9EAA03D0AECFF9
:06022E0000F0FBD71200F6
:100234000FD0800E3C6E19D0C00E3C6E16D0940EBA
:100244003C6E13D0D40E3C6E10D0800E3C6E0DD09C
:100254003C50010AEEE03C50020AEEE03C50030A36
:10026400EEE03C50040AEEE0F0D73D04006E3C5052
:10027400002600C03CF000C042F0FBDE3690406A2D
:1002840040503E24E96E000E3F20EA6EEE520BE031
:1002940040503E24E96E000E3F20EA6EEECF41F05E
:0A02A40026DF402AEDD73680120055
:1002AE009EEC01F00F0EC112070EB412926A936A01
:1002BE00946A956A806A816A826A836A2FDF010E68
:1002CE003C6E010E3D6E180E3E6E000E3F6EABDFA5
:1002DE00060E0B6E130E0C6EAD0E0D6E0D2EFED7A2
:1002EE000C2EFCD70B2EFAD700000000010E426E2A
:1002FE00BBDEB886B06A670EAF6EAC8469DFF8DE1F
:10030E0009DFFADE005206E0FCDE00C037F000C066
:08031E003CF057DFF6D7FFD7D2
:10033C0010EE15F0150E006E010E016E260EF66E07
:0E034C00030EF76E000EF86EE0EC00F01200EB
:020326000000D5
:0103280000D4
:1003290047756C6D61792047656E2E20546573742D
:0103390000C3
:01033A0000C2
:020000040030CA
:0E000000000C1F1EFF8381FF0FC00FE00F409A
:00000001FF
