:020000040000FA
:060000005BEF3EF0120070
:060800005BEF3EF0120068
:060808007AEF31F012004E
:060818007AEF31F012003E
:06082A000100E47C000067
:0808300060000000330000002D
:08083800D9CFE6FFE1CFD9FFA3
:10084000FE0EDBCFE6FF040EE66E5DEC32F0E55205
:10085000E552010EE66E67EC3EF0E552E552E7CF59
:10086000D9FF1200D9CFE6FFE1CFD9FFFE0EDBCFD3
:10087000E6FF040EE66EE4EC32F0E552E552010EBE
:10088000E66E67EC3EF0E552E552E7CFD9FF120085
:10089000D9CFE6FFE1CFD9FFFB0EDBCFE6FF080E95
:1008A000E66E5DEC32F0E552E552FC0EDBCFE6FF82
:1008B000080EE66E5DEC32F0E552E552FD0EDBCF40
:1008C000E6FF080EE66E5DEC32F0E552E552010EF1
:1008D000E66E67EC3EF0E552E552E7CFD9FF120035
:1008E000D9CFE6FFE1CFD9FFFB0EDBCFE6FF080E45
:1008F000E66EE4EC32F0E552E552FC0EDBCFE6FFAB
:10090000080EE66EE4EC32F0E552E552FD0EDBCF68
:10091000E6FF080EE66EE4EC32F0E552E552010E19
:10092000E66E67EC3EF0E552E552E7CFD9FF1200E4
:10093000D9CFE6FFE1CFD9FF020EE1263FEC32F03E
:10094000080EE66E5DEC33F0E552080EE66E5DECE7
:1009500033F0E552DF6E080EE66E5DEC33F0E552E3
:10096000E76E010EE7CFDBFF4EEC32F0010EE66ED4
:1009700067EC3EF0E552DECF14F0DDCF15F014C089
:10098000F3FF15C0F4FFF56E020EE15C02E2E16ACE
:10099000E552E16EF550E552E7CFD9FF1200D9CF0D
:1009A000E6FFE1CFD9FF020EE1263FEC32F0080E60
:1009B000E66EA1EC33F0E552080EE66EA1EC33F0E2
:1009C000E552DF6E080EE66EA1EC33F0E552E76EFD
:1009D000010EE7CFDBFF4EEC32F0010EE66E67EC66
:1009E0003EF0E552DECF14F0DDCF15F014C0F3FF7A
:1009F00015C0F4FFF56E020EE15C02E2E16AE55219
:100A0000E16EF550E552E7CFD9FF1200D9CFE6FFEE
:100A1000E1CFD9FF040EE126D9CFE9FFDACFEAFF13
:100A2000FB0EDBCFEEFFFC0EDBCFEEFFFD0EDBCFD0
:100A3000EEFFFE0EDBCFEEFF0001920511E1E66A4C
:100A400011DFE552D9CFE9FFDACFEAFFEECFE6FFBB
:100A5000EECFE6FFEECFE6FFEFCFE6FF41DF10D0AF
:100A6000E66AEADEE552D9CFE9FFDACFEAFFEECF58
:100A7000E6FFEECFE6FFEECFE6FFEFCFE6FF08DFC3
:100A8000E552E552E552E552F56E040EE15C02E2F4
:100A9000E16AE552E16EF550E552E7CFD9FF120069
:100AA000E66AE66AE66AE66AB1DFE552E552E552D1
:100AB000E5521200E66A010EE66E040EE66EE66A84
:100AC000A5DFE552E552E552E5521200E66A020E54
:100AD000E66E040EE66EE66A99DFE552E552E552EF
:100AE000E5521200B60EE66E1B0EE66EBA0EE66E0C
:100AF000E66A8CDFE552E552E552E5521200B60E89
:100B0000E66E1B0EE66EBB0EE66EE66A7FDFE55212
:100B1000E552E552E5521200D9CFE6FFE1CFD9FF09
:100B2000FE0EDBCF14F0156A166A148A3C0E1512FD
:100B3000880E1612176A14C0E6FF15C0E6FF16C02D
:100B4000E6FF17C0E6FF62DFE552E552E552E552E7
:100B5000E552E7CFD9FF1200580EE66E050EE66E9D
:100B6000200EE66EE66A52DFE552E552E552E552A6
:100B7000380EE66E3B0EE66E880EE66EE66A46DFDF
:100B8000E552E552E552E552A90EE66E0A0EE66E12
:100B9000200EE66EE66A3ADFE552E552E552E5528E
:100BA000390EE66E3B0EE66E880EE66EE66A2EDFC6
:100BB000E552E552E552E5521200610EE66EE70E8F
:100BC000E66EA80EE66EE66A21DFE552E552E552D2
:100BD000E55266DF65DF020EE66EE66AE4EC2FF0B2
:100BE000E552E5525DDF5CDF610EE66EE70EE66E14
:100BF000A90EE66EE66A0ADFE552E552E552E552D5
:100C00004FDF50EF05F0D9CFE6FFE1CFD9FF020E5D
:100C1000E1260001920506E1010EE66E23DEE552B3
:100C2000BEDE05D0010EE66E07DEE55281DEF3CFB3
:100C3000DEFFF4CFDDFFDECF14F0DDCF15F014C002
:100C4000F3FF15C0F4FFF56E020EE15C02E2E16A0B
:100C5000E552E16EF550E552E7CFD9FF120020DFF3
:100C60001FDF28DF50EF05F0D9CFE6FFE1CFD9FF36
:100C7000020EE12609EC34F0F2DFF00EE66E0F0E04
:100C8000E66E200EE66EE66AC1DEE552E552E552FA
:100C9000E552900EE66E010EE66E880EE66EE66A8E
:100CA000B5DEE552E552E552E552E66A030EE66E20
:100CB000EB0EE66EE66AAADEE552E552E552E55233
:100CC000800EE66E030EE66EEB0EE66EE66A9EDEC4
:100CD000E552E552E552E552B60EE66E0B0EE66EB3
:100CE000BA0EE66EE66A92DEE552E552E552E5524C
:100CF000D7DED6DEE66A10DFE552D2DE84DFF3CF40
:100D0000DEFFF4CFDDFFCCDED5DECADEB60EE66E4A
:100D10000B0EE66EBA0EE66EE66A78DEE552E55236
:100D2000E552E552BDDEBCDEE66AF6DEE552B8DE2F
:100D30006ADFF3CFEDF1F4CFEEF1B2DEBBDEB0DE71
:100D4000BAEC34F0DECF14F0DDCF15F014C0F3FFB1
:100D500015C0F4FFF56E020EE15C02E2E16AE552B5
:100D6000E16EF550E552E7CFD9FF1200D9CFE6FF8B
:100D7000E1CFD9FF130EE126030EF36E080EF3CF79
:100D8000DBFF0101026B036B01013F0E006F4C0E94
:100D9000E96E010EEA6E01014851EE5C4951EE58D0
:100DA0004A51EE584B51EE5803E20001606B71D28C
:100DB0000001605106E109EC34F00001010E606FA2
:100DC0004EDF480EE96E010EEA6EEE5001014C5DF9
:100DD000146EEE504D59156EEE504E59166EEE5083
:100DE0004F59176E020E1426000E152216221722D6
:100DF000030E096E0A6A0B6A0C6A14C004F015C06F
:100E000005F016C006F017C007F0AAEC3DF000C0D0
:100E100014F001C015F002C016F003C017F0D8900E
:100E20001732163215321432090E14C0DBFF0A0EC7
:100E300015C0DBFF0B0E16C0DBFF0C0E17C0DBFF6F
:100E4000090EDBCF05F00A0EDBCF06F00B0EDBCF71
:100E500007F00C0EDBCF08F00834000E081809E686
:100E6000D8803C0E0554000E0654000E0754000EA8
:100E700008540CE23C0EF36E090EF3CFDBFF0A0EB2
:100E8000DB6A0B0EDB6A0C0EDB6A02D00001606BC2
:100E9000090EDBCF02F1030EF36E080EF3CFDBFF7A
:100EA000080EDB50330802E2000E01D0010E1C6E6A
:100EB000080EDBCF14F0156A166A176A030E186E57
:100EC000196A1A6A1B6AD950090FE96EDACFEAFF6C
:100ED000EE501826EE501922EE501A22EE501B2228
:100EE0001B501718E8AE02D0173408D01450185C05
:100EF0001550195816501A5817501B5802E2000E78
:100F000001D0010E1C1401E1BAD1000E48C1DFFF6F
:100F1000010E49C1DBFF020EDB6A030EDB6AD9CF8B
:100F2000E9FFDACFEAFF040EE76ED890EF36010E44
:100F3000EB36020EEB36030EEB36E706F6E1040E57
:100F40004AC1DBFF050EDB6A060EDB6A070EDB6AB1
:100F5000D950040FE96EDACFEAFF040EE76ED8909D
:100F6000EF36010EEB36020EEB36030EEB36E706DC
:100F7000F6E1040EDBCF14F0050EDBCF15F0060E04
:100F8000DBCF16F0070EDBCF17F0168A14C0E6FF92
:100F900015C0E6FF16C0E6FF17C0E6FF37DDE552D5
:100FA000E552E552E552900EE66E010EE66E880EB1
:100FB000E66EE66A2BDDE552E552E552E552D9CF01
:100FC000E9FFDACFEAFFEECF14F0EECF15F0EECF67
:100FD00016F0EFCF17F0060E1412168A14C0E6FFB3
:100FE00015C0E6FF16C0E6FF17C0E6FF0FDDE552AD
:100FF000E552E552E552800EE66E030EE66EEB0E0C
:10100000E66EE66A03DDE552E552E552E55248DD5B
:10101000960EE66E1B0EE66EBA0EE66EE66AF6DC1D
:10102000E552E552E552E5523BDD3ADDB60EE66E9D
:10103000DB0EE66EBA0EE66EE66AE8DCE552E552D5
:10104000E552E5522DDD2CDDD60EE66EDB0EE66EAA
:10105000BA0EE66EE66ADADCE552E552E552E55292
:101060001FDD1EDD3FDD1CDD1BDD960EE66E1B0E5B
:10107000E66EBA0EE66EE66AC9DCE552E552E55266
:10108000E5520EDD0DDDB60EE66EDB0EE66EBA0E37
:10109000E66EE66ABBDCE552E552E552E55200DD5C
:1010A000FFDCD60EE66EDB0EE66EBA0EE66EE66A84
:1010B000ADDCE552E552E552E552F2DCF1DC12DD41
:1010C000EFDCEEDCE66A28DDE552EADC9CDD0D0EA5
:1010D000F3CFDBFF0E0EF4CFDBFFE2DC010EE66E9A
:1010E0001BDDE552DDDC8FDD0F0EF3CFDBFF100ED5
:1010F000F4CFDBFFD5DC020EE66E0EDDE552D0DC70
:1011000082DD110EF3CFDBFF120EF4CFDBFFC8DC64
:10111000080EDB50EA6A010FE96E010EEA220D0E9D
:10112000DBCFEFFF080EDB2ADB50EA6A010FE96E26
:10113000010EEA220E0EDBCFEFFF080EDB2ADB509A
:10114000EA6A010FE96E010EEA220F0EDBCFEFFF14
:10115000080EDB2ADB50EA6A010FE96E010EEA2273
:10116000110EDBCFEFFF080EDB2ADB50EA6A010F1E
:10117000E96E010EEA22120EDBCFEFFF080EDB2A2A
:10118000DB50EA6A010FE96E010EEA22100EDBCF96
:10119000EFFF080EDB2A030EE66EBEDCE55280DCB4
:1011A00032DD0D0EF3CFDBFF0E0EF4CFDBFF78DC6C
:1011B000040EE66EB1DCE55273DC25DD0F0EF3CFD5
:1011C000DBFF100EF4CFDBFF6BDC050EE66EA4DC5C
:1011D000E55266DC18DD110EF3CFDBFF120EF4CF03
:1011E000DBFF5EDC080EDB50EA6A010FE96E010EE0
:1011F000EA220D0EDBCFEFFF080EDB2ADB50EA6A96
:10120000010FE96E010EEA220E0EDBCFEFFF080E92
:10121000DB2ADB50EA6A010FE96E010EEA220F0EAB
:10122000DBCFEFFF080EDB2ADB50EA6A010FE96E25
:10123000010EEA22110EDBCFEFFF080EDB2ADB5096
:10124000EA6A010FE96E010EEA22120EDBCFEFFF10
:10125000080EDB2ADB50EA6A010FE96E010EEA2272
:10126000100EDBCFEFFF080EDB2A24DC19DC080EA2
:1012700001014827000E49234A234B2311D60101BF
:10128000010E036F0001605104E10101036BBAEC30
:1012900034F0F56E130EE15C02E2E16AE552E16EB4
:1012A000F550E552E7CFD9FF1200D9CFE6FFE1CFE5
:1012B000D9FF0B0EE126030EDF6E0101026B036BFB
:1012C00001013F0E006F4C0EE96E010EEA6E010146
:1012D0004851EE5C4951EE584A51EE584B51EE5888
:1012E00003E20001616BABD10001615158E1050ED1
:1012F00048C1DBFF060E49C1DBFF070EDB6A080EA3
:10130000DB6AD950050FE96EDACFEAFF040EE76E0B
:10131000D890EF36010EEB36020EEB36030EEB36AD
:10132000E706F6E109EC34F00001010E616F97DC8D
:10133000F00EE66E070EE66E200EE66EE66A06EC2E
:1013400005F0E552E552E552E552900EE66E010ECB
:10135000E66E880EE66EE66A06EC05F0E552E552AA
:10136000E552E552050EDBCF14F0060EDBCF15F08B
:10137000070EDBCF16F0080EDBCF17F0060E1412A7
:10138000168A14C0E6FF15C0E6FF16C0E6FF17C0B8
:10139000E6FF06EC05F0E552E552E552E552480E4F
:1013A000E96E010EEA6EEE5001014C5D146EEE50D6
:1013B0004D59156EEE504E59166EEE504F59176E30
:1013C000142A000E152216221722010E14C0DBFF6C
:1013D000020E15C0DBFF030E16C0DBFF040E17C0A4
:1013E000DBFF010EDBCF05F0020EDBCF06F0030EB4
:1013F000DBCF07F0040EDBCF08F00834000E08182E
:1014000009E6D880380E0554000E0654000E075425
:10141000000E08540CE2380EF36E010EF3CFDBFF22
:10142000020EDB6A030EDB6A040EDB6A02D00001E7
:10143000616B010EDBCF02F1030EDF6EDF5033086C
:1014400002E2000E01D0010E1C6EDFCF14F0156A0F
:10145000166A176A030E186E196A1A6A1B6AD9503F
:10146000010FE96EDACFEAFFEE501826EE5019228E
:10147000EE501A22EE501B221B501718E8AE02D075
:10148000173408D01450185C1550195816501A58B3
:1014900017501B5802E2000E01D0010E1C1401E18E
:1014A000C4D0800EE66E030EE66EEB0EE66EE66AC4
:1014B00006EC05F0E552E552E552E55272EC05F016
:1014C00050EC05F050EC05F072EC05F050EC05F036
:1014D00050EC05F072EC05F050EC05F050EC05F026
:1014E00072EC05F050EC05F050EC05F0E66A8CEC7F
:1014F00005F0E55250EC05F003EC06F0090EF3CFD1
:10150000DBFF0A0EF4CFDBFFDF50EA6A010FE96E62
:10151000010EEA22090EDBCFEFFFDF2ADF50EA6A75
:10152000010FE96E010EEA220A0EDBCFEFFFDF2A80
:1015300050EC05F0010EE66E8CEC05F0E55250EC37
:1015400005F003EC06F0090EF3CFDBFF0A0EF4CF33
:10155000DBFFDF50EA6A010FE96E010EEA22090E95
:10156000DBCFEFFFDF2ADF50EA6A010FE96E010EE1
:10157000EA220A0EDBCFEFFFDF2A50EC05F0020E65
:10158000E66E8CEC05F0E55250EC05F003EC06F04D
:10159000090EF3CFDBFF0A0EF4CFDBFFDF50EA6A60
:1015A000010FE96E010EEA22090EDBCFEFFFDF2A01
:1015B000DF50EA6A010FE96E010EEA220A0EDBCF64
:1015C000EFFFDF2A50EC05F0030EE66E8CEC05F021
:1015D000E55250EC05F003EC06F0090EF3CFDBFF0B
:1015E0000A0EF4CFDBFFDF50EA6A010FE96E010E4D
:1015F000EA22090EDBCFEFFFDF2ADF50EA6A010F94
:10160000E96E010EEA220A0EDBCFEFFFDF2A50EC73
:1016100005F05AEC05F050EC05F0080E01014827E2
:10162000000E49234A234B2309D70101010E036F02
:101630000001615104E10101036BBAEC34F0F56E75
:101640000B0EE15C02E2E16AE552E16EF550E55213
:10165000E7CFD9FF1200B6EC06F00101530E016F7F
:101660001200D9CFE6FFE1CFD9FF030EE12609EC46
:1016700034F02FEC06F0800EE66E0F0EE66E200EB4
:10168000E66EE66A06EC05F0E552E552E552E552F3
:10169000900EE66E010EE66E880EE66EE66A06ECC9
:1016A00005F0E552E552E552E552E66A030EE66EB4
:1016B000EB0EE66EE66A06EC05F0E552E552E55201
:1016C000E552800EE66E030EE66EEB0EE66EE66AFF
:1016D00006EC05F0E552E552E552E552020EDB6AF2
:1016E000DBCF14F0070EE76E1418E8AE02D0E73433
:1016F00002D0E750145C61E2B60EE66E0B0EE66EA9
:10170000BA0EE66EE66A06EC05F0E552E552E552E1
:10171000E55250EC05F050EC05F0E66A8CEC05F073
:10172000E55250EC05F003EC06F0F3CFDEFFF4CF0A
:10173000DDFF020EDB50040DF350030FE96EEA6A81
:10174000E9BEEA68010EE926010EEA22DFCFEFFFCB
:10175000020EDB50040DF350040FE96EEA6AE9BE95
:10176000EA68010EE926010EEA22010EDBCFEFFF47
:10177000020EDB50040DF350050FE96EEA6AE9BE74
:10178000EA68010EE926010EEA22EF6A020EDB503A
:10179000040DF350060FE96EEA6AE9BEEA68010E2D
:1017A000E926010EEA22EF6A50EC05F05AEC05F04A
:1017B00050EC05F0020EDB2A93D7BAEC34F0020E9F
:1017C000DB50040DF3CF02F10101036B01013F0E69
:1017D000006FF56E030EE15C02E2E16AE552E16E34
:1017E000F550E552E7CFD9FF1200F7EF0BF009EC07
:1017F00034F02FEC06F0510E0001725D5CE18A0EB0
:10180000E66EE66A240EE66EE66A06EC05F0E55240
:10181000E552E552E5520A0EE66E3B0EE66E880E84
:10182000E66EE66A06EC05F0E552E552E552E55251
:10183000800EE66E0F0EE66E200EE66EE66A06EC91
:1018400005F0E552E552E552E552900EE66E010EC6
:10185000E66E880EE66EE66A06EC05F0E552E552A5
:10186000E552E552670EE66EE66A200EE66EE66A1F
:1018700006EC05F0E552E552E552E552E66A030E44
:10188000E66EEB0EE66EE66A06EC05F0E552E55212
:10189000E552E552860EE66E1B0EE66EBB0EE66E58
:1018A000E66A06EC05F0E552E552E552E552ACEC8D
:1018B00005F0DDEC05F0FA0EE66E070EE66E240E7E
:1018C000E66EE66A06EC05F0E552E552E552E552B1
:1018D0000A0EE66E3B0EE66E880EE66EE66A06ECD3
:1018E00005F0E552E552E552E552ACEC05F0DDECD1
:1018F00005F0BAEF34F000018751E96EEA6AD8903A
:10190000E936EA36500EE926010EEA22EECFE3F17F
:10191000EFCFE4F10101E56B0001872B8751E96E00
:10192000EA6AD890E936EA36500EE926010EEA2234
:10193000EECFE6F1EFCFE7F10101E86B0001872B75
:101940008751E96EEA6AD890E936EA36500EE92600
:10195000010EEA22EECFE9F1EFCFEAF10101EB6BE4
:101960000001872B8751E96EEA6AD890E936EA369A
:10197000500EE926010EEA22EECF14F014C015F045
:10198000146A166A14500101E6131550E713165035
:10199000E8130001872B120050EC05F0B60EE66E3E
:1019A0000B0EE66EBB0EE66EE66A06EC05F0E5523F
:1019B000E552E552E55250EC05F050EC05F0B60E5C
:1019C000E66EDB0EE66EBB0EE66EE66A06EC05F032
:1019D000E552E552E552E55250EC05F050EC05F0C9
:1019E000B60EE66EEB0EE66EBB0EE66EE66A06EC33
:1019F00005F0E552E552E552E55250EC05F050ECA9
:101A000005F07FEC05F050EF05F0D9CFE6FFE1CF10
:101A1000D9FF0A0EE126400EDF6E4C0EE96E010E74
:101A2000EA6E01014851EE5C4951EE584A51EE58B8
:101A30004B51EE5803E20001626B71D20101030EBB
:101A4000EC6F0001625168E1010E626F0001876B6B
:101A5000400E875D0EE28751E96EEA6AD890E9365A
:101A6000EA36500EE926010EEA22EE6AED6A872B6D
:101A7000EFD7876B09EC34F0DFCF14F0156A166AE4
:101A8000176A14AE03D015681668176848C104F0C9
:101A900049C105F04AC106F04BC107F014C009F076
:101AA00015C00AF016C00BF017C00CF00FEC3EF09A
:101AB00000500101485D0101D26F015001014959F7
:101AC0000101D36F025001014A590101D46F035043
:101AD00001014B590101D56FDFCF14F0156A166A69
:101AE000176A14AE03D015681668176848C104F069
:101AF00049C105F04AC106F04BC107F014C009F016
:101B000015C00AF016C00BF017C00CF00FEC3EF039
:101B100000C087F02FEC06F0D20EE96E010EEA6EDF
:101B2000EE5001014C5DEE504D59EE504E59EE50C5
:101B30004F5901E2DAD1030E010102250101EC5DEA
:101B400001E3D3D1DF500001875D37E2030E0101CD
:101B500002250101EC5D31E2EC29E96EEA6AE9BE99
:101B6000EA68010EE926010EEA22EF50176A176EA5
:101B7000166AECC1E9FFEA6AE9BEEA68010EE926E5
:101B8000010EEA22EF5000011624146E000E1720F9
:101B9000156E00018751E96EEA6AD890E936EA3697
:101BA000500EE926010EEA2214C0EEFF15C0EDFF2B
:101BB000872B020E0101EC27C5D7DF500001875D9E
:101BC00003E001010351A8E11A0EE66EE66A240E55
:101BD000E66EE66A06EC05F0E552E552E552E5529E
:101BE0000A0EE66E3B0EE66E880EE66EE66A06ECC0
:101BF00005F0E552E552E552E5520001876B010E12
:101C0000DB6ADBCF14F0070EE76E1418E8AE02D0E3
:101C1000143403D0E750D880145401E25BD1020E93
:101C2000D2C1DBFF030ED3C1DBFF040EDB6A050E5E
:101C3000DB6AD950020FE96EDACFEAFF040EE76ED5
:101C4000D890EF36010EEB36020EEB36030EEB3674
:101C5000E706F6E1060ED4C1DBFF070EDB6A080ECD
:101C6000DB6A090EDB6AD950060FE96EDACFEAFFAC
:101C7000040EE76ED890EF36010EEB36020EEB360F
:101C8000030EEB36E706F6E1060EDBCF14F0070E87
:101C9000DBCF15F0080EDBCF16F0090EDBCF17F007
:101CA000168A14C0E6FF15C0E6FF16C0E6FF17C08F
:101CB000E6FF06EC05F0E552E552E552E552900EDE
:101CC000E66E010EE66E880EE66EE66A06EC05F03C
:101CD000E552E552E552E552020EDBCF14F0030E59
:101CE000DBCF15F0040EDBCF16F0050EDBCF17F0BF
:101CF000070E1412168A14C0E6FF15C0E6FF16C0C0
:101D0000E6FF17C0E6FF06EC05F0E552E552E552A6
:101D1000E55250EC05F050EC05F0EDDD040E1F0B24
:101D2000E3C114F0E4C115F0E5C116F006E0D89067
:101D3000143615361636E806FAE1168A176A14C004
:101D4000E6FF15C0E6FF16C0E6FF17C0E6FF06EC8B
:101D500005F0E552E552E552E552040E1F0BE6C1CF
:101D600014F0E7C115F0E8C116F006E0D89014367B
:101D700015361636E806FAE11480168A176A14C07A
:101D8000E6FF15C0E6FF16C0E6FF17C0E6FF06EC4B
:101D900005F0E552E552E552E552040E1F0BE9C18C
:101DA00014F0EAC115F0EBC116F006E0D890143635
:101DB00015361636E806FAE11482168A176A14C038
:101DC000E6FF15C0E6FF16C0E6FF17C0E6FF06EC0B
:101DD00005F0E552E552E552E5528DDD040E1F0B8C
:101DE000E3C114F0E4C115F0E5C116F006E0D890A7
:101DF000143615361636E806FAE1030E1412168A62
:101E0000176A14C0E6FF15C0E6FF16C0E6FF17C04C
:101E1000E6FF06EC05F0E552E552E552E552040E08
:101E20001F0BE6C114F0E7C115F0E8C116F006E09B
:101E3000D890143615361636E806FAE11484168A58
:101E4000176A14C0E6FF15C0E6FF16C0E6FF17C00C
:101E5000E6FF06EC05F0E552E552E552E552040EC8
:101E60001F0BE9C114F0EAC115F0EBC116F006E052
:101E7000D890143615361636E806FAE1050E141217
:101E8000168A176A14C0E6FF15C0E6FF16C0E6FF03
:101E900017C0E6FF06EC05F0E552E552E552E552C3
:101EA000E66A030EE66EEB0EE66EE66A06EC05F0F9
:101EB000E552E552E552E5526FDD6EDD50EC05F07E
:101EC000080E0101D227000ED323D423D523010EFF
:101ED000DB2A97D6ACEC05F0DDEC05F05AEC05F00A
:101EE00050EC05F00001876B17D6D20EE96E010E9B
:101EF000EA6EEE5001014C5DEE504D59EE504E59D8
:101F0000EE504F5903E30101035102E10001626BFE
:101F10000001625102E1BAEC34F00101026BF56E8E
:101F20000A0EE15C02E2E16AE552E16EF550E5522B
:101F3000E7CFD9FF1200D9CFE6FFE1CFD9FF0C0ED2
:101F4000E126100EDF6E4C0EE96E010EEA6E010105
:101F50004851EE5C4951EE584A51EE584B51EE58FB
:101F600003E20001636BA2D20101030EEC6F0001DA
:101F7000635124E1010E636F0001876B400E875DA2
:101F80000EE28751E96EEA6AD890E936EA36500ED9
:101F9000E926010EEA22EE6AED6A872BEFD7876BFE
:101FA00009EC34F048C1DDF149C1DEF14AC1DFF18D
:101FB0004BC1E0F10001876B2FEC06F0DD0EE96EFE
:101FC000010EEA6EEE5001014C5DEE504D59EE509F
:101FD0004E59EE504F5901E24FD2030E0101022536
:101FE0000101EC5D01E348D2DF500001875D4CE266
:101FF000030E010102250101EC5D46E2EC29E96EC8
:10200000EA6AE9BEEA68010EE926010EEA22EF500B
:10201000E66E00018751E96EEA6AD890E936EA3641
:10202000500EE926010EEA22E552E750EE6EED6A07
:102030008751E96EEA6AD890E936EA36500EE92609
:10204000010EEA22EE50ED6EEF6AECC1E9FFEA6A9A
:10205000E9BEEA68010EE926010EEA22EF50146E8D
:10206000156A8751E96EEA6AD890E936EA36500E69
:10207000E926010EEA221450EE121550ED12872BBC
:10208000040E0101EC27B0D7DF500001875D03E0AB
:102090000101035193E15A0EE66EE66A240EE66EE4
:1020A000E66A06EC05F0E552E552E552E5520A0E05
:1020B000E66E3B0EE66E880EE66EE66A06EC05F00E
:1020C000E552E552E552E552060EDB6A070EDB6A81
:1020D000010EDB6ADBCF14F0030EE76E1418E8AED6
:1020E00002D0143403D0E750D880145401E2B9D19F
:1020F000020EDDC1DBFF030EDEC1DBFF040EDB6A77
:10210000050EDB6AD950020FE96EDACFEAFF040E42
:10211000E76ED890EF36010EEB36020EEB36030E6B
:10212000EB36E706F6E1F00EE66E070EE66E200EE1
:10213000E66EE66A06EC05F0E552E552E552E55238
:10214000900EE66E010EE66E880EE66EE66A06EC0E
:1021500005F0E552E552E552E552020EDBCF14F0F0
:10216000030EDBCF15F0040EDBCF16F0050EDBCF30
:1021700017F0070E1412168A14C0E6FF15C0E6FF0A
:1021800016C0E6FF17C0E6FF06EC05F0E552E55283
:10219000E552E552060EDBCFE9FF070EDBCFEAFF83
:1021A000010ED890E936EA36E806FBE1500EE92642
:1021B000010EEA22EECF14F0EFCF15F0080E14C096
:1021C000DBFF090E15C0DBFF0A0EDB6A0B0EDB6AB4
:1021D000040E186ED950080FE96EDACFEAFF1850D6
:1021E0001F0BEECF14F0EECF15F0EECF16F0EECFC2
:1021F00017F007E0D8901436153616361736E8066D
:10220000F9E1168A14C0E6FF15C0E6FF16C0E6FF26
:1022100017C0E6FF06EC05F0E552E552E552E5523F
:10222000010EE76E060EDBCFE9FF070EDBCFEAFFFC
:10223000E750E926000EEA22010ED890E936EA3688
:10224000E806FBE1500EE926010EEA22EECF14F07B
:10225000EFCF15F0080E14C0DBFF090E15C0DBFF31
:102260000A0EDB6A0B0EDB6A040E186ED950080FDB
:10227000E96EDACFEAFF18501F0BEECF14F0EECF65
:1022800015F0EECF16F0EECF17F007E0D890143629
:10229000153616361736E806F9E11480168A14C08A
:1022A000E6FF15C0E6FF16C0E6FF17C0E6FF06EC26
:1022B00005F0E552E552E552E552020EE76E060ED4
:1022C000DBCFE9FF070EDBCFEAFFE750E926000E80
:1022D000EA22010ED890E936EA36E806FBE1500E14
:1022E000E926010EEA22EECF14F0EFCF15F0080E2A
:1022F00014C0DBFF090E15C0DBFF0A0EDB6A0B0EF4
:10230000DB6A040E186ED950080FE96EDACFEAFFC7
:1023100018501F0BEECF14F0EECF15F0EECF16F0E5
:10232000EECF17F007E0D89014361536163617366C
:10233000E806F9E11482168A14C0E6FF15C0E6FF2C
:1023400016C0E6FF17C0E6FF06EC05F0E552E552C1
:10235000E552E552030EE76E060EDBCFE9FF070EEE
:10236000DBCFEAFFE750E926000EEA22010ED89003
:10237000E936EA36E806FBE1500EE926010EEA22CC
:10238000EECF14F0EFCF15F0080E14C0DBFF090EEE
:1023900015C0DBFF0A0EDB6A0B0EDB6A040E186E3B
:1023A000D950080FE96EDACFEAFF18501F0BEECFB5
:1023B00014F0EECF15F0EECF16F0EECF17F007E0E9
:1023C000D8901436153616361736E806F9E1030E9E
:1023D0001412168A14C0E6FF15C0E6FF16C0E6FF09
:1023E00017C0E6FF06EC05F0E552E552E552E5526E
:1023F000D950060FE96EDACFEAFF040EEE26000E82
:10240000ED22E66A030EE66EEB0EE66EE66A06EC79
:1024100005F0E552E552E552E55250EC05F07FEC4F
:1024200005F050EC05F050EC05F07FEC05F050ECB9
:1024300005F050EC05F07FEC05F050EC05F050ECA9
:1024400005F07FEC05F050EC05F050EC05F0080EBF
:102450000101DD27000EDE23DF23E023010EDB2A4E
:1024600039D6ACEC05F0DDEC05F05AEC05F050EC9B
:1024700005F00001876BA2D5DD0EE96E010EEA6E54
:10248000EE5001014C5DEE504D59EE504E59EE505C
:102490004F5903E30101035102E10001636B0001A5
:1024A000635102E1BAEC34F00101026BF56E0C0EDF
:1024B000E15C02E2E16AE552E16EF550E552E7CFF8
:1024C000D9FF120009EC34F02FEC06F02A0EE66E6C
:1024D000070EE66E240EE66EE66A06EC05F0E5529F
:1024E000E552E552E5520A0EE66E3B0EE66E880EA8
:1024F000E66EE66A06EC05F0E552E552E552E55275
:10250000ACEC05F0DDEC05F0BAEC34F005EC0DF0C8
:102510000101620E016F1200D9CFE6FFE1CFD9FFB2
:10252000050EE12609EC34F02FEC06F0070EE66EFE
:10253000E66A200EE66EE66A06EC05F0E552E55224
:10254000E552E552DF6ADFCF14F0070EE76E14188C
:10255000E8AE02D0E73402D0E750145C01E3FDD0CE
:102560008A0EE66EE66A240EE66EE66A06EC05F072
:10257000E552E552E552E5520A0EE66E3B0EE66E76
:10258000880EE66EE66A06EC05F0E552E552E55285
:10259000E552800EE66E0F0EE66E200EE66EE66ADF
:1025A00006EC05F0E552E552E552E552900EE66E76
:1025B000010EE66E880EE66EE66A06EC05F0E55260
:1025C000E552E552E552040EDF02F350040FE96EC6
:1025D000EA6AE9BEEA68010EE926010EEA22EFCFB7
:1025E00014F0010E14C0DBFF020EDB6A030EDB6A7F
:1025F000040EDB6AD950010FE96EDACFEAFFEF5023
:10260000EE6AEFCFF4FFEE6EEF50F4CFEEFFEF6E19
:10261000040EDF02F350030FE96EEA6AE9BEEA68CE
:10262000010EE926010EEA22EFCF14F0156A166AB0
:10263000176AD950010FE96EDACFEAFFEE50141293
:10264000EE501512EE501612EE501712010E14C075
:10265000DBFF020E15C0DBFF030E16C0DBFF040E0E
:1026600017C0DBFFD950010FE96EDACFEAFF040E85
:10267000E76ED890EF36010EEB36020EEB36030E06
:10268000EB36E706F6E1010EDBCF14F0020EDBCFEE
:1026900015F0030EDBCF16F0040EDBCF17F0168A11
:1026A00014C0E6FF15C0E6FF16C0E6FF17C0E6FF40
:1026B00006EC05F0E552E552E552E552E66A030EF6
:1026C000E66EEB0EE66EE66A06EC05F0E552E552C4
:1026D000E552E552960EE66E1B0EE66EBB0EE66EFA
:1026E000E66A06EC05F0E552E552E552E55250EC9B
:1026F00005F050EC05F0ACEC05F0610EE66EE70E6F
:10270000E66EA80EE66EE66A06EC05F0E552E552C6
:10271000E552E55250EC05F050EC05F07FC0E6FFC5
:1027200080C0E6FFA9EC2FF0E552E552610EE66E9F
:10273000E70EE66EA90EE66EE66A06EC05F0E552D7
:10274000E552E552E55250EC05F050EC05F05AEC3C
:1027500005F050EC05F0DF2AF6D6BAEC34F0F56E51
:10276000050EE15C02E2E16AE552E16EF550E552E8
:06277000E7CFD9FF1200C3
:0A2776000001920501E1120057EC8A
:1027800034F0E66A050EE66EE4EC32F0E552E5520E
:10279000010EE66E67EC3EF0E55266EC05F066EC85
:1027A00005F050EC05F050EC05F050EC05F066EC4F
:1027B00005F050EF05F0D9CFE6FFE1CFD9FF020ECB
:1027C000E126D9DFF00EE66E0F0EE66E200EE66E05
:1027D000E66A06EC05F0E552E552E552E552900E48
:1027E000E66E010EE66E880EE66EE66A06EC05F011
:1027F000E552E552E552E552060EE66EE66A200E17
:10280000E66EE66A06EC05F0E552E552E552E55261
:10281000470EE66E780EE66E200EE66EE66A06EC71
:1028200005F0E552E552E552E55250EC05F0B60EE2
:10283000E66E0B0EE66EBA0EE66EE66A06EC05F084
:10284000E552E552E552E55250EC05F050EC05F04A
:1028500003EC06F0F3CFDEFFF4CFDDFFB60EE66E3D
:102860000B0EE66EBA0EE66EE66A06EC05F0E55271
:10287000E552E552E55250EC05F050EC05F003EC62
:1028800006F0F3CFEDF1F4CFEEF1BAEC34F0DECF99
:1028900014F0DDCF15F014C0F3FF15C0F4FFF56E92
:1028A000020EE15C02E2E16AE552E16EF550E552AA
:1028B000E7CFD9FF1200D9CFE6FFE1CFD9FF110E44
:1028C000E126030EF36E080EF3CFDBFF0101026B6E
:1028D000036B01013F0E006F4C0EE96E010EEA6EB4
:1028E00001014851EE5C4951EE584A51EE584B51A6
:1028F000EE5803E20001606B62D20001605101E01A
:10290000ACD0010E606F000E48C1DFFF010E49C15F
:10291000DBFF020EDB6A030EDB6AD9CFE9FFDACFF9
:10292000EAFF040EE76ED890EF36010EEB36020E8A
:10293000EB36030EEB36E706F6E1040E4AC1DBFF89
:10294000050EDB6A060EDB6A070EDB6AD950040F40
:10295000E96EDACFEAFF040EE76ED890EF36010E8B
:10296000EB36020EEB36030EEB36E706F6E103DF3D
:10297000040EDBCF14F0050EDBCF15F0060EDBCF17
:1029800016F0070EDBCF17F0168A14C0E6FF15C04D
:10299000E6FF16C0E6FF17C0E6FF06EC05F0E552BD
:1029A000E552E552E552D950040FE96EDACFEAFF5D
:1029B000040EE76ED890030EEB32020EEB32010EDE
:1029C000EB32EF32E706F6E1900EE66E010EE66EB0
:1029D000880EE66EE66A06EC05F0E552E552E55231
:1029E000E552D9CFE9FFDACFEAFFEECF14F0EECF10
:1029F00015F0EECF16F0EFCF17F0060E1412168A70
:102A000014C0E6FF15C0E6FF16C0E6FF17C0E6FFDC
:102A100006EC05F0E552E552E552E552D9CFE9FF63
:102A2000DACFEAFF040EE76ED890030EEB32020E07
:102A3000EB32010EEB32EF32E706F6E1470EE66EBF
:102A4000780EE66E200EE66EE66A06EC05F0E552BC
:102A5000E552E552E55250EC05F0480EE96E010EE4
:102A6000EA6EEE5001014C5D146EEE504D59156E3C
:102A7000EE504E59166EEE504F59176E142A000E36
:102A8000152216221722030E096E0A6A0B6A0C6AB7
:102A900014C004F015C005F016C006F017C007F00A
:102AA000AAEC3DF000C014F001C015F002C016F011
:102AB00003C017F0D8901732163215321432090EAF
:102AC00014C0DBFF0A0E15C0DBFF0B0E16C0DBFFC8
:102AD0000C0E17C0DBFF090EDBCF05F00A0EDBCFB3
:102AE00006F00B0EDBCF07F00C0EDBCF08F008343E
:102AF000000E081809E6D8803C0E0554000E065456
:102B0000000E0754000E08540CE23C0EF36E090E42
:102B1000F3CFDBFF0A0EDB6A0B0EDB6A0C0EDB6AFF
:102B200002D00001606B090EDBCF02F1030EF36EE1
:102B3000080EF3CFDBFF080EDBCF14F0156A166A20
:102B4000176A090EDBCF18F00A0EDBCF19F00B0E57
:102B5000DBCF1AF00C0EDBCF1BF0030E1826000E95
:102B600019221A221B22030E185E000E195A1A5A35
:102B70001B5A1B501718E8AE02D0173408D0145057
:102B8000185C1550195816501A5817501B5801E266
:102B900004D1960EE66E0B0EE66EBA0EE66EE66A8F
:102BA00006EC05F0E552E552E552E55250EC05F031
:102BB00050EC05F003EC06F00D0EF3CFDBFF0E0E2C
:102BC000F4CFDBFFB60EE66E8B0EE66EBA0EE66E47
:102BD000E66A06EC05F0E552E552E552E55250ECA6
:102BE00005F050EC05F003EC06F00F0EF3CFDBFF21
:102BF000100EF4CFDBFF080EDB50EA6A010FE96E1E
:102C0000010EEA220D0EDBCFEFFF080EDB2ADB50B0
:102C1000EA6A010FE96E010EEA220E0EDBCFEFFF2A
:102C2000080EDB2ADB50EA6A010FE96E010EEA2288
:102C30000F0EDBCFEFFF080EDB2A020E0101482743
:102C4000000E49234A234B2348C1DFFF010E49C12F
:102C5000DBFF020EDB6A030EDB6AD9CFE9FFDACFB6
:102C6000EAFF040EE76ED890EF36010EEB36020E47
:102C7000EB36030EEB36E706F6E1040E4AC1DBFF46
:102C8000050EDB6A060EDB6A070EDB6AD950040FFD
:102C9000E96EDACFEAFF040EE76ED890EF36010E48
:102CA000EB36020EEB36030EEB36E706F6E1040ECA
:102CB000DBCF14F0050EDBCF15F0060EDBCF16F0E0
:102CC000070EDBCF17F0168A14C0E6FF15C0E6FF2B
:102CD00016C0E6FF17C0E6FF06EC05F0E552E55228
:102CE000E552E552D950040FE96EDACFEAFF040E3F
:102CF000E76ED890030EEB32020EEB32010EEB3290
:102D0000EF32E706F6E1900EE66E010EE66E880EF3
:102D1000E66EE66A06EC05F0E552E552E552E5524C
:102D2000D9CFE9FFDACFEAFFEECF14F0EECF15F0FE
:102D3000EECF16F0EFCF17F0060E1412168A14C05D
:102D4000E6FF15C0E6FF16C0E6FF17C0E6FF06EC7B
:102D500005F0E552E552E552E552D9CFE9FFDACF69
:102D6000EAFF040EE76ED890030EEB32020EEB3250
:102D7000010EEB32EF32E706F6E1470EE66E780E13
:102D8000E66E200EE66EE66A06EC05F0E552E552C8
:102D9000E552E55250EC05F0CED666EC05F050EC6D
:102DA00005F00101010E036F0001605108E166ECBE
:102DB00005F050EC05F00101036BBAEC34F0F56E50
:102DC000110EE15C02E2E16AE552E16EF550E55276
:102DD000E7CFD9FF12000101026B036B01013F0E27
:102DE000006F12000101486B496B4A694B6B01018E
:102DF000020E4C6F4D6B4E694F6B5BEF14F0D9CFE9
:102E0000E6FFE1CFD9FF030EE126B5DC800EE66ECA
:102E10000F0EE66E200EE66EE66A06EC05F0E55251
:102E2000E552E552E552900EE66E010EE66E880E12
:102E3000E66EE66A06EC05F0E552E552E552E5522B
:102E4000060EE66EE66A200EE66EE66A06EC05F011
:102E5000E552E552E552E552470EE66E780EE66E13
:102E6000200EE66EE66A06EC05F0E552E552E55204
:102E7000E55250EC05F0020EDB6ADBCF14F00B0ECE
:102E8000E76E1418E8AE02D0E73402D0E750145CC5
:102E900055E2B60EE66E0B0EE66EBA0EE66EE66A0A
:102EA00006EC05F0E552E552E552E55250EC05F02E
:102EB00050EC05F003EC06F0F3CFDEFFF4CFDDFFBE
:102EC000020EDB50040DF350030FE96EEA6AE9BE0F
:102ED000EA68010EE926010EEA22DFCFEFFF020EBB
:102EE000DB50040DF350040FE96EEA6AE9BEEA68AC
:102EF000010EE926010EEA22010EDBCFEFFF020EE2
:102F0000DB50040DF350050FE96EEA6AE9BEEA688A
:102F1000010EE926010EEA22EF6A020EDB50040DD3
:102F2000F350060FE96EEA6AE9BEEA68010EE92687
:102F3000010EEA22EF6A020EDB2A9FD766EC05F04B
:102F400050EC05F0BAEC34F0020EDB50040DF3CF78
:102F500002F10101036B01013F0E006FF56E030EDC
:102F6000E15C02E2E16AE552E16EF550E552E7CF3D
:102F7000D9FF1200D9CFE6FFE1CFD9FF0B0EE12632
:102F800048C1D2F149C1D3F14AC1D4F14BC1D5F105
:102F900048C1DFFF010E49C1DBFF020EDB6A030EF1
:102FA000DB6AD9CFE9FFDACFEAFF040EE76ED890EB
:102FB000EF36010EEB36020EEB36030EEB36E7066C
:102FC000F6E1040E4AC1DBFF050EDB6A060EDB6A82
:102FD000070EDB6AD950040FE96EDACFEAFF040E60
:102FE000E76ED890EF36010EEB36020EEB36030E8D
:102FF000EB36E706F6E1BBEC13F0040EDBCF14F082
:10300000050EDBCF15F0060EDBCF16F0070EDBCF7B
:1030100017F0168A14C0E6FF15C0E6FF16C0E6FFDB
:1030200017C0E6FF06EC05F0E552E552E552E55221
:10303000D950040FE96EDACFEAFF040EE76ED8909C
:10304000030EEB32020EEB32010EEB32EF32E706EB
:10305000F6E1900EE66E010EE66E880EE66EE66A0A
:1030600006EC05F0E552E552E552E552D9CFE9FF0D
:10307000DACFEAFFEECF14F0EECF15F0EECF16F078
:10308000EFCF17F0060E1412168A14C0E6FF15C013
:10309000E6FF16C0E6FF17C0E6FF06EC05F0E552B6
:1030A000E552E552E552D9CFE9FFDACFEAFF040E47
:1030B000E76ED890030EEB32020EEB32010EEB32CC
:1030C000EF32E706F6E1470EE66E780EE66E200E6A
:1030D000E66EE66A06EC05F0E552E552E552E55289
:1030E00050EC05F0080EDB6AD20EE96E010EEA6EB6
:1030F000EE5001014C5DEE504D59EE504E59EE50E0
:103100004F5952E3B60EE66E0B0EE66EBA0EE66E41
:10311000E66A06EC05F0E552E552E552E55250EC60
:1031200005F050EC05F003EC06F0090EF3CFDBFFE1
:103130000A0EF4CFDBFF080EDB50040DF350030F33
:10314000EA6A010FE96E010EEA22090EDBCFEFFFFA
:10315000080EDB50040DF350040FEA6A010FE96E0C
:10316000010EEA220A0EDBCFEFFF080EDB50040D42
:10317000F350050FEA6A010FE96E010EEA22EF6AC9
:10318000080EDB50040DF350060FEA6A010FE96EDA
:10319000010EEA22EF6A080EDB2A0101D22B000E93
:1031A000D323D423D523A0D766EC05F050EC05F04B
:1031B000BAEC34F0080EDB50040DF3CF02F101013C
:1031C000036B01013F0E006FF56E0B0EE15C02E236
:1031D000E16AE552E16EF550E552E7CFD9FF120002
:1031E0000101485109E1495107E1F80E4A1904E18A
:1031F0004B5102E1FFEF16F0BAEF17F000EF19F0B4
:10320000D9CFE6FFE1CFD9FF020EE126BBEC13F0E8
:10321000FA0EE66E040EE66E240EE66EE66A06EC24
:1032200005F0E552E552E552E5520A0EE66E3B0E18
:10323000E66E880EE66EE66A06EC05F0E552E552AB
:10324000E552E552610EE66EE70EE66EA80EE66EFA
:10325000E66A06EC05F0E552E552E552E55250EC1F
:1032600005F050EC05F0C80EE66EE66AE4EC2FF0CF
:10327000E552E552E66A3B0EE66E800EE66EE66AC1
:1032800006EC05F0E552E552E552E552200EE66EF9
:103290003C0EE66E880EE66EE66A06EC05F0E55238
:1032A000E552E552E55250EC05F003EC06F0F3CFA1
:1032B000DEFFF4CFDDFFD950010FE96EDACFEAFF70
:1032C000EF50800BD7E1BAEC34F0F56E020EE15C02
:1032D00002E2E16AE552E16EF550E552E7CFD9FF2F
:1032E0001200D9CFE6FFE1CFD9FF0C0EE126400E48
:1032F000DF6E0101600E016F4C0EE96E010EEA6E89
:1033000001014851EE5C4951EE584A51EE584B517B
:10331000EE5803E20001626BBCD20101030EEC6FB8
:103320000001625166E1010E626F0001876B400E81
:10333000875D0EE28751E96EEA6AD890E936EA368F
:10334000500EE926010EEA22EE6AED6A872BEFD7CE
:10335000876BBBEC13F0DFCF14F0156A166A176A9F
:1033600014AE03D015681668176848C104F049C147
:1033700005F04AC106F04BC107F014C009F015C0B2
:103380000AF016C00BF017C00CF00FEC3EF0005026
:103390000101485D0101D26F01500101495901014C
:1033A000D36F025001014A590101D46F035001014A
:1033B0004B590101D56FDFCF14F0156A166A176AF1
:1033C00014AE03D015681668176848C104F049C1E7
:1033D00005F04AC106F04BC107F014C009F015C052
:1033E0000AF016C00BF017C00CF00FEC3EF000C056
:1033F00087F0D20EE96E010EEA6EEE5001014C5DCF
:10340000EE504D59EE504E59EE504F5901E227D231
:10341000030E010102250101EC5D01E320D2DF5022
:103420000001875D37E2030E010102250101EC5D19
:1034300031E2EC29E96EEA6AE9BEEA68010EE926A2
:10344000010EEA22EF50176A176E166AECC1E9FF07
:10345000EA6AE9BEEA68010EE926010EEA22EF50A7
:1034600000011624146E000E1720156E00018751FE
:10347000E96EEA6AD890E936EA36500EE926010E7E
:10348000EA2214C0EEFF15C0EDFF872B020E0101EA
:10349000EC27C5D7DF500001875D03E00101035130
:1034A000A8E11A0EE66EE66A240EE66EE66A06ECFF
:1034B00005F0E552E552E552E5520A0EE66E3B0E86
:1034C000E66E880EE66EE66A06EC05F0E552E55219
:1034D000E552E5520001876B010EDB6ADBCF14F089
:1034E000070EE76E1418E8AE02D0143403D0E7508C
:1034F000D880145401E25BD1020ED2C1DBFF030E6F
:10350000D3C1DBFF040EDB6A050EDB6AD950020F64
:10351000E96EDACFEAFF040EE76ED890EF36010EBF
:10352000EB36020EEB36030EEB36E706F6E1060E3F
:10353000D4C1DBFF070EDB6A080EDB6A090EDB6A0B
:10354000D950060FE96EDACFEAFF040EE76ED89085
:10355000EF36010EEB36020EEB36030EEB36E706C6
:10356000F6E1060EDBCF14F0070EDBCF15F0080EE8
:10357000DBCF16F0090EDBCF17F0168A14C0E6FF7A
:1035800015C0E6FF16C0E6FF17C0E6FF06EC05F023
:10359000E552E552E552E552900EE66E010EE66EFA
:1035A000880EE66EE66A06EC05F0E552E552E55255
:1035B000E552020EDBCF14F0030EDBCF15F0040E44
:1035C000DBCF16F0050EDBCF17F0070E1412168AAC
:1035D00014C0E6FF15C0E6FF16C0E6FF17C0E6FF01
:1035E00006EC05F0E552E552E552E5527BEC0CF0B5
:1035F000040E1F0BE3C114F0E4C115F0E5C116F091
:1036000006E0D890143615361636E806FAE1168A22
:10361000176A14C0E6FF15C0E6FF16C0E6FF17C024
:10362000E6FF06EC05F0E552E552E552E552040EE0
:103630001F0BE6C114F0E7C115F0E8C116F006E073
:10364000D890143615361636E806FAE11480168A34
:10365000176A14C0E6FF15C0E6FF16C0E6FF17C0E4
:10366000E6FF06EC05F0E552E552E552E552040EA0
:103670001F0BE9C114F0EAC115F0EBC116F006E02A
:10368000D890143615361636E806FAE11482168AF2
:10369000176A14C0E6FF15C0E6FF16C0E6FF17C0A4
:1036A000E6FF06EC05F0E552E552E552E5527BEC0B
:1036B0000CF0040E1F0BE3C114F0E4C115F0E5C1DA
:1036C00016F006E0D890143615361636E806FAE1FC
:1036D000030E1412168A176A14C0E6FF15C0E6FF1F
:1036E00016C0E6FF17C0E6FF06EC05F0E552E5520E
:1036F000E552E552040E1F0BE6C114F0E7C115F0C8
:10370000E8C116F006E0D890143615361636E806ED
:10371000FAE11484168A176A14C0E6FF15C0E6FFA2
:1037200016C0E6FF17C0E6FF06EC05F0E552E552CD
:10373000E552E552040E1F0BE9C114F0EAC115F081
:10374000EBC116F006E0D890143615361636E806AA
:10375000FAE1050E1412168A176A14C0E6FF15C0A6
:10376000E6FF16C0E6FF17C0E6FF06EC05F0E552DF
:10377000E552E552E552E66A030EE66EEB0EE66EA2
:10378000E66A06EC05F0E552E552E552E552CCEC6E
:103790000CF0CCEC0CF050EC05F0080E0101D22737
:1037A000000ED323D423D523010EDB2A97D6D2C112
:1037B00014F0149E156A166A176A14501510161024
:1037C000171003E00101035147E1610EE66EE70EB9
:1037D000E66EA80EE66EE66A06EC05F0E552E552E6
:1037E000E552E55250EC05F050EC05F0020EE66EA5
:1037F000E66AE4EC2FF0E552E552E66A3B0EE66E2F
:10380000800EE66EE66A06EC05F0E552E552E552FA
:10381000E552200EE66E3C0EE66E880EE66EE66A17
:1038200006EC05F0E552E552E552E55250EC05F0A4
:1038300003EC06F00A0EF3CFDBFF0B0EF4CFDBFF39
:10384000D9500B0FE96EDACFEAFFEF50800BD5E1CC
:1038500066EC05F050EC05F00001876BCAD5D20E7E
:10386000E96E010EEA6EEE5001014C5DEE504D59CD
:10387000EE504E59EE504F5903E30101035102E15E
:103880000001626B0001625102E1BAEC34F0010107
:10389000026BF56E0C0EE15C02E2E16AE552E16E4C
:1038A000F550E552E7CFD9FF12000101026B036B1F
:1038B00001013F0E006F12000101026B036B010159
:1038C0003F0E006F1200D9CFE6FFE1CFD9FF020E05
:1038D000E126D950FB0FE96EFF0EDA20EA6E040EE6
:1038E000E76ED890EF36010EEB36020EEB36030E84
:1038F000EB36E706F6E1FB0EDBCF14F0FC0EDBCF78
:1039000015F0FD0EDBCF16F0FE0EDBCF17F0168A9A
:1039100014C0E6FF15C0E6FF16C0E6FF17C0E6FFBD
:1039200006EC05F0E552E552E552E552800EE66EF2
:103930001B0EE66EBB0EE66EE66A06EC05F0E5527F
:10394000E552E552E55250EC05F050EC05F0610E01
:10395000E66EE70EE66EA80EE66EE66A06EC05F089
:10396000E552E552E552E55250EC05F050EC05F019
:10397000190EE66EE66AE4EC2FF0E552E552E66ACF
:103980003B0EE66E800EE66EE66A06EC05F0E5524A
:10399000E552E552E552200EE66E3C0EE66E880ECC
:1039A000E66EE66A06EC05F0E552E552E552E552B0
:1039B00050EC05F003EC06F0F3CFDEFFF4CFDDFFB3
:1039C000D950010FE96EDACFEAFFEF50800BD7E153
:1039D00066EC05F050EC05F0F56E020EE15C02E2DB
:1039E000E16AE552E16EF550E552E7CFD9FF1200EA
:1039F000D9CFE6FFE1CFD9FF0F0EE126BBEC13F0E4
:103A000048C1D2F149C1D3F14AC1D4F14BC1D5F17A
:103A1000010E48C1DBFF020E49C1DBFF030EDB6A6A
:103A2000040EDB6AD950010FE96EDACFEAFF040E0B
:103A3000E76ED890EF36010EEB36020EEB36030E32
:103A4000EB36E706F6E1050ED4C1DBFF060EDB6AB6
:103A5000070EDB6A080EDB6AD950050FE96EDACF74
:103A6000EAFF040EE76ED890EF36010EEB36020E39
:103A7000EB36030EEB36E706F6E1010EDBCF14F072
:103A8000020EDBCF15F0030EDBCF16F0040EDBCFFA
:103A900017F0070E1412168A14C0E6FF15C0E6FFD1
:103AA00016C0E6FF17C0E6FF06EC05F0E552E5524A
:103AB000E552E5523A0EE66EE66A240EE66EE66AD6
:103AC00006EC05F0E552E552E552E5520A0EE66EC7
:103AD0003B0EE66E880EE66EE66A06EC05F0E552F1
:103AE000E552E552E552050EDBCF14F0060EDBCFB2
:103AF00015F0070EDBCF16F0080EDBCF17F0168A95
:103B000014C0E6FF15C0E6FF16C0E6FF17C0E6FFCB
:103B100006EC05F0E552E552E552E552900EE66EF0
:103B2000010EE66E880EE66EE66A06EC05F0E552DA
:103B3000E552E552E552DF6AD20EE96E010EEA6EF9
:103B4000EE5001014C5DEE504D59EE504E59EE5085
:103B50004F5901E2E8D0040EDF02F350040FE96E82
:103B6000EA6AE9BEEA68010EE926010EEA22EFCF11
:103B700014F0090E14C0DBFF0A0EDB6A0B0EDB6AC1
:103B80000C0EDB6A090EDBCF14F00A0EDBCF15F04A
:103B90000B0EDBCF16F00C0EDBCF17F0080E1F0B51
:103BA00007E0D8901436153616361736E806F9E1D0
:103BB000040EDF02F350030FE96EEA6AE9BEEA6819
:103BC000010EE926010EEA22EFCF18F0196A1A6AEF
:103BD0001B6A18501412195015121A5016121B5045
:103BE0001712090E14C0DBFF0A0E15C0DBFF0B0E07
:103BF00016C0DBFF0C0E17C0DBFFD950090FE96EB2
:103C0000DACFEAFF040EE76ED890EF36010EEB36FE
:103C1000020EEB36030EEB36E706F6E1090EDBCFBC
:103C200014F00A0EDBCF15F00B0EDBCF16F00C0EE6
:103C3000DBCF17F0060E1412168A14C0E6FF15C06B
:103C4000E6FF16C0E6FF17C0E6FF06EC05F0E552FA
:103C5000E552E552E55250EC05F0860EE66E1B0E7D
:103C6000E66EBB0EE66EE66A06EC05F0E552E5523E
:103C7000E552E55250EC05F050EC05F0610EE66EB1
:103C8000E70EE66EA80EE66EE66A06EC05F0E55273
:103C9000E552E552E55250EC05F050EC05F0190EF6
:103CA000E66EE66AE4EC2FF0E552E55266EC05F0CC
:103CB00050EC05F0020EE66E3B0EE66E800EE66EF0
:103CC000E66A06EC05F0E552E552E552E552220EB1
:103CD000E66E3C0EE66E880EE66EE66A06EC05F0D1
:103CE000E552E552E552E55250EC05F003EC06F0E2
:103CF0000D0EF3CFDBFF0E0EF4CFDBFFD9500E0F0E
:103D0000E96EDACFEAFFEF50800BD0E166EC05F008
:103D100050EC05F0020E0101D227000ED323D4236C
:103D2000D523DF2A09D7F56E0F0EE15C02E2E16AC6
:103D3000E552E16EF550E552E7CFD9FF1200D9CF39
:103D4000E6FFE1CFD9FF070EE126BBEC13F0070E2B
:103D5000E66EE66A200EE66EE66A06EC05F0E552CF
:103D6000E552E552E5520A0EE66EE66A240EE66E6C
:103D7000E66A06EC05F0E552E552E552E5520A0E18
:103D8000E66E3B0EE66E880EE66EE66A06EC05F021
:103D9000E552E552E552E552DF6ADFCF14F00B0E33
:103DA000E76E1418E8AE02D0E73402D0E750145C96
:103DB00045E2800EE66E0F0EE66E200EE66EE66AB7
:103DC00006EC05F0E552E552E552E552900EE66E3E
:103DD000010EE66E880EE66EE66A06EC05F0E55228
:103DE000E552E552E552040EDF02F350030FE96E8F
:103DF000EA6AE9BEEA68010EE926010EEA22EFCF7F
:103E000014F0010E14C0DBFF020EDB6A030EDB6A46
:103E1000040EDB6AD950010FE96EDACFEAFFEECF6C
:103E2000E6FFEECFE6FFEECFE6FFEFCFE6FF4BDD9E
:103E3000E552E552E552E552DF2AAFD7BAEC34F04D
:103E4000F56E070EE15C02E2E16AE552E16EF550C3
:103E5000E552E7CFD9FF12000101485109E149516C
:103E600007E1F80E4A1904E14B5102E19FEF1EF001
:043E7000F8EF1CF05B
:0C3E7400000EE66EE66AF4D8E552E55256
:103E80001200A60EE66E9C0EE66EECD8E552E552E8
:103E90001200A60EE66E8E0EE66EE4D8E552E552EE
:103EA0001200D9CFE6FFE1CFD9FF040EE126D9CF2A
:103EB000E9FFDACFEAFFFB0EDBCFEEFFFC0EDBCF34
:103EC000EEFFFD0EDBCFEEFFFE0EDBCFEEFF020EB0
:103ED000DB50146E156AE8500E0E151214C0E6FF82
:103EE00015C0E6FFBFD8E552E552F80EE66E6E0E3D
:103EF000E66EB8D8E552E552010EDB50146E156A35
:103F0000E8500E0E151214C0E6FF15C0E6FFAAD841
:103F1000E552E552F70EE66E6E0EE66EA3D8E55258
:103F2000E552DF50146E156AE8500E0E151214C0DB
:103F3000E6FF15C0E6FF96D8E552E552F60EE66EAE
:103F40006E0EE66E8FD8E552E552F56E040EE15C1A
:103F500002E2E16AE552E16EF550E552E7CFD9FFA2
:103F60001200D9CFE6FFE1CFD9FFFE0EDBCF14F070
:103F7000156A166A3C0E1612176A16BE176814C028
:103F8000E6FF15C0E6FF16C0E6FF17C0E6FF89DFB3
:103F9000E552E552E552E552E552E7CFD9FF12006E
:103FA000D9CFE6FFE1CFD9FFFE0EDBCFE6FF040E4F
:103FB000E66E5DEC32F0E552E552010EE66E67EC1E
:103FC0003EF0E552E552E7CFD9FF1200D9CFE6FF28
:103FD000E1CFD9FF020EE126FD0EDBCFDEFFDBCF06
:103FE000DDFFDFCFE6FF080EE66E5DEC32F0E55256
:103FF000E552010EDBCFE6FF080EE66E5DEC32F017
:10400000E552E552010EE66E67EC3EF0E552F56EC4
:10401000020EE15C02E2E16AE552E16EF550E55222
:10402000E7CFD9FF1200D9CFE6FFE1CFD9FFE652A3
:104030003FEC32F0080EE66E5DEC33F0E552080E10
:10404000E66E5DEC33F0E552DF6E4EEC32F0010EC1
:10405000E66E67EC3EF0E552DF50E552E552E7CF01
:10406000D9FF1200D9CFE6FFE1CFD9FFE66A98DF8A
:10407000E552FD0EDBCFE6FFFE0EDBCFE6FFA6DF4F
:10408000E552E552E552E7CFD9FF1200D9CFE6FF5E
:10409000E1CFD9FF0C0EE66E83DFE552FD0EDBCFDC
:1040A000E6FFFE0EDBCFE6FF91DFE552E552E5527B
:1040B000E7CFD9FF1200D9CFE6FFE1CFD9FF0D0E30
:1040C000E66E6EDFE552FD0EDBCFE6FFFE0EDBCFC8
:1040D000E6FF7CDFE552E552E552E7CFD9FF12005B
:1040E000D9CFE6FFE1CFD9FF0F0EE66E59DFE552DB
:1040F000FD0EDBCFE6FFFE0EDBCFE6FF67DFE5520E
:10410000E552E552E7CFD9FF1200D9CFE6FFE1CF64
:10411000D9FFE652BBEC31F0DF6ADFCF14F0030EBB
:10412000E76E1418E8AE02D0E73402D0E750145C12
:104130000DE2ACEC31F0010EE66EE66AA9EC2FF070
:10414000E552E5529DEC31F0DF2AE7D7ACEC31F0D7
:10415000FD0EDBCFE6FFFE0EDBCFE6FFA9EC2FF076
:10416000E552E5529DEC31F0000EE66EE66A2EDF78
:10417000E552E552E552E552E7CFD9FF1200D9CF1B
:10418000E6FFE1CFD9FF020EE12609EC34F0FE0E86
:10419000E66EE6683F0EE66EE66A83DEE552E552BD
:1041A000E552E552090EE66EFBDEE5523CDFDF6EBE
:1041B000090EE66EF5DEE55236DFE76E010EE7CF5B
:1041C000DBFFBAEC34F0DECF14F0DDCF15F014C015
:1041D000F3FF15C0F4FFF56E020EE15C02E2E16A46
:1041E000E552E16EF550E552E7CFD9FF1200D9CF85
:1041F000E6FFE1CFD9FF050EE126030EDF6E0101D8
:10420000026B036B01013F0E006F4C0EE96E010E55
:10421000EA6E01014851EE5C4951EE584A51EE58A0
:104220004B51EE5803E20001606BB1D000016051C8
:1042300012E109EC34F00001010E606F48C1E6FFA5
:1042400049C1E6FF4AC1E6FF4BC1E6FF2ADEE5525F
:10425000E552E552E552480EE96E010EEA6EEE5067
:1042600001014C5D146EEE504D59156EEE504E59D5
:10427000166EEE504F59176E142A000E1522162294
:104280001722010E14C0DBFF020E15C0DBFF030E68
:1042900016C0DBFF040E17C0DBFF010EDBCF05F0FD
:1042A000020EDBCF06F0030EDBCF07F0040EDBCFF0
:1042B00008F00834000E081809E6D8803C0E0554B2
:1042C000000E0654000E0754000E08540CE23C0E7B
:1042D000F36E010EF3CFDBFF020EDB6A030EDB6A27
:1042E000040EDB6A02D00001606B010EDBCF02F12D
:1042F000030EDF6EDFCF14F0156A166A176A010E1F
:10430000DBCF18F0020EDBCF19F0030EDBCF1AF073
:10431000040EDBCF1BF0030E1826000E19221A2202
:104320001B2217501B18E8AE02D01B3408D01850BF
:10433000145C195015581A5016581B50175811E292
:10434000090EE66E2DDEE5526EDEE66EDF50EA6A9D
:10435000010FE96E010EEA22E552E750EF6EDF2A07
:10436000C9D70101010E036FDB5001014827020E7E
:10437000DB504923030EDB504A23040EDB504B2352
:104380000001605104E10101036BBAEC34F0F56EF9
:10439000050EE15C02E2E16AE552E16EF550E5529C
:1043A000E7CFD9FF1200D9CFE6FFE1CFD9FF0D0E3D
:1043B000E126030EDF6E0101026B036B01013F0E6C
:1043C000006F4C0EE96E010EEA6E01014851EE5C81
:1043D0004951EE584A51EE584B51EE5803E2000154
:1043E000616B0BD1000161510DE109EC34F000016A
:1043F000010E616FA60EE66E9E0EE66E33DEE5528E
:10440000E5523FDD480EE96E010EEA6EEE50010105
:104410004C5D146EEE504D59156EEE504E59166EA1
:10442000EE504F59176E142A000E1522162217222D
:10443000010E14C0DBFF020E15C0DBFF030E16C019
:10444000DBFF040E17C0DBFF010EDBCF05F0020E11
:10445000DBCF06F0030EDBCF07F0040EDBCF08F056
:104460000834000E081809E6D8803C0E0554000EEA
:104470000654000E0754000E08540CE23C0EF36E76
:10448000010EF3CFDBFF020EDB6A030EDB6A040EC4
:10449000DB6A02D00001616B010EDBCF02F1030E7B
:1044A000DF6EDFCF14F0156A166A176A010EDBCFD4
:1044B00018F0020EDBCF19F0030EDBCF1AF0040E5A
:1044C000DBCF1BF0030E1826000E19221A221B2226
:1044D00017501B18E8AE02D01B3408D01850145CDB
:1044E000195015581A5016581B50175801E37BD015
:1044F000050E48C1DBFF060EDB6A070EDB6A080EFD
:10450000DB6A090E49C1DBFF0A0EDB6A0B0EDB6AB0
:104510000C0EDB6A050EDBCF14F0060EDBCF15F0B8
:10452000070EDBCF16F0080EDBCF17F00E0E1512BC
:1045300014C0E6FF15C0E6FF95DDE552E552A90E71
:10454000E66E6E0EE66E8EDDE552E552090EDBCFAD
:1045500014F00A0EDBCF15F00B0EDBCF16F00C0EAD
:10456000DBCF17F00E0E151214C0E6FF15C0E6FFE4
:1045700079DDE552E552AA0EE66E6E0EE66E72DD4C
:10458000E552E552A60EE66E800EE66E6BDDE55254
:10459000E552A80EE66E500EE66E64DDE552E55279
:1045A000F50EE66E6E0EE66E5DDDE552E5523D0EF1
:1045B0000001735D01E15EDC020EE66EF1DCE552A6
:1045C00032DDE66EDF50EA6A010FE96E010EEA2283
:1045D000E552E750EF6E0101482B000E49234A23B4
:1045E0004B23DF2A5ED70101010E036F00016151E9
:1045F00004E10101036BBAEC34F0F56E0D0EE15CE1
:1046000002E2E16AE552E16EF550E552E7CFD9FFEB
:1046100012000BEF23F0D9CFE6FFE1CFD9FFE6522E
:1046200009EC34F048C1E6FF49C1E6FF4AC1E6FFA4
:104630004BC1E6FF36DCE552E552E552E552DF6A52
:10464000DFCF14F0156A166A176A14AE03D0156826
:1046500016681768480EE96E010EEA6EEE50010109
:104660004C5D186EEE504D59196EEE504E591A6E43
:10467000EE504F591B6ED890183619361A361B3625
:104680001450185C1550195816501A5817501B58CA
:1046900015E3090EE66E84DCE552C5DCE66E030E1A
:1046A000DF24E96EEA6AE9BEEA68010EE926010E36
:1046B000EA22E552E750EF6EDF2AC2D7BAEC34F0B7
:1046C000DFCF02F10101036B01013F0E006FE552E4
:1046D000E552E7CFD9FF120009EC34F00001725126
:1046E000400A3EE07F0A28E0010A16E0030A03E0E0
:1046F000010A4BE109D049EC1FF0A60EE66E8C0EC4
:10470000E66EB0DCE552E552040EE66E2ADCE552B8
:10471000800EE66EE66A36D0050EE66E22DCE552C5
:104720003F0EE66EE66EB2DCE552E552040EE66E32
:1047300018DCE5528F0E24D0050EE66E12DCE55231
:104740000A0EE66E010EE66EA1DCE552E552040E9D
:10475000E66EB1EC1FF0E5528A0EE66E010E11D046
:10476000050EE66EB1EC1FF0E552E668E6688EDCF9
:10477000E552E552040EE66EB1EC1FF0E552870EED
:10478000E66EE66E83DCE552E5523AEC1FF0E66A2F
:10479000D0EC1FF0E55283C0E6FF84C0E6FFA9EC31
:1047A0002FF0E552E552000EE66EE66A0FDCE552A8
:1047B000E552BAEF34F06CEF23F0D9CFE6FFE1CF4A
:1047C000D9FF030EE12674C0DFFF4C0EE96E010E27
:1047D000EA6E01014851EE5C4951EE584A51EE58DB
:1047E0004B51EE5803E20001626B97D1030EF36E5A
:1047F000020EF3CFDBFF0001625101E0B0D0010EE9
:10480000626F0001876B400E875D09E28751EA6A9B
:10481000500FE96E010EEA22EF6A872BF4D7876BFF
:1048200009EC34F0DFCF14F0156A166A176A14AE7B
:1048300003D015681668176848C104F049C105F02F
:104840004AC106F04BC107F014C009F015C00AF0C8
:1048500016C00BF017C00CF00FEC3EF00050010139
:10486000485D0101D26F0150010149590101D36F27
:10487000025001014A590101D46F035001014B5903
:104880000101D56FDFCF14F0156A166A176A14AEEE
:1048900003D015681668176848C104F049C105F0CF
:1048A0004AC106F04BC107F014C009F015C00AF068
:1048B00016C00BF017C00CF00FEC3EF000C087F0F4
:1048C00000016D5102E13C0E6D6F09EC34F0000106
:1048D0006D51400A0AE07D0A08E0010A18E149EC3E
:1048E0001FF0A60EE66E8C0E0DD049EC1FF0A60E42
:1048F000E66E8C0EE66E32EC20F0E552E552A60E26
:10490000E66E840EE66E32EC20F0E552E552060EBD
:10491000E66EB1EC1FF0E552000EE66EE66A46EC7C
:1049200020F0E552E55200016D51400A14E07F0A83
:1049300012E0010A05E0030A0EE0010A10E10BD0C3
:1049400041EC1FF0A60EE66E840EE66E32EC20F00F
:10495000E552E55204D049EC1FF041EC1FF0D20EB5
:10496000E96E010EEA6EEE5001014C5DEE504D59BC
:10497000EE504E59EE504F5901E2B5D0030E0101F1
:104980000225F36E020EDBCFF4FFF350F45C01E37B
:10499000AAD0DF500001875D2BE2030E0101022542
:1049A000F36E020EDBCFF4FFF350F45C21E2020E53
:1049B000DBCFE9FFEA6AE9BEEA68010EE926010EEB
:1049C000EA22EF50E66E00018751EA6A500FE96E65
:1049D000010EEA22E552E750EF6E872B020E146EAD
:1049E000DBCFE7FFE850E726020EE7CFDBFFD1D7AA
:1049F000DF500001875D03E001010351B0E1D2C146
:104A0000E6FFD3C1E6FFD4C1E6FFD5C1E6FF51EC16
:104A10001FF0E552E552E552E5520001876BDF5089
:104A2000875D4BE2020EDF5C875D1DE28729EA6A43
:104A3000500FE96E010EEA22EF50176A176E166AE0
:104A40008751EA6A500FE96E010EEA22EF50000129
:104A50001624146E000E1720156E14C0E6FFE66EC5
:104A60005BEC20F024D08729EA6A500FE96E010E32
:104A7000EA22EF50176A176E166A8751EA6A500FDA
:104A8000E96E010EEA22EF5000011624146E000EAA
:104A90001720156E14C0E6FFE66E70EC20F0E552AC
:104AA000E55279C0E6FF7AC0E6FF85EC20F0E552DA
:104AB000E552020E00018727B2D7DFCF14F0156A46
:104AC000166A176A14AE03D0156816681768145072
:104AD0000101D2271550D3231650D4231750D523C4
:104AE0000001876B3CD7D20EE96E010EEA6EEE50E4
:104AF00001014C5DEE504D59EE504E59EE504F595C
:104B000003E30101035102E10001626B0001625104
:104B100002E1BAEC34F00101026BF56E030EE15CC8
:104B200002E2E16AE552E16EF550E552E7CFD9FFC6
:104B30001200D9CFE6FFE1CFD9FF030EE126010134
:104B4000DD51146E156A0E0E1512DDC1E6FF15C09B
:104B5000E6FF32EC20F0E552E552A90EE66E6E0E4D
:104B6000E66E32EC20F0E552E5520101DE51146EA2
:104B7000156A14500E0E1512DEC1E6FF15C0E6FFD1
:104B800032EC20F0E552E552AA0EE66E6E0EE66EAD
:104B900032EC20F0E552E552FE0EDB50146E156A41
:104BA000E8500E0E151214C0E6FF15C0E6FF32ECF9
:104BB00020F0E552E552A80EE66E6E0EE66E32EC7F
:104BC00020F0E552E552A60EE66E840EE66E32EC5B
:104BD00020F0E552E552550EE66E0E0EE66E32EC12
:104BE00020F0E552E552A70EE66E6E0EE66E32EC50
:104BF00020F0E552E552AA0EE66E0E0EE66E32EC9D
:104C000020F0E552E552A70EE66E6E0EE66E32EC2F
:104C100020F0E552E552A60EE66E820EE66E32EC0C
:104C200020F0E552E5520A0EDF6E010EE66EE66AEE
:104C3000E4EC2FF0E552E552DF06A60EE66E500ECC
:104C4000E66E32EC20F0E552E552F50EE66E6E0EA1
:104C5000E66E32EC20F0E552E552020EE66ED0EC44
:104C60001FF0E55213EC20F0E66ED950010FE96E0B
:104C7000DACFEAFFE552E750EE6EED6ADFCF14F0CF
:104C8000000EE76E1418E8AE02D0143403D0E750DB
:104C9000D880145410E2020EE76E010EDBCF15F03F
:104CA000020EDBCF16F0E7501516166A020E151825
:104CB00001E11650BAE0640EE66EE66AA9EC2FF048
:104CC000E552E552A60EE66E940EE66E32EC20F04A
:104CD000E552E552F56E030EE15C02E2E16AE5524F
:104CE000E16EF550E552E7CFD9FF1200D9CFE6FFCC
:104CF000E1CFD9FF030EE1260101DD51146E156AE3
:104D00000E0E1512DDC1E6FF15C0E6FF32EC20F0F5
:104D1000E552E552A90EE66E6E0EE66E32EC20F01C
:104D2000E552E5520101DE51146E156A14500E0E63
:104D30001512DEC1E6FF15C0E6FF32EC20F0E552A9
:104D4000E552AA0EE66E6E0EE66E32EC20F0E552EB
:104D5000E552FE0EDB50146E156AE8500E0E151269
:104D600014C0E6FF15C0E6FF32EC20F0E552E55234
:104D7000A80EE66E6E0EE66E32EC20F0E552E552BD
:104D8000A60EE66E840EE66E32EC20F0E552E55299
:104D9000A60EE66E820EE66E32EC20F0E552E5528B
:104DA0000A0EDF6E010EE66EE66AE4EC2FF0E552C5
:104DB000E552DF06A60EE66E500EE66E32EC20F0EF
:104DC000E552E552F50EE66E6E0EE66E32EC20F020
:104DD000E552E5523AEC1FF0020EE66ED0EC1FF001
:104DE000E55213EC20F0E66ED950010FE96EDACFF0
:104DF000EAFFE552E750EE6EED6ADFCF14F0000EE9
:104E0000E76E1418E8AE02D0143403D0E750D8800F
:104E1000145410E2020EE76E010EDBCF15F0020E05
:104E2000DBCF16F0E7501516166A020E151801E1D1
:104E30001650B8E0640EE66EE66AA9EC2FF0E55273
:104E4000E552A60EE66E940EE66E32EC20F0E552C8
:104E5000E552F56E030EE15C02E2E16AE552E16EB5
:104E6000F550E552E7CFD9FF1200D9CFE6FFE1CFE9
:104E7000D9FF0101DD51146E156A0E0E1512DDC148
:104E8000E6FF15C0E6FF32EC20F0E552E552A90E30
:104E9000E66E6E0EE66E32EC20F0E552E552FE0E46
:104EA000DB50146E156AE8500E0E151214C0E6FFA2
:104EB00015C0E6FF32EC20F0E552E552A80EE66E92
:104EC0006E0EE66E32EC20F0E552E552A60EE66E6E
:104ED000840EE66E32EC20F0E552E552550EE66E99
:104EE0000E0EE66E32EC20F0E552E552A70EE66EAD
:104EF0006E0EE66E32EC20F0E552E552AA0EE66E3A
:104F00000E0EE66E32EC20F0E552E552A70EE66E8C
:104F10006E0EE66E32EC20F0E552E552A60EE66E1D
:104F2000820EE66E32EC20F0E552E5523AEC1FF0CC
:104F3000E66AD0EC1FF0E5527DC0E6FF7EC0E6FFDA
:104F4000A9EC2FF0E552E552000EE66EE66AE6ECBB
:104F50001FF0E552E552640EE66EE66AA9EC2FF00A
:104F6000E552E552A60EE66E940EE66E32EC20F0A7
:104F7000E552E552E552E7CFD9FF1200D9CFE6FF5F
:104F8000E1CFD9FF020EE1264C0EE96E010EEA6E6A
:104F900001014851EE5C4951EE584A51EE584B51CF
:104FA000EE5803E20001636B84D0DE52030EDD6E27
:104FB000000163511CE100016E5102E13C0E6E6F75
:104FC00009EC34F00001010E636F48C1DDF149C105
:104FD000DEF14AC1DFF14BC1E0F1A60EE66E9E0E96
:104FE000E66E32EC20F0E552E55241EC1FF0DD0EAA
:104FF000E96E010EEA6EEE5001014C5DEE504D5926
:10500000EE504E59EE504F593CE3030E010102257C
:10501000F36E010EDBCFF4FFF350F45C32E2010ECD
:10502000DBCFE9FFEA6AE9BEEA68010EE926010E74
:10503000EA22EFCFDFFF00016E513E0A09E0030ACA
:1050400003E0010A09E108D0DFCFE6FF0EDF07D059
:10505000DFCFE6FF6EDD03D0DFCFE6FF47DEE552B0
:10506000020E146E010EDBCFE7FF1450E726010E8F
:10507000E7CFDBFF0101DD2B000EDE23DF23E02382
:10508000B6D7DD0EE96E010EEA6EEE5001014C5D01
:10509000EE504D59EE504E59EE504F5903E3010179
:1050A000035102E10001636B0001635102E1BAECBC
:1050B00034F0F56E020EE15C02E2E16AE552E16E67
:1050C000F550E552E7CFD9FF120000016F5102E120
:1050D0003C0E6F6F09EC34F00001000ED8806B5568
:1050E000000E6C5516E249EC1FF0A60EE66E8C0E13
:1050F000E66E32EC20F0E552E552060EE66EB1ECBB
:105100001FF0E552000EE66EE66A46EC20F0E5522E
:10511000E55200016F513E0A09E0030A02E0010A6C
:105120000FE149EC1FF041EC1FF00AD041EC1FF0F9
:10513000A60EE66E840EE66E32EC20F0E552E552E5
:1051400048C1E6FF49C1E6FF4AC1E6FF4BC1E6FFA1
:1051500051EC1FF0E552E552E552E55201010551CF
:10516000176A05C117F0166A045100011624146E5F
:10517000000E1720156E14C0E6FFE66E5BEC20F003
:10518000E552E55201010751176A07C117F0166A87
:10519000065100011624146E000E1720156E14C05F
:1051A000E6FFE66E5BEC20F0E552E55201010951A5
:1051B000176A09C117F0166A085100011624146E07
:1051C000000E1720156E14C0E6FFE66E5BEC20F0B3
:1051D000E552E55201010B51176A0BC117F0166A2F
:1051E0000A5100011624146E000E1720156E14C00B
:1051F000E6FFE66E70EC20F0E552E55281C0E6FF76
:1052000082C0E6FF85EC20F0E552E552BAEF34F0BB
:10521000D9CFE6FFE1CFD9FFFD0EDBCFE6FFFE0ED3
:10522000DBCFE6FF70EC20F0E552E5527FC0E6FFF1
:1052300080C0E6FF85EC20F0E552E5523F0E00010C
:10524000705D08E13AEC1FF03AEC1FF03AEC1FF009
:105250003AEC1FF0DBC1E6FFDCC1E6FF32EC20F0E8
:10526000E552E552F60EE66E6E0EE66E32EC20F07A
:10527000E552E5520101DB2B000EDC23E552E7CFBE
:10528000D9FF12000001705102E13C0E706F09EC71
:1052900034F0000170513F0A15E0010A07E0030AEB
:1052A00011E0010A27E149EC1FF008D0A60EE66ED6
:1052B000840EE66E32EC20F0E552E552A60EE66E64
:1052C0008C0E13D049EC1FF0A60EE66E8C0EE66E27
:1052D00032EC20F0E552E552E66AEF0EE66E32EC73
:1052E00020F0E552E552E66AF80EE66E32EC20F068
:1052F000E552E55248C1E6FF49C1E6FF4AC1E6FF73
:105300004BC1E6FF51EC1FF0E552E552E552E55284
:105310000101010EDB6F0E0EDC6F01010451E66E20
:10532000E66A76DFE552E55201010651156A06C1CB
:1053300015F0146A14C0E6FF06C1E6FF69DFE55206
:10534000E55201010851E66EE66A62DFE552E55278
:1053500001010A51156A0AC115F0146A14C0E6FF6A
:105360000AC1E6FF55DFE552E55201010C51E66E38
:10537000E66A4EDFE552E55201010E51156A0EC193
:1053800015F0146A14C0E6FF0EC1E6FF41DFE552D6
:10539000E55201011051E66EE66A3ADFE552E55248
:1053A00001011251156A12C115F0146A14C0E6FF0A
:1053B00012C1E6FF2DDFE552E55201011451E66E00
:1053C000E66A26DFE552E55201011651156A16C15B
:1053D00015F0146A14C0E6FF16C1E6FF19DFE552A6
:1053E000E55201011851E66EE66A12DFE552E55218
:1053F00001011A51156A1AC115F0146A14C0E6FFAA
:105400001AC1E6FF05DFE552E55201011C51E66EC7
:10541000E66AFEDEE552E55201011E51156A1EC123
:1054200015F0146A14C0E6FF1EC1E6FF70EC20F010
:10543000E552E5527FC0E6FF80C0E6FF85EC20F034
:10544000E552E5523F0E0001705D08E13AEC1FF0B5
:105450003AEC1FF03AEC1FF03AEC1FF0BAEF34F0E0
:105460008A9093908B929492FA0E8916921601016B
:10547000010EE16F1AEC32F001010E0EE26F476B84
:1054800047C146F147C145F147C144F147C143F126
:1054900047C142F147C141F10001280E666F010189
:1054A000F9910101CD0EFA6F0101CB0EFB6F9282D3
:1054B0009286050EC26E0B0EC16E3B0EC06EC08E84
:1054C00047EC2EF0ADEC30F08A80FA0EE66EE66A1C
:1054D000E4EC2FF0E552E5528B82FA0EE66EE66AB6
:1054E000E4EC2FF0E552E5528A90FA0EE66EE66A99
:1054F000E4EC2FF0E552E5528B921200060E00010B
:105500009C5D05E36D50020B01E0120001D8120012
:10551000D9CFE6FFE1CFD9FF070EE126400EE66EB8
:10552000010EE66E010EE66ECCEC3CF0E552E55263
:10553000E552000901E187D20101006B010101512F
:10554000FF0A01E15AD28C0A01E14CD2010A01E1C1
:1055500042D2030A01E13AD2010A01E132D2130A2E
:1055600001E12AD2010A01E122D2030A01E11AD2A1
:10557000010A01E112D2340A01E10DD2070A01E168
:1055800008D2010A01E103D2030A01E1FED1140AA3
:1055900001E1F8D1010A01E1F2D1140A01E1CBD114
:1055A000120A01E196D1030A01E149D1010A01E1A0
:1055B00034D17F0A01E126D1010A01E117D1050AA0
:1055C00001E1D7D0070A01E1C8D0060A01E1B3D052
:1055D000030A01E1A6D0010A01E194D0050A01E124
:1055E00089D07E0A3AE0740A2BE0060A0DE0310AFF
:1055F00001E017D20101100E036F0101030E046FC9
:105600000101040E006F0ED20101010E006F0101B5
:10561000025102E18A8013D00101020502E18B826E
:105620000ED0040E0101025D02E18A9008D0050E41
:105630000101025D02E18B9202D00101006BF2D107
:105640000101F9B102D043EC2EF0C3CF02F1C4CF77
:1056500003F10101030E006FE5D188C089F002C19A
:105660008AF0030E0101031500018B6F0001000E8B
:10567000D8808A55000E8B5504E20001010E886F18
:1056800002D00001886B800E01010315800803E140
:105690000001020E886F400E01010315400803E16E
:1056A0000001030E886F050E8AC0DBFF060E8BC05B
:1056B000DBFFD950050FE96EDACFEAFF020E0F0BC0
:1056C00006E0EC52D890ED32EF32E806FAE1000144
:1056D000880507E1050EDBCFE6FF50EC2EF0E55222
:1056E00005D00001890502E178EC2EF00101010EE0
:1056F000006F98D1E5EC33F00101026F0101020E59
:10570000006F90D10101010E006F0101F9B18AD142
:105710000101025103E1050EC26E02D00D0EC26EF0
:1057200081D10101010E006F02C1BEFF02C18DF0E7
:1057300003C18CF077D10101010E006FD9EC31F07B
:105740008B80FE0E9312C10E94129288929A898ACF
:1057500002C1E1F11AEC32F065D10101010E006FD6
:105760000101025103E13FEC32F002D04EEC32F085
:1057700059D10101010E006F0101020503E109EC9D
:1057800032F033D0100E0101025D03E1F8EC31F08C
:105790002CD0020E0101025D03E1EAEC31F025D0CC
:1057A000200E0101025D03E1D9EC31F01ED0040EA0
:1057B0000101025D03E1CAEC31F017D0400E010196
:1057C000025D03E1BBEC31F010D0080E0101025D77
:1057D00003E1ACEC31F009D0800E0101025D03E180
:1057E0009DEC31F002D00101006B1CD10101010ED2
:1057F000006F03C1E6FF02C1E6FF5DEC32F0E55247
:10580000E55210D10101020E006F02C1E6FF5DEC0E
:1058100033F0E5520101026F05D10101010E006F65
:1058200002C1E2F10C0E0101E25D02E10101026B35
:105830000E0E0101E25D02E10101026BF3D00101F4
:10584000010E006F01C164F002C165F003C166F092
:1058500004C167F005C168F006C169F007C16AF0CC
:1058600008C16BF009C16CF00AC16DF00BC16EF09C
:105870000CC16FF00DC170F00EC171F00FC172F06C
:1058800010C173F011C174F012C175F013C176F03C
:1058900014C177F015C178F016C179F017C17AF00C
:1058A00018C17BF019C17CF01AC17DF01BC17EF0DC
:1058B0001CC17FF01DC180F01EC181F01FC182F0AC
:1058C00020C183F021C184F022C185F023C186F07C
:1058D000A9D00101010E006F01014B6B04C14AF117
:1058E00003C149F102C148F107C14CF101014D6BFF
:1058F0004E6B4F6B4EC14FF14DC14EF14CC14DF14E
:1059000001014C6B0101065101014C13000E4D13B6
:105910004E134F134EC14FF14DC14EF14CC14DF1DD
:1059200001014C6B0101055101014C13000E4D1397
:105930004E134F1377D00101030E006F020E0101C9
:10594000025D03E10101050E006F8FD8030EF3CF56
:10595000DBFF040EF4CFDBFF030EDBCF02F1040EFE
:10596000DBCF03F1030EEDC1DBFF040EEEC1DBFF65
:10597000030EDBCF04F1040EDBCF05F153D0DDECD9
:1059800030F050D026EC31F04DD086D84BD09BD89B
:1059900049D0B0D847D0C5D845D00101010E006F1D
:1059A000D7D840D00101010E006FE9D83BD00101EA
:1059B000010E006FFBD836D00101010E006F0DD92A
:1059C00031D00101010E006F1FD92CD00101010E51
:1059D000006F31D927D00101020E006F43D90101B8
:1059E000026F20D00101030E006FFCC102F1FDC166
:1059F00003F10101030E006F15D06D96010EDB6AF5
:105A0000020EDB6A010EDB06DBCF14F0020E01E2B0
:105A1000DB06DBCF15F01450151001E0F3D7FF00C3
:105A200001D000D0010100510EE004010CBF0BD0E9
:105A300000C1E6FF010EE66E010EE66E92EC3CF050
:105A4000E552E552E552030E0001885D02E12BECC0
:105A50002FF0F56E070EE15C02E2E16AE552E16EBD
:105A6000F550E552E7CFD9FF12000101E251210ABA
:105A700011E03F0A0DE00C0A09E0030A05E0010A03
:105A800001E01200BFEF20F0BCEF3AF0D1EF34F0AC
:105A900034EF06F0DBEF13F00101E251210A11E0CF
:105AA0003F0A0DE00C0A09E0030A05E0010A01E0E3
:105AB0001200F7EF20F0BEEF3AF0D3EF34F0B6EF7C
:105AC00006F05BEF14F00101E251210A11E03F0AF8
:105AD0000DE00C0A09E0030A05E0010A01E01200EA
:105AE000D3EF21F0C0EF3AF0B5EF35F055EF09F004
:105AF000EBEF16F00101E251210A11E03F0A0DE03F
:105B00000C0A09E0030A05E0010A01E0120009EFAE
:105B100023F0C2EF3AF0BCEF35F02BEF0BF0F2EFD1
:105B200016F00101E251210A11E03F0A0DE00C0AD2
:105B300009E0030A05E0010A01E012000BEF23F07F
:105B4000C4EF3AF0C3EF35F031EF0BF0F0EF18F09F
:105B50000101E251210A11E03F0A0DE00C0A09E0BF
:105B6000030A05E0010A01E01200DDEF23F0A2EFD5
:105B70003BF0FDEF35F005EF0DF071EF19F001018D
:105B8000E251210A11E03F0A0DE00C0A09E0030A84
:105B900005E0010A01E01200BEEF27F0A4EF3BF0A0
:105BA0008FEF37F09BEF0FF055EF1CF00101E25142
:105BB000210A11E03F0A0DE00C0A09E0030A05E0A2
:105BC000010A01E0120065EF28F0A6EF3BF096EF26
:105BD00037F062EF12F05CEF1CF00101E251210A94
:105BE00011E03F0A0DE00C0A09E0030A05E0010A92
:105BF00001E0120042EF29F0A8EF3BF09DEF37F0F3
:105C00008CEF12F02CEF1FF00101E251210A11E09C
:105C10003F0A0DE00C0A09E0030A05E0010A01E071
:105C200012006CEF23F0C6EF3AF0C5EF35F0F5EF58
:105C30000BF0FEEF18F00101E251210A11E03F0ADA
:105C40000DE00C0A09E0030A05E0010A01E0120078
:105C5000DBEF23F02EEF3BF0FBEF35F0F7EF0BF02F
:105C600000EF19F0D9CFE6FFE1CFD9FFE652DF6AA6
:105C7000DF84DF86DF88DF8ADF8CDF50E552E55284
:065C8000E7CFD9FF12007E
:0A5C8600C282C2B2FED7120094944D
:105C9000780ECB6E0C0EBD6EBE6E040ECA6E120078
:105CA000D9CFE6FFE1CFD9FFFE0EDBCFFAF1DB5013
:105CB000010806E2FE0EDB50FE0F0101FB6F02D071
:105CC0000101FB6B92829286050EC26E0B0EC16EB5
:105CD0003E0EC06EF28C9E9C9D8C300EBE6E0C0EE5
:105CE000BD6EF981F28EC282E552E7CFD9FF120074
:105CF0000101F991BE6A9E9C9D9CF29CF29E92824B
:105D00009286050EC26E0B0EC16E3B0EC06E120067
:105D1000D9CFE6FFE1CFD9FF060EE126050EDB6AFB
:105D2000040EDB6A050EDB2AAEDFC450DE6EDD6AD0
:105D3000C350166E176A066A010E076EDECF0BF0AF
:105D4000DDCF0CF0E2EC3DF004501624146E05504B
:105D5000172014C0DEFFDD6EDECF14F0DDCF15F0AE
:105D600015340FE21450E808030E15540AE2BE6A17
:105D70008A800001886B330EF36E050EF3CFDBFFD4
:105D800040D000018A51DE5C146E8B51DD58156ED7
:105D9000020E14C0DBFF030E15C0DBFF020EDBCFCB
:105DA00014F0030EDBCF15F015340EE21450640826
:105DB000000E155409E2BE50050801E2BE06010EB0
:105DC000F36E040EF3CFDBFF020EDBCF14F0030EF5
:105DD000DBCF15F0D880155004E79C0E145CFF0E45
:105DE000155809E2460EBE5C01E2BE2A010EF36EB2
:105DF000040EF3CFDBFF1E0EE66EE66AE5D8E55231
:105E0000E552040EDB040EE1050EDBCF14F0140E98
:105E1000E76E1418E8AE02D0E73402D0E750145C05
:105E200001E27ED7050EDBCF15F0E76E1518E8AE60
:105E300002D0E73402D0E750155C01E271D7F56E6D
:105E4000060EE15C02E2E16AE552E16EF550E552D0
:105E5000E7CFD9FF1200D9CFE6FFE1CFD9FF060E79
:105E6000E126050EDB6A040EDB6A050EDB2A0BDF7A
:105E7000C450DE6EDD6AC350166E176A066A010EE4
:105E8000076EDECF0BF0DDCF0CF0E2EC3DF00450FE
:105E90001624146E0550172014C0DEFFDD6EDECF11
:105EA00014F0DDCF15F015340FE21450E808030E9E
:105EB00015540AE2BE6A8A800001886B330EF36EC5
:105EC000050EF3CFDBFF29D000018A51DE5C146E92
:105ED0008B51DD58156E020E14C0DBFF030E15C08A
:105EE000DBFF020EDBCF14F0030EDBCF15F0153411
:105EF00014E214503208000E15540FE2BE5005088B
:105F000001E2BE06010EF36E040EF3CFDBFF640E5A
:105F1000E66EE66A59D8E552E552040EDB040DE15F
:105F2000050EDBCF14F00A0EE76E1418E8AE02D0AF
:105F3000E73402D0E750145C96E3F56E060EE15CA0
:105F400002E2E16AE552E16EF550E552E7CFD9FF92
:105F50001200D9CFE6FFE1CFD9FFE652FF0EE76E80
:105F6000FD0EDBCF14F0E7501416156A1450DF6EE7
:105F7000DF90DF42DF50000805E2DFCFE6FF67EC8D
:105F80003EF0E552FD0EDBCF14F0FE0EDBCF15F038
:105F900015C014F0156A1450DF6EDF5000080FE2D0
:105FA000DFCFE6FF4BEC3EF0E552DFCFE6FF67ECDC
:105FB0003EF0E552DFCFE6FF67EC3EF0E552E552FA
:105FC000E552E7CFD9FF1200D9CFE6FFE1CFD9FFE5
:105FD000D950FD0FE96EFF0EDA20EA6EFF0ED88071
:105FE000EE54000EED541BE2D950FD0FE96EFF0E8A
:105FF000DA20EA6EFF0EEE5E000EED5AE6684BEC1C
:106000003EF0E552E6684BEC3EF0E552E6684BECBC
:106010003EF0E552E6684BEC3EF0E552D9D7D95058
:10602000FD0FE96EFF0EDA20EA6E000ED880EE5406
:10603000000EED5418E2FD0EDBCFE6FF4BEC3EF018
:10604000E552FD0EDBCFE6FF4BEC3EF0E552FD0ED8
:10605000DBCFE6FF4BEC3EF0E552FD0EDBCFE6FF7B
:106060004BEC3EF0E552E552E7CFD9FF1200D9CF15
:10607000E6FFE1CFD9FF080EE126050EDB6A060E2A
:10608000DB6AFD0EDBCF06F0FE0EDBCF07F0030E62
:1060900006C0DBFF040E07C0DBFF030EDBCF14F0EE
:1060A000040EDBCF15F0FB0EDBCF16F0FC0EDBCFC2
:1060B00017F01450165C1550175838E3FD0EDB50DE
:1060C000DF6EFE0EDB50E76E010EE7CFDBFF020E48
:1060D000DB6ADFCFF6FF010EDBCFF7FF020EDBCF6F
:1060E000F8FF0800070EF5CFDBFFDB50E76E050E6B
:1060F000DBCF14F0060EDBCF15F0E7501426000EB0
:106100001522010E1426000E1522050E14C0DBFF09
:10611000060E15C0DBFFFD0EDB2AFE0E01E3DB2AB7
:10612000030EDB2A040EB9E3DB2AB7D7F86A050EA3
:10613000DBCF14F0060EDBCF15F014C0F3FF15C053
:10614000F4FFF56E080EE15C02E2E16AE552E16EF1
:10615000F550E552E7CFD9FF1200D9CFE6FFE1CFE6
:10616000D9FF040EE12602C1DFFF010E03C1DBFFF0
:10617000020E04C1DBFF030E05C1DBFF020EDBCF05
:10618000E6FF030EDBCFE6FFDECFE6FFDDCFE6FF67
:106190006EDFE552E552E552E552F3CFFCF1F4CF64
:1061A000FDF1F56E040EE15C02E2E16AE552E16E9A
:1061B000F550E552E7CFD9FF1200D9CFE6FFE1CF86
:1061C000D9FF030EE1260101440E016F01013F0ECC
:1061D000006F040EDF6E01010251E66ED950010F0F
:1061E000E96EDACFEAFFE552E750EE6EED6A010E96
:1061F000DBCF14F0020EDBCF15F002510425176A35
:10620000E850145C1750155815E2A69EA69C010E86
:10621000DB50A96EA680DF50EA6A010FE96E010E1D
:10622000EA22A8CFEFFFDF2A010EDB2A020EDFE30E
:10623000DB2ADDD7F56E030EE15C02E2E16AE5528E
:10624000E16EF550E552E7CFD9FF1200D9CFE6FF56
:10625000E1CFD9FF030EE1260101010E006F01011C
:10626000450E016F100E035D39E1040EDF6E025121
:10627000E66ED950010FE96EDACFEAFFE552E7503A
:10628000EE6EED6A010EDBCF14F0020EDBCF15F0DF
:10629000010102510425176AE850145C1750155883
:1062A0001DE2A69EA69CA684010EDB50A96EDF50BF
:1062B000EA6A010FE96E010EEA22EF50A86E550E50
:1062C000A76EAA0EA76EA682A1A8FED7A198DF2A64
