:0400000080EF0BF092
:1000080000C01EF001C01DF002C01CF003C01BF0B0
:1000180004C01AF005C019F008C018F009C017F09C
:100028000AC016F00BC015F0E1CF25F0E2CF26F09C
:10003800E9CF23F0EACF24F0F5CF22F0F8CF1FF074
:10004800F7CF20F0F6CF21F039EC0AF0F2A408D06F
:10005800F294D80ED76EF00ED66E0001634B642B67
:100068009EA005D09E903C0ECF6EB00ECE6E9EB276
:100078009E92A1A205D0A1923C0EB36EB00EB26EB4
:10008800F2A203D0010E276EF292F0A003D0010E67
:10009800456EF090F0B2F09222C0F5FF1FC0F8FF55
:1000A80020C0F7FF21C0F6FF1EC000F01DC001F000
:1000B8001CC002F01BC003F01AC004F019C005F000
:1000C80018C008F017C009F016C00AF015C00BF0E8
:1000D80023C0E9FF24C0EAFF25C0E1FF26C0E2FFF4
:0200E800110005
:1000EA001E0E716E100E0101246F040E256F24C1BD
:1000FA00E1FF25C1E2FFE69E24C1E1FF25C1E2FF3F
:10010A00E69C040E2425E16E000E2521E26EE68CA3
:10011A00180E2B6F040E2C6F2BC1E1FF2CC1E2FFCE
:10012A00E69E2BC1E1FF2CC1E2FFE69C040E2B25C3
:10013A00E16E000E2C21E26EE68C020E2425E16EA1
:10014A00000E2521E26E27C1E6FF28C1E6FF010E57
:10015A002425E16E000E2521E26E400EE66E24C1D2
:10016A00E9FF25C1EAFFEECF00F024C1E1FF25C176
:10017A00E2FF400E0014E66E24C1E9FF25C1EAFF42
:10018A00EECF00F024C1E1FF25C1E2FF880E001086
:10019A00E66E24C10FF125C110F1040E2419006E78
:0601AA0000C024F1120068
:1001B0000B6A0A6A096A00500402F4CF09F0F3CF0F
:1001C00008F001500502F4CF0BF0F3CF0AF0005015
:1001D0000502F3500926F4500A22E86A0B22015066
:1001E0000402F3500926F4500A22E86A0B2208C0E0
:1001F00000F009C001F00AC002F00BC003F01200C9
:0402000000001200E8
:1002040004012051800AD8A47AD0C00E0101036FE2
:100214006BD00101560E006E1A0E016E000E026EB6
:1002240000C000F101C001F102C002F1120E046F1E
:10023400000E056F64D00101030E006E000E016E06
:1002440022C404F0000E056EB1DF650E0024E96ED1
:10025400000E0120EA6EEECF00F1EECF01F1EECFF9
:1002640002F1020E0025F66E000E0121F76E000E5B
:100274000221F86E0900F5CF00F00900F5CF01F076
:1002840000C004F101C005F13AD00401225100017B
:10029400FB5D24E3030E006E000E016E22C404F025
:1002A400000E056E83DF680E0024E96E000E012047
:1002B400EA6EEECF00F1EECF01F1EECF02F100C114
:1002C400F6FF01C1F7FF02C1F8FF0900F5CF00F006
:1002D40000C004F1000E0101056F02D00101036B9F
:1002E4000ED00101036B0BD004012351010A91E0EC
:1002F4002351020AA0E02351030AC7E0F2D71200F7
:10030400080E0C6E230E0D6E0D2EFED70C2EFCD790
:020314001200D5
:0C031600100E0D6E0D2EFED70000120020
:1003220004012251010A13E120C401F01F0E01163B
:100332000150000A0CE10101038F04012151030A5B
:1003420004E1010E0001B36F02D00001B36B04019E
:100352002251000AD8A48DD020C401F01F0E01162C
:100362000150020AD8A485D024C401F00F0E011650
:100372000150000AD8B47DD00101038F040124BFCB
:1003820016D024C403F00F0E031603C000F0000EB3
:10039200016E003600900136220E0024E96E010E35
:1003A2000120EA6EEECF04F0EECF05F015D024C4A2
:1003B20003F00F0E031603C000F0000E016E0036AC
:1003C20000900136290E0024E96E010E0120EA6E2A
:1003D200EECF04F0EECF05F02151030A07E104C08D
:1003E200E1FF05C0E2FF840EE66E43D024C400F0B4
:1003F2000F0E0016700E026E0F0E036E00500226D4
:10040200D8B0032A02C0E9FF03C0EAFFFE0EEE14D1
:10041200006EEECF01F0FF0E011602C0E1FF03C035
:10042200E2FF00C0E6FF01C0E6FF24AF11D004C026
:10043200E1FF05C0E2FFE66A040E0418006E00C088
:1004420004F004C0E1FF05C0E2FF400EE66E11D0E9
:1004520004C0E1FF05C0E2FF880EE66E040E041838
:10046200006E00C004F004C0E1FF05C0E2FFC80E48
:04047200E66E120020
:1004760020C401F01F0E01160150010A01E096D0BA
:1004860004012451000A01E091D02151060A44E1F9
:1004960039D00001FF51010A18E1EA0E006E190E6B
:1004A600016E000E026E120E0026000E01220222BE
:1004B60000C000F101C001F102C002F1090E010104
:1004C600046F000E056FC00E036F26D00001FF51AA
:1004D600010A13E1350E006E1A0E016E000E026E51
:1004E60000C000F101C001F102C002F1210E0101BC
:1004F600046F000E056FC00E036F0ED00101800E53
:10050600036F0AD004012351210AC3E02351220AB2
:10051600DDE02351230AF2E020C401F0600E01164B
:10052600050E006E005004E00132019EFF0FFBD75E
:100536000150010A01E03AD026D038D037D0B40EA7
:100546000101006F000E016F010E046F000E056FB2
:10055600C10E036F2BD00101800E036F23C4B4F0CC
:1005660025D00101B10E006F000E016F010E046F60
:10057600000E056F810E036F19D00101800E036F07
:1005860022C4B1F013D004012151010AD6E0215151
:10059600090AD4E02151020AD2E021510A0ADBE01D
:0E05A6002151030ADEE021510B0AE7E01200AA
:1005B400000E0101055D02E1080E045D10E204C1B4
:1005C40003F005C104F03051000A03E1010E306F5D
:1005D40005D03051010A02E1020E306F04D0080E3A
:1005E400036E000E046E29C1E1FF2AC1E2FFE69208
:1005F40029C1E1FF2AC1E2FFE69029C1E9FF2AC12E
:10060400EAFFEECF00F029C1E1FF2AC1E2FF045066
:100614000010E66E010E2925E16E000E2A21E26E1D
:1006240003C0E6FF0350045D006E04500559016EDB
:1006340000C004F101C005F1280E316F040E326FC1
:1006440003B12FD0035004102BE000C1F6FF01C109
:10065400F7FF02C1F8FF0900F5CF00F031C1E1FF57
:1006640032C1E2FF00C0E6FF314B322B010E002500
:10067400006E000E0121016E000E0221026E00C008
:1006840000F101C001F102C002F1010E035C006E31
:10069400000E0458016E00C003F001C004F0D2D76C
:1006A40024D00350041021E000C1E9FF01C1EAFF96
:1006B40031C1E1FF32C1E2FFEECFE6FF314B322B15
:1006C400010E0025006E000E0121016E00C000F134
:1006D40001C001F1010E035C006E000E0458016EAE
:0C06E40000C003F001C004F0DCD71200DD
:1006F0000401286B296B4AD00101038F0401288172
:100700000001B351010A02E10401288354D0010120
:10071000038F51D00101038F040124BF16D024C4DC
:1007200003F00F0E031603C000F0000E016E00363A
:1007300000900136220E0024E96E010E0120EA6EBF
:10074000EECF04F0EECF05F015D024C403F00F0E69
:10075000031603C000F0000E016E00360090013653
:10076000290E0024E96E010E0120EA6EEECF04F09E
:10077000EECF05F004C0E9FF05C0EAFFEECF01F0BF
:1007800001A403D00401010E286F15D020C401F08C
:100790001F0E01160150000AAFE020C401F01F0E29
:1007A00001160150010AB3E020C401F01F0E01162A
:1007B0000150020AAFE0010103AF07D0280E006F1D
:0C07C000040E016F0381020E046F120092
:1007CC000101038F716A336B22C4FFF00001FF51EA
:1007DC00000A04E1100E0101266F04D00101200E65
:0607EC00266F7DDC120007
:1007F200EA0E0001656F190E666F000E676F780EC4
:10080200686F1A0E696F000E6A6F130E6B6F1A0E05
:100812006C6F000E6D6F680E6E6F1A0E6F6F000EAA
:04082200706F1200E1
:10082600000E0101441902E1000E431902E1016ABA
:100836000AD043C1E9FF44C1EAFFEECF00F0000E43
:0C08460000BE010E016E01C000F01200A7
:0A085200D08EA28AA08AF28E120056
:10085C00010143BF02D0809001D0808043BD02D003
:10086C00809201D0808243BB02D0809401D08084DE
:10087C0043B902D0809601D0808619B102D0808A0B
:10088C0001D0809A8088B6DC809843B702D08090E3
:10089C0001D0808043B502D0809201D0808243B3D6
:1008AC0002D0809401D0808443B102D0809601D0D4
:1008BC00808619B102D0808A01D0809A80889ADC17
:0E08CC00809819A102D018DD01D01FDD1200A6
:1008DA0001014451000A12E043C100F0000E016E0A
:1008EA00003600900136290E0024E96E010E01201F
:1008FA00EA6EEECF04F0EECF05F011D043C100F05E
:10090A00000E016E003600900136220E0024E96EB8
:10091A00010E0120EA6EEECF04F0EECF05F0020ED2
:10092A000424E16E000E0520E26E45C1E6FF46C1D1
:10093A00E6FF010E0424E16E000E0520E26E47C1B7
:10094A00E6FF04C0E9FF05C0EAFFEECF00F004C0ED
:10095A00E1FF05C0E2FF400E0014E66E04C0E9FFA5
:10096A0005C0EAFFEECF00F004C0E1FF05C0E2FFD8
:10097A00880E0010E66E4451000A1BE043C100F0E5
:10098A00000E016E003600900136290E0024026E18
:10099A00010E0120036E02C0E9FF03C0EAFF040E44
:1009AA00EE18006E02C0E1FF03C0E2FF00C0E6FFDE
:1009BA001AD043C100F0000E016E003600900136D5
:1009CA00220E0024026E010E0120036E02C0E9FF0E
:1009DA0003C0EAFF040EEE18006E02C0E1FF03C076
:1009EA00E2FF00C0E6FF04C000F005C001F01200FB
:1009FA000001B26B29C1E1FF2AC1E2FFE66A040ED7
:100A0A0001012919E16E2AC1E2FF000EE21AE66A23
:080A1A0008AF01D0089F120093
:100A22006D98010103BF4BD008AF2AD0020E00011E
:100A3200B26F010E01012925E16E000E2A21E26E3C
:100A4200E66A29C1E1FF2AC1E2FFC80EE66E010E85
:100A52002D25E16E000E2E21E26E080EE66E020ECC
:100A62002D25E16E000E2E21E26E280EE66E040E9A
:100A7200E66E2DC1E1FF2EC1E2FFC80EE66E1ED06A
:100A8200010E2D25E16E000E2E21E26E080EE66E9D
:100A9200020E2D25E16E000E2E21E26E200EE66E74
:100AA200040EE66E2DC1E1FF2EC1E2FF8C0EE66E52
:100AB20029C1E1FF2AC1E2FF840EE66E85D008BF9C
:100AC20083D0040120AF57D0010105510401275DF5
:100AD20004E1010104510401265D04E226C404F18B
:100AE20027C405F166DD010E0001B26F010E01019E
:100AF2002D25E16E000E2E21E26E080EE66E020E2C
:100B02002D25E16E000E2E21E26E200EE66E040E01
:100B1200E66E2DC1E1FF2EC1E2FF800EE66E366B5E
:100B2200010E3425E16E000E3521E26E080EE66EEE
:100B3200020E3425E16E000E3521E26E200EE66EC5
:100B4200040EE66E34C1E1FF35C1E2FF840EE66EAB
:100B5200010E366F020E2925E16E000E2A21E26E89
:100B6200280EE66E040EE66E29C1E1FF2AC1E2FFFD
:100B7200C80EE66E29D0020E0001B26F010E01010D
:100B82002925E16E000E2A21E26EE66A29C1E1FF03
:100B92002AC1E2FFC80EE66E010E2D25E16E000E9F
:100BA2002E21E26E080EE66E020E2D25E16E000E7B
:100BB2002E21E26E280EE66E040EE66E2DC1E1FFD6
:0A0BC2002EC1E2FFC80EE66E12001D
:0A0BCC000001FC5301E051DC1200AF
:100BD600010E01013425E96E000E3521EA6EEECFD5
:100BE60000F000C002F0000E0A5D02E10250095D4D
:100BF60003E209C102F00AD00250095D006E000E40
:100C06000A59016E00C009F101C00AF1036A0250D7
:100C1600035C1CE2280EE96E040EEA6E0350E92618
:100C2600D8B0EA2AEECF00F006C1E1FF07C1E2FF25
:100C360000C0E6FF010E0625006E000E0721016EBC
:100C460000C006F101C007F1032AE1D7000E006ECD
:100C56000A51005C02E10951000828E2010E2D2527
:100C6600E16E000E2E21E26E080EE66E020E2D25B6
:100C7600E16E000E2E21E26E280EE66E040EE66E82
:100C860034C1E9FF35C1EAFFEECF00F000BC07D062
:100C96002DC1E1FF2EC1E2FFC80EE66E06D02DC1C2
:100CA600E1FF2EC1E2FF880EE66E19D0010E2D255A
:100CB600E16E000E2E21E26E080EE66E020E2D2566
:100CC600E16E000E2E21E26E200EE66E040EE66E3A
:100CD6002DC1E1FF2EC1E2FF840EE66E089F1200D1
:100CE60020C401F0600E0116050E006E005004E0EF
:100CF6000132019EFF0FFBD70150000A01E060D0D0
:100D06003CD00101038F080E266F5AD002EC01F089
:100D160057D059DD55D00101FF0E006F000E016F4F
:100D26000381010E046F038F4BD0DFDC49D091ECB9
:100D360001F046D0330E006E010E016E04012451FF
:100D46000026D8B0012A00C000F101C001F101015E
:100D56000381010E046F038F33D00101038F330E1D
:100D6600E16E010EE26E04012451E126D8B0E22ABA
:100D760022C4E6FF25D024D023D004012151050A40
:100D8600C0E02151060AC2E02151090AC2E0215100
:100D9600080AC1E02151000AC8E02151010AC7E052
:100DA6002151030AC4E021510A0AC4E021510B0A69
:100DB600D4E02151070ADFE021510C0ADDE0DCD73F
:020DC600120019
:100DC8000101466B476B486B020E4325F66E000E19
:100DD8004421F76E000E4521F86E0900F5CF05F0A5
:100DE800030E4325F66E000E4421F76E000E4521D2
:100DF800F86E0900F5CF00F000C003F0000E046E95
:100E080003C001F0006A05500024066E000E0120A0
:100E1800076E43C108F044C109F045C10AF0010E4C
:100E28000824F66E000E0920F76E000E0A20F86EF0
:100E38000900F5CF01F00150020A1BE1060E082453
:100E4800F66E000E0920F76E000E0A20F86E0900F3
:100E5800F5CF01F00150465D0CE2060E0824F66E4F
:100E6800000E0920F76E000E0A20F86E0900F5CF73
:100E780046F1010E0824F66E000E0920F76E000EEA
:100E88000A20F86E0900F5CF01F00150040A1BE1B1
:100E9800080E0824F66E000E0920F76E000E0A20D0
:100EA800F86E0900F5CF01F00150465D0CE2080E1E
:100EB8000824F66E000E0920F76E000E0A20F86E60
:100EC8000900F5CF46F108C0F6FF09C0F7FF0AC0D0
:100ED800F8FF0900F5CF00F000504725016E000E1D
:100EE8004821026E01C047F102C048F10750025C78
:100EF80002E10650015C01E30FD008C0F6FF09C00B
:100F0800F7FF0AC0F8FF0900F5CF00F000500826E7
:0E0F1800000E09220A2283D746C100F0120003
:100F2600560E006E1A0E016E000E026E0E0E002494
:100F3600F66E000E0120F76E000E0220F86E090014
:100F4600F5CF03F003C004F00F0E0024F66E000E7A
:100F56000120F76E000E0220F86E0900F5CF01F0B1
:100F66000150035C12E2560E006E1A0E016E000E60
:100F7600026E0F0E0024F66E000E0120F76E000EB4
:100F86000220F86E0900F5CF04F0560E006E1A0E18
:100F9600016E000E026E100E0024F66E000E012089
:100FA600F76E000E0220F86E0900F5CF01F0015031
:100FB600045C12E2560E006E1A0E016E000E026EF0
:100FC600100E0024F66E000E0120F76E000E0220B1
:0E0FD600F86E0900F5CF04F004C000F0120020
:0E0FE400160E6F6E9F0E6B6E3B0E696E120046
:100FF2000001B251020A02E1EDDD1ED0FDDC3651E4
:10100200000A19E1010E2D25E16E000E2E21E26E7D
:10101200080EE66E020E2D25E16E000E2E21E26E06
:10102200200EE66E040EE66E2DC1E1FF2EC1E2FF38
:0A1032008C0EE66E01D0366B120042
:10103C006D92699468A403D0FB0E6816FBD712005E
:04104C00A19A120053
:1010500070A019D034C1E9FF35C1EAFFEECF01F02D
:101060000150800A0FE129C1E9FF2AC1EAFFEECF52
:1010700001F00150840A06E134C1E1FF35C1E2FF0D
:0C1080008C0EE66E7090DF0E68161200F9
:10108C004CDF00C03CF1EA0E0101436F190E446FB6
:10109C00000E456F93DE00C03DF13C51005C03E255
:0C10AC003CC100F002D03DC100F0120079
:1010B80029C1E9FF2AC1EAFFEECF00F000AE05D052
:1010C80029C1E1FF2AC1E2FFE66A0101306B000194
:1010D800B26B0101046B056B036B01DE73DD9DDCF4
:0210E8001200F4
:0A10EA006984EF0E68166D82120093
:1010F40001012651000A0BE16D6A696A71DF29EC6E
:1011040004F06DB602D06D86FCD7010E266F120076
:0E111400ACB202D00000FCD73CC1ADFF12000F
:101122000101426B200E265D03E36DB201D002D0B5
:10113200006A2FD00FC143F110C144F113EC04F047
:10114200005226E10FC140F110C141F1000E101909
:1011520002E1000E0F190AE0010E4025E96E000EB1
:101162004121EA6EEECF00F000C042F13FC143F1EF
:10117200446B3CC145F13DC146F13EC147F16DECC6
:1011820004F000C00FF101C010F142C100F001D023
:04119200006A1200DD
:10119600F9EC03F001010F6B106B0001F96BFA6BB0
:1011A6006A6A686A1CDF6D8C6E6A716A6D9CFD6B7B
:1011B600FE6B000EFE5D02E1080EFD5D17E2FDC04E
:1011C60000F0FEC001F000360090013600360090B7
:1011D6000136000E0024E16E040E0120E26EE66A7E
:1011E600E66AE66AE66AFD4BFE2BE3D7160E706EDC
:1011F60068A603D0F70E6816FBD70101036B086BD0
:10120600096B0A6B6D98080E296F040E2A6F000190
:08121600FF6B0101266B1200C1
:10121E00040E01012919006E00C029F12651080A99
:10122E000AE122C46EFF6E50000803E2100E266F14
:10123E0002D0040E266F0001B251010A3CE1020EEB
:10124E0001012925E16E000E2A21E26E280EE66EBE
:10125E00040EE66EDAEC02F03051020A07E129C103
:10126E00E1FF2AC1E2FF840EE66E24D0040E291996
:10127E00006E00C029F129C1E9FF2AC1EAFFEECFB5
:10128E0000F000BC0CD0040E2919006E00C029F12C
:10129E0029C1E1FF2AC1E2FFC80EE66E0BD0040E93
:1012AE002919006E00C029F129C1E1FF2AC1E2FF10
:0C12BE00880EE66E02D0FDEC04F0120079
:1012CA00010119913CC143F12EEC04F0198112007D
:0A12DA00000E9EBA010E006E120015
:1012E400AECF01F0ABA202D0AB98AB8801C000F046
:0212F4001200E6
:1012F60027C13CF128C13DF1400E01013E6F010EB0
:061306003F6F0CDF120036
:10130C009298929A92969294929292908098809AB5
:10131C00809080928094809682EC01F082EC01F0B7
:10132C0082EC01F080848086808800EC01F080984B
:10133C0082EC01F0808800EC01F0809882EC01F0E6
:10134C00808800EC01F0809882EC01F08096808817
:10135C0000EC01F0809882EC01F0808800EC01F048
:10136C00809880948080808800EC01F0809882ECDA
:10137C0001F080908086808800EC01F08098809647
:10138C00808800EC01F0809882EC01F0808800EC01
:10139C0001F080988086808800EC01F0809882ECC7
:1013AC0001F08096808800EC01F08098808080822B
:1013BC0080848086808800EC01F0809882EC01F0BB
:0613CC000101198112006D
:1013D20010D0800E0101376F1AD0C00E376F17D0B0
:1013E200940E376F14D0D40E376F11D0800E376F32
:1013F2000ED001013751010AECE03751020AEDE04B
:101402003751030AEDE03751040AEDE0EFD7380512
:10141200006E3751002600C037F100C043F12EECB8
:1014220004F019913B6B3B513925E96E000E3A21CC
:10143200EA6EEE520BE03B513925E96E000E3A217D
:10144200EA6EEECF3CF140DF3B2BEDD71981120063
:101452000900F5CFE6FF0006FBE10106F9E1120003
:08146200F086F28EF0901200FA
:08146A00F288F28EF2921200EA
:1014720001012651010A07E16DBA05D0686A698047
:101482006988020E266F68A405D069A403D0FB0EFA
:101492006816D3DD6DA202D0D8DDD4D068A018D0F2
:1014A20069A016D077DE040E266F200E0401026FAB
:1014B200040E036F080E016F000E0015006E00C0CF
:1014C20000F48C0E0011006E00C000F4FE0E6816CF
:1014D20068A805D069A803D007DEEF0E681668ACCD
:1014E20004D069AC02D0BF0E681668AA03D069AAFC
:1014F20001D0ADDD68A202D069B26A6A040E0101B0
:10150200265D02E2A2DD9ED069A69BD04A6B040E44
:101512004A5DD8B096D068A691D06CCF2FF1F70E65
:101522006816780E2F15016E0150000AD8A485D0D6
:10153200FD0E2F15016E026AFF0E0216000E021832
:1015420002E1000E01186BE17E0E2F15016E01C043
:1015520003F00332039E03C000F0000E016E00365A
:1015620000900136003600900136000E0024026E13
:10157200040E0120036E02C034F103C035F102C033
:101582002DF103C02EF1040E2D19006E00C02DF1B5
:1015920002C0E9FF03C0EAFFEECF00F000C001F095
:1015A2003C0E01160132019E0132019E01500D0ACC
:1015B20034E1020E3425E96E000E3521EA6EEECFDB
:1015C20001F0EECF02F00250040A02E1280E0118E7
:1015D20022E1020E3425E16E000E3521E26E200E6C
:1015E200E66E040EE66E496B080E495D14E2200EAB
:1015F200E16E040EE26E4951E126D8B0E22A280ECD
:10160200E96E040EEA6E4951E926D8B0EA2AEECF15
:10161200E6FF492BE9D74FDD01D0EADC0DD0FD0E04
:101622002F15016E026AFF0E0216000E021802E169
:10163200040E011801E1F2DD00D001D002D04A2BE4
:0616420066D703DD120073
:10164800140E01011A6F110E1B6F3C0E1C6F010E58
:101658001D6FE40E116F120E126F000E136F000E45
:10166800146FDA0E156F120E166F000E176F000E3C
:10167800186FFF0E1E6FFF0E1F6F000E206F000EFB
:10168800216FAC8A900EAB6E948E949C9EAA03D068
:08169800AECF00F0FBD71200F9
:1016A000F5DC00C0FBF0010E0001FC6F37C127F133
:1016B00038C128F139C1F7F03AC1F8F06CDD010EFC
:0C16C000016E0150010A01E115DD12006D
:1016CC0001013A6B37C1E9FF38C1EAFFEECF39F1BE
:1016DC003951000A0EE039C13CF116DD01013A2BFB
:1016EC003A513725E96E000E3821EA6EEECF39F10A
:0416FC00EFD7120012
:101700003EEC0DF00F0EC112070EB412926A936AEE
:10171000946A956A806A816A826A836A8C84F6DD3B
:10172000010E376F010E386F460E396F000E3A6F9B
:1017300050DE060E0B6E130E0C6EAD0E0D6E0D2EE2
:10174000FED70C2EFCD70B2EFAD700000000010E9E
:10175000436F2EEC04F0B886B06A670EAF6EAC84AF
:1017600073DF000E376F050E386F400E396F050EB0
:101770003A6F96DF7ADE75DEBEDD00C0F5F0005010
:10178000000AD8B4AFD00001F66BF551F65D14E253
:10179000400EE16E050EE26EF651E126D8B0E22A67
:1017A000000EE96E050EEA6EF651E926D8B0EA2A77
:1017B000EECFE6FFF62BE9D705014051310A29E1CA
:1017C00082B027D082B225D082B423D0010E00018E
:1017D000F66FF551F65D17E2F605006E016A000E30
:1017E000015AB50E0024E16E000E0120E26E000EDB
:1017F000E96E050EEA6EF651E926D8B0EA2AEECF78
:10180000E6FFF62BE6D7B50E0101376F000E386FF5
:101810005DDF05014051570A10E146514F0A0DE1C5
:1018200082B00BD082B209D082B407D08C80400E37
:101830000101376F050E386F49DF05014051580A25
:1018400010E14651450A0DE182B00BD082B209D0B9
:1018500082B407D08C90590E0101376F000E386F9B
:1018600035DF05014051350A3DE14151310A3AE188
:1018700082B038D082B236D082B434D00001F66B58
:10188000030EF65D2FE2820E0C6EDD0E0D6E0D2E38
:10189000FED70C2EFCD700000000210E01013C6F8A
:1018A00039DC580E01013C6F35DC0D0E01013C6F37
:1018B00031DC820E0C6EDD0E0D6E0D2EFED70C2E61
:1018C000FCD700000000210E01013C6F23DC4F0E0D
:1018D00001013C6F1FDC0D0E01013C6F1BDC0001A0
:1018E000F62BCED74550010A0AE1010E316E8C88E5
:1018F000320E0101376F000E386FE8DE456A27505F
:10190000010A22E13150010A1FE18C8C340E0C6E69
:10191000F10E0D6E0D2EFED70C2EFCD70000000030
:101920008C9C4E0E0C6EEB0E0D6E01010D2EFDD734
:101930000C2EFBD78C828C8A280E376F000E386FE6
:10194000C5DE276A010E3A6E81B004D03A50010A12
:1019500001E107D081B204D03A50010A01E101D07F
:101960000DD001018C908C928C988C9A8C9E3B0EA1
:10197000376F000E386FAADE3A6A316A82B014D02F
:1019800082B212D082B410D081B00ED081B20CD00D
:10199000A4DC005209E0A6DC00C0B1F000C03CF1BC
:0C19A0008AEC08F0B1C080F5E7D6FFD754
:101A7C0010EE27F03E0E006E010E016EAC0EF66EEF
:0E1A8C00190EF76E000EF86E29EC0AF012002B
:0119AC00003A
:0919AD00785F7261795F6F6E00D2
:0119B6000030
:0819B7007761726D5F7570002D
:0119BF000027
:0A19C000785F7261795F6F66660060
:0119CA00001C
:1019CB0053796E63426F7820562E312E302054653A
:0319DB0073740022
:0A19DE006C65645F315F6F666600A0
:0219E8000000FD
:1019EA0009022900010100803209040000020300F3
:1019FA00000009210101000122210007058103409D
:091A0A0000010705010340000181
:101A130022034400750072006D0061007A0020000B
:101A2300540065006B006E006F006C006F006A006D
:021A3300690048
:101A35000600FF0901A10119012940150026FF0033
:101A45007508954081021901294075089540910254
:011A5500C0D0
:101A56001201000200000008341201000100010218
:021A660000017D
:101A68001003530079006E00630042006F00780095
:041A78000403090456
:020000040030CA
:0E000000200C391EFF8381FF0FC00FE00F4060
:00000001FF
