:020000040000FA
:0600000078EF3FF0120052
:0608000078EF3FF012004A
:06080800A2EF36F0120021
:06081800A2EF36F0120011
:06082A0001001E7F00002A
:0808300060000000330000002D
:08083800D9CFE6FFE1CFD9FFA3
:10084000FE0EDBCFE6FF040EE66E85EC37F0E552D8
:10085000E552010EE66E84EC3FF0E552E552E7CF3B
:10086000D9FF1200D9CFE6FFE1CFD9FFFE0EDBCFD3
:10087000E6FF040EE66EBCEC37F0E552E552010EE1
:10088000E66E84EC3FF0E552E552E7CFD9FF120067
:10089000D9CFE6FFE1CFD9FFFB0EDBCF14F0FC0E82
:1008A000DBCF15F0FD0EDBCF16F0FE0EDBCF17F021
:1008B0001450E66E080EE66E85EC37F0E552E55210
:1008C000D950FB0FE96EFF0EDA20EA6E080EE76ED4
:1008D000D890030EEB32020EEB32010EEB32EF3208
:1008E000E706F6E1FB0EDBCF14F0FC0EDBCF15F0D4
:1008F000FD0EDBCF16F0FE0EDBCF17F01450E66EC8
:10090000080EE66E85EC37F0E552E552D950FB0F44
:10091000E96EFF0EDA20EA6E080EE76ED890030E3D
:10092000EB32020EEB32010EEB32EF32E706F6E16C
:10093000FB0EDBCF14F0FC0EDBCF15F0FD0EDBCF92
:1009400016F0FE0EDBCF17F01450E66E080EE66EC2
:1009500085EC37F0E552E552010EE66E84EC3FF08F
:10096000E552E552E7CFD9FF1200D9CFE6FFE1CF3C
:10097000D9FFFB0EDBCF14F0FC0EDBCF15F0FD0E24
:10098000DBCF16F0FE0EDBCF17F01450E66E080E2C
:10099000E66EBCEC37F0E552E552D950FB0FE96E3C
:1009A000FF0EDA20EA6E080EE76ED890030EEB32E7
:1009B000020EEB32010EEB32EF32E706F6E1FB0EF0
:1009C000DBCF14F0FC0EDBCF15F0FD0EDBCF16F005
:1009D000FE0EDBCF17F01450E66E080EE66EBCEC90
:1009E00037F0E552E552D950FB0FE96EFF0EDA20E1
:1009F000EA6E080EE76ED890030EEB32020EEB3271
:100A0000010EEB32EF32E706F6E1FB0EDBCF14F01E
:100A1000FC0EDBCF15F0FD0EDBCF16F0FE0EDBCFAC
:100A200017F01450E66E080EE66EBCEC37F0E55297
:100A3000E552010EE66E84EC3FF0E552E552E7CF59
:100A4000D9FF1200D9CFE6FFE1CFD9FF040EE1268E
:100A500067EC37F0080EE66E35EC38F0E552080E1C
:100A6000E66E35EC38F0E552E76E020EE7CFDBFFBD
:100A7000080EE66E35EC38F0E552E76E030EE7CF70
:100A8000DBFFDB50166E176A176E166A020EDB501C
:100A900000011624146E000E1720156E14C0DEFF20
:100AA000DD6E76EC37F0010EE66E84EC3FF0E55239
:100AB000DECF14F0DDCF15F014C0F3FF15C0F4FF46
:100AC000F56E040EE15C02E2E16AE552E16EF5507A
:100AD000E552E7CFD9FF1200D9CFE6FFE1CFD9FF2A
:100AE000040EE12667EC37F0080EE66E79EC38F07C
:100AF000E552080EE66E79EC38F0E552E76E020E2C
:100B0000E7CFDBFF080EE66E79EC38F0E552E76ED2
:100B1000030EE7CFDBFFDB50166E176A176E166AFF
:100B2000020EDB5000011624146E000E1720156E05
:100B300014C0DEFFDD6E76EC37F0010EE66E84EC5D
:100B40003FF0E552DECF14F0DDCF15F014C0F3FF17
:100B500015C0F4FFF56E040EE15C02E2E16AE552B5
:100B6000E16EF550E552E7CFD9FF1200D9CFE6FF8D
:100B7000E1CFD9FF0001920513E1E66A73DEE55289
:100B8000D950FB0FE96EFF0EDA20EA6EEECFE6FFDA
:100B9000EECFE6FFEECFE6FFEFCFE6FFE6DE12D0C8
:100BA000E66A4ADEE552D950FB0FE96EFF0EDA2005
:100BB000EA6EEECFE6FFEECFE6FFEECFE6FFEFCF39
:100BC000E6FF66DEE552E552E552E552E552E7CF33
:100BD000D9FF1200E66AE66AE66AE66AC7DFE5520E
:100BE000E552E552E5521200E66A010EE66E040E89
:100BF000E66EE66ABBDFE552E552E552E5521200C9
:100C0000E66A020EE66E040EE66EE66AAFDFE552B5
:100C1000E552E552E5521200B60EE66E1B0EE66E88
:100C2000BA0EE66EE66AA2DFE552E552E552E552FB
:100C30001200B60EE66E1B0EE66EBB0EE66EE66AA0
:100C400095DFE552E552E552E5521200D9CFE6FFB5
:100C5000E1CFD9FFFE0EDBCF14F0156A166A148AB5
:100C60003C0E1512880E1612176A14C0E6FF15C046
:100C7000E6FF16C0E6FF17C0E6FF78DFE552E55253
:100C8000E552E552E552E7CFD9FF1200580EE66E65
:100C9000050EE66E200EE66EE66A68DFE552E55266
:100CA000E552E552380EE66E3B0EE66E880EE66EB5
:100CB000E66A5CDFE552E552E552E552A90EE66EC2
:100CC0000A0EE66E200EE66EE66A50DFE552E55249
:100CD000E552E552390EE66E3B0EE66E880EE66E84
:100CE000E66A44DFE552E552E552E5521200D9CFFB
:100CF000E6FFE1CFD9FF020EE1260001920506E1F1
:100D0000010EE66EAFDDE552E7DE05D0010EE66EC0
:100D100093DDE55297DEF3CFDEFFF4CFDDFFDECFCC
:100D200014F0DDCF15F014C0F3FF15C0F4FFF56E1D
:100D3000020EE15C02E2E16AE552E16EF550E55235
:100D4000E7CFD9FF120046DF45DF4EDFEAEF05F0BF
:100D5000D9CFE6FFE1CFD9FF020EE126E1EC38F072
:100D6000F2DFF00EE66E0F0EE66E200EE66EE66A1D
:100D7000FDDEE552E552E552E552900EE66E010EBB
:100D8000E66E880EE66EE66AF1DEE552E552E55261
:100D9000E552E66A030EE66EEB0EE66EE66AE6DE06
:100DA000E552E552E552E552800EE66E030EE66E20
:100DB000EB0EE66EE66ADADEE552E552E552E55202
:100DC000B60EE66E0B0EE66EBA0EE66EE66ACEDE86
:100DD000E552E552E552E552FDDEFCDEE66A36DF1D
:100DE000E552F8DE84DFF3CFDEFFF4CFDDFFF2DE85
:100DF000FBDEF0DEB60EE66E0B0EE66EBA0EE66EAB
:100E0000E66AB4DEE552E552E552E552E3DEE2DEA3
:100E1000E66A1CDFE552DEDE6ADFF3CFEDF1F4CFE8
:100E2000EEF1D8DEE1DED6DE7AEC39F0DECF14F07A
:100E3000DDCF15F014C0F3FF15C0F4FFF56E020E00
:100E4000E15C02E2E16AE552E16EF550E552E7CF7E
:100E5000D9FF1200D9CFE6FFE1CFD9FF130EE1266B
:100E6000030EF36E080EF3CFDBFF0101510E016F8D
:100E7000026B036B01013F0E006F4C0EE96E010E19
:100E8000EA6E01014851EE5C4951EE584A51EE5864
:100E90004B51EE5803E20001606B79D200016051C2
:100EA00001E08CD0E1EC38F00001010E606F166AB1
:100EB000176A48C1DFFF49C1DBFF020E16C0DBFF26
:100EC000030E17C0DBFFD9CFE9FFDACFEAFFEECF81
:100ED00014F0EECF15F0EECF16F0EFCF17F0040EB2
:100EE0001F0B07E0D8901436153616361736E8066D
:100EF000F9E14AC116F0146A156A176A040E14C0A3
:100F0000DBFF050E15C0DBFF060E4AC1DBFF070E37
:100F100017C0DBFFD950040FE96EDACFEAFF0C0EE1
:100F2000E76ED890030EEB32020EEB32010EEB327D
:100F3000EF32E706F6E107DF040EDBCF14F0050E13
:100F4000DBCF15F0060EDBCF16F0070EDBCF17F068
:100F5000168A14C0E6FF15C0E6FF16C0E6FF17C0EC
:100F6000E6FF04DEE552E552E552E552900EE66EEC
:100F7000010EE66E880EE66EE66AF8DDE552E55291
:100F8000E552E552D9CFE9FFDACFEAFFEECF14F010
:100F9000EECF15F0EECF16F0EFCF17F0060E1412CD
:100FA000168A14C0E6FF15C0E6FF16C0E6FF17C09C
:100FB000E6FFDCDDE552E552E552E552480EE96E0A
:100FC000010EEA6EEE5001014C5D146EEE504D596B
:100FD000156EEE504E59166EEE504F59176E142A7C
:100FE000000E152216221722030E096E0A6A0B6ADA
:100FF0000C6A14C004F015C005F016C006F017C046
:1010000007F0A2EC3EF000C014F001C015F002C0E1
:1010100016F003C017F0D89017321632153214327A
:10102000090E14C0DBFF0A0E15C0DBFF0B0E16C045
:10103000DBFF0C0E17C0DBFF090EDBCF05F00A0E3D
:10104000DBCF06F00B0EDBCF07F00C0EDBCF08F08A
:101050000834000E081809E6D8803C0E0554000E2E
:101060000654000E0754000E08540CE23C0EF36EBA
:10107000090EF3CFDBFF0A0EDB6A0B0EDB6A0C0EE8
:10108000DB6A02D00001606B090EDBCF02F1030EB8
:10109000F36E080EF3CFDBFF080EDBCF14F0156AFA
:1010A000166A176A090EDBCF18F00A0EDBCF19F0AB
:1010B0000B0EDBCF1AF00C0EDBCF1BF0030E182645
:1010C000000E19221A221B220C0E185E000E195A4D
:1010D0001A5A1B5A1B501718E8AE02D0173408D002
:1010E0001450185C1550195816501A5817501B58A0
:1010F00001E243D1800EE66E030EE66EEB0EE66E65
:10110000E66A34DDE552E552E552E552960EE66EAA
:101110001B0EE66EBA0EE66EE66A28DDE552E55273
:10112000E552E55257DD56DDB60EE66EDB0EE66E95
:10113000BA0EE66EE66A1ADDE552E552E552E55270
:1011400049DD48DDD60EE66EDB0EE66EBA0EE66EC3
:10115000E66A0CDDE552E552E552E5523BDD3ADD4B
:101160005BDD38DD37DD960EE66E1B0EE66EBA0EE1
:10117000E66EE66AFBDCE552E552E552E5522ADD11
:1011800029DDB60EE66EDB0EE66EBA0EE66EE66A98
:10119000EDDCE552E552E552E5521CDD1BDDD60ED5
:1011A000E66EDB0EE66EBA0EE66EE66ADFDCE55250
:1011B000E552E552E5520EDD0DDD2EDD0BDD0ADDDB
:1011C000E66A44DDE55206DD92DD0D0EF3CFDBFF6E
:1011D0000E0EF4CFDBFFFEDC010EE66E37DDE552CE
:1011E000F9DC85DD0F0EF3CFDBFF100EF4CFDBFF54
:1011F000F1DC020EE66E2ADDE552ECDC78DD110E44
:10120000F3CFDBFF120EF4CFDBFFE4DC080EDB5084
:10121000EA6A010FE96E010EEA220D0EDBCFEFFF45
:10122000080EDB2ADB50EA6A010FE96E010EEA22A2
:101230000E0EDBCFEFFF080EDB2ADB50EA6A010F50
:10124000E96E010EEA220F0EDBCFEFFF080EDB2A5C
:10125000DB50EA6A010FE96E010EEA22110EDBCFC4
:10126000EFFF080EDB2ADB50EA6A010FE96E010E80
:10127000EA22120EDBCFEFFF080EDB2ADB50EA6A10
:10128000010FE96E010EEA22100EDBCFEFFF080E10
:10129000DB2A030EE66EDADCE5529CDC28DD0D0E5F
:1012A000F3CFDBFF0E0EF4CFDBFF94DC040EE66E13
:1012B000CDDCE5528FDC1BDD0F0EF3CFDBFF100E14
:1012C000F4CFDBFF87DC050EE66EC0DCE55282DC86
:1012D0000EDD110EF3CFDBFF120EF4CFDBFF7ADC55
:1012E000080EDB50EA6A010FE96E010EEA220D0ECC
:1012F000DBCFEFFF080EDB2ADB50EA6A010FE96E55
:10130000010EEA220E0EDBCFEFFF080EDB2ADB50C8
:10131000EA6A010FE96E010EEA220F0EDBCFEFFF42
:10132000080EDB2ADB50EA6A010FE96E010EEA22A1
:10133000110EDBCFEFFF080EDB2ADB50EA6A010F4C
:10134000E96E010EEA22120EDBCFEFFF080EDB2A58
:10135000DB50EA6A010FE96E010EEA22100EDBCFC4
:10136000EFFF080EDB2A40DC35DC040E01014827C4
:10137000000E49234A234B238FD60101010E036F30
:101380000001605104E10101036B7AEC39F0F56E64
:10139000130EE15C02E2E16AE552E16EF550E552BE
:1013A000E7CFD9FF1200D9CFE6FFE1CFD9FF0B0E6F
:1013B000E126030EDF6E0101026B036B01013F0E9C
:1013C000006F4C0EE96E010EEA6E01014851EE5CB1
:1013D0004951EE584A51EE584B51EE5803E2000184
:1013E000616BA7D10001615160E148C114F049C1AE
:1013F00015F0166A176A050E48C1DBFF060E49C1D3
:10140000DBFF070E16C0DBFF080E17C0DBFFD9504D
:10141000050FE96EDACFEAFF040EE76ED890EF36DB
:10142000010EEB36020EEB36030EEB36E706F6E165
:10143000E1EC38F00001010E616F85DCF00EE66E24
:10144000070EE66E200EE66EE66AB6EC05F0E55293
:10145000E552E552E552900EE66E010EE66E880EFC
:10146000E66EE66AB6EC05F0E552E552E552E55265
:10147000050EDBCF14F0060EDBCF15F0070EDBCF29
:1014800016F0080EDBCF17F0060E1412168A14C0E1
:10149000E6FF15C0E6FF16C0E6FF17C0E6FFB6EC94
:1014A00005F0E552E552E552E552480EE96E010EAF
:1014B000EA6EEE5001014C5D146EEE504D59156E02
:1014C000EE504E59166EEE504F59176E142A000EFC
:1014D000152216221722010E14C0DBFF020E15C0C2
:1014E000DBFF030E16C0DBFF040E17C0DBFF010E8F
:1014F000DBCF05F0020EDBCF06F0030EDBCF07F0EB
:10150000040EDBCF08F00834000E081809E6D88076
:10151000380E0554000E0654000E0754000E0854F1
:101520000CE2380EF36E010EF3CFDBFF020EDB6A26
:10153000030EDB6A040EDB6A02D00001616B010E50
:10154000DBCF02F1030EDF6EDFCF14F0156A166AEF
:10155000176A010EDBCF18F0020EDBCF19F0030E75
:10156000DBCF1AF0040EDBCF1BF0050E185E000E69
:10157000195A1A5A1B5A1B501718E8AE02D01734C2
:1015800008D01450185C1550195816501A58175096
:101590001B5801E2C4D0800EE66E030EE66EEB0E21
:1015A000E66EE66AB6EC05F0E552E552E552E55224
:1015B0000CEC06F0EAEC05F0EAEC05F00CEC06F0B9
:1015C000EAEC05F0EAEC05F00CEC06F0EAEC05F0CC
:1015D000EAEC05F00CEC06F0EAEC05F0EAEC05F0BC
:1015E000E66A26EC06F0E552EAEC05F077EC06F048
:1015F000090EF3CFDBFF0A0EF4CFDBFFDF50EA6A00
:10160000010FE96E010EEA22090EDBCFEFFFDF2AA0
:10161000DF50EA6A010FE96E010EEA220A0EDBCF03
:10162000EFFFDF2AEAEC05F0010EE66E26EC06F08D
:10163000E552EAEC05F077EC06F0090EF3CFDBFF9C
:101640000A0EF4CFDBFFDF50EA6A010FE96E010EEC
:10165000EA22090EDBCFEFFFDF2ADF50EA6A010F33
:10166000E96E010EEA220A0EDBCFEFFFDF2AEAEC79
:1016700005F0020EE66E26EC06F0E552EAEC05F007
:1016800077EC06F0090EF3CFDBFF0A0EF4CFDBFF99
:10169000DF50EA6A010FE96E010EEA22090EDBCF84
:1016A000EFFFDF2ADF50EA6A010FE96E010EEA223E
:1016B0000A0EDBCFEFFFDF2AEAEC05F0030EE66E41
:1016C00026EC06F0E552EAEC05F077EC06F0090EA0
:1016D000F3CFDBFF0A0EF4CFDBFFDF50EA6A010F26
:1016E000E96E010EEA22090EDBCFEFFFDF2ADF50A1
:1016F000EA6A010FE96E010EEA220A0EDBCFEFFF64
:10170000DF2AEAEC05F0F4EC05F0EAEC05F0080E4F
:1017100001014827000E49234A234B2315D7010115
:10172000010E036F0001615104E10101036B7AECCA
:1017300039F0F56E0B0EE15C02E2E16AE552E16E12
:10174000F550E552E7CFD9FF12000101026B036BA0
:1017500001013F0E006F1200D9CFE6FFE1CFD9FFA4
:10176000030EE126E1EC38F0A3EC06F0800EE66E05
:101770000F0EE66E200EE66EE66AB6EC05F0E55258
:10178000E552E552E552900EE66E010EE66E880EC9
:10179000E66EE66AB6EC05F0E552E552E552E55232
:1017A000E66A030EE66EEB0EE66EE66AB6EC05F050
:1017B000E552E552E552E552800EE66E030EE66E06
:1017C000EB0EE66EE66AB6EC05F0E552E552E55240
:1017D000E552020EDB6ADBCF14F0070EE76E141839
:1017E000E8AE02D0E73402D0E750145C61E2B60EF6
:1017F000E66E0B0EE66EBA0EE66EE66AB6EC05F025
:10180000E552E552E552E552EAEC05F0EAEC05F066
:10181000E66A26EC06F0E552EAEC05F077EC06F015
:10182000F3CFDEFFF4CFDDFF020EDB50040DF350EB
:10183000030FE96EEA6AE9BEEA68010EE926010EC5
:10184000EA22DFCFEFFF020EDB50040DF350040F4E
:10185000E96EEA6AE9BEEA68010EE926010EEA22AB
:10186000010EDBCFEFFF020EDB50040DF350050F2E
:10187000E96EEA6AE9BEEA68010EE926010EEA228B
:10188000EF6A020EDB50040DF350060FE96EEA6AB0
:10189000E9BEEA68010EE926010EEA22EF6AEAECE7
:1018A00005F0F4EC05F0EAEC05F0020EDB2A93D724
:1018B0007AEC39F0020EDB50040DF3CF02F1010196
:1018C000036B01013F0E006FF56E030EE15C02E257
:1018D000E16AE552E16EF550E552E7CFD9FF12001B
:1018E00072EF0CF0E1EC38F0A3EC06F0510E0001C1
:1018F000725D01E083D08A0EE66EE66A240EE66E23
:10190000E66AB6EC05F0E552E552E552E5520A0EFC
:10191000E66E3B0EE66E880EE66EE66AB6EC05F005
:10192000E552E552E552E552800EE66E0F0EE66E88
:10193000200EE66EE66AB6EC05F0E552E552E55299
:10194000E552900EE66E010EE66E880EE66EE66AD1
:10195000B6EC05F0E552E552E552E552670EE66E4B
:10196000E66A200EE66EE66AB6EC05F0E552E55250
:10197000E552E552E66A030EE66EEB0EE66EE66AA7
:10198000B6EC05F0E552E552E552E552860EE66EFC
:101990001B0EE66EBB0EE66EE66AB6EC05F0E5528F
:1019A000E552E552E55246EC06F0610EE66EE70EB2
:1019B000E66EA80EE66EE66AB6EC05F0E552E55274
:1019C000E552E552EAEC05F0EAEC05F0020EE66EAF
:1019D000E66AC1EC35F0E552E552610EE66EE70EBF
:1019E000E66EA90EE66EE66AB6EC05F0E552E55243
:1019F000E552E552EAEC05F0EAEC05F0FA0EE66E87
:101A0000070EE66E240EE66EE66AB6EC05F0E552C9
:101A1000E552E552E5520A0EE66E3B0EE66E880E82
:101A2000E66EE66AB6EC05F0E552E552E552E5529F
:101A300046EC06F0610EE66EE70EE66EA80EE66E68
:101A4000E66AB6EC05F0E552E552E552E552EAECFD
:101A500005F0EAEC05F0020EE66EE66AC1EC35F040
:101A6000E552E552610EE66EE70EE66EA90EE66EF1
:101A7000E66AB6EC05F0E552E552E552E552EAECCD
:101A800005F0EAEC05F07AEF39F000018751E96ED4
:101A9000EA6AD890E936EA36500EE926010EEA22C3
:101AA000EECFE3F1EFCFE4F10101E56B0001872B0D
:101AB0008751E96EEA6AD890E936EA36500EE9268F
:101AC000010EEA22EECFE6F1EFCFE7F10101E86B7C
:101AD0000001872B8751E96EEA6AD890E936EA3629
:101AE000500EE926010EEA22EECFE9F1EFCFEAF13E
:101AF0000101EB6B0001872B8751E96EEA6AD890F0
:101B0000E936EA36500EE926010EEA22EECF14F04D
:101B100014C015F0146A166A14500101E61315502A
:101B2000E7131650E8130001872B1200EAEC05F0CA
:101B3000B60EE66E0B0EE66EBB0EE66EE66AB6EC11
:101B400005F0E552E552E552E552EAEC05F0EAEC23
:101B500005F0B60EE66EDB0EE66EBB0EE66EE66ACE
:101B6000B6EC05F0E552E552E552E552EAEC05F037
:101B7000EAEC05F0B60EE66EEB0EE66EBB0EE66E18
:101B8000E66AB6EC05F0E552E552E552E552EAECBC
:101B900005F0EAEC05F019EC06F0EAEF05F0D9CF14
:101BA000E6FFE1CFD9FF0A0EE126400EDF6E01010C
:101BB000600E016F4C0EE96E010EEA6E0101485194
:101BC000EE5C4951EE584A51EE584B51EE5803E243
:101BD0000001626BA6D20101030EEC6F000162519D
:101BE00068E1010E626F0001876B400E875D0EE2B7
:101BF0008751E96EEA6AD890E936EA36500EE9264E
:101C0000010EEA22EE6AED6A872BEFD7876BE1ECD3
:101C100038F0DFCF14F0156A166A176A14AE03D0D5
:101C200015681668176848C104F049C105F04AC133
:101C300006F04BC107F014C009F015C00AF016C039
:101C40000BF017C00CF007EC3FF000500101485DAD
:101C50000101D26F0150010149590101D36F0250B6
:101C600001014A590101D46F035001014B5901018F
:101C7000D56FDFCF14F0156A166A176A14AE03D059
:101C800015681668176848C104F049C105F04AC1D3
:101C900006F04BC107F014C009F015C00AF016C0D9
:101CA0000BF017C00CF007EC3FF000C087F0A3EC7E
:101CB00006F0D20EE96E010EEA6EEE5001014C5DA7
:101CC000EE504D59EE504E59EE504F5901E20FD2A1
:101CD000030E010102250101EC5D01E308D2DF5092
:101CE0000001875D37E2030E010102250101EC5D71
:101CF00031E2EC29E96EEA6AE9BEEA68010EE926FA
:101D0000010EEA22EF50176A176E166AECC1E9FF5E
:101D1000EA6AE9BEEA68010EE926010EEA22EF50FE
:101D200000011624146E000E1720156E0001875155
:101D3000E96EEA6AD890E936EA36500EE926010ED5
:101D4000EA2214C0EEFF15C0EDFF872B020E010141
:101D5000EC27C5D7DF500001875D03E00101035187
:101D6000A8E11A0EE66EE66A240EE66EE66AB6ECA6
:101D700005F0E552E552E552E5520A0EE66E3B0EDD
:101D8000E66E880EE66EE66AB6EC05F0E552E552C0
:101D9000E552E5520001876B010EDB6ADBCF14F0E0
:101DA000070EE76E1418E8AE02D0143403D0E750E3
:101DB000D880145401E261D1166A176A020ED2C1AA
:101DC000DBFF030ED3C1DBFF040E16C0DBFF050EE5
:101DD00017C0DBFFD950020FE96EDACFEAFF040E1D
:101DE000E76ED890EF36010EEB36020EEB36030E9F
:101DF000EB36E706F6E1146A156A176A060E14C098
:101E0000DBFF070E15C0DBFF080ED4C1DBFF090E98
:101E100017C0DBFFD950060FE96EDACFEAFF0C0ED0
:101E2000E76ED890030EEB32020EEB32010EEB326E
:101E3000EF32E706F6E1060EDBCF14F0070EDBCF3C
:101E400015F0080EDBCF16F0090EDBCF17F0168A5F
:101E500014C0E6FF15C0E6FF16C0E6FF17C0E6FF98
:101E6000B6EC05F0E552E552E552E552900EE66E0D
:101E7000010EE66E880EE66EE66AB6EC05F0E552F7
:101E8000E552E552E552020EDBCF14F0030EDBCF34
:101E900015F0040EDBCF16F0050EDBCF17F0070EA2
:101EA0001412168A14C0E6FF15C0E6FF16C0E6FF3E
:101EB00017C0E6FFB6EC05F0E552E552E552E552F3
:101EC000E4DD040E1F0BE3C114F0E4C115F0E5C11D
:101ED00016F006E0D890143615361636E806FAE104
:101EE000168A176A14C0E6FF15C0E6FF16C0E6FFA3
:101EF00017C0E6FFB6EC05F0E552E552E552E552B3
:101F0000040E1F0BE6C114F0E7C115F0E8C116F08E
:101F100006E0D890143615361636E806FAE1148035
:101F2000168A176A14C0E6FF15C0E6FF16C0E6FF62
:101F300017C0E6FFB6EC05F0E552E552E552E55272
:101F4000040E1F0BE9C114F0EAC115F0EBC116F045
:101F500006E0D890143615361636E806FAE11482F3
:101F6000168A176A14C0E6FF15C0E6FF16C0E6FF22
:101F700017C0E6FFB6EC05F0E552E552E552E55232
:101F800084DD040E1F0BE3C114F0E4C115F0E5C1BC
:101F900016F006E0D890143615361636E806FAE143
:101FA000030E1412168A176A14C0E6FF15C0E6FF66
:101FB00016C0E6FF17C0E6FFB6EC05F0E552E552A5
:101FC000E552E552040E1F0BE6C114F0E7C115F00F
:101FD000E8C116F006E0D890143615361636E80635
:101FE000FAE11484168A176A14C0E6FF15C0E6FFEA
:101FF00016C0E6FF17C0E6FFB6EC05F0E552E55265
:10200000E552E552040E1F0BE9C114F0EAC115F0C8
:10201000EBC116F006E0D890143615361636E806F1
:10202000FAE1050E1412168A176A14C0E6FF15C0ED
:10203000E6FF16C0E6FF17C0E6FFB6EC05F0E55276
:10204000E552E552E552E66A030EE66EEB0EE66EE9
:10205000E66AB6EC05F0E552E552E552E55266DD7A
:1020600065DDEAEC05F0080E0101D227000ED3234E
:10207000D423D523010EDB2A91D646EC06F0610E5F
:10208000E66EE70EE66EA80EE66EE66AB6EC05F0C2
:10209000E552E552E552E552EAEC05F0EAEC05F0CE
:1020A000EAEC05F0EAEC05F0020EE66EE66AC1EC39
:1020B00035F0E552E552610EE66EE70EE66EA90ECA
:1020C000E66EE66AB6EC05F0E552E552E552E552F9
:1020D000EAEC05F0EAEC05F0EAEC05F0EAEC05F0D4
:1020E000F4EC05F0EAEC05F00001876BE2D5D20EC6
:1020F000E96E010EEA6EEE5001014C5DEE504D5955
:10210000EE504E59EE504F5903E30101035102E1E5
:102110000001626B0001625102E17AEC39F00101C9
:10212000026BF56E0A0EE15C02E2E16AE552E16ED5
:10213000F550E552E7CFD9FF1200D9CFE6FFE1CF46
:10214000D9FF0C0EE126100EDF6E4C0EE96E010E6B
:10215000EA6E01014851EE5C4951EE584A51EE5881
:102160004B51EE5803E20001636BD1D20101030E23
:10217000EC6F0001635124E1010E636F0001876B76
:10218000400E875D0EE28751E96EEA6AD890E93623
:10219000EA36500EE926010EEA22EE6AED6A872B36
:1021A000EFD7876BE1EC38F048C1DDF149C1DEF1D2
:1021B0004AC1DFF14BC1E0F10001876BA3EC06F0EF
:1021C000DD0EE96E010EEA6EEE5001014C5DEE503F
:1021D0004D59EE504E59EE504F5901E27ED2030E4A
:1021E000010102250101EC5D01E377D2DF5000011E
:1021F000875D4CE2030E010102250101EC5D46E220
:10220000EC29E96EEA6AE9BEEA68010EE926010EE8
:10221000EA22EF50E66E00018751E96EEA6AD89033
:10222000E936EA36500EE926010EEA22E552E75079
:10223000EE6EED6A8751E96EEA6AD890E936EA36C1
:10224000500EE926010EEA22EE50ED6EEF6AECC167
:10225000E9FFEA6AE9BEEA68010EE926010EEA2210
:10226000EF50146E156A8751E96EEA6AD890E93624
:10227000EA36500EE926010EEA221450EE121550ED
:10228000ED12872B040E0101EC27B0D7DF500001BF
:10229000875D03E00101035193E15A0EE66EE66AA1
:1022A000240EE66EE66AB6EC05F0E552E552E5521C
:1022B000E5520A0EE66E3B0EE66E880EE66EE66AA4
:1022C000B6EC05F0E552E552E552E552060EDB6A42
:1022D000070EDB6A010EDB6ADBCF14F0030EE76E3C
:1022E0001418E8AE02D0143403D0E750D880145448
:1022F00001E2C1D1DDC114F0DEC115F0166A176A22
:10230000020EDDC1DBFF030EDEC1DBFF040E16C0D3
:10231000DBFF050E17C0DBFFD950020FE96EDACFE5
:10232000EAFF040EE76ED890EF36010EEB36020E90
:10233000EB36030EEB36E706F6E1F00EE66E070E1F
:10234000E66E200EE66EE66AB6EC05F0E552E55262
:10235000E552E552900EE66E010EE66E880EE66ED0
:10236000E66AB6EC05F0E552E552E552E552020E9A
:10237000DBCF14F0030EDBCF15F0040EDBCF16F02D
:10238000050EDBCF17F0070E1412168A14C0E6FFF5
:1023900015C0E6FF16C0E6FF17C0E6FFB6EC05F075
:1023A000E552E552E552E552060EDBCFE9FF070E96
:1023B000DBCFEAFF010ED890E936EA36E806FBE10A
:1023C000500EE926010EEA22EECF14F0EFCF15F001
:1023D000080E14C0DBFF090E15C0DBFF0A0EDB6A16
:1023E0000B0EDB6A040E186ED950080FE96EDACFB7
:1023F000EAFF18501F0BEECF14F0EECF15F0EECF22
:1024000016F0EECF17F007E0D890143615361636D2
:102410001736E806F9E1168A14C0E6FF15C0E6FF94
:1024200016C0E6FF17C0E6FFB6EC05F0E552E55230
:10243000E552E552010EE76E060EDBCFE9FF070E0F
:10244000DBCFEAFFE750E926000EEA22010ED89022
:10245000E936EA36E806FBE1500EE926010EEA22EB
:10246000EECF14F0EFCF15F0080E14C0DBFF090E0D
:1024700015C0DBFF0A0EDB6A0B0EDB6A040E186E5A
:10248000D950080FE96EDACFEAFF18501F0BEECFD4
:1024900014F0EECF15F0EECF16F0EECF17F007E008
:1024A000D8901436153616361736E806F9E114803A
:1024B000168A14C0E6FF15C0E6FF16C0E6FF17C077
:1024C000E6FFB6EC05F0E552E552E552E552020EA4
:1024D000E76E060EDBCFE9FF070EDBCFEAFFE75022
:1024E000E926000EEA22010ED890E936EA36E8061F
:1024F000FBE1500EE926010EEA22EECF14F0EFCFF9
:1025000015F0080E14C0DBFF090E15C0DBFF0A0E24
:10251000DB6A0B0EDB6A040E186ED950080FE96EE9
:10252000DACFEAFF18501F0BEECF14F0EECF15F004
:10253000EECF16F0EECF17F007E0D8901436153630
:1025400016361736E806F9E11482168A14C0E6FF3B
:1025500015C0E6FF16C0E6FF17C0E6FFB6EC05F0B3
:10256000E552E552E552E552030EE76E060EDBCF6B
:10257000E9FF070EDBCFEAFFE750E926000EEA226B
:10258000010ED890E936EA36E806FBE1500EE9265E
:10259000010EEA22EECF14F0EFCF15F0080E14C0B2
:1025A000DBFF090E15C0DBFF0A0EDB6A0B0EDB6AD0
:1025B000040E186ED950080FE96EDACFEAFF1850F2
:1025C0001F0BEECF14F0EECF15F0EECF16F0EECFDE
:1025D00017F007E0D8901436153616361736E80689
:1025E000F9E1030E1412168A14C0E6FF15C0E6FFC7
:1025F00016C0E6FF17C0E6FFB6EC05F0E552E5525F
:10260000E552E552D950060FE96EDACFEAFF040E23
:10261000EE26000EED22E66A030EE66EEB0EE66E87
:10262000E66AB6EC05F0E552E552E552E552EAEC11
:1026300005F019EC06F0EAEC05F0EAEC05F019EC0F
:1026400006F0EAEC05F0EAEC05F019EC06F0EAEC2D
:1026500005F0EAEC05F019EC06F0EAEC05F0EAEC1E
:1026600005F0080E0101DD27000EDE23DF23E02345
:10267000010EDB2A31D646EC06F0610EE66EE70E5F
:10268000E66EA80EE66EE66AB6EC05F0E552E55297
:10269000E552E552EAEC05F0EAEC05F0020EE66ED2
:1026A000E66AC1EC35F0E552E552610EE66EE70EE2
:1026B000E66EA90EE66EE66AB6EC05F0E552E55266
:1026C000E552E552EAEC05F0EAEC05F0F4EC05F031
:1026D000EAEC05F00001876B73D5DD0EE96E010EA3
:1026E000EA6EEE5001014C5DEE504D59EE504E59E0
:1026F000EE504F5903E30101035102E10001636B06
:102700000001635102E17AEC39F00101026BF56ED0
:102710000C0EE15C02E2E16AE552E16EF550E55231
:10272000E7CFD9FF12000101026B036B01013F0EDD
:10273000006F1200D9CFE6FFE1CFD9FF050EE126E9
:10274000E1EC38F0A3EC06F0070EE66EE66A200E28
:10275000E66EE66AB6EC05F0E552E552E552E55262
:10276000DF6ADFCF14F0070EE76E1418E8AE02D070
:10277000E73402D0E750145C01E3FDD08A0EE66E28
:10278000E66A240EE66EE66AB6EC05F0E552E5521E
:10279000E552E5520A0EE66E3B0EE66E880EE66ED8
:1027A000E66AB6EC05F0E552E552E552E552800ED8
:1027B000E66E0F0EE66E200EE66EE66AB6EC05F0EB
:1027C000E552E552E552E552900EE66E010EE66ED8
:1027D000880EE66EE66AB6EC05F0E552E552E55283
:1027E000E552040EDF02F350040FE96EEA6AE9BE17
:1027F000EA68010EE926010EEA22EFCF14F0010E7D
:1028000014C0DBFF020EDB6A030EDB6A040EDB6A18
:10281000D950010FE96EDACFEAFFEF50EE6AEFCF41
:10282000F4FFEE6EEF50F4CFEEFFEF6E040EDF021A
:10283000F350030FE96EEA6AE9BEEA68010EE92681
:10284000010EEA22EFCF14F0156A166A176AD95002
:10285000010FE96EDACFEAFFEE501412EE501512B6
:10286000EE501612EE501712010E14C0DBFF020ECE
:1028700015C0DBFF030E16C0DBFF040E17C0DBFF25
:10288000D950010FE96EDACFEAFF040EE76ED89057
:10289000EF36010EEB36020EEB36030EEB36E70693
:1028A000F6E1010EDBCF14F0020EDBCF15F0030EC4
:1028B000DBCF16F0040EDBCF17F0168A14C0E6FF4C
:1028C00015C0E6FF16C0E6FF17C0E6FFB6EC05F040
:1028D000E552E552E552E552E66A030EE66EEB0E6E
:1028E000E66EE66AB6EC05F0E552E552E552E552D1
:1028F000960EE66E1B0EE66EBB0EE66EE66AB6EC54
:1029000005F0E552E552E552E552EAEC05F0EAEC55
:1029100005F046EC06F0610EE66EE70EE66EA80ED8
:10292000E66EE66AB6EC05F0E552E552E552E55290
:10293000EAEC05F0EAEC05F07FC0E6FF80C0E6FFB8
:1029400083EC35F0E552E552610EE66EE70EE66E79
:10295000A90EE66EE66AB6EC05F0E552E552E552E0
:10296000E552EAEC05F0EAEC05F0F4EC05F0EAECEF
:1029700005F0DF2AF6D67AEC39F0F56E050EE15C4B
:1029800002E2E16AE552E16EF550E552E7CFD9FF88
:02299000120033
:0E299200D9CFE6FFE1CFD9FF030EE126FB0E01
:1029A000DBCF14F01450E76E020EE7CFDBFFD950F7
:1029B000FB0FE96EFF0EDA20EA6E080EE76ED89084
:1029C000030EEB32020EEB32010EEB32EF32E70672
:1029D000F6E1FB0EDBCF14F0FC0EFD0EFE0E1450E4
:1029E000E76E010EE7CFDBFFD950FB0FE96EFF0E5C
:1029F000DA20EA6E080EE76ED890030EEB32020E74
:102A0000EB32010EEB32EF32E706F6E1FB0EDBCFE5
:102A100014F0FC0EFD0EDBCF16F0FE0EDBCF17F030
:102A20001450DF6EDF50146E156AE8500E0E15124A
:102A300014C0E6FF15C0E6FFC9D8E552E552F80E0E
:102A4000E66E6E0EE66EC2D8E552E552010EDB5020
:102A5000146E156AE8500E0E151214C0E6FF15C06C
:102A6000E6FFB4D8E552E552F70EE66E6E0EE66E5E
:102A7000ADD8E552E552020EDB50146E156AE850EF
:102A80000E0E151214C0E6FF15C0E6FF9FD8E552E2
:102A9000E552F60EE66E6E0EE66E98D8E552E552F9
:102AA000F56E030EE15C02E2E16AE552E16EF5507B
:102AB000E552E7CFD9FF1200D9CFE6FFE1CFD9FF2A
:102AC000FE0EDBCF14F0156A166A3C0E1612176A5A
:102AD00016BE176814C0E6FF15C0E6FF16C0E6FF75
:102AE00017C0E6FF56DFE552E552E552E552E552E2
:102AF000E7CFD9FF1200D9CFE6FFE1CFD9FFFE0E15
:102B0000DBCFE6FF040EE66E85EC37F0E552E552CA
:102B1000010EE66E84EC3FF0E552E552E7CFD9FFB7
:102B20001200D9CFE6FFE1CFD9FFFF0EE76EFD0E11
:102B3000DBCF14F0E7501416156A1450E66E080E39
:102B4000E66E85EC37F0E552E552D950FD0FE96E9F
:102B5000FF0EDA20EA6E080E0F0B06E0EC52D8905A
:102B6000ED32EF32E806FAE1FD0EDBCFE6FF080EAC
:102B7000E66E85EC37F0E552E552010EE66E84EC28
:102B80003FF0E552E552E7CFD9FF1200D9CFE6FF7B
:102B9000E1CFD9FFE65267EC37F0080EE66E35EC70
:102BA00038F0E552DF6E080EE66E35EC38F0E5528F
:102BB000DF6E76EC37F0010EE66E84EC3FF0E55206
:102BC000DF50E552E552E7CFD9FF1200D9CFE6FF3B
:102BD000E1CFD9FFE66A8FDFE552FD0EDBCFE6FFDE
:102BE000FE0EDBCFE6FF9DDFE552E552E552E7CF73
:102BF000D9FF1200D9CFE6FFE1CFD9FF0C0EE66E68
:102C00007ADFE552FD0EDBCFE6FFFE0EDBCFE6FFFF
:102C100088DFE552E552E552E7CFD9FF1200D9CF60
:102C2000E6FFE1CFD9FF0D0EE66E65DFE552FD0E42
:102C3000DBCFE6FFFE0EDBCFE6FF73DFE552E552AA
:102C4000E552E7CFD9FF1200D9CFE6FFE1CFD9FF98
:102C50000F0EE66E50DFE552FD0EDBCFE6FFFE0EF7
:102C6000DBCFE6FF5EDFE552E552E552E7CFD9FF65
:102C70001200D9CFE6FFE1CFD9FFE652E3EC36F000
:102C8000DF6ADFCF14F0030EE76E1418E8AE02D04F
:102C9000E73402D0E750145C0DE2D4EC36F0010EBC
:102CA000E66EE66A83EC35F0E552E552C5EC36F0A7
:102CB000DF2AE7D7D4EC36F0FD0EDBCFE6FFFE0EC1
:102CC000DBCFE6FF83EC35F0E552E552C5EC36F09C
:102CD000000EE66EE66A25DFE552E5520001880542
:102CE00002E1F7EC33F0E552E552E7CFD9FF1200ED
:102CF000D9CFE6FFE1CFD9FF060EE126E1EC38F0AF
:102D0000FE0EE66EE6683F0EE66EE66A42DEE552CD
:102D1000E552E552E552090EE66EEDDEE55236DF8C
:102D2000E66ED950020FE96EDACFEAFFE552E750BE
:102D3000EE6EED6A090EE66EDEDEE55227DFE66E28
:102D4000D950040FE96EDACFEAFFE552E750EE6E94
:102D5000ED6A7AEC39F0040EDBCF16F0050EDBCF0E
:102D600017F016C017F0166A020EDB501624146E08
:102D7000030EDB501720156E14C0DEFFDD6EDECFB4
:102D800014F0DDCF15F014C0F3FF15C0F4FFF56E9D
:102D9000060EE15C02E2E16AE552E16EF550E552B1
:102DA000E7CFD9FF1200D9CFE6FFE1CFD9FF050E5B
:102DB000E126030EDF6E0101026B036B01013F0E82
:102DC000006F4C0EE96E010EEA6E01014851EE5C97
:102DD0004951EE584A51EE584B51EE5803E200016A
:102DE000606BB1D00001605112E1E1EC38F00001FC
:102DF000010E606F48C1E6FF49C1E6FF4AC1E6FF28
:102E00004BC1E6FFC6DDE552E552E552E552480EFC
:102E1000E96E010EEA6EEE5001014C5D146EEE504B
:102E20004D59156EEE504E59166EEE504F59176EA5
:102E3000142A000E152216221722010E14C0DBFFE1
:102E4000020E15C0DBFF030E16C0DBFF040E17C019
:102E5000DBFF010EDBCF05F0020EDBCF06F0030E29
:102E6000DBCF07F0040EDBCF08F00834000E0818A3
:102E700009E6D8803C0E0554000E0654000E075497
:102E8000000E08540CE23C0EF36E010EF3CFDBFF94
:102E9000020EDB6A030EDB6A040EDB6A02D000015D
:102EA000606B010EDBCF02F1030EDF6EDFCF14F09B
:102EB000156A166A176A010EDBCF18F0020EDBCF17
:102EC00019F0030EDBCF1AF0040EDBCF1BF0030E5C
:102ED0001826000E19221A221B2217501B18E8AEC2
:102EE00002D01B3408D01850145C195015581A50D1
:102EF00016581B50175811E2090EE66EFCDDE5521C
:102F000045DEE66EDF50EA6A010FE96E010EEA2245
:102F1000E552E750EF6EDF2AC9D70101010E036FBA
:102F2000DB5001014827020EDB504923030EDB5022
:102F30004A23040EDB504B230001605104E10101E0
:102F4000036B7AEC39F0F56E050EE15C02E2E16AA2
:102F5000E552E16EF550E552E7CFD9FF1200D9CF27
:102F6000E6FFE1CFD9FF0D0EE126030EDF6E010172
:102F7000026B036B01013F0E006F4C0EE96E010EF8
:102F8000EA6E01014851EE5C4951EE584A51EE5843
:102F90004B51EE5803E20001616B2BD100016151EE
:102FA00013E1E1EC38F00001010E616FA60EE66E50
:102FB0009E0EE66E0BDEE552E552A60EE66E9C0E08
:102FC000E66E04DEE552E552480EE96E010EEA6E49
:102FD000EE5001014C5D146EEE504D59156EEE50E1
:102FE0004E59166EEE504F59176E142A000E1522C8
:102FF00016221722010E14C0DBFF020E15C0DBFFE4
:10300000030E16C0DBFF040E17C0DBFF010EDBCF83
:1030100005F0020EDBCF06F0030EDBCF07F0040E47
:10302000DBCF08F00834000E081809E6D8803C0E03
:103030000554000E0654000E0754000E08540CE20E
:103040003C0EF36E010EF3CFDBFF020EDB6A030EC4
:10305000DB6A040EDB6A02D00001616B010EDBCF7C
:1030600002F1030EDF6EDFCF14F0156A166A176ADD
:10307000010EDBCF18F0020EDBCF19F0030EDBCF11
:103080001AF0040EDBCF1BF0030E1826000E1922D7
:103090001A221B2217501B18E8AE02D01B3408D08E
:1030A0001850145C195015581A5016581B501758C0
:1030B00001E395D0156A166A176A050E48C1DBFF51
:1030C000060E15C0DBFF070E16C0DBFF080E17C08B
:1030D000DBFF49C115F0146A166A176AD8901732D7
:1030E000163215321432E806F9E1090E14C0DBFF7E
:1030F0000A0E15C0DBFF0B0E16C0DBFF0C0E17C04F
:10310000DBFF050EDBCF14F0060EDBCF15F0070E4C
:10311000DBCF16F0080EDBCF17F00E0E151214C021
:10312000E6FF15C0E6FF52DDE552E552A90EE66E58
:103130006E0EE66E4BDDE552E552090EDBCF14F064
:103140000A0EDBCF15F00B0EDBCF16F00C0EDBCF2B
:1031500017F00E0E151214C0E6FF15C0E6FF36DD9F
:10316000E552E552AA0EE66E6E0EE66E2FDDE552D2
:10317000E552A60EE66E800EE66E28DDE552E552BB
:10318000A80EE66E500EE66E21DDE552E552F50E14
:10319000E66E6E0EE66E1ADDE552E5523D0E00015A
:1031A000735D06E1000EE66EE66A10DDE552E5525B
:1031B000020EE66EA0DCE552E9DCE66EDF50EA6A5C
:1031C000010FE96E010EEA22E552E750EF6E0101B0
:1031D000482B000E49234A234B23DF2A44D7010101
:1031E000010E036F0001615104E10101036B7AECF0
:1031F00039F0F56E0D0EE15C02E2E16AE552E16E36
:10320000F550E552E7CFD9FF120007EF19F0D9CFFB
:10321000E6FFE1CFD9FFE652E1EC38F048C1E6FF26
:1032200049C1E6FF4AC1E6FF4BC1E6FFC9EC14F015
:10323000E552E552E552E552DF6ADFCF14F0156A38
:10324000166A176A14AE03D0156816681768480E18
:10325000E96E010EEA6EEE5001014C5D186EEE5003
:103260004D59196EEE504E591A6EEE504F591B6E55
:10327000D890183619361A361B361450185C15506B
:10328000195816501A5817501B5815E3090EE66EB8
:1032900032DCE5527BDCE66E030EDF24E96EEA6A7F
:1032A000E9BEEA68010EE926010EEA22E552E7507E
:1032B000EF6EDF2AC2D77AEC39F0DFCF02F10101DD
:1032C000036B01013F0E006FE552E552E7CFD9FFD6
:1032D0001200E1EC38F000017251400A47E07F0A29
:1032E00030E0010A1CE0030A03E0010A54E10ED0B9
:1032F000A60EE66E8E0EE66E69DCE552E552A60E6F
:10330000E66E8C0EE66E62DCE552E552040EE66E69
:103310005CEC15F0E552800EE66EE66A39D0050EDB
:10332000E66E5CEC15F0E5523F0EE66EE66E62DC92
:10333000E552E552040EE66E5CEC15F0E5528F0E98
:1033400025D0050EE66E5CEC15F0E5520A0EE66E31
:10335000010EE66E4FDCE552E552040EE66E5CECC3
:1033600015F0E5528A0EE66E010E11D0050EE66EDE
:103370005CEC15F0E552E668E6683CDCE552E552A7
:10338000040EE66E5CEC15F0E552870EE66EE66E16
:1033900031DCE552E552000EE66EE66A17DCE552D6
:1033A000E552E66A7BEC15F0E55283C0E6FF84C087
:1033B000E6FF83EC35F0E552E552000EE66EE66A74
:1033C00091EC15F0E552E5527AEF39F069EF19F01A
:1033D000D9CFE6FFE1CFD9FF030EE12674C0DFFFAE
:1033E0004C0EE96E010EEA6E01014851EE5C495146
:1033F000EE584A51EE584B51EE5803E20001626B11
:10340000AFD1030EF36E020EF3CFDBFF000162516A
:1034100001E0C8D0010E626F0001876B400E875D2E
:1034200009E28751EA6A500FE96E010EEA22EF6A5B
:10343000872BF4D7876BE1EC38F0DFCF14F0156AF7
:10344000166A176A14AE03D015681668176848C163
:1034500004F049C105F04AC106F04BC107F014C0A1
:1034600009F015C00AF016C00BF017C00CF007ECFD
:103470003FF000500101485D0101D26F0150010190
:1034800049590101D36F025001014A590101D46F1A
:10349000035001014B590101D56FDFCF14F0156ABC
:1034A000166A176A14AE03D015681668176848C103
:1034B00004F049C105F04AC106F04BC107F014C041
:1034C00009F015C00AF016C00BF017C00CF007EC9D
:1034D0003FF000C087F000016D5102E13C0E6D6FBE
:1034E000E1EC38F000016D51400A10E07D0A0EE079
:1034F000010A24E1A60EE66E8E0EE66EE6EC15F0ED
:10350000E552E552A60EE66E8C0E13D0A60EE66EC0
:103510008E0EE66EE6EC15F0E552E552A60EE66E6E
:103520008C0EE66EE6EC15F0E552E552A60EE66E60
:10353000840EE66EE6EC15F0E552E552060EE66EF8
:103540005CEC15F0E552000EE66EE66AFAEC15F05A
:10355000E552E55200016D513E0A14E07E0A06E094
:103560007F0A04E0020A02E0010A1CE1A60EE66EF0
:103570008E0EE66EE6EC15F0E552E552A60EE66E0E
:103580009C0E0BD0A60EE66E9C0EE66EE6EC15F0D9
:10359000E552E552A60EE66E840EE66EE6EC15F0F8
:1035A000E552E552D20EE96E010EEA6EEE500101CF
:1035B0004C5DEE504D59EE504E59EE504F5901E2D0
:1035C000B5D0030E01010225F36E020EDBCFF4FF2E
:1035D000F350F45C01E3AAD0DF500001875D2BE2D9
:1035E000030E01010225F36E020EDBCFF4FFF35050
:1035F000F45C21E2020EDBCFE9FFEA6AE9BEEA6889
:10360000010EE926010EEA22EF50E66E0001875115
:10361000EA6A500FE96E010EEA22E552E750EF6EBA
:10362000872B020E146EDBCFE7FFE850E726020E71
:10363000E7CFDBFFD1D7DF500001875D03E0010159
:103640000351B0E1D2C1E6FFD3C1E6FFD4C1E6FF2A
:10365000D5C1E6FFC9EC14F0E552E552E552E5525A
:103660000001876BDF50875D4BE2020EDF5C875DF8
:103670001DE28729EA6A500FE96E010EEA22EF5037
:10368000176A176E166A8751EA6A500FE96E010EC3
:10369000EA22EF5000011624146E000E1720156E5A
:1036A00014C0E6FFE66E0FEC16F024D08729EA6A14
:1036B000500FE96E010EEA22EF50176A176E166A74
:1036C0008751EA6A500FE96E010EEA22EF500001BD
:1036D0001624146E000E1720156E14C0E6FFE66E59
:1036E00024EC16F0E552E55279C0E6FF7AC0E6FF19
:1036F00039EC16F0E552E552020E00018727B2D7E9
:10370000DFCF14F0156A166A176A14AE03D0156875
:103710001668176814500101D2271550D32316508C
:10372000D4231750D5230001876B3CD7D20EE96E06
:10373000010EEA6EEE5001014C5DEE504D59EE5017
:103740004E59EE504F5903E30101035102E10001CC
:10375000626B0001625102E17AEC39F00101026B07
:10376000F56E030EE15C02E2E16AE552E16EF550AE
:10377000E552E7CFD9FF1200D9CFE6FFE1CFD9FF5D
:10378000030EE126DDC114F0156A166A176A0E0EE3
:103790001512DDC1E6FF15C0E6FFE6EC15F0E552B7
:1037A000E552A90EE66E6E0EE66EE6EC15F0E552F9
:1037B000E552DEC114F0DFC115F0E0C116F00001E2
:1037C000176A0E0E1512DEC1E6FF15C0E6FFE6EC25
:1037D00015F0E552E552AA0EE66E6E0EE66EE6ECC8
:1037E00015F0E552E552FE0EDB50146E156AE850F6
:1037F0000E0E151214C0E6FF15C0E6FFE6EC15F03C
:10380000E552E552A80EE66E6E0EE66EE6EC15F099
:10381000E552E552A60EE66E840EE66EE6EC15F075
:10382000E552E552550EE66E0E0EE66EE6EC15F02C
:10383000E552E552A70EE66E6E0EE66EE6EC15F06A
:10384000E552E552AA0EE66E0E0EE66EE6EC15F0B7
:10385000E552E552A70EE66E6E0EE66EE6EC15F04A
:10386000E552E552A60EE66E820EE66EE6EC15F027
:10387000E552E5520A0EDF6E010EE66EE66AC1EC15
:1038800035F0E552E552DF06A60EE66E500EE66E06
:10389000E6EC15F0E552E552F50EE66E6E0EE66EBC
:1038A000E6EC15F0E552E552020EE66E7BEC15F003
:1038B000E552C6EC15F0E66ED950010FE96EDACF8D
:1038C000EAFFE552E750EE6EED6ADFCF14F0000E2E
:1038D000E76E1418E8AE02D0143403D0E750D88055
:1038E000145410E2020EE76E010EDBCF15F0020E4B
:1038F000DBCF16F0E7501516166A020E151801E117
:103900001650BAE0640EE66EE66A83EC35F0E552D6
:10391000E552A60EE66E940EE66EE6EC15F0E55264
:10392000E5520001880502E1F7EC33F0F56E030E75
:10393000E15C02E2E16AE552E16EF550E552E7CF63
:10394000D9FF1200D9CFE6FFE1CFD9FF030EE12660
:10395000DDC114F0156A166A176A0E0E1512DDC164
:10396000E6FF15C0E6FFE6EC15F0E552E552A90EBC
:10397000E66E6E0EE66EE6EC15F0E552E552DEC13F
:1039800014F0DFC115F0E0C116F00001176A0E0E49
:103990001512DEC1E6FF15C0E6FFE6EC15F0E552B4
:1039A000E552AA0EE66E6E0EE66EE6EC15F0E552F6
:1039B000E552FE0EDB50146E156AE8500E0E15121D
:1039C00014C0E6FF15C0E6FFE6EC15F0E552E5523F
:1039D000A80EE66E6E0EE66EE6EC15F0E552E552C8
:1039E000A60EE66E840EE66EE6EC15F0E552E552A4
:1039F000A60EE66E820EE66EE6EC15F0E552E55296
:103A00000A0EDF6E010EE66EE66AC1EC35F0E55295
:103A1000E552DF06A60EE66E500EE66EE6EC15F0F9
:103A2000E552E552F50EE66E6E0EE66EE6EC15F02A
:103A3000E552E552000EE66EE66AE6EC15F0E55258
:103A4000E552020EE66E7BEC15F0E552C6EC15F081
:103A5000E66ED950010FE96EDACFEAFFE552E75082
:103A6000EE6EED6ADFCF14F0000EE76E1418E8AECC
:103A700002D0143403D0E750D880145410E2020E60
:103A8000E76E010EDBCF15F0020EDBCF16F0E7502C
:103A90001516166A020E151801E11650B3E0640EF1
:103AA000E66EE66A83EC35F0E552E552A60EE66E68
:103AB000940EE66EE6EC15F0E552E552000188053D
:103AC00002E1F7EC33F0F56E030EE15C02E2E16A2D
:103AD000E552E16EF550E552E7CFD9FF1200D9CF9C
:103AE000E6FFE1CFD9FFDDC114F0156A166A176A47
:103AF0000E0E1512DDC1E6FF15C0E6FFE6EC15F06F
:103B0000E552E552A90EE66E6E0EE66EE6EC15F095
:103B1000E552E552FE0EDB50146E156AE8500E0EAB
:103B2000151214C0E6FF15C0E6FFE6EC15F0E552ED
:103B3000E552A80EE66E6E0EE66EE6EC15F0E55266
:103B4000E552A60EE66E840EE66EE6EC15F0E55242
:103B5000E552550EE66E0E0EE66EE6EC15F0E552F9
:103B6000E552A70EE66E6E0EE66EE6EC15F0E55237
:103B7000E552AA0EE66E0E0EE66EE6EC15F0E55284
:103B8000E552A70EE66E6E0EE66EE6EC15F0E55217
:103B9000E552A60EE66E820EE66EE6EC15F0E552F4
:103BA000E552000EE66EE66AE6EC15F0E552E552E7
:103BB000E66A7BEC15F0E5527DC0E6FF7EC0E6FFCD
:103BC00083EC35F0E552E552000EE66EE66A91ECC4
:103BD00015F0E552E552640EE66EE66A83EC35F0C8
:103BE000E552E552A60EE66E940EE66EE6EC15F092
:103BF000E552E5520001880502E1F7EC33F0E552A9
:103C0000E7CFD9FF1200D9CFE6FFE1CFD9FF020EEF
:103C1000E1264C0EE96E010EEA6E01014851EE5CA0
:103C20004951EE584A51EE584B51EE5803E200010B
:103C3000636B8AD0DE52030EDD6E0001635122E118
:103C400000016E5102E13C0E6E6FE1EC38F00001B4
:103C5000010E636F48C1DDF149C1DEF14AC1DFF1F8
:103C60004BC1E0F1A60EE66E9E0EE66EE6EC15F098
:103C7000E552E552A60EE66E9C0EE66EE6EC15F0F9
:103C8000E552E552DD0EE96E010EEA6EEE500101DD
:103C90004C5DEE504D59EE504E59EE504F593CE3AD
:103CA000030E01010225F36E010EDBCFF4FFF3508A
:103CB000F45C32E2010EDBCFE9FFEA6AE9BEEA68B2
:103CC000010EE926010EEA22EFCFDFFF00016E515F
:103CD0003E0A09E0030A03E0010A09E108D0DFCF48
:103CE000E6FFFDDE07D0DFCFE6FF46DD03D0DFCF06
:103CF000E6FF28DEE552020E146E010EDBCFE7FF71
:103D00001450E726010EE7CFDBFF0101DD2B000E8B
:103D1000DE23DF23E023B6D7DD0EE96E010EEA6E67
:103D2000EE5001014C5DEE504D59EE504E59EE50A3
:103D30004F5903E30101035102E10001636B0001EC
:103D4000635102E17AEC39F0F56E020EE15C02E2B9
:103D5000E16AE552E16EF550E552E7CFD9FF120076
:103D600000016F5102E13C0E6F6FE1EC38F0000191
:103D7000000ED8806B55000E6C551CE2A60EE66E48
:103D80008E0EE66EE6EC15F0E552E552A60EE66EF6
:103D90008C0EE66EE6EC15F0E552E552060EE66E88
:103DA0005CEC15F0E552000EE66EE66AFAEC15F0F2
:103DB000E552E55200016F513E0A10E0030A02E0AD
:103DC000010A1CE1A60EE66E8E0EE66EE6EC15F01C
:103DD000E552E552A60EE66E9C0E0BD0A60EE66EE0
:103DE0009C0EE66EE6EC15F0E552E552A60EE66E88
:103DF000840EE66EE6EC15F0E552E55248C1E6FFAA
:103E000049C1E6FF4AC1E6FF4BC1E6FFC9EC14F029
:103E1000E552E552E552E55201010551176A05C127
:103E200017F0166A045100011624146E000E1720B4
:103E3000156E14C0E6FFE66E0FEC16F0E552E55283
:103E400001010751176A07C117F0166A06510001F0
:103E50001624146E000E1720156E14C0E6FFE66ED1
:103E60000FEC16F0E552E55201010951176A09C13C
:103E700017F0166A085100011624146E000E172060
:103E8000156E14C0E6FFE66E0FEC16F0E552E55233
:103E900001010B51176A0BC117F0166A0A51000194
:103EA0001624146E000E1720156E14C0E6FFE66E81
:103EB00024EC16F0E552E55281C0E6FF82C0E6FF31
:103EC00039EC16F0E552E5527AEF39F0D9CFE6FF3A
:103ED000E1CFD9FFFD0EDBCFE6FFFE0EDBCFE6FF25
:103EE00024EC16F0E552E5527FC0E6FF80C0E6FF05
:103EF00039EC16F0E552E5523F0E0001705D1CE111
:103F0000000EE66EE66AE6EC15F0E552E552000EAC
:103F1000E66EE66AE6EC15F0E552E552000EE66E56
:103F2000E66AE6EC15F0E552E552000EE66EE66A4A
:103F3000E6EC15F0E552E552DBC1E6FFDCC1E6FF39
:103F4000E6EC15F0E552E552F60EE66E6E0EE66E04
:103F5000E6EC15F0E552E5520101DB2B000EDC2307
:103F6000E552E7CFD9FF12000001705102E13C0E8B
:103F7000706FE1EC38F0000170513F0A16E0010A61
:103F800008E0030A12E0010A2EE1A60EE66E8E0E8C
:103F900003D0A60EE66E840EE66EE6EC15F0E55252
:103FA000E552A60EE66E8C0E19D0A60EE66E8E0EAB
:103FB000E66EE6EC15F0E552E552A60EE66E8C0EC6
:103FC000E66EE6EC15F0E552E552E66AEF0EE66EB7
:103FD000E6EC15F0E552E552E66AF80EE66EE6EC20
:103FE00015F0E552E55248C1E6FF49C1E6FF4AC176
:103FF000E6FF4BC1E6FFC9EC14F0E552E552E5528D
:10400000E5520101010EDB6F0E0EDC6F0101045160
:10401000E66EE66A5BDFE552E55201010651156A7C
:1040200006C115F0146A14C0E6FF06C1E6FF4EDFB4
:10403000E552E55201010851E66EE66A47DFE552B6
:10404000E55201010A51156A0AC115F0146A14C03B
:10405000E6FF0AC1E6FF3ADFE552E55201010C51E5
:10406000E66EE66A33DFE552E55201010E51156A4C
:104070000EC115F0146A14C0E6FF0EC1E6FF26DF7C
:10408000E552E55201011051E66EE66A1FDFE55286
:10409000E55201011251156A12C115F0146A14C0DB
:1040A000E6FF12C1E6FF12DFE552E55201011451AD
:1040B000E66EE66A0BDFE552E55201011651156A1C
:1040C00016C115F0146A14C0E6FF16C1E6FFFEDE45
:1040D000E552E55201011851E66EE66AF7DEE55257
:1040E000E55201011A51156A1AC115F0146A14C07B
:1040F000E6FF1AC1E6FFEADEE552E55201011C5176
:10410000E66EE66AE3DEE552E55201011E51156AEC
:104110001EC115F0146A14C0E6FF1EC1E6FF24ECB0
:1041200016F0E552E5527FC0E6FF80C0E6FF39ECAD
:1041300016F0E552E5523F0E0001705D1CE1000EE5
:10414000E66EE66AE6EC15F0E552E552000EE66E24
:10415000E66AE6EC15F0E552E552000EE66EE66A18
:10416000E6EC15F0E552E552000EE66EE66AE6EC86
:0A41700015F0E552E5527AEF39F040
:06417A000001920501E1C5
:1041800012001BEC39F0E66A050EE66EBCEC37F067
:10419000E552E552010EE66E84EC3FF0E55200EC8C
:1041A00006F000EC06F0EAEC05F0EAEC05F0EAECCB
:1041B00005F000EC06F0EAEF05F0D9CFE6FFE1CF1D
:1041C000D9FF020EE126D9DFF00EE66E0F0EE66E85
:1041D000200EE66EE66AB6EC05F0E552E552E552D1
:1041E000E552900EE66E010EE66E880EE66EE66A09
:1041F000B6EC05F0E552E552E552E552060EE66EE4
:10420000E66A200EE66EE66AB6EC05F0E552E55287
:10421000E552E552470EE66E780EE66E200EE66E2B
:10422000E66AB6EC05F0E552E552E552E552EAECF5
:1042300005F0B60EE66E0B0EE66EBA0EE66EE66A98
:10424000B6EC05F0E552E552E552E552EAEC05F030
:10425000EAEC05F077EC06F0F3CFDEFFF4CFDDFFFC
:10426000B60EE66E0B0EE66EBA0EE66EE66AB6ECBB
:1042700005F0E552E552E552E552EAEC05F0EAECCC
:1042800005F077EC06F0F3CFEDF1F4CFEEF17AEC38
:1042900039F0DECF14F0DDCF15F014C0F3FF15C0F8
:1042A000F4FFF56E020EE15C02E2E16AE552E16EB6
:1042B000F550E552E7CFD9FF1200D9CFE6FFE1CFA5
:1042C000D9FF110EE126030EF36E080EF3CFDBFFCC
:1042D0000101026B036B01013F0E006F4C0EE96E92
:1042E000010EEA6E01014851EE5C4951EE584A5107
:1042F000EE584B51EE5803E20001606B76D200019C
:10430000605101E0B6D0010E606F166A176A48C1AD
:10431000DFFF49C1DBFF020E16C0DBFF030E17C033
:10432000DBFFD9CFE9FFDACFEAFF040EE76ED890C2
:10433000EF36010EEB36020EEB36030EEB36E706D8
:10434000F6E14AC116F0146A156A176A040E14C021
:10435000DBFF050E15C0DBFF060E4AC1DBFF070EB3
:1043600017C0DBFFD950040FE96EDACFEAFF0C0E5D
:10437000E76ED890030EEB32020EEB32010EEB32F9
:10438000EF32E706F6E1F9DE040EDBCF14F0050E9E
:10439000DBCF15F0060EDBCF16F0070EDBCF17F0E4
:1043A000168A14C0E6FF15C0E6FF16C0E6FF17C068
:1043B000E6FFB6EC05F0E552E552E552E552D9507C
:1043C000040FE96EDACFEAFF040EE76ED890030E11
:1043D000EB32020EEB32010EEB32EF32E706F6E182
:1043E000900EE66E010EE66E880EE66EE66AB6EC9C
:1043F00005F0E552E552E552E552D9CFE9FFDACFB3
:10440000EAFFEECF14F0EECF15F0EECF16F0EFCFBF
:1044100017F0060E1412168A14C0E6FF15C0E6FF48
:1044200016C0E6FF17C0E6FFB6EC05F0E552E55210
:10443000E552E552D9CFE9FFDACFEAFF040EE76E85
:10444000D890030EEB32020EEB32010EEB32EF325C
:10445000E706F6E1470EE66E780EE66E200EE66E93
:10446000E66AB6EC05F0E552E552E552E552EAECB3
:1044700005F0480EE96E010EEA6EEE5001014C5D4A
:10448000146EEE504D59156EEE504E59166EEE509C
:104490004F59176E142A000E152216221722030EEA
:1044A000096E0A6A0B6A0C6A14C004F015C005F0A4
:1044B00016C006F017C007F0A2EC3EF000C014F0E2
:1044C00001C015F002C016F003C017F0D8901732E3
:1044D000163215321432090E14C0DBFF0A0E15C055
:1044E000DBFF0B0E16C0DBFF0C0E17C0DBFF090E47
:1044F000DBCF05F00A0EDBCF06F00B0EDBCF07F0AB
:104500000C0EDBCF08F00834000E081809E6D8803E
:104510003C0E0554000E0654000E0754000E0854BD
:104520000CE23C0EF36E090EF3CFDBFF0A0EDB6AE2
:104530000B0EDB6A0C0EDB6A02D00001606B090E09
:10454000DBCF02F1030EF36E080EF3CFDBFF080E94
:10455000DBCF14F0156A166A176A090EDBCF18F064
:104560000A0EDBCF19F00B0EDBCF1AF00C0EDBCFEF
:104570001BF0030E1826000E19221A221B22030E0E
:10458000185E000E195A1A5A1B5A1B501718E8AE1B
:1045900002D0173408D01450185C15501958165012
:1045A0001A5817501B5801E20ED1960EE66E0B0EEC
:1045B000E66EBA0EE66EE66AB6EC05F0E552E55236
:1045C000E552E552EAEC05F0EAEC05F077EC06F08E
:1045D0000D0EF3CFDBFF0E0EF4CFDBFFB60EE66E53
:1045E0008B0EE66EBA0EE66EE66AB6EC05F0E552A4
:1045F000E552E552E552EAEC05F0EAEC05F077EC1D
:1046000006F00F0EF3CFDBFF100EF4CFDBFF080E2A
:10461000DB50EA6A010FE96E010EEA220D0EDBCFD4
:10462000EFFF080EDB2ADB50EA6A010FE96E010E8C
:10463000EA220E0EDBCFEFFF080EDB2ADB50EA6A20
:10464000010FE96E010EEA220F0EDBCFEFFF080E1D
:10465000DB2A020E01014827000E49234A234B237F
:10466000166A176A48C1DFFF010E49C1DBFF020E5F
:1046700016C0DBFF030E17C0DBFFD9CFE9FFDACF8F
:10468000EAFF040EE76ED890EF36010EEB36020E0D
:10469000EB36030EEB36E706F6E1146A156A176A85
:1046A000040E14C0DBFF050E15C0DBFF060E4AC169
:1046B000DBFF070E17C0DBFFD950040FE96EDACF1E
:1046C000EAFF0C0EE76ED890030EEB32020EEB32CF
:1046D000010EEB32EF32E706F6E1040EDBCF14F009
:1046E000050EDBCF15F0060EDBCF16F0070EDBCF85
:1046F00017F0168A14C0E6FF15C0E6FF16C0E6FFE5
:1047000017C0E6FFB6EC05F0E552E552E552E5527A
:10471000D950040FE96EDACFEAFF040EE76ED890A5
:10472000030EEB32020EEB32010EEB32EF32E706F4
:10473000F6E1900EE66E010EE66E880EE66EE66A13
:10474000B6EC05F0E552E552E552E552D9CFE9FF66
:10475000DACFEAFFEECF14F0EECF15F0EECF16F081
:10476000EFCF17F0060E1412168A14C0E6FF15C01C
:10477000E6FF16C0E6FF17C0E6FFB6EC05F0E5520F
:10478000E552E552E552D9CFE9FFDACFEAFF040E50
:10479000E76ED890030EEB32020EEB32010EEB32D5
:1047A000EF32E706F6E1470EE66E780EE66E200E73
:1047B000E66EE66AB6EC05F0E552E552E552E552E2
:1047C000EAEC05F0C4D600EC06F0EAEC05F00101D5
:1047D000010E036F0001605108E100EC06F0EAEC05
:1047E00005F00101036B7AEC39F0F56E110EE15C16
:1047F00002E2E16AE552E16EF550E552E7CFD9FFFA
:1048000012000101026B036B01013F0E006F1200E9
:104810000101486B496B4A694B6B0101020E4C6FF9
:104820004D6B4E694F6B5DEF21F0D9CFE6FFE1CFC5
:10483000D9FF030EE126A1DC800EE66E0F0EE66EB8
:10484000200EE66EE66AB6EC05F0E552E552E5525A
:10485000E552900EE66E010EE66E880EE66EE66A92
:10486000B6EC05F0E552E552E552E552060EE66E6D
:10487000E66A200EE66EE66AB6EC05F0E552E55211
:10488000E552E552470EE66E780EE66E200EE66EB5
:10489000E66AB6EC05F0E552E552E552E552EAEC7F
:1048A00005F0020EDB6ADBCF14F00B0EE76E141876
:1048B000E8AE02D0E73402D0E750145C55E2B60E01
:1048C000E66E0B0EE66EBA0EE66EE66AB6EC05F024
:1048D000E552E552E552E552EAEC05F0EAEC05F066
:1048E00077EC06F0F3CFDEFFF4CFDDFF020EDB50F6
:1048F000040DF350030FE96EEA6AE9BEEA68010E9F
:10490000E926010EEA22DFCFEFFF020EDB50040D95
:10491000F350040FE96EEA6AE9BEEA68010EE9267F
:10492000010EEA22010EDBCFEFFF020EDB50040D79
:10493000F350050FE96EEA6AE9BEEA68010EE9265E
:10494000010EEA22EF6A020EDB50040DF350060F4F
:10495000E96EEA6AE9BEEA68010EE926010EEA227A
:10496000EF6A020EDB2A9FD700EC06F0EAEC05F0B6
:104970007AEC39F0020EDB50040DF3CF02F10101A5
:10498000036B01013F0E006FF56E030EE15C02E266
:10499000E16AE552E16EF550E552E7CFD9FF12002A
:1049A000D9CFE6FFE1CFD9FF0B0EE12648C1D2F106
:1049B00049C1D3F14AC1D4F14BC1D5F1166A176A86
:1049C00048C1DFFF010E49C1DBFF020E16C0DBFF4D
:1049D000030E17C0DBFFD9CFE9FFDACFEAFF040EE1
:1049E000E76ED890EF36010EEB36020EEB36030E73
:1049F000EB36E706F6E14AC116F04BC117F0146A30
:104A0000156A176A040E14C0DBFF050E15C0DBFF24
:104A1000060E4AC1DBFF070E17C0DBFFD950040F9B
:104A2000E96EDACFEAFF0C0EE76ED890030EEB3298
:104A3000020EEB32010EEB32EF32E706F6E1BDEC8F
:104A400020F0040EDBCF14F0050EDBCF15F0060EC0
:104A5000DBCF16F0070EDBCF17F0168A14C0E6FF87
:104A600015C0E6FF16C0E6FF17C0E6FFB6EC05F07E
:104A7000E552E552E552E552D950040FE96EDACF1E
:104A8000EAFF040EE76ED890030EEB32020EEB3213
:104A9000010EEB32EF32E706F6E1900EE66E010E04
:104AA000E66E880EE66EE66AB6EC05F0E552E55273
:104AB000E552E552D9CFE9FFDACFEAFFEECF14F0A5
:104AC000EECF15F0EECF16F0EFCF17F0060E141262
:104AD000168A14C0E6FF15C0E6FF16C0E6FF17C031
:104AE000E6FFB6EC05F0E552E552E552E552D9CFC6
:104AF000E9FFDACFEAFF040EE76ED890030EEB323F
:104B0000020EEB32010EEB32EF32E706F6E1470E12
:104B1000E66E780EE66E200EE66EE66AB6EC05F0FE
:104B2000E552E552E552E552EAEC05F0080EDB6A83
:104B3000D20EE96E010EEA6EEE5001014C5DEE50B0
:104B40004D59EE504E59EE504F5952E3B60EE66EA7
:104B50000B0EE66EBA0EE66EE66AB6EC05F0E552AE
:104B6000E552E552E552EAEC05F0EAEC05F077ECA7
:104B700006F0090EF3CFDBFF0A0EF4CFDBFF080EC1
:104B8000DB50040DF350030FEA6A010FE96E010ECA
:104B9000EA22090EDBCFEFFF080EDB50040DF350C5
:104BA000040FEA6A010FE96E010EEA220A0EDBCF5A
:104BB000EFFF080EDB50040DF350050FEA6A010FFA
:104BC000E96E010EEA22EF6A080EDB50040DF35085
:104BD000060FEA6A010FE96E010EEA22EF6A080E7B
:104BE000DB2A0101D22B000ED323D423D523A0D757
:104BF00000EC06F0EAEC05F07AEC39F0080EDB5038
:104C0000040DF3CF02F10101036B01013F0E006FB0
:104C1000F56E0B0EE15C02E2E16AE552E16EF550E1
:104C2000E552E7CFD9FF12000101485109E149518E
:104C300007E1F80E4A1904E14B5102E115EF24F0A7
:104C4000D0EF24F024EF26F0D9CFE6FFE1CFD9FF53
:104C5000020EE126BDEC20F0FA0EE66E040EE66EC2
:104C6000240EE66EE66AB6EC05F0E552E552E55232
:104C7000E5520A0EE66E3B0EE66E880EE66EE66ABA
:104C8000B6EC05F0E552E552E552E552610EE66EEE
:104C9000E70EE66EA80EE66EE66AB6EC05F0E552A3
:104CA000E552E552E552EAEC05F0EAEC05F0C80EF3
:104CB000E66EE66AC1EC35F0E552E552E66A3B0E77
:104CC000E66E800EE66EE66AB6EC05F0E552E55259
:104CD000E552E552200EE66E3C0EE66E880EE66E5C
:104CE000E66AB6EC05F0E552E552E552E552EAEC2B
:104CF00005F077EC06F0F3CFDEFFF4CFDDFFD950FF
:104D0000010FE96EDACFEAFFEF50800BD7E17AECC2
:104D100039F0F56E020EE15C02E2E16AE552E16E05
:104D2000F550E552E7CFD9FF1200D9CFE6FFE1CF2A
:104D3000D9FF0C0EE126400EDF6E0101600E016FFF
:104D40004C0EE96E010EEA6E01014851EE5C4951CC
:104D5000EE584A51EE584B51EE5803E20001626B97
:104D6000C6D20101030EEC6F0001625166E1010E33
:104D7000626F0001876B400E875D0EE28751E96E1E
:104D8000EA6AD890E936EA36500EE926010EEA22A0
:104D9000EE6AED6A872BEFD7876BBDEC20F0DFCF93
:104DA00014F0156A166A176A14AE03D015681668EF
:104DB000176848C104F049C105F04AC106F04BC16B
:104DC00007F014C009F015C00AF016C00BF017C0A8
:104DD0000CF007EC3FF000500101485D0101D26F7B
:104DE0000150010149590101D36F025001014A5993
:104DF0000101D46F035001014B590101D56FDFCF81
:104E000014F0156A166A176A14AE03D0156816688E
:104E1000176848C104F049C105F04AC106F04BC10A
:104E200007F014C009F015C00AF016C00BF017C047
:104E30000CF007EC3FF000C087F0D20EE96E010ED7
:104E4000EA6EEE5001014C5DEE504D59EE504E5958
:104E5000EE504F5901E231D2030E0101022501014A
:104E6000EC5D01E32AD2DF500001875D37E2030EDB
:104E7000010102250101EC5D31E2EC29E96EEA6AEB
:104E8000E9BEEA68010EE926010EEA22EF50176A30
:104E9000176E166AECC1E9FFEA6AE9BEEA68010E1C
:104EA000E926010EEA22EF5000011624146E000ECE
:104EB0001720156E00018751E96EEA6AD890E9362D
:104EC000EA36500EE926010EEA2214C0EEFF15C0A4
:104ED000EDFF872B020E0101EC27C5D7DF50000143
:104EE000875D03E001010351A8E11A0EE66EE66A50
:104EF000240EE66EE66AB6EC05F0E552E552E552A0
:104F0000E5520A0EE66E3B0EE66E880EE66EE66A27
:104F1000B6EC05F0E552E552E552E5520001876B2B
:104F2000010EDB6ADBCF14F0070EE76E1418E8AE53
:104F300002D0143403D0E750D880145401E265D174
:104F4000166A176A020ED2C1DBFF030ED3C1DBFF64
:104F5000040E16C0DBFF050E17C0DBFFD950020F91
:104F6000E96EDACFEAFF040EE76ED890EF36010E55
:104F7000EB36020EEB36030EEB36E706F6E1146A6B
:104F8000156A176A060E14C0DBFF070E15C0DBFF9B
:104F9000080ED4C1DBFF090E17C0DBFFD950060F86
:104FA000E96EDACFEAFF0C0EE76ED890030EEB3213
:104FB000020EEB32010EEB32EF32E706F6E1060E9F
:104FC000DBCF14F0070EDBCF15F0080EDBCF16F0A9
:104FD000090EDBCF17F0168A14C0E6FF15C0E6FFF6
:104FE00016C0E6FF17C0E6FFB6EC05F0E552E55245
:104FF000E552E552900EE66E010EE66E880EE66E04
:10500000E66AB6EC05F0E552E552E552E552020ECD
:10501000DBCF14F0030EDBCF15F0040EDBCF16F060
:10502000050EDBCF17F0070E1412168A14C0E6FF28
:1050300015C0E6FF16C0E6FF17C0E6FFB6EC05F0A8
:10504000E552E552E552E55245EC0DF0040E1F0B1A
:10505000E3C114F0E4C115F0E5C116F006E0D89004
:10506000143615361636E806FAE1168A176A14C0A1
:10507000E6FF15C0E6FF16C0E6FF17C0E6FFB6EC78
:1050800005F0E552E552E552E552040E1F0BE6C16C
:1050900014F0E7C115F0E8C116F006E0D890143618
:1050A00015361636E806FAE11480168A176A14C017
:1050B000E6FF15C0E6FF16C0E6FF17C0E6FFB6EC38
:1050C00005F0E552E552E552E552040E1F0BE9C129
:1050D00014F0EAC115F0EBC116F006E0D8901436D2
:1050E00015361636E806FAE11482168A176A14C0D5
:1050F000E6FF15C0E6FF16C0E6FF17C0E6FFB6ECF8
:1051000005F0E552E552E552E55245EC0DF0040E8E
:105110001F0BE3C114F0E4C115F0E5C116F006E081
:10512000D890143615361636E806FAE1030E141236
:10513000168A176A14C0E6FF15C0E6FF16C0E6FF20
:1051400017C0E6FFB6EC05F0E552E552E552E55230
:10515000040E1F0BE6C114F0E7C115F0E8C116F00C
:1051600006E0D890143615361636E806FAE11484AF
:10517000168A176A14C0E6FF15C0E6FF16C0E6FFE0
:1051800017C0E6FFB6EC05F0E552E552E552E552F0
:10519000040E1F0BE9C114F0EAC115F0EBC116F0C3
:1051A00006E0D890143615361636E806FAE1050EF4
:1051B0001412168A176A14C0E6FF15C0E6FF16C05F
:1051C000E6FF17C0E6FFB6EC05F0E552E552E55202
:1051D000E552E66A030EE66EEB0EE66EE66AB6ECA4
:1051E00005F0E552E552E552E55296EC0DF096ECED
:1051F0000DF0EAEC05F0080E0101D227000ED323D2
:10520000D423D523010EDB2A8DD6D2C114F0149EEF
:10521000156A166A176A145015101610171003E055
:105220000101035147E1610EE66EE70EE66EA80E3E
:10523000E66EE66AB6EC05F0E552E552E552E55257
:10524000EAEC05F0EAEC05F0020EE66EE66AC1EC67
:1052500035F0E552E552E66A3B0EE66E800EE66EEC
:10526000E66AB6EC05F0E552E552E552E552200E4D
:10527000E66E3C0EE66E880EE66EE66AB6EC05F06B
:10528000E552E552E552E552EAEC05F077EC06F01E
:105290000A0EF3CFDBFF0B0EF4CFDBFFD9500B0F61
:1052A000E96EDACFEAFFEF50800BD5E100EC06F0B3
:1052B000EAEC05F00001876BC0D5D20EE96E010E55
:1052C000EA6EEE5001014C5DEE504D59EE504E59D4
:1052D000EE504F5903E30101035102E10001626BFB
:1052E0000001625102E17AEC39F00101026BF56EC6
:1052F0000C0EE15C02E2E16AE552E16EF550E55226
:10530000E7CFD9FF12000101026B036B01013F0ED1
:10531000006F12000101026B036B01013F0E006F71
:105320001200D9CFE6FFE1CFD9FF020EE126D95016
:10533000FB0FE96EFF0EDA20EA6E040EE76ED890DE
:10534000EF36010EEB36020EEB36030EEB36E706B8
:10535000F6E1FB0EDBCF14F0FC0EDBCF15F0FD0EFB
:10536000DBCF16F0FE0EDBCF17F0168A14C0E6FF77
:1053700015C0E6FF16C0E6FF17C0E6FFB6EC05F065
:10538000E552E552E552E552800EE66E1B0EE66EE2
:10539000BB0EE66EE66AB6EC05F0E552E552E55264
:1053A000E552EAEC05F0EAEC05F0610EE66EE70E78
:1053B000E66EA80EE66EE66AB6EC05F0E552E5523A
:1053C000E552E552EAEC05F0EAEC05F0190EE66E5E
:1053D000E66AC1EC35F0E552E552E66A3B0EE66E50
:1053E000800EE66EE66AB6EC05F0E552E552E5524F
:1053F000E552200EE66E3C0EE66E880EE66EE66A1C
:10540000B6EC05F0E552E552E552E552EAEC05F05E
:1054100077EC06F0F3CFDEFFF4CFDDFFD950010FBC
:10542000E96EDACFEAFFEF50800BD7E100EC06F02F
:10543000EAEC05F0F56E020EE15C02E2E16AE5528B
:10544000E16EF550E552E7CFD9FF1200D9CFE6FF64
:10545000E1CFD9FF0F0EE126BDEC20F048C1D2F11B
:1054600049C1D3F14AC1D4F14BC1D5F1166A176ACB
:10547000010E48C1DBFF020E49C1DBFF030E16C05F
:10548000DBFF040E17C0DBFFD950010FE96EDACF46
:10549000EAFF040EE76ED890EF36010EEB36020EEF
:1054A000EB36030EEB36E706F6E1D2C114F0D3C1BA
:1054B00015F0D4C116F0D5C117F0146A156A176A31
:1054C000050E14C0DBFF060E15C0DBFF070ED4C1AE
:1054D000DBFF080E17C0DBFFD950050FE96EDACFEE
:1054E000EAFF0C0EE76ED890030EEB32020EEB32A1
:1054F000010EEB32EF32E706F6E1DBCF14F0020EDD
:10550000DBCF15F0030EDBCF16F0040EDBCF17F068
:10551000070E1412168A14C0E6FF15C0E6FF16C067
:10552000E6FF17C0E6FFB6EC05F0E552E552E5529E
:10553000E5523A0EE66EE66A240EE66EE66AB6ECD0
:1055400005F0E552E552E552E5520A0EE66E3B0ED5
:10555000E66E880EE66EE66AB6EC05F0E552E552B8
:10556000E552E552050EDBCF14F0060EDBCF15F049
:10557000070EDBCF16F0080EDBCF17F0168A14C02B
:10558000E6FF15C0E6FF16C0E6FF17C0E6FFB6EC63
:1055900005F0E552E552E552E552900EE66E010E39
:1055A000E66E880EE66EE66AB6EC05F0E552E55268
:1055B000E552E552DF6AD20EE96E010EEA6EEE5058
:1055C00001014C5DEE504D59EE504E59EE504F5981
:1055D00001E2E8D0040EDF02F350040FE96EEA6A3C
:1055E000E9BEEA68010EE926010EEA22EFCF14F0C7
:1055F000090E14C0DBFF0A0EDB6A0B0EDB6A0C0E11
:10560000DB6A090EDBCF14F00A0EDBCF15F00B0EB0
:10561000DBCF16F00C0EDBCF17F0080E1F0B07E0E8
:10562000D8901436153616361736E806F9E1040E0A
:10563000DF02F350030FE96EEA6AE9BEEA68010E81
:10564000E926010EEA22EFCF18F0196A1A6A1B6ADE
:1056500018501412195015121A5016121B50171206
:10566000090E14C0DBFF0A0E15C0DBFF0B0E16C0BF
:10567000DBFF0C0E17C0DBFFD950090FE96EDACF44
:10568000EAFF040EE76ED890EF36010EEB36020EFD
:10569000EB36030EEB36E706F6E1090EDBCF14F02E
:1056A0000A0EDBCF15F00B0EDBCF16F00C0EDBCFA6
:1056B00017F0060E1412168A14C0E6FF15C0E6FF96
:1056C00016C0E6FF17C0E6FFB6EC05F0E552E5525E
:1056D000E552E552EAEC05F0860EE66E1B0EE66E2C
:1056E000BB0EE66EE66AB6EC05F0E552E552E55211
:1056F000E552EAEC05F0EAEC05F0610EE66EE70E25
:10570000E66EA80EE66EE66AB6EC05F0E552E552E6
:10571000E552E552EAEC05F0EAEC05F0190EE66E0A
:10572000E66AC1EC35F0E552E55200EC06F0EAEC31
:1057300005F0020EE66E3B0EE66E800EE66EE66A41
:10574000B6EC05F0E552E552E552E552220EE66E62
:105750003C0EE66E880EE66EE66AB6EC05F0E552A3
:10576000E552E552E552EAEC05F077EC06F00D0E55
:10577000F3CFDBFF0E0EF4CFDBFFD9500E0FE96E37
:10578000DACFEAFFEF50800BD0E100EC06F0EAEC54
:1057900005F0020E0101D227000ED323D423D52316
:1057A000DF2A09D7F56E0F0EE15C02E2E16AE552ED
:1057B000E16EF550E552E7CFD9FF1200D9CFE6FFF1
:1057C000E1CFD9FF070EE126BDEC20F0070EE66E13
:1057D000E66A200EE66EE66AB6EC05F0E552E552A2
:1057E000E552E5520A0EE66EE66A240EE66EE66AB9
:1057F000B6EC05F0E552E552E552E5520A0EE66ECA
:105800003B0EE66E880EE66EE66AB6EC05F0E552F3
:10581000E552E552E552DF6ADFCF14F00B0EE76E7A
:105820001418E8AE02D0E73402D0E750145C45E229
:10583000800EE66E0F0EE66E200EE66EE66AB6ECA1
:1058400005F0E552E552E552E552900EE66E010E86
:10585000E66E880EE66EE66AB6EC05F0E552E552B5
:10586000E552E552040EDF02F350030FE96EEA6AD7
:10587000E9BEEA68010EE926010EEA22EFCF14F034
:10588000010E14C0DBFF020EDB6A030EDB6A040E9E
:10589000DB6AD950010FE96EDACFEAFFEECFE6FFFF
:1058A000EECFE6FFEECFE6FFEFCFE6FF3ADDE552C3
:1058B000E552E552E552DF2AAFD77AEC39F0F56EC2
:1058C000070EE15C02E2E16AE552E16EF550E55255
:1058D000E7CFD9FF12000101485109E1495107E121
:1058E000F80E4A1904E14B5102E1DEEF2BF026EFEE
:0258F0002AF09C
:0E58F2008A9093908B929492FA0E89169216D9
:105900000101010EE16F42EC37F001010E0EE26F72
:10591000476B47C146F147C145F147C144F147C113
:1059200043F147C142F147C141F10001280E666FC2
:105930000101FD910101CD0EFE6F0101CB0EFF6F44
:1059400092829286050EC26E0B0EC16E3B0EC06E29
:10595000C08EB1EC33F08A80FA0EE66EE66AC1ECD6
:1059600035F0E552E5528B82FA0EE66EE66AC1EC3E
:1059700035F0E552E5528A90FA0EE66EE66AC1EC21
:1059800035F0E552E5528B921200060E0101F95DE9
:1059900005E36D50020B01E0120001D81200D9CFCF
:1059A000E6FFE1CFD9FF070EE126400EE66E010EBD
:1059B000E66E010EE66EC4EC3DF0E552E552E552AE
:1059C000000901E1A6D20101006B01010151FF0AAA
:1059D00001E179D28D0A01E16FD2030A01E167D2B8
:1059E000010A01E15FD2130A01E157D2010A01E184
:1059F0004FD2030A01E147D2010A01E13FD2340A42
:105A000001E13AD2070A01E135D2010A01E130D2BF
:105A1000030A01E12BD2140A01E125D2010A01E1B6
:105A20001FD2140A01E1F8D1120A01E1A5D1030A3B
:105A300001E158D1010A01E143D17F0A01E135D1E9
:105A4000010A01E126D1050A01E1E6D0070A01E1D8
:105A5000D7D0060A01E1C2D0030A01E1B5D0010A9C
:105A600001E1A6D0050A01E19BD07E0A4CE0740A50
:105A70002BE0060A0DE0310A01E039D201010C0EDB
:105A8000036F0101030E046F0101040E006F30D299
:105A90000101010E006F0101025102E18A8013D061
:105AA0000101020502E18B820ED0040E0101025DAC
:105AB00002E18A9008D0050E0101025D02E18B929D
:105AC00002D00101006B14D2010E146EFD0EE96EBE
:105AD000010EEA6EEF50010B1410F36EF350010B40
:105AE000F36EF46EFE0EEF14F310EF6EF450000937
:105AF00002E0ADEC33F0C3CF02F1C4CF03F10101FA
:105B0000030E006FF5D188C089F002C18AF0030E40
:105B10000101031500018B6F0001000ED8808A552A
:105B2000000E8B5504E20001010E886F02D00001C7
:105B3000886B800E01010315800803E10001020E4D
:105B4000886F400E01010315400803E10001030EB8
:105B5000886F050E8AC0DBFF060E8BC0DBFFD950B5
:105B6000050FE96EDACFEAFF020E0F0B06E0EC52EA
:105B7000D890ED32EF32E806FAE10001880507E13E
:105B8000050EDBCFE6FFBFEC33F0E55205D0000198
:105B9000890502E1E7EC33F00101010E006FA8D1A5
:105BA000BDEC38F00101026F0101020E006FA0D1BF
:105BB0000101010E006F0101025103E1050EC26EE9
:105BC00002D00D0EC26E94D10101010E006F02C110
:105BD000BEFF02C18DF003C18CF08AD10101010E1C
:105BE000006F01EC37F08B80FE0E9312C10E941201
:105BF0009288929A898A02C1E1F142EC37F078D119
:105C00000101010E006F0101025103E167EC37F061
:105C100002D076EC37F06CD10101010E006F01016A
:105C2000020503E131EC37F033D0100E0101025DC3
:105C300003E120EC37F02CD0020E0101025D03E1FC
:105C400012EC37F025D0200E0101025D03E101ECDA
:105C500037F01ED0040E0101025D03E1F2EC36F0D4
:105C600017D0400E0101025D03E1E3EC36F010D0E5
:105C7000080E0101025D03E1D4EC36F009D0800E7C
:105C80000101025D03E1C5EC36F002D00101006BB9
:105C90002FD10101010E006F03C1E6FF02C1E6FF33
:105CA00085EC37F0E552E55223D10101020E006F79
:105CB00002C1E6FF35EC38F0E5520101026F18D160
:105CC0000101010E006F02C1E2F10C0E0101E25D63
:105CD00002E10101026B0E0E0101E25D02E1010130
:105CE000026B06D10101010E006F01C164F002C117
:105CF00065F003C166F004C167F005C168F006C134
:105D000069F007C16AF008C16BF009C16CF00AC103
:105D10006DF00BC16EF00CC16FF00DC170F00EC1D3
:105D200071F00FC172F010C173F011C174F012C1A3
:105D300075F013C176F014C177F015C178F016C173
:105D400079F017C17AF018C17BF019C17CF01AC143
:105D50007DF01BC17EF01CC17FF01DC180F01EC113
:105D600081F01FC182F020C183F021C184F022C1E3
:105D700085F023C186F0BCD00101010E006F04C183
:105D800048F10101496B4A6B4B6B4AC14BF149C168
:105D90004AF148C149F10101486B01010351010178
:105DA0004813000E49134A134B134AC14BF149C122
:105DB0004AF148C149F10101486B01010251010159
:105DC0004813000E49134A134B1307C14CF101014C
:105DD0004D6B4E6B4F6B4EC14FF14DC14EF14CC1EF
:105DE0004DF101014C6B0101065101014C13000EF4
:105DF0004D134E134F134EC14FF14DC14EF14CC1D7
:105E00004DF101014C6B0101055101014C13000ED4
:105E10004D134E134F136CD00101030E006F020E91
:105E20000101025D03E10101050E006F84D8030E3C
:105E3000F3CFDBFF040EF4CFDBFF030EDBCF02F169
:105E4000040EDBCF03F1030EEDC1DBFF040EEEC148
:105E5000DBFF030EDBCF04F1040EDBCF05F148D0EE
:105E60000AEC36F045D052EC36F042D077D840D02C
:105E700088D83ED099D83CD0AAD83AD00101010E9A
:105E8000006FB8D835D00101010E006FC6D830D0F0
:105E90000101010E006FD4D82BD00101010E006F5B
:105EA000E2D826D00101010E006FF0D821D0010107
:105EB000010E006FFED81CD00101020E006F0CD93C
:105EC0000101026F15D06D96010EDB6A020EDB6ACE
:105ED000010EDB06DBCF14F0020E01E2DB06DBCFA6
:105EE00015F01450151001E0F3D7FF0001D000D0D9
:105EF000010100510EE004010CBF0BD000C1E6FF10
:105F0000010EE66E010EE66E8AEC3DF0E552E552BA
:105F1000E552030E0001885D02E105EC35F0F56EF7
:105F2000070EE15C02E2E16AE552E16EF550E552EE
:105F3000E7CFD9FF12000101E251210A0DE03F0A2B
:105F400009E00C0A05E0020A01E0120078EF16F001
:105F50007CEF30F0A8EF06F0DDEF20F00101E25118
:105F6000210A0DE03F0A09E00C0A05E0020A01E0FF
:105F70001200D3EF16F0DCEF30F02AEF07F05DEF00
:105F800021F00101E251210A0DE03F0A09E00C0A6B
:105F900005E0020A01E01200AFEF17F0BEEF31F0AA
:105FA000D3EF09F001EF24F00101E251210A0DE0E5
:105FB0003F0A09E00C0A05E0020A01E0120005EFC1
:105FC00019F0C5EF31F0A5EF0BF008EF24F0010157
:105FD000E251210A0DE03F0A09E00C0A05E0020A3D
:105FE00001E0120007EF19F0CCEF31F0ACEF0BF04D
:105FF00014EF26F00101E251210A0DE03F0A09E009
:106000000C0A05E0020A01E01200E8EF19F006EFC1
:1060100032F0CFEF0DF095EF26F00101E251210AA9
:106020000DE03F0A09E00C0A05E0020A01E0120057
:1060300003EF1EF098EF33F09DEF10F083EF29F09F
:106040000101E251210A0DE03F0A09E00C0A05E0D6
:10605000020A01E01200B0EF1EF09FEF33F093EF61
:1060600013F08AEF29F00101E251210A0DE03F0A05
:1060700009E00C0A05E0020A01E01200B4EF1FF08B
:10608000A6EF33F09AEF13F06BEF2CF00101E25121
:10609000210A0DE03F0A09E00C0A05E0020A01E0CE
:1060A000120069EF19F0CEEF31F070EF0CF022EF33
:1060B00026F00101E251210A0DE03F0A09E00C0A35
:1060C00005E0020A01E01200E6EF19F004EF32F0F9
:1060D00072EF0CF024EF26F0D9CFE6FFE1CFD9FF25
:1060E000E652DF6ADF84DF86DF88DF8ADF50E55231
:0860F000E552E7CFD9FF1200D1
:0860F800D9CFE6FFE1CFD9FF8B
:10610000060EE126E1EC38F0FE0EE66EE6683F0E84
:10611000E66EE66AC9EC14F0E552E552E552E55246
:10612000090EE66E7BEC15F0E552C6EC15F0E66E56
:10613000D950020FE96EDACFEAFFE552E750EE6E72
:10614000ED6A090EE66E7BEC15F0E552C6EC15F033
:10615000E66ED950040FE96EDACFEAFFE552E75058
:10616000EE6EED6A7AEC39F0040EDBCF16F0050E18
:10617000DBCF17F016C017F0166A020EDB5016249C
:10618000146E030EDB501720156E14C0DEFFDD6E9B
:10619000DECF14F0DDCF15F014C0F3FF15C0F4FF0F
:1061A000F56E060EE15C02E2E16AE552E16EF55041
:1061B000E552E7CFD9FF1200D9CFE6FFE1CFD9FFF3
:1061C000050EE126030EDF6E0101026B036B010178
:1061D0003F0E006F4C0EE96E010EEA6E0101485150
:1061E000EE5C4951EE584A51EE584B51EE5803E2DD
:1061F0000001606BB7D00001605116E100019251BF
:1062000002E1E1EC38F00001010E606F48C1E6FFE9
:1062100049C1E6FF4AC1E6FF4BC1E6FFC9EC14F0F5
:10622000E552E552E552E552480EE96E010EEA6E7E
:10623000EE5001014C5D146EEE504D59156EEE504E
:106240004E59166EEE504F59176E142A000E152235
:1062500016221722010E14C0DBFF020E15C0DBFF51
:10626000030E16C0DBFF040E17C0DBFF010EDBCFF1
:1062700005F0020EDBCF06F0030EDBCF07F0040EB5
:10628000DBCF08F00834000E081809E6D8803C0E71
:106290000554000E0654000E0754000E08540CE27C
:1062A0003C0EF36E010EF3CFDBFF020EDB6A030E32
:1062B000DB6A040EDB6A02D00001606B010EDBCFEB
:1062C00002F1030EDF6EDFCF14F0156A166A176A4B
