:10000000160D0400000000000000000000000000C9
:1000100000000000000000000000000000000000E0
:1000200000000000000000000000000000000000D0
:1000300000000000000000000000000000000000C0
:1000400000000000000000000000000000000000B0
:101A2C00AF002100F0FF270020A0B70010202000FD
:101A3C0032A0B700400020004420B7008A1F780075
:101A4C008B1F78008C1F78008D1F7800600420009D
:101A5C0046A7B7004427EF000E2EEF001E2EEF0016
:101A6C002E2EEF003E2EEF004E2EEF006E2EEF00CE
:101A7C002CC2B3001BC0B3004AC6B300E1FF070081
:101A8C001CC0B3001620EF005AC6B300DDFF0700E0
:101A9C000A5822000B00200059FF070068012000A3
:101AAC00C7CC25000E20ED00FEFF3A001020ED0003
:101ABC00FCFF3A000000000000000000FA032000C8
:101ACC0023FF07000A05200021FF0700DA00200091
:101ADC001FFF0700680D2000F7FF29000E20ED0006
:101AEC00FEFF3A001020ED00FCFF3A000000000061
:101AFC0000000000000000001D0020001C00200061
:101B0C00FB0020002AE0200018FF07000000E20084
:101B1C0002003200FA0320000DFF0700EA04200047
:101B2C000BFF0700DA00200009FF0700100020005F
:101B3C00408088001A20EF001C002000FB002000D1
:101B4C002AE0200009FF07000000E2000800320034
:101B5C00FA032000FEFE07008A052000FCFE0700A9
:101B6C00DA002000FAFE07000020EF004080880019
:101B7C00E1FF3700CF0678004F067800CF057800DC
:081B8C004F057800FFFF370050
:101A10000000FA008D1F78001D002000F9FA070071
:0C1A2000CF0678000080FA0000000600ED
:100604000200FA00F00F200000079800605CE1008F
:10061400BF003A001A00E2000100320077FF070031
:100624005D003700006820000C487800B5003700F2
:10063400106820000C487800B200370020682000C1
:100644000C487800AF003700306820000C48780070
:10065400AC003700406820000C487800A90037003F
:10066400506820000C487800A6003700606820001D
:100674000C487800A3003700706820000C4878000C
:10068400A0003700806820000C4878009D003700E7
:10069400906820000C4878009A003700A068200079
:1006A4000C48780097003700B06820000C487800A8
:1006B40094003700C06820000C487800910037008F
:1006C400D06820000C4878008E003700E0682000D5
:1006D4000C4878008B003700F06820000C48780044
:1006E40088003700006920000C4878008500370036
:1006F400106920000C48780082003700206920002F
:100704000C4878007F003700306920000C487800DE
:100714007C003700606920000C48780079003700BD
:10072400706920000C48780076003700806920004A
:100734000C48780073003700906920000C4878005A
:1007440070003700A06920000C4878006D00370065
:10075400B06920000C4878006A003700C0692000A6
:100764000C48780067003700D06920000C487800F6
:1007740064003700E06920000C487800610037000D
:10078400F06920000C4878005E0037000020EF007C
:10079400000798005B00370000C4B3000054E10078
:1007A400A0FF320010C4B3000054E100A0FF3200E7
:1007B40020C4B3000054E100A0FF320030C4B300F1
:1007C4000054E100A0FF320040C4B3000054E10033
:1007D400A0FF320050C4B3000054E100A0FF320077
:1007E40060C4B3000054E100A0FF320070C4B30041
:1007F4000054E100A0FF3200F0C4B3000054E10053
:10080400A0FF320000C5B3000054E100A0FF320095
:1008140020C5B3000054E100A0FF320040C5B3007E
:100824000054E100A0FF320050C5B3000054E100C1
:10083400A0FF320070C5B3000054E100A0FF3200F5
:1008440000C6B3000054E100A0FF320010C6B3009C
:100854000054E100A0FF320020C6B3000054E100C0
:10086400A0FF320030C6B3000054E100A0FF320004
:1008740040C6B3000054E100A0FF320050C6B300EC
:100884000054E100A0FF320080C6B3000054E10030
:10089400A0FF3200C0C6B3000054E100A0FF320044
:1008A400D0C6B3000054E100A0FF320000C7B3007B
:1008B4000054E100A0FF320010C7B3000054E1006F
:1008C400A0FF320060C7B3000054E100A0FF320073
:1008D40080C7B3000054E100A0FF3200D0C7B300CA
:1008E4000054E100A0FF3200E0C7B3000054E1006F
:1008F400A0FF3200F0C7B3000054E100A0FF3200B3
:10090400A2FF37001A00E20001003200C4FE070013
:10091400615CE10027013A001A00E20001003200A4
:10092400B6FE07009C003700106A20000A487800D1
:100934001D013700206A20000A4878001A01370098
:10094400306A20000A48780017013700406A200006
:100954000A48780014013700606A20000A487800C9
:1009640011013700706A20000A4878000E01370030
:10097400806A20000A4878000B013700906A200042
:100984000A48780008013700A06A20000A48780065
:1009940005013700B06A20000A48780002013700D8
:1009A400C06A20000A487800FF003700D06A20009F
:1009B4000A487800FC003700E06A20000A48780002
:1009C400F9003700F06A20000A487800F600370082
:1009D400006B20000A487800F3003700106B2000F9
:1009E4000A487800F0003700206B20000A4878009D
:1009F400ED003700306B20000A487800EA00370029
:100A0400406B20000A487800E7003700506B200054
:100A14000A487800E4003700606B20000A48780038
:100A2400E1003700706B20000A487800DE003700D0
:100A3400406C20000A487800DB003700506C20002E
:100A44000A487800D8003700606C20000A48780013
:100A5400D5003700706C20000A487800D2003700B7
:100A6400806C20000A487800CF003700906C20008A
:100A74000A487800CC003700A06C20000A487800AF
:100A8400C9003700E06C20000A487800C60037002F
:100A9400406D20000A487800C3003700506D2000E4
:100AA4000A487800C0003700606D20000A487800CA
:100AB400BD003700706D20000A487800BA00370086
:100AC400806D20000A487800B7003700906D200040
:100AD4000A487800B4003700A06D20000A48780066
:100AE400B1003700B06D20000A487800AE0037002E
:100AF400C06D20000A487800AB003700E06D20008C
:100B04000A487800A8003700F06D20000A487800F1
:100B1400A5003700006E20000A487800A2003700C4
:100B2400206E20000A4878009F003700306E2000B5
:100B34000A4878009C003700406E20000A4878007C
:100B440099003700506E20000A487800960037005C
:100B5400606E20000A48780093003700706E200011
:100B64000A48780090003700806E20000A48780018
:100B74008D003700906E20000A4878008A00370004
:100B8400A06E20000A487800870037000020EF009C
:100B940000079800840037006064E10062FF3200BF
:100BA4006164E10063FF32006264E10064FF3200CB
:100BB4006364E10065FF32006464E10066FF3200B3
:100BC4006564E10067FF32006664E10068FF32009B
:100BD4006764E10069FF32006864E1006AFF320083
:100BE4006964E1006BFF32006A64E1006CFF32006B
:100BF4006B64E1006DFF32006C64E1006EFF320053
:100C04006D64E1006FFF32006E64E10070FF32003A
:100C14006F64E10071FF32007064E10072FF320022
:100C24007164E10073FF32007264E10074FF32000A
:100C34007364E10075FF32007464E10076FF3200F2
:100C44007564E10077FF320020C2B3000064E10064
:100C540077FF320030C2B3000064E10077FF320056
:100C640040C2B3000064E10077FF320050C2B30019
:100C74000064E10077FF320060C2B3000064E10069
:100C840077FF320070C2B3000064E10077FF3200E6
:100C940080C2B3000064E10077FF320090C2B30069
:100CA4000064E10077FF3200D0C2B3000064E100C9
:100CB40077FF3200E0C2B3000064E10077FF320046
:100CC400F0C2B3000064E10077FF320000C3B30058
:100CD4000064E10077FF320010C3B3000064E10058
:100CE40077FF320020C3B3000064E10077FF3200D5
:100CF40030C3B3000064E10077FF320040C3B300A7
:100D04000064E10077FF320050C3B3000064E100E7
:100D140077FF320060C3B3000064E10077FF320064
:100D240070C3B3000064E10077FF320080C3B300F6
:100D34000064E10077FF320090C3B3000064E10077
:100D440077FF3200A0C3B3000064E10077FF3200F4
:100D5400B0C3B3000064E10077FF3200C0C3B30046
:100D64000064E10077FF3200D0C3B3000064E10007
:100D740077FF3200E0C3B3000064E10077FF320084
:100D8400F0C3B3000064E10077FF320000C4B30095
:100D94000064E10077FF320010C4B3000064E10096
:100DA40077FF320079FF37001A00E20001003200B9
:100DB4009BFD0700840137001600AE00000EA90059
:100DC4001600AF00000EA8005D0237001600AE004A
:100DD400002EA9001600AF00002EA800580237000C
:100DE4001600AE00004EA9001600AF00004EA80089
:100DF400530237001600AE00006EA9001600AF00C3
:100E0400006EA8004E0237001600AE00008EA90046
:100E14001600AF00008EA800490237001600AE008D
:100E240000AEA9001600AF0000AEA80044023700CF
:100E34001600AE0000CEA9001600AF0000CEA80038
:100E44003F0237001600AE0000EEA9001600AF0006
:100E540000EEA8003A0237001600AE0001CEA90049
:100E64001600AF0001CEA800350237001600AE0010
:100E740001EEA9001600AF0001EEA8003002370011
:100E84001600AE0011EEA9001600AF0011EEA80086
:100E94002B0237001600AE0011CEA9001600AF00D9
:100EA40011CEA800260237001600AE0011AEA9002C
:100EB4001600AF0011AEA800210237001600AE00E4
:100EC400118EA9001600AF00118EA8001C02370075
:100ED4001600AE00116EA9001600AF00116EA80036
:100EE400170237001600AE00114EA9001600AF001D
:100EF400114EA800120237001600AE00112EA900F0
:100F04001600AF00112EA8000D0237001600AE0027
:100F1400110EA9001600AF00110EA8000802370038
:100F24001600AE0010EEA9001600AF0010EEA800E7
:100F3400030237001600AE0010CEA9001600AF0061
:100F440010CEA800FE0137001600AE0010AEA900B6
:100F54001600AF0010AEA800F90137001600AE006D
:100F6400108EA9001600AF00108EA800F4013700FF
:100F74001600AE00106EA9001600AF00106EA80097
:100F8400EF0137001600AE00104EA9001600AF00A6
:100F9400104EA800EA0137001600AE00102EA9007A
:100FA4001600AF00102EA800E50137001600AE00B1
:100FB400100EA9001600AF00100EA800E0013700C3
:100FC4001600AE00202EA9001600AF00202EA800A7
:100FD400DB0137001600AE00204EA9001600AF005A
:100FE400204EA800D60137001600AE00206EA900DE
:100FF4001600AF00206EA800D10137001600AE0025
:10100400208EA9001600AF00208EA800CC01370066
:101014001600AE0021CEA9001600AF0021CEA80014
:10102400C70137001600AE0021AEA9001600AF00BC
:1010340021AEA800C20137001600AE00218EA9001F
:101044001600AF00218EA800BD0137001600AE00C7
:1010540031EEA9001600AF0031EEA800B801370048
:101064001600AE0031CEA9001600AF0031CEA800A4
:10107400B30137001600AE0031AEA9001600AF0070
:1010840031AEA800AE0137001600AE00318EA900C3
:101094001600AF00318EA800A90137001600AE007B
:1010A400316EA9001600AF00316EA800A40137000C
:1010B4001600AE00314EA9001600AF00314EA80054
:1010C4009F0137001600AE00312EA9001600AF00B4
:1010D400312EA8009A0137001600AE00310EA90087
:1010E4001600AF00310EA800950137001600AE00BF
:1010F40030EEA9001600AF0030EEA80090013700D2
:101104001600AE0030CEA9001600AF0030CEA80005
:101114008B0137001600AE0030AEA9001600AF00F8
:1011240030AEA800860137001600AE00308EA9004C
:101134001600AF00308EA800810137001600AE0003
:10114400306EA9001600AF00306EA8007C01370095
:101154001600AE00304EA9001600AF00304EA800B5
:10116400770137001600AE00302EA9001600AF003C
:10117400302EA800720137001600AE00300EA90010
:101184001600AF00300EA8006D0137001600AE0047
:10119400412EA9001600AF00412EA80068013700B7
:1011A4001600AE00410EA9001600AF00410EA800C3
:1011B400630137001600AE0040CEA9001600AF0050
:1011C40040CEA8005E0137001600AE0040AEA90074
:1011D4001600AF0040AEA800590137001600AE005B
:1011E400408EA9001600AF00408EA80054013700BD
:1011F4001600AE00406EA9001600AF00406EA800B5
:101204004F0137001600AE00404EA9001600AF0093
:10121400404EA8004A0137001600AE00402EA90037
:101224001600AF00402EA800450137001600AE009E
:10123400400EA9001600AF00400EA8004001370080
:101244001600AE0051AEA9001600AF0051AEA800C2
:101254003B0137001600AE00518EA9001600AF0006
:10126400518EA800360137001600AE00510EA900B9
:101274001600AF00510EA800310137001600AE0071
:1012840050AEA9001600AF0050AEA8002C013700E4
:101294001600AE00508EA9001600AF00508EA800B4
:1012A400270137001600AE00506EA9001600AF00EB
:1012B400506EA800220137001600AE00504EA9005F
:1012C4001600AF00504EA8001D0137001600AE00F6
:1012D400502EA9001600AF00502EA80018013700A8
:1012E4001600AE00500EA9001600AF00500EA80064
:1012F400130137001600AE00600EA9001600AF00FF
:10130400600EA8000E0137001600AE00602EA90082
:101314001600AF00602EA800090137001600AE00C9
:1013240060CEA9001600AF0060CEA800040137000B
:101334001600AE0060EEA9001600AF0060EEA80033
:10134400FF0037001600AE00610EA9001600AF00C2
:10135400610EA800FA0037001600AE00612EA90045
:101364001600AF00612EA800F50037001600AE008D
:10137400618EA9001600AF00618EA800F00037004E
:101384001600AE0061AEA9001600AF0061AEA80061
:10139400EB0037001600AE0061CEA9001600AF00C6
:1013A40061CEA800E60037001600AE0061EEA90089
:1013B4001600AF0061EEA800E10037000020EF0046
:1013C40000079800DE0037007054E1007AFE320016
:1013D4007154E1007DFE32007254E10080FE32005F
:1013E4007354E10083FE32007454E10086FE32003F
:1013F4007554E10089FE32007654E1008CFE32001F
:101404007754E1008FFE32007E54E10092FE3200F8
:101414007F54E10095FE3200F0C2B3000054E100B5
:1014240097FE3200E0C2B3000054E10099FE32009E
:10143400D0C2B3000054E1009BFE3200C0C2B3002E
:101444000054E1009DFE3200B0C2B3000054E1003C
:101454009FFE3200A0C2B3000054E100A1FE32009E
:1014640090C2B3000054E100A3FE320080C2B30076
:101474000054E100A5FE320070C2B3000054E10044
:10148400A7FE320060C2B3000054E100A9FE32009E
:1014940050C2B3000054E100ABFE320040C2B300BE
:1014A4000054E100ADFE320030C2B3000054E1004C
:1014B400AFFE320020C2B3000054E100B1FE32009E
:1014C40010C2B3000054E100B3FE320000C2B30006
:1014D4000054E100B5FE320010C3B3000054E10033
:1014E400B7FE320020C3B3000054E100B9FE32005D
:1014F40030C3B3000054E100BBFE320040C3B3006C
:101504000054E100BDFE3200E0C3B3000054E1002A
:10151400BFFE3200D0C3B3000054E100C1FE32006C
:10152400C0C3B3000054E100C3FE3200F0C4B300F2
:101534000054E100C5FE3200E0C4B3000054E100F1
:10154400C7FE3200D0C4B3000054E100C9FE32002B
:10155400C0C4B3000054E100CBFE3200B0C4B300F9
:101564000054E100CDFE3200A0C4B3000054E100F9
:10157400CFFE320090C4B3000054E100D1FE32002B
:1015840080C4B3000054E100D3FE320070C4B30041
:101594000054E100D5FE320060C4B3000054E10001
:1015A400D7FE320050C4B3000054E100D9FE32002B
:1015B40040C4B3000054E100DBFE320030C4B30089
:1015C4000054E100DDFE320020C4B3000054E10009
:1015D400DFFE320010C4B3000054E100E1FE32002B
:1015E40000C4B3000054E100E3FE320090C5B30030
:1015F4000054E100E5FE320080C5B3000054E10070
:10160400E7FE320060C5B3000054E100E9FE320099
:1016140050C5B3000054E100EBFE320040C5B300F6
:101624000054E100EDFE320030C5B3000054E10087
:10163400EFFE320020C5B3000054E100F1FE320099
:1016440010C5B3000054E100F3FE320000C5B3003E
:101654000054E100F5FE3200D0C6B3000054E100AE
:10166400F7FE3200C0C6B3000054E100F9FE3200B8
:1016740080C6B3000054E100FBFE320050C6B30044
:101684000054E100FDFE320040C6B3000054E10006
:10169400FFFE320030C6B3000054E10001FF320007
:1016A40020C6B3000054E10003FF320010C6B300AB
:1016B4000054E10005FF320000C6B3000054E1000D
:1016C40007FF320000C7B3000054E10009FF3200F5
:1016D40010C7B3000054E1000BFF320060C7B30031
:1016E4000054E1000DFF320070C7B3000054E10064
:1016F4000FFF320080C7B3000054E10011FF320035
:1017040090C7B3000054E10013FF3200C0C7B30018
:101714000054E10015FF3200D0C7B3000054E100CB
:1017240017FF3200E0C7B3000054E10019FF320094
:10173400F0C7B3000054E1001BFF32001FFF370065
:0C1744000E0090000080FA00000006007B
:100400000000FA002174200062042000730520001F
:10041000824878008348780042C7A9000080FA002B
:0404200000000600D2
:100424000000FA00217420006204200073052000FB
:10043400824878008348780042C7A8000080FA0008
:0404440000000600AE
:10180C000800FA00E0BA200010808800F0FF2F00DA
:10181C0000808800F0FF2F0030808800F0FF2F0040
:10182C00208088002022EF000000280022A2B700B0
:10183C002062A900C3FF07000001BE00803E20000B
:10184C0001002000FDFA07000001BE0068FB070044
:10185C004100DE006400400080007800600047001A
:10186C000A88BE008100E900030035001018D00082
:10187C001090D200FBFF3700829FBE008A9FBE00F3
:10188C000200BE000E0190009E0190000002EB00D1
:10189C0002FB07004F05BE004F01BE002007980059
:1018AC00310798008A9FBE000200BE000E01900016
:1018BC009E0190000002EB0024FB07004F05BE00C8
:1018CC008001780001027800600047005001D100CF
:1018DC00C080D300640047003008E1002090E10094
:1018EC000700310061804100E0004A00800278006E
:1018FC0001037800050178008601780002003700AA
:10190C0003017800840178000280710033003A00F2
:10191C008CFF07000001BE00803E2000010020006B
:10192C00C6FA07000001BE0031FB07004100DE00D3
:10193C0000A0EC0080007800600047000A88BE0020
:10194C008100E900030035001018D0001090D2007F
:10195C00FBFF3700829FBE000200BE000E0190000C
:10196C009E0190000002EB00CCFA07004F01BE0074
:10197C0020079800310798000200BE000E0190006D
:10198C009E0190000002EB00F0FA07008001780045
:10199C0001027800600047005001D100C080D300E4
:1019AC00640047003008E1002090E100070031009E
:1019BC0061804100E0004A00800278000103780059
:1019CC0005017800860178000200370003017800D9
:1019DC00840178002062A8000000370061005100EB
:1019EC00E0805900401188002222A90021E2A800C1
:1019FC002342A8009AFA070099FA07000080FA001F
:041A0C0000000600D0
:0C175000002E22002100200000000600F6
:0805FC002000200000000600B1
:10046C0068012000C7CC25000E20ED00FEFF3A00ED
:10047C001020ED00FCFF3A0000000000000000001E
:04048C000000060066
:100448000000FA00020AB800500088000200B80054
:1004580081004200032AB800810042000080FA00AF
:04046800000006008A
:1004A8000000FA0002000700A80204000000000093
:1004B8000800E20002003A001000070000000600F1
:1004C800811F78000200E20002003D006000100079
:1004D800E08018000600E20002003D006001110003
:1004E800E0811900050007004F00E00002003B0012
:1004F80060001000E08018000000060002000700FD
:100508000480BE00000006006022B8000602200039
:100518000000D0008180D2000482D2008582D200FF
:100528000000A8000202520083825A0003003B0028
:100538000202420083824A000000A1000603E9008B
:10054800F3FF3A00000006000080FA0000000600F1
:00055800A3
:100558000000FA0002000700FA0204000000000090
:100568000800E20002003A00100007000000060040
:10057800839F68000200E20002003D006000100056
:10058800E08018000600E20002003D006001110052
:10059800E0811900050007004F00E00002003B0061
:1005A80060001000E0801800000006006022B8001B
:1005B800060220000000D0008180D2000482D20010
:1005C8008582D2000000A8000202520083825A00ED
:1005D80003003B000202420083824A000000A1009F
:1005E8000603E900F3FF3A00000006000080FA0065
:0405F80000000600F9
:10175C000000FA002302AF0001003700FDFF370044
:0C176C002A1188000080FA00000006002E
:101778000000FA000220EF00100020000B00DD003E
:10178800000178001A0060000000E2000060EF002D
:1017980001003A000060EC000080FB000D006800CA
:1017A8000000E200140032006060E100050036002D
:1017B80035FB070034FB070061005600000678007F
:1017C800F9FF37001A0061000000E2000060EF0036
:1017D80001003A000060EC000080FB000D0068008A
:1017E8000000E20003003200F00F200080007800C3
:1017F8000000370000003700010078000080FA0080
:0418080000000600D6
:1004900087B521000E20ED00FEFF3A0000000000AD
:0804A00000000000000006004E
:0200000401F009
:1C0008000300000083000000850000007F0000003F000000D70000000300000039
:00000001FF
