:020000002B28AB
:10000800FF00030E8301A5000A08A4008A018B1CC7
:100018001128A00A0319A10A8B1024088A00250EAA
:080028008300FF0E7F0E0900AA
:0E0030008312031323088A00220882000800AE
:10003E0018208A110A128000840AA20A0319A30A40
:08004E00F003031D1F28080048
:1000560083120313A001A10186170330FB008A3027
:10006600FC005530FD00FD0B3628FC0B3628FB0B3B
:1000760036280000000086130130831686008801AA
:100086008312880190308B002008880047284A2870
:02400E004A2F37
:00000001FF
