:1000000056EF00F00000000000EF00F000000000DC
:0A0010000000000000000000F3D71C
:0E001C00ACB202D00000FCD728C0ADFF12002D
:0A002A00000E9EBA010E006E1200D7
:10003400AECF01F0ABA202D0AB98AB8801C000F008
:020044001200A8
:100046000900F5CFE6FF0006FBE10106F9E1120023
:100056001C0E206E000E216E280E226E000E236EE0
:10006600340E176E000E186E000E196E000E1A6E04
:100076002A0E1B6E000E1C6E000E1D6E000E1E6EEE
:10008600FF0E246EFF0E256E000E266E000E276EE6
:10009600AC8A900EAB6E948E949C9EAA03D0AECF83
:0600A60000F0FBD7120080
:1000AC00156A166A0F0EC112070EB412839C839E3A
:1000BC00B886B06A670EAF6EAC84C7DF820E0C6E6A
:1000CC00DD0E0D6E0D2EFED70C2EFCD700000000A1
:1000DC003F0E286E9DDF500E286E9ADF0D0E286E97
:1000EC0097DF9DDF005206E09FDF00C01FF000C0CD
:1000FC0028F08EDF83AC02D0010E166E83AC0FD0CD
:10010C0083AE0DD01650010A0AE1210E286E80DF55
:10011C00580E286E7DDF010E166E010E156E83BC17
:10012C0005D083BE03D01650010A00E1DAD7FFD701
:020000040030CA
:0E000000000C1F1EFF8381FF0FC00FE00F409A
:00000001FF
