:04000000AAEF0CF067
:1000080000C01EF001C01DF002C01CF003C01BF0B0
:1000180004C01AF005C019F008C018F009C017F09C
:100028000AC016F00BC015F0E1CF27F0E2CF28F098
:10003800E9CF25F0EACF26F0F3CF23F0F4CF24F070
:10004800F5CF22F0F8CF1FF0F7CF20F0F6CF21F050
:100058009BEC0AF022C0F5FF1FC0F8FF20C0F7FF95
:1000680021C0F6FF23C0F3FF24C0F4FF1EC000F038
:100078001DC001F01CC002F01BC003F01AC004F040
:1000880019C005F018C008F017C009F016C00AF02A
:1000980015C00BF025C0E9FF26C0EAFF27C0E1FF25
:0600A80028C0E2FF110078
:1000AE001E0E716E100E446E040E456E44C0E1FFBE
:1000BE0045C0E2FFE69E44C0E1FF45C0E2FFE69C7C
:1000CE00040E4424E16E000E4520E26EE68C180EFE
:1000DE00506E040E516E50C0E1FF51C0E2FFE69E1D
:1000EE0050C0E1FF51C0E2FFE69C040E5024E16EC9
:1000FE00000E5120E26EE68C020E4424E16E000EDC
:10010E004520E26E59C0E6FF5AC0E6FF010E4424B8
:10011E00E16E000E4520E26E400EE66E44C0E9FF31
:10012E0045C0EAFFEECF00F044C0E1FF45C0E2FF5C
:10013E00400E0014E66E44C0E9FF45C0EAFFEECF64
:10014E0000F044C0E1FF45C0E2FF880E0010E66EED
:10015E0044C05BF045C05CF0040E4418006E00C055
:04016E0044F0120047
:100172000B6A0A6A096A00500402F4CF09F0F3CF4D
:1001820008F001500502F4CF0BF0F3CF0AF0005053
:100192000502F3500926F4500A22E86A0B220150A4
:1001A2000402F3500926F4500A22E86A0B2208C01E
:1001B20000F009C001F00AC002F00BC003F0120007
:1001C20004012251010A0FE120C401F01F0E0116A1
:1001D2000150000A08E1558E2151030A03E1010E84
:1001E200586E01D0586A2251000AD8A48BD020C47C
:1001F20001F01F0E01160150020AD8A483D024C4B4
:1002020001F00F0E01160150000AD8B47BD0558EB2
:1002120024BF16D024C403F00F0E031603C000F04F
:10022200000E016E003600900136420E0024E96E87
:10023200000E0120EA6EEECF04F0EECF05F015D0ED
:1002420024C403F00F0E031603C000F0000E016E6B
:100252000036009001364E0E0024E96E000E012099
:10026200EA6EEECF04F0EECF05F02151030A07E16A
:1002720004C0E1FF05C0E2FF840EE66E43D024C451
:1002820000F00F0E0016700E026E0F0E036E00507D
:100292000226D8B0032A02C0E9FF03C0EAFFFE0E1D
:1002A200EE14006EEECF01F0FF0E011602C0E1FF68
:1002B20003C0E2FF00C0E6FF01C0E6FF24AF11D099
:1002C20004C0E1FF05C0E2FFE66A040E0418006EF6
:1002D20000C004F004C0E1FF05C0E2FF400EE66E7C
:1002E20011D004C0E1FF05C0E2FF880EE66E040EE5
:1002F2000418006E00C004F004C0E1FF05C0E2FF74
:06030200C80EE66E1200B9
:10030800000E575C02E1080E565C11E256C003F07D
:1003180057C004F000017551000A03E1010E756F22
:1003280005D07551010A02E1020E756F04D0080E5E
:10033800036E000E046E00014EC0E1FF4FC0E2FFE5
:10034800E6924EC0E1FF4FC0E2FFE6904EC0E9FFE3
:100358004FC0EAFFEECF00F04EC0E1FF4FC0E2FF12
:1003680004500010E66E010E4E24E16E000E4F2080
:10037800E26E03C0E6FF0350565C006E0450575807
:10038800016E00C056F001C057F0280E726F040EBF
:10039800736F55B02FD0035004102BE052C0F6FFF6
:1003A80053C0F7FF54C0F8FF0900F5CF00F072C042
:1003B800E1FF73C0E2FF00C0E6FF724B732B010E32
:1003C8005224006E000E5320016E000E5420026E5F
:1003D80000C052F001C053F002C054F0010E035C9B
:1003E800006E000E0458016E00C003F001C004F056
:1003F800D2D724D00350041021E052C0E9FF53C0E3
:10040800EAFF72C0E1FF73C0E2FFEECFE6FF724B76
:10041800732B010E5224006E000E5320016E00C093
:1004280052F001C053F0010E035C006E000E045838
:0E043800016E00C003F001C004F0DCD712001A
:1004460020C401F01F0E01160150010A01E08FD0F1
:1004560004012451000A01E08AD02151060A41E133
:1004660036D000018F51010A17E16C0E006E1B0E8B
:10047600016E000E026E120E0026000E01220222EE
:1004860000C052F001C053F002C054F0090E566E7F
:10049600000E576EC00E556E24D000018F51010A12
:1004A60012E1950E006E1B0E016E000E026E00C06C
:1004B60052F001C053F002C054F0210E566E000EE9
:1004C600576EC00E556E0DD0800E556E0AD00401C3
:1004D6002351210AC6E02351220ADFE02351230AD1
:1004E600F3E020C401F0600E0116050E006E005008
:1004F60004E00132019EFF0FFBD70150010A01E023
:1005060036D022D034D033D0760E526E000E536ED3
:10051600010E566E000E576EC10E556E28D0800E17
:10052600556E23C476F023D0740E526E000E536EB1
:10053600010E566E000E576E810E556E18D0800E47
:10054600556E22C474F013D004012151010ADAE079
:100556002151090AD8E02151020AD6E021510A0A9E
:10056600DEE02151030AE0E021510B0AE8E0120027
:1005760004012051800AD8A473D0C00E556E65D0F0
:10058600E70E006E1B0E016E000E026E00C052F0EA
:1005960001C053F002C054F0120E566E000E576E94
:1005A6005FD0030E006E000E016E22C404F0000E32
:1005B600056EDCDD5F0E0024E96E000E0120EA6E9A
:1005C600EECF52F0EECF53F0EECF54F0020E52249F
:1005D600F66E000E5320F76E000E5420F86E0900DA
:1005E600F5CF00F00900F5CF01F000C056F001C0CC
:1005F60057F036D0225100018E5D23E3030E006EC4
:10060600000E016E22C404F0000E056EAFDD670E0B
:100616000024E96E000E0120EA6EEECF52F0EECF16
:1006260053F0EECF54F052C0F6FF53C0F7FF54C05C
:10063600F8FF0900F5CF00F000C056F0000E576E27
:1006460001D0556A0DD0556A0BD004012351010A19
:1006560097E02351020AA5E02351030ACBE0F3D722
:02066600120080
:10066800558E716A0001906B22C48FF08F51000A79
:1006780003E1100E706F03D0200E706F14DD1200AE
:100688000401286B296B42D0558E28815850010AE5
:10069800D8B4288350D0558E4ED0558E24BF16D04E
:1006A80024C403F00F0E031603C000F0000E016E01
:1006B800003600900136420E0024E96E000E01203B
:1006C800EA6EEECF04F0EECF05F015D024C403F0A7
:1006D8000F0E031603C000F0000E016E00360090E6
:1006E80001364E0E0024E96E000E0120EA6EEECFB0
:1006F80004F0EECF05F004C0E9FF05C0EAFFEECF35
:1007080001F001A402D0010E286F15D020C401F019
:100718001F0E01160150000AB7E020C401F01F0E99
:1007280001160150010AB7E020C401F01F0E01169E
:100738000150020AB2E055AE07D0280E526E040EE0
:0A074800536E5580020E566E12002B
:100752006D9855BE4AD0000187AF28D0020E936F24
:10076200010E4E24E16E000E4F20E26EE66A4EC08C
:10077200E1FF4FC0E2FFC80EE66E010E9125E16E69
:10078200000E9221E26E080EE66E020E9125E16ED7
:10079200000E9221E26E280EE66E040EE66E91C005
:1007A200E1FF92C0E2FFC80EE66E1ED0010E912557
:1007B200E16E000E9221E26E080EE66E020E9125A7
:1007C200E16E000E9221E26E200EE66E040EE66EDF
:1007D20091C0E1FF92C0E2FF8C0EE66E4EC0E1FFD7
:1007E2004FC0E2FF840EE66E80D0000187BF7DD04D
:1007F200040120AF52D05750275D02E15650265DCA
:1008020004E226C456F027C457F07DDD010E000134
:10081200936F010E9125E16E000E9221E26E080E99
:10082200E66E020E9125E16E000E9221E26E200E1E
:10083200E66E040EE66E91C0E1FF92C0E2FF800E0A
:10084200E66E826B010E8325E16E000E8421E26E5C
:10085200080EE66E020E8325E16E000E8421E26E22
:10086200200EE66E040EE66E83C0E1FF84C0E2FF56
:10087200840EE66E010E826F020E4E24E16E000EB1
:100882004F20E26E280EE66E040EE66E4EC0E1FFC9
:100892004FC0E2FFC80EE66E28D00001020E936F31
:1008A200010E4E24E16E000E4F20E26EE66A4EC04B
:1008B200E1FF4FC0E2FFC80EE66E010E9125E16E28
:1008C200000E9221E26E080EE66E020E9125E16E96
:1008D200000E9221E26E280EE66E040EE66E91C0C4
:0C08E200E1FF92C0E2FFC80EE66E1200BB
:1008EE000001936B4EC0E1FF4FC0E2FFE66A040EBB
:1008FE004E18E16E4FC0E2FF000EE21AE66A87AFB5
:06090E0001D0879F1200DA
:1009140020C401F0600E0116050E006E005004E0C4
:100924000132019EFF0FFBD70150000A01E059D0AC
:1009340035D0558E080E0001706F53D01ADE51D099
:1009440091DE4FD08F0E526E000E536E5580010E05
:10095400566E558E46D096DE44D031DC42D0900E91
:10096400006E000E016E24510026D8B0012A00C08A
:1009740052F001C053F05580010E566E558E31D0A1
:10098400558E900EE16E000EE26E2451E126D8B031
:10099400E22A22C4E6FF25D024D023D00401215129
:1009A400050AC7E02151060AC9E02151090AC8E035
:1009B4002151080AC7E02151000ACDE02151010A62
:1009C400CCE02151030AC9E021510A0AC8E02151AF
:1009D4000B0AD6E02151070ADFE021510C0ADDE0C1
:0409E400DCD712004A
:1009E800010E00018325E96E000E8421EA6EEECF28
:1009F80000F000C002F0000E895D02E10250885D3F
:100A080003E288C002F00AD00250885D006E000E32
:100A18008959016E00C088F001C089F0036A02504C
:100A2800035C1CE2280EE96E040EEA6E0350E92608
:100A3800D8B0EA2AEECF00F085C0E1FF86C0E2FF19
:100A480000C0E6FF010E8525006E000E8621016EAE
:100A580000C085F001C086F0032AE1D7000E006EC1
:100A68008951005C02E18851000828E2010E9125B5
:100A7800E16E000E9221E26E080EE66E020E9125DE
:100A8800E16E000E9221E26E280EE66E040EE66E0E
:100A980083C0E9FF84C0EAFFEECF00F000BC07D0B6
:100AA80091C0E1FF92C0E2FFC80EE66E06D091C089
:100AB800E1FF92C0E2FF880EE66E19D0010E912583
:100AC800E16E000E9221E26E080EE66E020E91258E
:100AD800E16E000E9221E26E200EE66E040EE66EC6
:100AE80091C0E1FF92C0E2FF840EE66E879F12007C
:0A0AF8000001715301E0A3DC1200BD
:0E0B0200160E6F6E9F0E6B6E3B0E696E12002C
:100B10006C0E5F6E1B0E0001606F000E616F070EA2
:100B2000676F1C0E686F000E696FF90E6A6F1B0EFF
:100B30006B6F000E6C6FB60E6D6F1B0E6E6F000E3E
:040B40006F6F1200C1
:100B440070A019D083C0E9FF84C0EAFFEECF01F0A2
:100B54000150800A0FE14EC0E9FF4FC0EAFFEECF1B
:100B640001F00150840A06E183C0E1FF84C0E2FF82
:0C0B74008C0EE66E7090DF0E681612000A
:040B8000000012005F
:100B840000019351020A02E12DDF1ED0AEDE825134
:100B9400000A19E1010E9125E16E000E9221E26E28
:100BA400080EE66E020E9125E16E000E9221E26EB1
:100BB400200EE66E040EE66E91C0E1FF92C0E2FFE5
:0A0BC4008C0EE66E01D0826B120069
:0A0BCE006984EF0E68166D821200B4
:100BD8004EC0E9FF4FC0EAFFEECF00F000AE05D0EF
:100BE8004EC0E1FF4FC0E2FFE66A0001756B936BF0
:0E0BF800566A576A556A8ADE7BDFA7DD120057
:100C0600080E0C6E230E0D6E0D2EFED70C2EFCD785
:020C16001200CA
:040C1800A19A12008B
:100C1C006D92699468A403D0FB0E6816FBD7120082
:0C0C2C00100E0D6E0D2EFED70000120001
:100C38006BDF5B6A5C6A806B816B6A6A686A5DDF1E
:100C48006D8C6E6A716A6D9C7C6B7D6B000E7D5D30
:100C580002E1080E7C5D17E27CC000F07DC001F067
:100C6800003600900136003600900136000E002450
:100C7800E16E040E0120E26EE66AE66AE66AE66A5A
:100C88007C4B7D2BE3D7160E706E68A603D0F70E4B
:100C98006816FBD7556A876B886B896B6D98080E49
:0C0CA8004E6E040E4F6E8F6B706B1200CE
:100CB400040E4E18006E00C04EF000017051080A78
:100CC4000AE122C46EFF6E50000803E2100E706F3A
:100CD40002D0040E706F9351010A3CE1020E4E24BF
:100CE400E16E000E4F20E26E280EE66E040EE66EF4
:100CF40084EC01F000017551020A07E14EC0E1FFE6
:100D04004FC0E2FF840EE66E24D0040E4E18006E2F
:100D140000C04EF04EC0E9FF4FC0EAFFEECF00F036
:100D240000BC0CD0040E4E18006E00C04EF04EC035
:100D3400E1FF4FC0E2FFC80EE66E0BD0040E4E1862
:100D4400006E00C04EF04EC0E1FF4FC0E2FF880EBF
:080D5400E66E01D0CADD1200B9
:100D5C00E70E006E1B0E016E000E026E0E0E0024CE
:100D6C00F66E000E0120F76E000E0220F86E0900E0
:100D7C00F5CF03F003C004F00F0E0024F66E000E46
:100D8C000120F76E000E0220F86E0900F5CF01F07D
:100D9C000150035C12E2E70E006E1B0E016E000E9A
:100DAC00026E0F0E0024F66E000E0120F76E000E80
:100DBC000220F86E0900F5CF04F0E70E006E1B0E52
:100DCC00016E000E026E100E0024F66E000E012055
:100DDC00F76E000E0220F86E0900F5CF01F00150FD
:100DEC00045C12E2E70E006E1B0E016E000E026E2A
:100DFC00100E0024F66E000E0120F76E000E02207D
:0E0E0C00F86E0900F5CF04F004C000F01200EB
:100E1A000001A0BF02D0809001D08080A0BD02D086
:100E2A00809201D08082A0BB02D0809401D08084BD
:100E3A00A0B902D0809601D0808666B102D0808A9D
:100E4A0001D0809A808897DE8098A0B702D08090DF
:100E5A0001D08080A0B502D0809201D08082A0B358
:100E6A0002D0809401D08084A0B102D0809601D0B3
:100E7A00808666B102D0808A01D0809A80887BDE23
:0E0E8A00809866A102D0BADE01D0CBDE120045
:100E98000001A36BA46BA56B020EA025F66E000ED5
:100EA800A121F76E000EA221F86E0900F5CF05F01A
:100EB800030EA025F66E000EA121F76E000EA221EA
:100EC800F86E0900F5CF00F000C003F0000E046EC4
:100ED80003C001F0006A05500024066E000E0120D0
:100EE800076EA0C008F0A1C009F0A2C00AF0010E68
:100EF8000824F66E000E0920F76E000E0A20F86E20
:100F08000900F5CF01F00150020A1BE1060E082482
:100F1800F66E000E0920F76E000E0A20F86E090022
:100F2800F5CF01F00150A35D0CE2060E0824F66E21
:100F3800000E0920F76E000E0A20F86E0900F5CFA2
:100F4800A3F0010E0824F66E000E0920F76E000EBD
:100F58000A20F86E0900F5CF01F00150040A1BE1E0
:100F6800080E0824F66E000E0920F76E000E0A20FF
:100F7800F86E0900F5CF01F00150A35D0CE2080EF0
:100F88000824F66E000E0920F76E000E0A20F86E8F
:100F98000900F5CFA3F008C0F6FF09C0F7FF0AC0A3
:100FA800F8FF0900F5CF00F00050A425016E000EEF
:100FB800A521026E01C0A4F002C0A5F00750025C92
:100FC80002E10650015C01E30FD008C0F6FF09C03A
:100FD800F7FF0AC0F8FF0900F5CF00F00050082617
:0E0FE800000E09220A2283D7A3C000F01200D7
:100FF60000017051000A0AE16D6A696A7FDD6DB60B
:1010060002D06D86FCD70001010E706F7051010A87
:1010160008E16DBA06D0686A696A69806988020E55
:10102600706F68A405D069A403D0FB0E6816F3DDC3
:101036006DA202D0EEDDD4D068A018D069A016D07B
:10104600F8DD040E706F200E0401026F040E036FAC
:10105600080E016F000E0015006E00C000F48C0E25
:101066000011006E00C000F4FE0E681668A805D0D8
:1010760069A803D0A9DDEF0E681668AC04D069AC88
:1010860002D0BF0E681668AA03D069AA01D057DD40
:1010960068A202D069B26A6A040E0001705D02E2BB
:1010A600B8DD9ED069A69BD0A16B040EA15DD8B019
:1010B60096D068A691D06CCF7BF0F70E6816780EA6
:1010C6007B15016E0150000AD8A485D0FD0E7B1554
:1010D600016E026AFF0E0216000E021802E1000EF1
:1010E60001186BE17E0E7B15016E01C003F0033221
:1010F600039E03C000F0000E016E0036009001361C
:10110600003600900136000E0024026E040E012007
:10111600036E02C083F003C084F002C091F003C0E6
:1011260092F0040E9119006E00C091F002C0E9FF22
:1011360003C0EAFFEECF00F000C001F03C0E01163E
:101146000132019E0132019E01500D0A34E1020E68
:101156008325E96E000E8421EA6EEECF01F0EECF14
:1011660002F00250040A02E1280E011822E1020EE2
:101176008325E16E000E8421E26E200EE66E040EDB
:10118600E66EA06B080EA05D14E2200EE16E040E62
:10119600E26EA051E126D8B0E22A280EE96E040ECE
:1011A600EA6EA051E926D8B0EA2AEECFE6FFA02BD8
:1011B600E9D70FDD01D0E3DC0DD0FD0E7B15016E06
:1011C600026AFF0E0216000E021802E1040E011852
:1011D60001E16DDD00D001D002D0A12B66D719DD6B
:0211E6001200F5
:0A11E800D08EA28AA08AF28E1200B7
:1011F2000001A151000A12E0A0C000F0000E016E31
:101202000036009001364E0E0024E96E000E0120D9
:10121200EA6EEECF04F0EECF05F011D0A0C000F0E0
:10122200000E016E003600900136420E0024E96E77
:10123200000E0120EA6EEECF04F0EECF05F0020EB2
:101242000424E16E000E0520E26EA2C0E6FFA3C0F8
:10125200E6FF010E0424E16E000E0520E26EA4C03A
:10126200E6FF04C0E9FF05C0EAFFEECF00F004C0CC
:10127200E1FF05C0E2FF400E0014E66E04C0E9FF84
:1012820005C0EAFFEECF00F004C0E1FF05C0E2FFB7
:10129200880E0010E66EA151000A1BE0A0C000F00B
:1012A200000E016E0036009001364E0E0024026ED2
:1012B200000E0120036E02C0E9FF03C0EAFF040E24
:1012C200EE18006E02C0E1FF03C0E2FF00C0E6FFBD
:1012D2001AD0A0C000F0000E016E00360090013658
:1012E200420E0024026E000E0120036E02C0E9FFCE
:1012F20003C0EAFF040EEE18006E02C0E1FF03C055
:10130200E2FF00C0E6FF04C000F005C001F01200D9
:10131200000E0001A11902E1000EA01902E1016A0A
:101322000AD0A0C0E9FFA1C0EAFFEECF00F0000E94
:0C13320000BE010E016E01C000F01200B0
:0E133E000001669199C0A0F069DD6681120081
:10134C00200E0001705D03E36DB201D002D0006A83
:10135C0046D080C0A0F081C0A1F0D5DF00523EE1A4
:10136C009CC0A0F0010EA16F99C0A2F09AC0A3F08E
:10137C009BC0A4F038DF00C080F001C081F0776B17
:10138C00786B796B7A6B80C0A0F081C0A1F0BBDF69
:10139C0000520FE0010E016E0150000A01E125DE42
:1013AC0000017751781179117A1102E0006A17D097
:1013BC00EAD780C09DF081C09EF0000E811902E139
:1013CC00000E801909E0010E9D25E96E000E9E218C
:1013DC00EA6EEECF00F003D0006A01D0006A120072
:1013EC0000017051000A0BE16D6A696A81EC05F02D
:1013FC00F5DE6DB602D06D86FCD7010E706F120053
:0E140C00ACB202D00000FCD799C0ADFF1200B8
:10141A00A0DC00C099F06C0E0001A06F1B0EA16F3A
:10142A00000EA26F34DD00C09AF09951005C03E20D
:0C143A0099C000F002D09AC000F012002F
:1014460000019F6B200E705D03E36DB201D002D0E8
:10145600006A2DD05BC0A0F05CC0A1F057DF00523F
:1014660025E15BC09DF05CC09EF0000E5C1802E1B9
:10147600000E5B180AE0010E9D25E96E000E9E2106
:10148600EA6EEECF00F000C09FF09CC0A0F0A16B0A
:1014960099C0A2F09AC0A3F09BC0A4F0A7DE00C03A
:1014A6005BF001C05CF09FC000F001D0006A120042
:1014B60010D0800E0001946F1AD0C00E946F17D012
:1014C600940E946F14D0D40E946F11D0800E946F36
:1014D6000ED000019451010AECE09451020AEDE0AD
:1014E6009451030AEDE09451040AEDE0EFD7950517
:1014F600006E9451002600C094F0668100C0A0F0F2
:0E15060089DC669196C0A0F085DC668112003B
:10151400AECF01F0ABA202D0AB98AB8801C000F013
:021524001200B3
:101526000900F5CFE6FF0006FBE10106F9E112002E
:1015360000017051010A07E16DBA05D0686A698039
:101546006988020E706F68A406D069A404D0FB0EE9
:1015560068160EEC06F06DA203D00CEC06F0DCD09B
:1015660068A019D069A017D01CEC06F0040E706FA5
:10157600200E0401026F040E036F080E016F000EA9
:101586000015006E00C000F48C0E0011006E00C045
:1015960000F4FE0E681668A806D069A804D0E7EC29
:1015A60005F0EF0E681668AC04D069AC02D0BF0E29
:1015B600681668AA04D069AA02D0A2EC05F068A24F
:1015C60002D069B26A6A040E0001705D03E20CEC97
:1015D60006F0A2D069A69ED0A76B040EA75DD8B070
:1015E60099D068A694D06CCF7BF0F70E6816780E6B
:1015F6007B15016E0150000AD8A488D0FD0E7B151C
:10160600016E026AFF0E0216000E021802E1000EBB
:1016160001186DE17E0E7B15016E01C003F00332E9
:10162600039E03C000F0000E016E003600900136E6
:10163600003600900136000E0024026E040E0120D2
:10164600036E02C083F003C084F002C091F003C0B1
:1016560092F0040E9119006E00C091F002C0E9FFED
:1016660003C0EAFFEECF00F000C001F03C0E011609
:101676000132019E0132019E01500D0A35E1020E32
:101686008325E96E000E8421EA6EEECF01F0EECFDF
:1016960002F00250040A02E1280E011822E1020EAD
:1016A6008325E16E000E8421E26E200EE66E040EA6
:1016B600E66EA66B080EA65D14E2200EE16E040E21
:1016C600E26EA651E126D8B0E22A280EE96E040E93
:1016D600EA6EA651E926D8B0EA2AEECFE6FFA62B97
:1016E600E9D7ECEC05F002D0C2EC05F00ED0FD0E09
:1016F6007B15016E026AFF0E0216000E021802E149
:10170600040E011802E15AEC06F000D001D002D016
:0A171600A72B63D70CEC06F01200BD
:101720009298929A92969294929292908098809A9D
:10173000809080928094809603EC06F003EC06F093
:1017400003EC06F0808480868088C0EC05F08098E9
:1017500003EC06F08088C0EC05F0809803EC06F0FE
:101760008088C0EC05F0809803EC06F080968088B5
:10177000C0EC05F0809803EC06F08088C0EC05F022
:101780008098809480808088C0EC05F0809803EC7D
:1017900006F0809080868088C0EC05F08098809666
:1017A0008088C0EC05F0809803EC06F08088C0ECDF
:1017B00005F0809880868088C0EC05F0809803EC66
:1017C00006F080968088C0EC05F08098808080824A
:1017D000808480868088C0EC05F0809803EC06F059
:0617E00000016681120009
:1017E60010D0800E0001946F1AD0C00E946F17D0DF
:1017F600940E946F14D0D40E946F11D0800E946F03
:101806000ED000019451010AECE09451020AEDE079
:101816009451030AEDE09451040AEDE0EFD79505E3
:10182600006E9451002600C094F000C0A0F00DECAC
:1018360007F06691986B98519625E96E000E9721F0
:10184600EA6EEE520BE098519625E96E000E97214E
:10185600EA6EEECF99F070DD982BEDD76681120017
:10186600D9DD00C08EF0010E716F94C059F095C09D
:101876005AF096C07EF097C07FF01CEC06F0010E81
:0C188600016E0150010A01E1AEDD12000C
:1018920059C099F05AC09AF0400E00019B6F010E98
:0618A2009C6FD0DD120076
:1018A80094C099F095C09AF096C09BF0010E000183
:0618B8009C6F48DD1200E8
:0A18BE00000E9EBA010E006E12002B
:1018C8000001976B94C0E9FF95C0EAFFEECF96F050
:1018D8009651000A0EE096C099F094DD0001972B0E
:1018E80097519425E96E000E9521EA6EEECF96F099
:0418F800EFD7120014
:1018FC000C0E0001626F140E636F990E646F000E74
:10190C00656F140E466E150E476E000E486E000E77
:10191C00496EBE0E4A6E180E4B6E000E4C6E000ECB
:10192C004D6EFF0E3E6EFF0E3F6E000E406E000EB3
:10193C00416EAC8A900EAB6E948E949C9EAA03D092
:08194C00AECF00F0FBD7120042
:1019540006EC0EF00F0EC112070EB412926A946ACE
:10196400829082928294DADE0D0E0C6EFB0E0D6E66
:101974000D2EFED70C2EFCD700000000010E946F34
:10198400010E956F2D0E966F000E976F2ADF060ECF
:101994000B6E130E0C6EAD0E0D6E0D2EFED70C2EAF
:1019A400FCD70B2EFAD700000000010EA06F0DEC3F
:1019B40007F0B886B06A670EAF6EAC849DDF0D0E7B
:1019C4000C6EFB0E0D6E0D2EFED70C2EFCD70000F8
:1019D4000000000E946F050E956F400E966F050E75
:1019E400976F3FDF54DF005201E1FCD75D6A400E80
:1019F4005D5C14E2400EE16E050EE26E5D50E12680
:101A0400D8B0E22A000EE96E050EEA6E5D50E926B2
:101A1400D8B0EA2AEECFE6FF5D2AE9D70001400EEE
:101A2400946F050E956F400E966F3CDF005201E1F6
:101A3400F5D7010EA06F0DEC07F0400E946F050E64
:101A4400956F40DF0D0E996FDFDC29C094F02BC039
:101A540095F0400E0001966F050E976FC2DE060EDC
:101A64000B6E130E0C6EAD0E0D6E0D2EFED70C2EDE
:101A7400FCD70B2EFAD700000000010EA06F0DEC6E
:101A840007F01BDF00522FE00D0E0C6EFB0E0D6EE7
:101A94000D2EFED70C2EFCD70000000039DD00C04F
:101AA4005EF00D0E0C6EFB0E0D6E0D2EFED70C2E81
:101AB400FCD70000000029C094F02BC095F05EC054
:101AC40096F0F7DC5E50110A0CE1010EA06F0DECEC
:101AD40007F0010E2B6E000E2C6E010E296E000E07
:101AE4002A6E2B4A2C2A000E2C1802E1110E2B18F8
:101AF4000EE1000E2A1802E1010E291808E1020E77
:101B0400296E000E2A6E010E2B6E000E2C6E000E36
:101B14002A1802E1020E291825E1000E2C1802E110
:101B2400110E2B181FE10001010EA06F0DEC07F040
:101B3400010E2B6E000E2C6E010E296E000E2A6E05
:101B4400060E0B6E130E0C6EAD0E0D6E0D2EFED723
:101B54000C2EFCD70B2EFAD700000000010EA06F4C
:081B64000DEC07F03FD7FFD79D
:101C0C0010EE29F0150E006E010E016ED20EF66E5E
:0E1C1C001B0EF76E000EF86E93EC0AF012002D
:101B6C00090229000101008032090400000203006F
:101B7C000000092101010001222100070581034019
:091B8C00000107050103400001FE
:101B95000600FF0901A10119012940150026FF00D2
:101BA50075089540810219012940750895409102F3
:011BB500C06F
:101BB6001C036400750072006D0061007A007300FA
:0C1BC60079006E00630062006F00780080
:021BD200010010
:021BD40001000E
:101BD60047756C6D61792047656E2E205465737468
:011BE60000FE
:101BE7001201000200000008341201000100010286
:021BF7000001EB
:0E1BF9000E036400750072006D0061007A003A
:041C070004030904C5
:020000040030CA
:0E000000200C391EFF8381FF0FC00FE00F4060
:00000001FF
