:1000000060EF00F00000000000EF00F000000000D2
:0A0010000000000000000000F3D71C
:0E001C00ACB202D00000FCD739C0ADFF12001C
:10002A00386A35C0E9FF36C0EAFFEECF37F03750FD
:10003A00000A0DE037C039F0ECDF382A3850352491
:10004A00E96E000E3620EA6EEECF37F0F0D71200D6
:10005A001C0E316E000E326E390E336E000E346E87
:10006A00FF0E256EFF0E266E000E276E000E286EFE
:10007A00FF0E296EFF0E2A6E000E2B6E000E2C6EDE
:10008A00FF0E2D6EFF0E2E6E000E2F6E000E306EBE
:10009A00AC8A900EAB6E948E949C9EAA03D0AECF7F
:0600AA0000F0FBD712007C
:1000B0000900F5CFE6FF0006FBE10106F9E11200B9
:1000C000AFEC00F0958E959C836A070EB46EFF0E20
:1000D000C16EB886B06A670EAF6EAC84BEDF820EAA
:1000E0000C6EDD0E0D6E0D2EFED70C2EFCD7000013
:1000F0000000150E356E000E366E97DF820E0C6E08
:10010000DD0E0D6E0D2EFED70C2EFCD7000000006C
:10011000838C340E0C6EF10E0D6E0D2EFED70C2E50
:10012000FCD700000000839C0D0E0C6EFB0E0D6EC4
:100130000D2EFED70C2EFCD70000000083AE05D09C
:0E0140001E0E356E000E366E70DFF8D7FFD73C
:10015E0010EE15F0100E006E010E016E4E0EF66EC4
:0E016E00010EF76E000EF86E58EC00F0120055
:09014E005374617274696E67005C
:070157004558505F4F4B00BB
:020000040030CA
:0E000000000C1F1EFF8381FF0FC00FE00F409A
:00000001FF
