:1000000036120400000000000000000000000000A4
:1000100000000000000000000000000000000000E0
:1000200000000000000000000000000000000000D0
:1000300000000000000000000000000000000000C0
:1000400000000000000000000000000000000000B0
:1000500000000000AE1200000000000000000000E0
:100060000000000000000000000000000000000090
:100070000000000000000000000000000000000080
:100080000000000000000000000000000000000070
:100090000000000000000000000000000000000060
:10246C00AF432200F0FF270020A0B700102020006F
:10247C0032A0B700400020004420B70060130200D7
:10248C00000000008A1F78008B1F78008C1F7800DA
:10249C006004200046A7B7004427EF000E2EEF0083
:1024AC001E2EEF002E2EEF003E2EEF004E2EEF00D4
:1024BC006E2EEF002CC2B3001BC0B300CAC7B30012
:1024CC0021FF0700A08088001CC0B3001620EF007D
:1024DC00DAC7B3001CFF0700A0808800B8062000F4
:1024EC00F7FF2C000E20ED00FEFF3A001020ED004F
:1024FC00FCFF3A0000000000000000009AFF0700FB
:10250C000A5822000B00200016FF0700B806200016
:10251C00F7FF2C000E20ED00FEFF3A001020ED001E
:10252C00FCFF3A000000000000000000C8FF07009C
:10253C00C5FF070097FF070000000000FEFF3700F3
:10254C004F067800CF0578004F057800FFFF370065
:00255C007F
:102154000000FA008D1F78001D00200043FB0700DB
:0C216400CF0678000080FA0000000600A2
:100E70000200FA00F00F200000079800605CE1001B
:100E8000BF003A001A00E2000100320089FD0700AD
:100E90005D003700006820000C487800B50037007E
:100EA000106820000C487800B2003700206820004D
:100EB0000C487800AF003700306820000C487800FC
:100EC000AC003700406820000C487800A9003700CB
:100ED000506820000C487800A600370060682000A9
:100EE0000C487800A3003700706820000C48780098
:100EF000A0003700806820000C4878009D00370073
:100F0000906820000C4878009A003700A068200004
:100F10000C48780097003700B06820000C48780033
:100F200094003700C06820000C487800910037001A
:100F3000D06820000C4878008E003700E068200060
:100F40000C4878008B003700F06820000C487800CF
:100F500088003700006920000C48780085003700C1
:100F6000106920000C4878008200370020692000BA
:100F70000C4878007F003700306920000C4878006A
:100F80007C003700606920000C4878007900370049
:100F9000706920000C4878007600370080692000D6
:100FA0000C48780073003700906920000C487800E6
:100FB00070003700A06920000C4878006D003700F1
:100FC000B06920000C4878006A003700C069200032
:100FD0000C48780067003700D06920000C48780082
:100FE00064003700E06920000C4878006100370099
:100FF000F06920000C4878005E0037000020EF0008
:10100000000798005B00370000C4B3000054E10003
:10101000A0FF320010C4B3000054E100A0FF320072
:1010200020C4B3000054E100A0FF320030C4B3007C
:101030000054E100A0FF320040C4B3000054E100BE
:10104000A0FF320050C4B3000054E100A0FF320002
:1010500060C4B3000054E100A0FF320070C4B300CC
:101060000054E100A0FF3200F0C4B3000054E100DE
:10107000A0FF320000C5B3000054E100A0FF320021
:1010800020C5B3000054E100A0FF320040C5B3000A
:101090000054E100A0FF320050C5B3000054E1004D
:1010A000A0FF320070C5B3000054E100A0FF320081
:1010B00000C6B3000054E100A0FF320010C6B30028
:1010C0000054E100A0FF320020C6B3000054E1004C
:1010D000A0FF320030C6B3000054E100A0FF320090
:1010E00040C6B3000054E100A0FF320050C6B30078
:1010F0000054E100A0FF320080C6B3000054E100BC
:10110000A0FF3200C0C6B3000054E100A0FF3200CF
:10111000D0C6B3000054E100A0FF320000C7B30006
:101120000054E100A0FF320010C7B3000054E100FA
:10113000A0FF320060C7B3000054E100A0FF3200FE
:1011400080C7B3000054E100A0FF3200D0C7B30055
:101150000054E100A0FF3200E0C7B3000054E100FA
:10116000A0FF3200F0C7B3000054E100A0FF32003E
:10117000A2FF37001A00E20001003200B7FC0700AE
:10118000615CE10027013A001A00E2000100320030
:10119000C8FC07009C003700106A20000A4878004D
:1011A0001D013700206A20000A4878001A01370024
:1011B000306A20000A48780017013700406A200092
:1011C0000A48780014013700606A20000A48780055
:1011D00011013700706A20000A4878000E013700BC
:1011E000806A20000A4878000B013700906A2000CE
:1011F0000A48780008013700A06A20000A487800F1
:1012000005013700B06A20000A4878000201370063
:10121000C06A20000A487800FF003700D06A20002A
:101220000A487800FC003700E06A20000A4878008D
:10123000F9003700F06A20000A487800F60037000D
:10124000006B20000A487800F3003700106B200084
:101250000A487800F0003700206B20000A48780028
:10126000ED003700306B20000A487800EA003700B4
:10127000406B20000A487800E7003700506B2000E0
:101280000A487800E4003700606B20000A487800C4
:10129000E1003700706B20000A487800DE0037005C
:1012A000406C20000A487800DB003700506C2000BA
:1012B0000A487800D8003700606C20000A4878009F
:1012C000D5003700706C20000A487800D200370043
:1012D000806C20000A487800CF003700906C200016
:1012E0000A487800CC003700A06C20000A4878003B
:1012F000C9003700E06C20000A487800C6003700BB
:10130000406D20000A487800C3003700506D20006F
:101310000A487800C0003700606D20000A48780055
:10132000BD003700706D20000A487800BA00370011
:10133000806D20000A487800B7003700906D2000CB
:101340000A487800B4003700A06D20000A487800F1
:10135000B1003700B06D20000A487800AE003700B9
:10136000C06D20000A487800AB003700E06D200017
:101370000A487800A8003700F06D20000A4878007D
:10138000A5003700006E20000A487800A200370050
:10139000206E20000A4878009F003700306E200041
:1013A0000A4878009C003700406E20000A48780008
:1013B00099003700506E20000A48780096003700E8
:1013C000606E20000A48780093003700706E20009D
:1013D0000A48780090003700806E20000A487800A4
:1013E0008D003700906E20000A4878008A00370090
:1013F000A06E20000A487800870037000020EF0028
:1014000000079800840037006064E10062FF32004A
:101410006164E10063FF32006264E10064FF320056
:101420006364E10065FF32006464E10066FF32003E
:101430006564E10067FF32006664E10068FF320026
:101440006764E10069FF32006864E1006AFF32000E
:101450006964E1006BFF32006A64E1006CFF3200F6
:101460006B64E1006DFF32006C64E1006EFF3200DE
:101470006D64E1006FFF32006E64E10070FF3200C6
:101480006F64E10071FF32007064E10072FF3200AE
:101490007164E10073FF32007264E10074FF320096
:1014A0007364E10075FF32007464E10076FF32007E
:1014B0007564E10077FF320020C2B3000064E100F0
:1014C00077FF320030C2B3000064E10077FF3200E2
:1014D00040C2B3000064E10077FF320050C2B300A5
:1014E0000064E10077FF320060C2B3000064E100F5
:1014F00077FF320070C2B3000064E10077FF320072
:1015000080C2B3000064E10077FF320090C2B300F4
:101510000064E10077FF3200D0C2B3000064E10054
:1015200077FF3200E0C2B3000064E10077FF3200D1
:10153000F0C2B3000064E10077FF320000C3B300E3
:101540000064E10077FF320010C3B3000064E100E3
:1015500077FF320020C3B3000064E10077FF320060
:1015600030C3B3000064E10077FF320040C3B30032
:101570000064E10077FF320050C3B3000064E10073
:1015800077FF320060C3B3000064E10077FF3200F0
:1015900070C3B3000064E10077FF320080C3B30082
:1015A0000064E10077FF320090C3B3000064E10003
:1015B00077FF3200A0C3B3000064E10077FF320080
:1015C000B0C3B3000064E10077FF3200C0C3B300D2
:1015D0000064E10077FF3200D0C3B3000064E10093
:1015E00077FF3200E0C3B3000064E10077FF320010
:1015F000F0C3B3000064E10077FF320000C4B30021
:101600000064E10077FF320010C4B3000064E10021
:1016100077FF320079FF37001A00E2000100320044
:101620008EFB0700890137001600AE00000EA900EE
:101630001600AF00000EA800650237001600AE00CD
:10164000002EA9001600AF00002EA800600237008F
:101650001600AE00004EA9001600AF00004EA80014
:101660005B0237001600AE00006EA9001600AF0046
:10167000006EA800560237001600AE00008EA900CA
:101680001600AF00008EA800510237001600AE0011
:1016900000AEA9001600AF0000AEA8004C02370053
:1016A0001600AE0000CEA9001600AF0000CEA800C4
:1016B000470237001600AE0000EEA9001600AF008A
:1016C00000EEA800420237001600AE0001CEA900CD
:1016D0001600AF0001CEA8003D0237001600AE0094
:1016E00001EEA9001600AF0001EEA8003802370095
:1016F0001600AE0011EEA9001600AF0011EEA80012
:10170000330237001600AE0011CEA9001600AF005C
:1017100011CEA8002E0237001600AE0011AEA900AF
:101720001600AF0011AEA800290237001600AE0067
:10173000118EA9001600AF00118EA80024023700F8
:101740001600AE00116EA9001600AF00116EA800C1
:101750001F0237001600AE00114EA9001600AF00A0
:10176000114EA8001A0237001600AE00112EA90073
:101770001600AF00112EA800150237001600AE00AB
:10178000110EA9001600AF00110EA80010023700BC
:101790001600AE0010EEA9001600AF0010EEA80073
:1017A0000B0237001600AE0010CEA9001600AF00E5
:1017B00010CEA800060237001600AE0010AEA90039
:1017C0001600AF0010AEA800010237001600AE00F0
:1017D000108EA9001600AF00108EA800FC01370083
:1017E0001600AE00106EA9001600AF00106EA80023
:1017F000F70137001600AE00104EA9001600AF002A
:10180000104EA800F20137001600AE00102EA900FD
:101810001600AF00102EA800ED0137001600AE0034
:10182000100EA9001600AF00100EA800E801370046
:101830001600AE00202EA9001600AF00202EA80032
:10184000E30137001600AE00204EA9001600AF00DD
:10185000204EA800DE0137001600AE00206EA90061
:101860001600AF00206EA800D90137001600AE00A8
:10187000208EA9001600AF00208EA800D4013700EA
:101880001600AE0021CEA9001600AF0021CEA800A0
:10189000CF0137001600AE0021AEA9001600AF0040
:1018A00021AEA800CA0137001600AE00218EA900A3
:1018B0001600AF00218EA800C50137001600AE004B
:1018C00031EEA9001600AF0031EEA800C0013700CC
:1018D0001600AE0031CEA9001600AF0031CEA80030
:1018E000BB0137001600AE0031AEA9001600AF00F4
:1018F00031AEA800B60137001600AE00318EA90047
:101900001600AF00318EA800B10137001600AE00FE
:10191000316EA9001600AF00316EA800AC0137008F
:101920001600AE00314EA9001600AF00314EA800DF
:10193000A70137001600AE00312EA9001600AF0037
:10194000312EA800A20137001600AE00310EA9000A
:101950001600AF00310EA8009D0137001600AE0042
:1019600030EEA9001600AF0030EEA8009801370055
:101970001600AE0030CEA9001600AF0030CEA80091
:10198000930137001600AE0030AEA9001600AF007C
:1019900030AEA8008E0137001600AE00308EA900D0
:1019A0001600AF00308EA800890137001600AE0087
:1019B000306EA9001600AF00306EA8008401370019
:1019C0001600AE00304EA9001600AF00304EA80041
:1019D0007F0137001600AE00302EA9001600AF00C0
:1019E000302EA8007A0137001600AE00300EA90094
:1019F0001600AF00300EA800750137001600AE00CB
:101A0000412EA9001600AF00412EA800700137003A
:101A10001600AE00410EA9001600AF00410EA8004E
:101A20006B0137001600AE0040CEA9001600AF00D3
:101A300040CEA800660137001600AE0040AEA900F7
:101A40001600AF0040AEA800610137001600AE00DE
:101A5000408EA9001600AF00408EA8005C01370040
:101A60001600AE00406EA9001600AF00406EA80040
:101A7000570137001600AE00404EA9001600AF0017
:101A8000404EA800520137001600AE00402EA900BB
:101A90001600AF00402EA8004D0137001600AE0022
:101AA000400EA9001600AF00400EA8004801370004
:101AB0001600AE0040EEA9001600AF0040EEA800F0
:101AC000430137001600AE0051AEA9001600AF006A
:101AD00051AEA8003E0137001600AE00518EA9009D
:101AE0001600AF00518EA800390137001600AE0075
:101AF000510EA9001600AF00510EA80034013700A6
:101B00001600AE0050AEA9001600AF0050AEA800FF
:101B10002F0137001600AE00508EA9001600AF004E
:101B2000508EA8002A0137001600AE00506EA900A2
:101B30001600AF00506EA800250137001600AE0059
:101B4000504EA9001600AF00504EA80020013700EB
:101B50001600AE00502EA9001600AF00502EA800AF
:101B60001B0137001600AE00500EA9001600AF0092
:101B7000500EA800160137001600AE00600EA90036
:101B80001600AF00600EA800110137001600AE006D
:101B9000602EA9001600AF00602EA8000C013700CF
:101BA0001600AE0060CEA9001600AF0060CEA800FF
:101BB000070137001600AE0060EEA9001600AF0066
:101BC00060EEA800020137001600AE00610EA90009
:101BD0001600AF00610EA800FD0037001600AE0031
:101BE000612EA9001600AF00612EA800F800370092
:101BF0001600AE00618EA9001600AF00618EA8002D
:101C0000F30037001600AE0061AEA9001600AF0069
:101C100061AEA800EE0037001600AE0061CEA9004C
:101C20001600AF0061CEA800E90037001600AE0034
:101C300061EEA9001600AF0061EEA800E4003700D5
:101C40000020EF0000079800E10037007054E10029
:101C500075FE32007154E10078FE32007254E100EA
:101C60007BFE32007354E1007EFE32007454E100CA
:101C700081FE32007554E10084FE32007654E100AA
:101C800087FE32007754E1008AFE32007E54E10084
:101C90008DFE32007F54E10090FE3200F0C2B300AE
:101CA0000054E10092FE3200E0C2B3000054E100B3
:101CB00094FE3200D0C2B3000054E10096FE320020
:101CC000C0C2B3000054E10098FE3200B0C2B300BD
:101CD0000054E1009AFE3200A0C2B3000054E100BB
:101CE0009CFE320090C2B3000054E1009EFE320020
:101CF00080C2B3000054E100A0FE320070C2B30005
:101D00000054E100A2FE320060C2B3000054E100C2
:101D1000A4FE320050C2B3000054E100A6FE32001F
:101D200040C2B3000054E100A8FE320030C2B3004C
:101D30000054E100AAFE320020C2B3000054E100CA
:101D4000ACFE320010C2B3000054E100AEFE32001F
:101D500000C2B3000054E100B0FE320010C3B30073
:101D60000054E100B2FE320020C3B3000054E10091
:101D7000B4FE320030C3B3000054E100B6FE3200BE
:101D800040C3B3000054E100B8FE3200E0C3B3002A
:101D90000054E100BAFE3200D0C3B3000054E100A9
:101DA000BCFE3200C0C3B3000054E100BEFE3200EE
:101DB000F0C4B3000054E100C0FE3200E0C4B30040
:101DC0000054E100C2FE3200D0C4B3000054E10070
:101DD000C4FE3200C0C4B3000054E100C6FE3200AD
:101DE000B0C4B3000054E100C8FE3200A0C4B30088
:101DF0000054E100CAFE320090C4B3000054E10078
:101E0000CCFE320080C4B3000054E100CEFE3200AC
:101E100070C4B3000054E100D0FE320060C4B300CF
:101E20000054E100D2FE320050C4B3000054E1007F
:101E3000D4FE320040C4B3000054E100D6FE3200AC
:101E400030C4B3000054E100D8FE320020C4B30017
:101E50000054E100DAFE320010C4B3000054E10087
:101E6000DCFE320000C4B3000054E100DEFE3200AC
:101E700090C5B3000054E100E0FE320080C5B3001D
:101E80000054E100E2FE320060C5B3000054E100FE
:101E9000E4FE320050C5B3000054E100E6FE32001B
:101EA00040C5B3000054E100E8FE320030C5B30085
:101EB0000054E100EAFE320020C5B3000054E10006
:101EC000ECFE320010C5B3000054E100EEFE32001B
:101ED00000C5B3000054E100F0FE320070C5B3004D
:101EE0000054E100F2FE3200D0C6B3000054E1001D
:101EF000F4FE3200C0C6B3000054E100F6FE32002A
:101F000080C6B3000054E100F8FE320050C6B300B2
:101F10000054E100FAFE320040C6B3000054E10074
:101F2000FCFE320030C6B3000054E100FEFE320079
:101F300020C6B3000054E10000FF320010C6B30019
:101F40000054E10002FF320000C6B3000054E1007B
:101F500004FF320000C7B3000054E10006FF320066
:101F600010C7B3000054E10008FF320060C7B3009F
:101F70000054E1000AFF320070C7B3000054E100D2
:101F80000CFF320080C7B3000054E1000EFF3200A6
:101F900090C7B3000054E10010FF3200C0C7B30087
:101FA0000054E10012FF3200D0C7B3000054E1003A
:101FB00014FF3200E0C7B3000054E10016FF320006
:101FC000F0C7B3000054E10018FF32001CFF3700D7
:0C1FD0000E0090000080FA0000000600E7
:1004B4000000FA002174200062042000730520006B
:1004C400824878008348780042C7A9000080FA0077
:0404D400000006001E
:10045C000000FA00217420006204200073052000C3
:10046C00824878008348780042C7A8000080FA00D0
:04047C000000060076
:102374008A1F78008B1F78008C1F78004C01200086
:102384001620EF00EA1D220016FF07004F06780012
:0C239400CF0578004F057800000006001F
:101FE8000000FA000A0178008C00780061005600B1
:101FF800000678000200E200030032000B49780076
:102008000420EC00F8FF37000A0078000080FA008E
:0420180000000600BE
:102170000800FA008058200010828800E009210041
:10218000008288004009210030828800F0FF2F0083
:10219000208288002022EF000000280022A2B70041
:1021A0002062A9008DFF07000001BE00803E2000D4
:1021B0000100200099FF07000001BE00A9FF0700F1
:1021C0004100DE00640040008000780060004700AD
:1021D0000A88BE008100E900030035001018D00015
:1021E0001090D200FBFF3700829FBE008A9FBE0086
:1021F0000200BE000E0190009E0190000002EB0064
:1022000073FA07004F05BE004F01BE00200798007B
:10221000310798008A9FBE000200BE000E019000A8
:102220009E0190000002EB0040FA07004F05BE003F
:102230008001780001027800600047005001D10061
:10224000C080D300640047003008E1002090E10026
:102250000700310061804100E0004A008002780000
:10226000010378000501780086017800020037003C
:1022700003017800840178000280710033003A0085
:1022800056FF07000001BE00803E20000100200034
:1022900062FF07000001BE0072FF07004100DE0080
:1022A00000A0EC0080007800600047000A88BE00B3
:1022B0008100E900030035001018D0001090D20012
:1022C000FBFF3700829FBE000200BE000E0190009F
:1022D0009E0190000002EB003DFA07004F01BE0096
:1022E00020079800310798000200BE000E01900000
:1022F0009E0190000002EB000CFA070080017800BC
:1023000001027800600047005001D100C080D30076
:10231000640047003008E1002090E1000700310030
:1023200061804100E0004A008002780001037800EB
:10233000050178008601780002003700030178006B
:10234000840178002062A80000003700610051007D
:10235000E0805900401188002222A90021E2A80053
:102360002342A80036FF070035FF07000080FA006F
:042370000000060063
:0C1FDC00002E2200210020000000060062
:0820640020002000000006002E
:1020400068012000C7CC25000E20ED00FEFF3A00FD
:102050001020ED00FCFF3A0000000000000000002E
:042060000000060076
:10201C000000FA00020AB800500088000200B80064
:10202C0081004200032AB800810042000080FA00BF
:04203C00000006009A
:100BD0000000FA00020007003C06040000000000CC
:100BE0000800E20002003A001000070000000600C2
:100BF000811F78000200E20002003D00600010004A
:100C0000E08018000600E20002003D0060011100D3
:100C1000E0811900050007004F00E00002003B00E2
:100C200060001000E08018000000060002000700CD
:100C30000480BE00000006006022B800060220000A
:100C40000000D0008180D2000482D2008582D200D0
:100C50000000A8000202520083825A0003003B00F9
:100C60000202420083824A000000A1000603E9005C
:100C7000F3FF3A00000006000080FA0000000600C2
:000C800074
:100B2C000000FA0002000700E405040000000000C9
:100B3C000800E20002003A00100007000000060066
:100B4C00839F68000200E20002003D00600010007C
:100B5C00E08018000600E20002003D006001110078
:100B6C00E0811900050007004F00E00002003B0087
:100B7C0060001000E0801800000006006022B80041
:100B8C00060220000000D0008180D2000482D20036
:100B9C008582D2000000A8000202520083825A0013
:100BAC0003003B000202420083824A000000A100C5
:100BBC000603E900F3FF3A00000006000080FA008B
:040BCC00000006001F
:10245C002168A8002168A8000168A90000000600F6
:00246C0070
:0824540065FA07000000060014
:100DEC0040192100B00F8900A0042100A00F890038
:100DFC0012C0B3000280FB007400E1000F003D0044
:100E0C000280FB00C200DD00401F22008100400078
:100E1C000020EF00800878000280FB00C200DD009B
:100E2C00401F220001004000E20040000020EF00C3
:100E3C00800878000460EC00EEFF370051032100BD
:100E4C0010C0B30080487800412422000020EF003D
:100E5C0080487800310121000020EF0080487800A4
:040E6C00000006007C
:1023A0008A1F78008B1F78008C1F78000820EF00B0
:1023B000200320000020E10010003D00841F780071
:1023C0004A01200072FA07004F027800A1002000A5
:1023D0000409B8006124220082804000841F780034
:1023E00000067800810578006A24220024FA07009C
:1023F0004F0278000820EC00EDFF37006024220037
:10240000900F8900900F8100640040001000E000F0
:10241000060032000A00210032FF0700900F810001
:102420006400400010007800900F8900900F810038
:10243000640040001000E000020032006A01210048
:1024400028FF07004F067800CF0578004F05780079
:042450000000060082
:100C80001600E200040032001800E2000200320008
:100C900010C0B300010037000020EF000040E20068
:100CA00001003A00390037008A1F78000B057800F0
:100CB000F3FD07004F0578001400E2000500320044
:100CC000620045001000E00002003A0062004500AA
:100CD0000B08780010002000000178006210E1008D
:100CE00029003C004A828800800421001000E000B6
:100CF000230032006110E10005003A008004210069
:100D00001058E10002003A002200200017003700CE
:100D10006210E10015003A004082800000A0EC0063
:100D20000A08780040828000640040001000E00063
:100D30000B003A00800421001058E1000800320046
:100D400040828000640040000B087800E680450087
:100D50004082800080087800628045000A087800A0
:100D600040828000680040000B08780040828000CC
:100D7000640040001000780040828800DAFF3700ED
:100D80000420EC00D5FF37008C0D78000000060031
:000D900063
:100480001400E20001003A00090037006202450052
:10049000E401450066014500E80045000020EF004A
:1004A000800878001109780092097800130A780012
:0404B0000000060042
:100D90008B1F780016C0B3006250E10002003900DA
:100DA00026C0B30000003700864578005DFE0700CE
:100DB000800078006000E10008003A003001210066
:100DC0001004E00006003200C3FD070086457800ED
:100DD00054FE070080007800000037000000370054
:0C0DE00001007800CF057800000006003C
:100724000400FA000620EF00402422001004E00038
:100734000200320003007800F20037000820EF00C6
:100744000480FB007400E1004F003D0015C0B300BD
:10075400615CE1000F0036000480FB00C200DD0094
:10076400401F220001004000100078000B81FB00B4
:10077400110009000280D800010078006000E10047
:10078400020032000020EF0001003700054078002D
:1007940001003700054078000040E20038003200D4
:1007A4000480FB00C200DD00401F22000100400065
:1007B400100078006000E100310036000480FB0086
:1007C400C200DD00401F22000100400000A0EC0038
:1007D400100078000A00E100290039000480FB00C1
:1007E400C200DD00401F220081004000110078009B
:1007F4000001780062804000100078000A00E100E7
:100804000D0036000480FB00C200DD00401F220002
:1008140081004000110078008A0840000480FB0039
:10082400C200DD00401F22000100400000A0EC00D7
:1008340010081500100037000480FB00C200DD0022
:10084400401F2200810040000020EF008008780053
:100854000480FB00C200DD00401F220001004000B4
:10086400E20040000020EF008008780011C0B300CF
:100874005003210010C8100002007800A1003700C6
:100884000860EC00AEFF3700615CE10002003E004E
:10089400030078009B0037005003210010407800CB
:1008A4007304E10002003A00030078009500370069
:1008B400F0CFB3000420EF000302780080417800F9
:1008C4000280FB007400E1008D003D000280FB000B
:1008D400C200DD00401F220001004000100078002B
:1008E4006000E1007D0036000280FB00C200DD00F4
:1008F400401F22000100400010007800000798000B
:100904001A079800615CE100130036008242780007
:100914000B81FB000E009000110009000280D8003A
:10092400010078000000E2000700320011002000FE
:10093400600047001088400011002000620047005A
:1009440010884000F2FF3700831F7800854178004B
:10095400CF02780002003700834278008241780099
:100964000380FB00C200DD00401F220001004000A4
:1009740000A0EC0090007800620047001008E1003D
:1009840053003900F0CFB300002CE1000F003A000F
:1009940061C241000400FB007400E1000A003D0054
:1009A4000400FB00C200DD00401F220001004000E3
:1009B400100078006000E10001003A0002003700F6
:1009C4000860EC00F3FF37000100370005427800AF
:1009D4000400FB00C200DD00401F220001014000B2
:1009E4000380FB00C200DD00401F22000100400024
:1009F40010007800000978000400FB00C200DD004C
:100A0400401F220001004000E20040006200470055
:100A14009008150011C0B3005003210010C8400015
:100A24000E0290000380FB00C200DD00401F220084
:100A34000100400000A0EC00900078006200470034
:100A44001008E100100036000380FB00C200DD0046
:100A5400401F22000101400092007800620047001C
:100A6400108940000380FB00C200DD00401F22000B
:100A740001004000620140009200780062004700DB
:100A840010895000100037000380FB00C200DD0015
:100A9400401F2200810040000020EF008008780001
:100AA4000380FB00C200DD00401F22000100400063
:100AB400E20040000020EF008008780011C0B3007D
:100AC4005003210010C81000040078000D00370006
:100AD400034078008541780007003700F0CFB30069
:100AE400001CE10003003A000240780080417800D5
:100AF40000003700024078006141400070FF370079
:0C0B0400040078000080FA0000000600E9
:1004D8000200FA008A1F78008B1F78008C1F7800B2
:1004E8008D1F78000020EF00004798000020EF00E3
:1004F800104798001E4090007304E100630031002B
:10050800600047001004E00060003A001E409000C0
:10051800614240000480FB007400E10057003D0088
:10052800600047001004E00054003A000480FB001B
:10053800C200DD00401F220001004000E20140002F
:1005480010017800610047001080FB00C200DD0048
:10055800401F220001004000E20040001000780027
:100568009306780002067800910578000005780067
:10057800A1FF0700804078006104E1001D003A00F7
:10058800610047001080FB00C200DD00401F220010
:1005980001004000620140000480FB00C200DD0051
:1005A800401F22000100400000A0EC00100078006D
:1005B800120940000480FB00C200DD00401F220039
:1005C800810040000020EF00800878000480FB00D4
:1005D800C200DD00401F220001004000E200400090
:1005E8000020EF008008780010C0B3000047980092
:1005F80020003700620CE1001E003A000480FB0076
:10060800C200DD00401F22000100400062014000DE
:10061800610047001080FB00C200DD00401F22007F
:100628000100400000A0EC00100078001209400012
:10063800610047001080FB00C200DD00401F22005F
:10064800810040000020EF0080087800610047002A
:100658001080FB00C200DD00401F220001004000A6
:10066800E20040000020EF008008780010C0B300CE
:10067800004798000860EC00A6FF370011C0B300DF
:100688006100470010C840009AFF37000E409000F4
:100698006104E10093FF3200510321000020EF00C4
:1006A800804878000020EF0010479800610047005C
:1006B8001080FB007400E1000F003D00610047005E
:1006C8001080FB00C200DD00401F22000100400036
:1006D800100078006000E1000300360011C0B3008C
:1006E8005003210010C8400011C0B300610047004A
:1006F80010C84000EDFF3700310121000020EF0055
:1007080080487800CF0678004F067800CF0578003B
:0C0718004F0578000080FA000000060089
:100400006050E10002003A000020EF0012003700C7
:100410006060E10002003A000020EF000E003700AB
:100420000C50E10002003A000020EF000A00370003
:100430000B0045000C00E10002003A0010C0B300C0
:10044000050037000D0046000A00E10002003A00F6
:0C04500020C0B3000000370000000600D0
:1020E4000000FA000220EF001A4078006004E100CA
:1020F4000A0032008A1F78000085FB0083FA07007B
:102104004F05780061C04000804078000080FB00EB
:102114000000450010407800F4FF37000080FA000A
:0421240000000600B1
:100B10000000FA002302AF0001003700FDFF37009C
:0C0B20002A1188000080FA000000060086
:1026C000010021001002280012000900B058780013
:1026D00041012100000028000F000900B018780017
:1026E000B05878006103210040032800040009006D
:0826F000B0187800000006009C
:10255C003400F8003200F8003600F800801F7800D4
:10256C00200020000C000900B01F78008A1F7800A2
:10257C008B1F78008C1F7800E8FE07000000E2003B
:10258C003B003200EAFE07000041780021012100E7
:10259C001104E10004003200408180007400E1006D
:1025AC00010032002B003700900F810064004000C6
:1025BC0010007800900F8900640040001000E000CB
:1025CC000E003200900F8100100078004C012000AA
:1025DC000B02200000057800B0FE0700900F810070
:1025EC0010007800EB1D2200000578009CFE07000F
:1025FC00AA022100B8FE070012003700900F8100DC
:10260C006600400010007800900F8900900F810048
:10261C00660040001000E0000A0032008A0321002E
:10262C00ADFE0700900F810010057800AAFE070090
:10263C00900F81006600400010007800900F890018
:10264C00F2FF37000020EF004081880046FF0700B2
:10265C0007003700E11D220080022100108040009D
:10266C0002487800110020008002210010884000F0
:10267C002222A8002222AE00020037002222A9004A
:10268C002242A9000168A9004F067800CF05780006
:10269C004F057800A00120000C0009004F107800B5
:1026AC004F0078003600F9003200F9003400F900D0
:0426BC0000400600D4
:102128000000FA002282BF00610060000080FA000F
:04213800000006009D
:10213C000000FA0000000000000000002682BF0032
:08214C000080FA00000006000B
:1020A8000000FA000B0178008A0178008C007800A3
:1020B80061005600000678000200E20004003200C9
:1020C800924978000620EC000420EC00F7FF370066
:0C20D8000A0078000080FA0000000600FA
:10206C000000FA000A00780000017800E10140004D
:10207C008B0078006180450080057800114978005C
:10208C001204E0000200320003007800F6FF370073
:0C209C000A0078000080FA000000060036
:020000040001F9
:0400000000000000FC
:1000040053540000414700004520000054570000AD
:100014004F200000504100005353000045440000AD
:0400240021000000B7
:0400280000000000D4
:10002C000D4500006E7100007565000075650000DF
:10003C0064200000005300005441000047450000BC
:10004C00204F00004E45000020500000415300009E
:0C005C005345000044210000000D00008E
:040068000100000093
:10006C000D460000726100006D6500003A00000052
:0200000401F009
:1C0008000300000083000000850000007F0000003F000000D70000000300000039
:00000001FF
