:0400000003EF0DF00D
:1000080000C01EF001C01DF002C01CF003C01BF0B0
:1000180004C01AF005C019F008C018F009C017F09C
:100028000AC016F00BC015F0E1CF27F0E2CF28F098
:10003800E9CF25F0EACF26F0F3CF23F0F4CF24F070
:10004800F5CF22F0F8CF1FF0F7CF20F0F6CF21F050
:100058007CEC0BF0F2A406D0F294D80ED76EF00E1A
:10006800D66E402A9EA005D09E903C0ECF6EB00E54
:10007800CE6E9EB29E92A1A205D0A1923C0EB36E06
:10008800B00EB26EF2A203D0010E3C6EF292F0A056
:1000980003D0010E3B6EF090F0B2F09222C0F5FF53
:1000A8001FC0F8FF20C0F7FF21C0F6FF23C0F3FFF1
:1000B80024C0F4FF1EC000F01DC001F01CC002F0F7
:1000C8001BC003F01AC004F019C005F018C008F0EE
:1000D80017C009F016C00AF015C00BF025C0E9FFDB
:0E00E80026C0EAFF27C0E1FF28C0E2FF11009A
:1000F6001E0E716E100E0001666F040E676F66C0ED
:10010600E1FF67C0E2FFE69E66C0E1FF67C0E2FF6F
:10011600E69C040E6625E16E000E6721E26EE68C13
:10012600180E6C6F040E6D6F6CC0E1FF6DC0E2FFC0
:10013600E69E6CC0E1FF6DC0E2FFE69C040E6C25F6
:10014600E16E000E6D21E26EE68C020E6625E16E12
:10015600000E6721E26E57C0E6FF58C0E6FF010EAB
:100166006625E16E000E6721E26E400EE66E66C001
:10017600E9FF67C0EAFFEECF00F066C0E1FF67C0A7
:10018600E2FF400E0014E66E66C0E9FF67C0EAFFB4
:10019600EECF00F066C0E1FF67C0E2FF880E0010F8
:1001A600E66E66C055F067C056F0040E6619006E1E
:0601B60000C066F012001B
:1001BC000B6A0A6A096A00500402F4CF09F0F3CF03
:1001CC0008F001500502F4CF0BF0F3CF0AF0005009
:1001DC000502F3500926F4500A22E86A0B2201505A
:1001EC000402F3500926F4500A22E86A0B2208C0D4
:1001FC0000F009C001F00AC002F00BC003F01200BD
:10020C00000E0001735D02E1080E725D10E272C017
:10021C0003F073C004F04F50000A03E1010E4F6E5F
:10022C0005D04F50010A02E1020E4F6E04D0080EA9
:10023C00036E000E046E6AC0E1FF6BC0E2FFE69233
:10024C006AC0E1FF6BC0E2FFE6906AC0E9FF6BC0D9
:10025C00EAFFEECF00F06AC0E1FF6BC0E2FF045092
:10026C000010E66E010E6A25E16E000E6B21E26E47
:10027C0003C0E6FF0350725D006E04507359016EAB
:10028C0000C072F001C073F0280E926F040E936FD1
:10029C0071B12FD0035004102BE06EC0F6FF6FC06D
:1002AC00F7FF70C0F8FF0900F5CF00F092C0E1FF36
:1002BC0093C0E2FF00C0E6FF924B932B010E6E251C
:1002CC00006E000E6F21016E000E7021026E00C0D8
:1002DC006EF001C06FF002C070F0010E035C006E96
:1002EC00000E0458016E00C003F001C004F0D2D718
:1002FC0024D00350041021E06EC0E9FF6FC0EAFF68
:10030C0092C0E1FF93C0E2FFEECFE6FF924B932B3E
:10031C00010E6E25006E000E6F21016E00C06EF096
:10032C0001C06FF0010E035C006E000E0458016EEC
:0C033C0000C003F001C004F0DCD7120088
:1003480004012051800AD8A478D0C00E0001716F32
:1003580069D00001920E006E1E0E016E000E026E34
:1003680000C06EF001C06FF002C070F0120E726F24
:10037800000E736F62D00001030E006E000E016E56
:1003880022C404F0000E056E15DF8F0E0024E96EFE
:10039800000E0120EA6EEECF6EF0EECF6FF0EECFDA
:1003A80070F0020E6E25F66E000E6F21F76E000ECD
:1003B8007021F86E0900F5CF00F00900F5CF01F0C3
:1003C80000C072F001C073F038D00401225100015E
:1003D8008B5D23E3030E006E000E016E22C404F051
:1003E800000E056EE7DE9A0E0024E96E000E01206D
:1003F800EA6EEECF6EF0EECF6FF0EECF70F06EC01B
:10040800F6FF6FC0F7FF70C0F8FF0900F5CF00F0E6
:1004180000C072F0000E736F01D0716B0ED0000136
:10042800716B0BD004012351010A93E02351020A96
:0C043800A2E02351030AC9E0F2D7120031
:100444000001718F716A496A22C44BF04B50000A53
:1004540003E1100E4E6E03D0200E4E6E4ADE1200E3
:1004640020C401F01F0E01160150010A01E094D0CE
:1004740004012451000A01E08FD02151060A42E10F
:1004840037D04B50010A18E10C0E006E1E0E016E9F
:10049400000E026E120E0026000E0122022200C07F
:1004A4006EF001C06FF002C070F0090E0001726FAF
:1004B400000E736FC00E716F25D04B50010A13E10B
:1004C4000001350E006E1E0E016E000E026E00C09D
:1004D4006EF001C06FF002C070F0210E726F000E5A
:1004E400736FC00E716F0ED00001800E716F0AD051
:1004F40004012351210AC5E02351220ADEE02351DD
:10050400230AF2E020C401F0600E0116050E006E0D
:10051400005004E00132019EFF0FFBD70150010A95
:1005240001E03AD026D038D037D0510E00016E6F9A
:10053400000E6F6F010E726F000E736FC10E716F3C
:100544002BD00001800E716F23C451F025D000011F
:10055400880E6E6F000E6F6F010E726F000E736F58
:10056400810E716F19D00001800E716F22C488F062
:1005740013D004012151010AD6E02151090AD4E023
:100584002151020AD2E021510A0ADBE02151030A77
:0A059400DEE021510B0AE7E012003F
:10059E000401286B296B4AD00001718F0401288158
:1005AE0000016851010A02E10401288354D00001C0
:1005BE00718F51D00001718F040124BF16D024C455
:1005CE0003F00F0E031603C000F0000E016E00368E
:1005DE0000900136640E0024E96E000E0120EA6ED2
:1005EE00EECF04F0EECF05F015D024C403F00F0EBD
:1005FE00031603C000F0000E016E003600900136A7
:10060E006A0E0024E96E000E0120EA6EEECF04F0B1
:10061E00EECF05F004C0E9FF05C0EAFFEECF01F012
:10062E0001A403D00401010E286F15D020C401F0DF
:10063E001F0E01160150000AAFE020C401F01F0E7C
:10064E0001160150010AB3E020C401F01F0E01167D
:10065E000150020AAFE0000171AF07D0280E6E6F95
:0C066E00040E6F6F7181020E726F12009B
:10067A0004012251010A13E120C401F01F0E0116E0
:10068A000150000A0CE10001718F04012151030A93
:10069A0004E1010E0001686F02D00001686B0401D9
:1006AA002251000AD8A48DD020C401F01F0E0116D1
:1006BA000150020AD8A485D024C401F00F0E0116F5
:1006CA000150000AD8B47DD00001718F040124BF03
:1006DA0016D024C403F00F0E031603C000F0000E58
:1006EA00016E003600900136640E0024E96E000E99
:1006FA000120EA6EEECF04F0EECF05F015D024C447
:10070A0003F00F0E031603C000F0000E016E003650
:10071A00009001366A0E0024E96E000E0120EA6E8E
:10072A00EECF04F0EECF05F02151030A07E104C031
:10073A00E1FF05C0E2FF840EE66E43D024C400F058
:10074A000F0E0016700E026E0F0E036E0050022678
:10075A00D8B0032A02C0E9FF03C0EAFFFE0EEE1476
:10076A00006EEECF01F0FF0E011602C0E1FF03C0DA
:10077A00E2FF00C0E6FF01C0E6FF24AF11D004C0CB
:10078A00E1FF05C0E2FFE66A040E0418006E00C02D
:10079A0004F004C0E1FF05C0E2FF400EE66E11D08E
:1007AA0004C0E1FF05C0E2FF880EE66E040E0418DD
:1007BA00006E00C004F004C0E1FF05C0E2FFC80EED
:0407CA00E66E1200C5
:1007CE00506A6AC0E1FF6BC0E2FFE66A040E0001E8
:1007DE006A19E16E6BC0E2FF000EE21AE66A5BBEBA
:0407EE005B9E1200FC
:1007F200010E00016225E96E000E6321EA6EEECF62
:1008020000F000C002F0000E5D5C02E102505C5C90
:1008120003E25CC002F00AD002505C5C006E000E83
:100822005D58016E00C05CF001C05DF0036A0250C9
:10083200035C1CE2280EE96E040EEA6E0350E92600
:10084200D8B0EA2AEECF00F059C0E1FF5AC0E2FF69
:1008520000C0E6FF010E5924006E000E5A20016E00
:1008620000C059F001C05AF0032AE1D7000E006E11
:100872005D50005C02E15C50000828E2010E532446
:10088200E16E000E5420E26E080EE66E020E532454
:10089200E16E000E5420E26E280EE66E040EE66E45
:1008A20062C0E9FF63C0EAFFEECF00F000BC07D0F0
:1008B20053C0E1FF54C0E2FFC80EE66E06D053C03B
:1008C200E1FF54C0E2FF880EE66E19D0010E5324F8
:1008D200E16E000E5420E26E080EE66E020E532404
:1008E200E16E000E5420E26E200EE66E040EE66EFD
:1008F20053C0E1FF54C0E2FF840EE66E5B9E12001D
:0E090200160E6F6E9F0E6B6E3B0E696E12002E
:1009100020C401F0600E0116050E006E005004E0C8
:100920000132019EFF0FFBD70150000A01E05ED0AB
:100930003AD00001718F080E4E6E58D005DD56D0AA
:1009400081DD54D000014B0E6E6F000E6F6F718110
:10095000010E726F718F4AD022DE48D08EDE46D0F3
:10096000490E006E000E016E040124510026D8B01D
:10097000012A00C06EF001C06FF000017181010E0C
:10098000726F718F33D00001718F490EE16E000ECE
:10099000E26E04012451E126D8B0E22A22C4E6FF27
:1009A00025D024D023D004012151050AC2E02151D1
:1009B000060AC4E02151090AC3E02151080AC2E035
:1009C0002151000AC9E02151010AC8E02151030A5E
:1009D000C5E021510A0AC4E021510B0AD4E021519B
:0E09E000070ADFE021510C0ADDE0DCD712002F
:0809EE004A5201E038DD12005D
:1009F6000C0E00018F6F1E0E906F000E916FB20EDF
:100A06009A6F1E0E9B6F000E9C6FA40E9D6F1E0E9E
:100A16009E6F000E9F6F760EA06F1E0EA16F000ECA
:040A2600A26F1200A9
:100A2A006D98000171BF49D05BAE28D0020E506E9E
:100A3A00010E6A25E16E000E6B21E26EE66A6AC05B
:100A4A00E1FF6BC0E2FFC80EE66E010E5324E16EB1
:100A5A00000E5420E26E080EE66E020E5324E16E7A
:100A6A00000E5420E26E280EE66E040EE66E53C0A7
:100A7A00E1FF54C0E2FFC80EE66E1ED0010E5324F9
:100A8A00E16E000E5420E26E080EE66E020E53244A
:100A9A00E16E000E5420E26E200EE66E040EE66E43
:100AAA0053C0E1FF54C0E2FF8C0EE66E6AC0E1FF5C
:100ABA006BC0E2FF840EE66E83D05BBE81D0040178
:100ACA0020AF56D0000173510401275D04E10001F3
:100ADA0072510401265D04E226C472F027C473F041
:100AEA0006EC01F0010E506E010E5324E16E000E69
:100AFA005420E26E080EE66E020E5324E16E000EDA
:100B0A005420E26E200EE66E040EE66E53C0E1FF3C
:100B1A0054C0E2FF800EE66E526A010E6225E16E53
:100B2A00000E6321E26E080EE66E020E6225E16E89
:100B3A00000E6321E26E200EE66E040EE66E62C0BF
:100B4A00E1FF63C0E2FF840EE66E010E526E020EF2
:100B5A006A25E16E000E6B21E26E280EE66E040E27
:100B6A00E66E6AC0E1FF6BC0E2FFC80EE66E28D0EF
:100B7A000001020E506E010E6A25E16E000E6B2115
:100B8A00E26EE66A6AC0E1FF6BC0E2FFC80EE66E7B
:100B9A00010E5324E16E000E5420E26E080EE66E3A
:100BAA00020E5324E16E000E5420E26E280EE66E09
:100BBA00040EE66E53C0E1FF54C0E2FFC80EE66EB3
:020BCA00120017
:100BCC006AC0E9FF6BC0EAFFEECF00F000AE05D0C3
:100BDC006AC0E1FF6BC0E2FFE66A4F6A506A00012F
:0E0BEC00726B736B716B8EDEFCDE19DF120014
:040BFA0000001200E5
:100BFE00040E00016A19006E00C06AF04E50080A19
:100C0E000AE122C46EFF6E50000803E2100E4E6E13
:100C1E0002D0040E4E6E5050010A3BE1020E6A25C0
:100C2E00E16E000E6B21E26E280EE66E040EE66E8D
:100C3E0006EC01F04F50020A07E16AC0E1FF6BC0FB
:100C4E00E2FF840EE66E24D0040E6A19006E00C018
:100C5E006AF06AC0E9FF6BC0EAFFEECF00F000BC9D
:100C6E000CD0040E6A19006E00C06AF06AC0E1FF73
:100C7E006BC0E2FFC80EE66E0BD0040E6A19006E52
:100C8E0000C06AF06AC0E1FF6BC0E2FF880EE66E3C
:060C9E0001D096DD1200FA
:100CA4005050020A02E1A3DD1ED08FDD5250000A2B
:100CB40019E1010E5324E16E000E5420E26E080E79
:100CC400E66E020E5324E16E000E5420E26E200EF6
:100CD400E66E040EE66E53C0E1FF54C0E2FF8C0ED4
:080CE400E66E01D0526A120015
:100CEC006D92699468A403D0FB0E6816FBD71200B2
:0C0CFC00100E0D6E0D2EFED70000120031
:040D0800A19A12009A
:100D0C0070A019D062C0E9FF63C0EAFFEECF01F01A
:100D1C000150800A0FE16AC0E9FF6BC0EAFFEECF19
:100D2C0001F00150840A06E162C0E1FF63C0E2FFFA
:0C0D3C008C0EE66E7090DF0E6816120040
:0A0D48006984EF0E68166D82120038
:100D5200080E0C6E230E0D6E0D2EFED70C2EFCD738
:020D620012007D
:100D640048DE556A566A896B8A6B6A6A686AC7DDA7
:100D74006D8C6E6A716A6D9C946B956B000E955DBB
:100D840002E1080E945D17E294C000F095C001F0F2
:100D9400003600900136003600900136000E002423
:100DA400E16E040E0120E26EE66AE66AE66AE66A2D
:100DB400944B952BE3D7160E706E68A603D0F70EEE
:100DC4006816FBD7716B5B6A5C6A5D6A6D98080E86
:0C0DD4006A6F040E6B6F4B6A4E6A1200CF
:100DE000000E0001B01902E1000EAF1902E1016A24
:100DF0000AD0AFC0E9FFB0C0EAFFEECF00F0000EAE
:0C0E000000BE010E016E01C000F01200E7
:100E0C000001B051000A12E0AFC000F0000E016EFC
:100E1C000036009001366A0E0024E96E000E0120A7
:100E2C00EA6EEECF04F0EECF05F011D0AFC000F0BB
:100E3C00000E016E003600900136640E0024E96E3F
:100E4C00000E0120EA6EEECF04F0EECF05F0020E9C
:100E5C000424E16E000E0520E26EB1C0E6FFB2C0C4
:100E6C00E6FF010E0424E16E000E0520E26EB3C015
:100E7C00E6FF04C0E9FF05C0EAFFEECF00F004C0B6
:100E8C00E1FF05C0E2FF400E0014E66E04C0E9FF6E
:100E9C0005C0EAFFEECF00F004C0E1FF05C0E2FFA1
:100EAC00880E0010E66EB051000A1BE0AFC000F0D7
:100EBC00000E016E0036009001366A0E0024026EA0
:100ECC00000E0120036E02C0E9FF03C0EAFF040E0E
:100EDC00EE18006E02C0E1FF03C0E2FF00C0E6FFA7
:100EEC001AD0AFC000F0000E016E00360090013633
:100EFC00640E0024026E000E0120036E02C0E9FF96
:100F0C0003C0EAFF040EEE18006E02C0E1FF03C03E
:100F1C00E2FF00C0E6FF04C000F005C001F01200C3
:100F2C004E50000A09E16D6A696AE5DC6DB602D0C3
:100F3C006D86FCD7010E4E6E4E50010A08E16DBA5B
:100F4C0006D0686A696A69806988020E4E6E68A468
:100F5C0005D069A403D0FB0E6816C2DE6DA202D0C8
:100F6C00CDDED4D068A018D069A016D0F5DE040E62
:100F7C004E6E200E0401026F040E036F080E016FFB
:100F8C00000E0015006E00C000F48C0E0011006EF7
:100F9C0000C000F4FE0E681668A805D069A803D03E
:100FAC00CDDEEF0E681668AC04D069AC02D0BF0E73
:100FBC00681668AA03D069AA01D0A2DE68A202D082
:100FCC0069B26A6A040E4E5C02E298DE9FD069A692
:100FDC009CD00001B06B040EB05DD8B096D068A662
:100FEC0091D06CCF8CF0F70E6816780E8C15016EC4
:100FFC000150000AD8A485D0FD0E8C15016E026A32
:10100C00FF0E0216000E021802E1000E01186BE131
:10101C007E0E8C15016E01C003F00332039E03C0DB
:10102C0000F0000E016E0036009001360036009084
:10103C000136000E0024026E040E0120036E02C065
:10104C0062F003C063F002C053F003C054F0040E0E
:10105C005318006E00C053F002C0E9FF03C0EAFF52
:10106C00EECF00F000C001F03C0E01160132019EE3
:10107C000132019E01500D0A34E1020E6225E96E27
:10108C00000E6321EA6EEECF01F0EECF02F00250BB
:10109C00040A02E1280E011822E1020E6225E16E1B
:1010AC00000E6321E26E200EE66E040EE66EAF6B50
:1010BC00080EAF5D14E2200EE16E040EE26EAF512D
:1010CC00E126D8B0E22A280EE96E040EEA6EAF5182
:1010DC00E926D8B0EA2AEECFE6FFAF2BE9D770DDD0
:1010EC0001D0DADD0DD0FD0E8C15016E026AFF0EFB
:1010FC000216000E021802E1040E011801E179DD5E
:0E110C0000D001D002D0B02B66D7F8DD120063
:10111A00920E006E1E0E016E000E026E0E0E00245E
:10112A00F66E000E0120F76E000E0220F86E09001E
:10113A00F5CF03F003C004F00F0E0024F66E000E84
:10114A000120F76E000E0220F86E0900F5CF01F0BB
:10115A000150035C12E2920E006E1E0E016E000E2A
:10116A00026E0F0E0024F66E000E0120F76E000EBE
:10117A000220F86E0900F5CF04F0920E006E1E0EE2
:10118A00016E000E026E100E0024F66E000E012093
:10119A00F76E000E0220F86E0900F5CF01F001503B
:1011AA00045C12E2920E006E1E0E016E000E026EBA
:1011BA00100E0024F66E000E0120F76E000E0220BB
:0E11CA00F86E0900F5CF04F004C000F012002A
:1011D8000001B26BB36BB46B020EAF25F66E000E56
:1011E800B021F76E000EB121F86E0900F5CF05F0B9
:1011F800030EAF25F66E000EB021F76E000EB1217A
:10120800F86E0900F5CF00F000C003F0000E046E80
:1012180003C001F0006A05500024066E000E01208C
:10122800076EAFC008F0B0C009F0B1C00AF0010EF7
:101238000824F66E000E0920F76E000E0A20F86EDC
:101248000900F5CF01F00150020A1BE1060E08243F
:10125800F66E000E0920F76E000E0A20F86E0900DF
:10126800F5CF01F00150B25D0CE2060E0824F66ECF
:10127800000E0920F76E000E0A20F86E0900F5CF5F
:10128800B2F0010E0824F66E000E0920F76E000E6B
:101298000A20F86E0900F5CF01F00150040A1BE19D
:1012A800080E0824F66E000E0920F76E000E0A20BC
:1012B800F86E0900F5CF01F00150B25D0CE2080E9E
:1012C8000824F66E000E0920F76E000E0A20F86E4C
:1012D8000900F5CFB2F008C0F6FF09C0F7FF0AC051
:1012E800F8FF0900F5CF00F00050B325016E000E9D
:1012F800B421026E01C0B3F002C0B4F00750025C22
:1013080002E10650015C01E30FD008C0F6FF09C0F6
:10131800F7FF0AC0F8FF0900F5CF00F000500826D3
:0E132800000E09220A2283D7B2C000F0120084
:101336000001AFBF02D0809001D08080AFBD02D047
:10134600809201D08082AFBB02D0809401D080848D
:10135600AFB902D0809601D0808669B102D0808A6A
:1013660001D0809A808846DC8098AFB702D0809002
:1013760001D08080AFB502D0809201D08082AFB319
:1013860002D0809401D08084AFB102D0809601D083
:10139600808669B102D0808A01D0809A80882ADC52
:0E13A600809869A102D0D2DC01D0A5DC120033
:0A13B400D08EA28AA08AF28E1200E9
:1013BE004E50000A0BE16D6A696A81EC04F0F3DFAE
:0E13CE006DB602D06D86FCD7010E4E6E120079
:1013DC009EDE00C0A8F00C0E0001AF6F1E0EB06FA9
:1013EC00000EB16FF3DE00C0A9F0A851005C03E25F
:0C13FC00A8C000F002D0A9C000F0120050
:101408000001AE6B200E4E5C03E36DB201D002D03A
:10141800006A2DD055C0AFF056C0B0F0DDDC0052E8
:1014280025E155C0ACF056C0ADF0000E561802E1EB
:10143800000E55180AE0010EAC25E96E000EAD212C
:10144800EA6EEECF00F000C0AEF0ABC0AFF0B06B0C
:10145800A8C0B1F0A9C0B2F0AAC0B3F0D3DC00C0F4
:1014680055F001C056F0AEC000F001D0006A12007D
:0E147800ACB202D00000FCD7A8C0ADFF12003D
:10148600200E4E5C03E36DB201D002D0006A46D056
:1014960089C0AFF08AC0B0F0A0DC00523EE1ABC01C
:1014A600AFF0010EB06FA8C0B1F0A9C0B2F0AAC0EB
:1014B600B3F0A9DC00C089F001C08AF0966B976B87
:1014C600986B996B89C0AFF08AC0B0F086DC005289
:1014D6000FE0010E016E0150000A01E124DD00015A
:1014E600965197119811991102E0006A17D0EAD720
:1014F60089C0ACF08AC0ADF0000E8A1902E1000E78
:10150600891909E0010EAC25E96E000EAD21EA6EDF
:0E151600EECF00F003D0006A01D0006A120090
:0E15240000016991A8C0AFF004DF69811200D8
:1015320010D0800E0001A36F1AD0C00EA36F17D077
:10154200940EA36F14D0D40EA36F11D0800EA36F8C
:101552000ED00001A351010AECE0A351020AEDE012
:10156200A351030AEDE0A351040AEDE0EFD7A4056D
:10157200006EA351002600C0A3F0698100C0AFF045
:0E158200D9DE6991A5C0AFF0D5DE69811200F7
:10159000AECF01F0ABA202D0AB98AB8801C000F097
:0215A000120037
:0A15A200000E9EBA010E006E12004A
:1015AC009298929A92969294929292908098809A13
:1015BC008090809280948096A9EC06F0A9EC06F0BD
:1015CC00A9EC06F0808480868088FDEC05F080987C
:1015DC00A9EC06F08088FDEC05F08098A9EC06F0EB
:1015EC008088FDEC05F08098A9EC06F08096808848
:1015FC00FDEC05F08098A9EC06F08088FDEC05F078
:10160C008098809480808088FDEC05F08098A9EC0F
:10161C0006F0809080868088FDEC05F0809880969E
:10162C008088FDEC05F08098A9EC06F08088FDEC34
:10163C0005F0809880868088FDEC05F08098A9ECF8
:10164C0006F080968088FDEC05F080988080808282
:10165C00808480868088FDEC05F08098A9EC06F0EB
:06166C000001698112007B
:08167200828082928294120032
:10167A0010D0800E0001A36F1AD0C00EA36F17D02E
:10168A00940EA36F14D0D40EA36F11D0800EA36F43
:10169A000ED00001A351010AECE0A351020AEDE0C9
:1016AA00A351030AEDE0A351040AEDE0EFD7A40524
:1016BA00006EA351002600C0A3F000C0AFF036DED2
:1016CA006991A76BA751A525E96E000EA621EA6EBE
:1016DA00EE520BE0A751A525E96E000EA621EA6E8F
:0E16EA00EECFA8F01ADFA72BEDD76981120012
:1016F8004E50010A07E16DBA05D0686A69806988A9
:10170800020E4E6E68A406D069A404D0FB0E6816BB
:1017180076EC06F06DA203D084EC06F0DCD068A06D
:1017280019D069A017D0B2EC06F0040E4E6E200E48
:101738000401026F040E036F080E016F000E0015FE
:10174800006E00C000F48C0E0011006E00C000F4A2
:10175800FE0E681668A806D069A804D0A4EC06F0A6
:10176800EF0E681668AC04D069AC02D0BF0E6816DC
:1017780068AA04D069AA02D086EC06F068A202D052
:1017880069B26A6A040E4E5C03E284EC06F0A3D0E8
:1017980069A69FD00001B66B040EB65DD8B099D08B
:1017A80068A694D06CCF8CF0F70E6816780E8C155E
:1017B800016E0150000AD8A488D0FD0E8C15016E68
:1017C800026AFF0E0216000E021802E1000E01184E
:1017D8006DE17E0E8C15016E01C003F00332039E8D
:1017E80003C000F0000E016E00360090013600368E
:1017F80000900136000E0024026E040E0120036ED4
:1018080002C062F003C063F002C053F003C054F09A
:10181800040E5318006E00C053F002C0E9FF03C065
:10182800EAFFEECF00F000C001F03C0E01160132D5
:10183800019E0132019E01500D0A35E1020E62251A
:10184800E96E000E6321EA6EEECF01F0EECF02F0F2
:101858000250040A02E1280E011822E1020E622554
:10186800E16E000E6321E26E200EE66E040EE66E57
:10187800B56B080EB55D14E2200EE16E040EE26E43
:10188800B551E126D8B0E22A280EE96E040EEA6EB8
:10189800B551E926D8B0EA2AEECFE6FFB52BE9D74D
:1018A800E6EC05F002D052EC06F00ED0FD0E8C15D9
:1018B800016E026AFF0E0216000E021802E1040E03
:1018C800011802E1FFEC05F000D001D002D0B62BE0
:0818D80063D784EC06F0120056
:0818E0008290828282941200C2
:1018E8000900F5CFE6FF0006FBE10106F9E1120069
:0818F800F288F28EF292120058
:10190000880ED56ED80ED76EF00ED66EF28EF28A95
:021910001200C3
:1019120057C0A8F058C0A9F0400E0001AA6F010EEE
:06192200AB6F71DD120045
:08192800F086F28EF09012002F
:10193000A3C0A8F0A4C0A9F0A5C0AAF0010E0001A0
:06194000AB6FA1DD1200F7
:101946004ADD00C08BF0010E4A6EA3C057F0A4C05A
:1019560058F0A5C08DF0A6C08EF0B2EC06F0010ED0
:0C196600016E0150010A01E127DD1200B2
:10197200780E0001786F140E796FA80E7A6F000E40
:101982007B6F900E746F150E756F000E766F000EE2
:10199200776FA20E806F150E816F000E826F000EA0
:1019A200836FFF0E7C6FFF0E7D6F000E7E6F000E49
:1019B2007F6FAC8A900EAB6E948E949C9EAA03D0DD
:0819C200AECF00F0FBD71200CC
:1019CA000001A66BA3C0E9FFA4C0EAFFEECFA5F011
:1019DA00A551000A0EE0A5C0A8F049DD0001A62B1A
:1019EA00A651A325E96E000EA421EA6EEECFA5F05A
:0419FA00EFD7120011
:0819FE00829082928294120093
:101A06005BEC0FF00F0EC112070EB412926A936AC6
:101A1600946A806A816AC7DD010EA36F010EA46F06
:101A2600290EA56F000EA66F25DE060E0B6E130E91
:101A36000C6EAD0E0D6E0D2EFED70C2EFCD70B2E9A
:101A4600FAD700000000010EAF6F72DCB886B06AEC
:101A5600670EAF6EAC848ADF000EA36F050EA46F0F
:101A6600400EA56F050EA66F6BDF47DF42DF59DF1D
:101A76004DDF00C04CF00050000A2DE081B02BD0A5
:101A860081B229D04D6A4C504D5C14E2400EE16E95
:101A9600050EE26E4D50E126D8B0E22A000EE96E40
:101AA600050EEA6E4D50E926D8B0EA2AEECFE6FFDB
:101AB6004D2AE9D70001400EA36F050EA46F4CC056
:101AC600A5F033DF005201E1F5D7400E0001A36F08
:101AD600050EA46F77DF3C50010A03E1010E3A6E52
:101AE6003C6A3B50010A12E13A50010A0FE100013B
:101AF600210EA86FBEDC580E0001A86FBADC0D0ED1
:101B06000001A86FB6DC3B6A010E3D6E81B004D0C1
:101B16003D50010A01E107D081B204D03D50010ACF
:101B260001E101D00ED0210E0001A86FA2DC4F0EFC
:101B36000001A86F9EDC0D0E0001A86F9ADC3D6ABD
:101B46003A6A4050010A56E181B054D081B252D06F
:101B5600410E0001A36F000EA46F34DF4DDF1EDDC2
:101B660000521BE012DD00C085F03EC0A3F043C06A
:101B7600A4F000C0A5F0DADC8551110A0CE1010ED3
:101B8600AF6F9BEC09F0010E436E000E446E010E22
:101B96003E6E000E3F6E434A442A000E441802E190
:101BA600110E43180EE1000E3F1802E1010E3E1819
:101BB60008E1020E3E6E000E3F6E010E436E000EF1
:101BC600446E000E3F1802E1020E3E1813E1000EAD
:101BD600441802E1110E43180DE10001010EAF6F2A
:101BE6009BEC09F0010E436E000E446E010E3E6E34
:101BF600000E3F6E4050020A56E181B054D081B2C9
:101C060052D00001470EA36F000EA46FDBDE2EDD5F
:101C1600C5DC00521BE0B9DC00C087F03EC0A3F073
:101C260043C0A4F000C0A5F081DC8751110A0CE185
:101C3600010EAF6F9BEC09F0010E436E000E446E71
:101C4600010E3E6E000E3F6E434A442A000E4418B3
:101C560002E1110E43180EE1000E3F1802E1010EDB
:101C66003E1808E1020E3E6E000E3F6E010E436EF8
:101C7600000E446E000E3F1802E1020E3E1813E1FC
:101C8600000E441802E1110E43180DE10001010E89
:101C9600AF6F9BEC09F0010E436E000E446E010E11
:101CA6003E6E000E3F6E4050030A56E181B054D09E
:101CB60081B252D00001450EA36F000EA46F82DEE2
:101CC6000CDE6CDC00521BE060DC00C086F03EC01F
:101CD600A3F043C0A4F000C0A5F028DC8651110A89
:101CE6000CE1010EAF6F9BEC09F0010E436E000E86
:101CF600446E010E3E6E000E3F6E434A442A000EAD
:101D0600441802E1110E43180EE1000E3F1802E1DD
:101D1600010E3E1808E1020E3E6E000E3F6E010EE9
:101D2600436E000E446E000E3F1802E1020E3E188E
:101D360013E1000E441802E1110E43180DE10001F3
:101D4600010EAF6F9BEC09F0010E436E000E446E60
:101D5600010E3E6E000E3F6E4050040A52E181B005
:101D660050D081B24ED048DE19DC00521CE00DDCAA
:101D760000C084F03EC0A3F043C0A4F000C0A5F0AC
:101D860099EC0AF08451110A0CE1010EAF6F9BEC3D
:101D960009F0010E436E000E446E010E3E6E000EFB
:101DA6003F6E434A442A000E441802E1110E4318BE
:101DB6000EE1000E3F1802E1010E3E1808E1020E88
:101DC6003E6E000E3F6E010E436E000E446E000E18
:101DD6003F1802E1020E3E1814E1000E441802E11B
:101DE600110E43180EE10001010EAF6F9BEC09F0D6
:101DF600010E436E000E446E010E3E6E000E3F6EE7
:061E0600406A36D6FFD74A
:101EB60010EE29F0200E006E010E016E560EF66E23
:0E1EC6001E0EF76E000EF86E74EC0CF012009B
:101E0C0009022900010100803209040000020300CC
:101E1C000000092101010001222100070581034076
:091E2C000001070501034000015B
:101E35000600FF0901A10119012940150026FF002F
:101E45007508954081021901294075089540910250
:011E5500C0CC
:101E560047756C6D61792047656E2E2054657374E5
:011E6600007B
:011E6700007A
:011E68000079
:011E69000078
:011E6A000077
:021E6B00010074
:011E6D000074
:021E6E00310041
:021E700001006F
:021E720033003B
:021E740032003A
:101E76001C036400750072006D0061007A00730037
:0C1E860079006E00630062006F007800BD
:101E920012010002000000083412010001000102D8
:021EA20000013D
:0E1EA4000E036400750072006D0061007A008C
:041EB2000403090418
:020000040030CA
:0E000000200C391EFF8381FF0FC00FE00F4060
:00000001FF
