:0400000088EF0CF089
:1000080000C01EF001C01DF002C01CF003C01BF0B0
:1000180004C01AF005C019F008C018F009C017F09C
:100028000AC016F00BC015F0E1CF27F0E2CF28F098
:10003800E9CF25F0EACF26F0F3CF23F0F4CF24F070
:10004800F5CF22F0F8CF1FF0F7CF20F0F6CF21F050
:100058007AEC0AF022C0F5FF1FC0F8FF20C0F7FFB6
:1000680021C0F6FF23C0F3FF24C0F4FF1EC000F038
:100078001DC001F01CC002F01BC003F01AC004F040
:1000880019C005F018C008F017C009F016C00AF02A
:1000980015C00BF025C0E9FF26C0EAFF27C0E1FF25
:0600A80028C0E2FF110078
:1000AE001E0E716E100E3E6E040E3F6E3EC0E1FFD0
:1000BE003FC0E2FFE69E3EC0E1FF3FC0E2FFE69C8E
:1000CE00040E3E24E16E000E3F20E26EE68C180E0A
:1000DE00426E040E436E42C0E1FF43C0E2FFE69E55
:1000EE0042C0E1FF43C0E2FFE69C040E4224E16EF3
:1000FE00000E4320E26EE68C020E3E24E16E000EF0
:10010E003F20E26E59C0E6FF5AC0E6FF010E3E24C4
:10011E00E16E000E3F20E26E400EE66E3EC0E9FF3D
:10012E003FC0EAFFEECF00F03EC0E1FF3FC0E2FF6E
:10013E00400E0014E66E3EC0E9FF3FC0EAFFEECF70
:10014E0000F03EC0E1FF3FC0E2FF880E0010E66EF9
:10015E003EC050F03FC051F0040E3E18006E00C07D
:04016E003EF012004D
:100172000B6A0A6A096A00500402F4CF09F0F3CF4D
:1001820008F001500502F4CF0BF0F3CF0AF0005053
:100192000502F3500926F4500A22E86A0B220150A4
:1001A2000402F3500926F4500A22E86A0B2208C01E
:1001B20000F009C001F00AC002F00BC003F0120007
:1001C20004012251010A11E120C401F01F0E01169F
:1001D2000150000A0AE1558E2151030A04E1010E81
:1001E2000001856F02D00001856B04012251000AD3
:1001F200D8A48BD020C401F01F0E01160150020AB0
:10020200D8A483D024C401F00F0E01160150000AB5
:10021200D8B47BD0558E24BF16D024C403F00F0E61
:10022200031603C000F0000E016E00360090013686
:100232003C0E0024E96E000E0120EA6EEECF04F0BF
:10024200EECF05F015D024C403F00F0E031603C041
:1002520000F0000E016E003600900136400E0024C0
:10026200E96E000E0120EA6EEECF04F0EECF05F04B
:100272002151030A07E104C0E1FF05C0E2FF840E39
:10028200E66E43D024C400F00F0E0016700E026E0C
:100292000F0E036E00500226D8B0032A02C0E9FFF7
:1002A20003C0EAFFFE0EEE14006EEECF01F0FF0E69
:1002B200011602C0E1FF03C0E2FF00C0E6FF01C079
:1002C200E6FF24AF11D004C0E1FF05C0E2FFE66AF9
:1002D200040E0418006E00C004F004C0E1FF05C063
:1002E200E2FF400EE66E11D004C0E1FF05C0E2FF5E
:1002F200880EE66E040E0418006E00C004F004C0FE
:0C030200E1FF05C0E2FFC80EE66E12002D
:10030E00000E575C02E1080E565C11E256C003F077
:10031E0057C004F000017551000A03E1010E756F1C
:10032E0005D07551010A02E1020E756F04D0080E58
:10033E00036E000E046E000140C0E1FF41C0E2FFFB
:10034E00E69240C0E1FF41C0E2FFE69040C0E9FF07
:10035E0041C0EAFFEECF00F040C0E1FF41C0E2FF36
:10036E0004500010E66E010E4024E16E000E412096
:10037E00E26E03C0E6FF0350565C006E0450575801
:10038E00016E00C056F001C057F0280E726F040EB9
:10039E00736F55B02FD0035004102BE052C0F6FFF0
:1003AE0053C0F7FF54C0F8FF0900F5CF00F072C03C
:1003BE00E1FF73C0E2FF00C0E6FF724B732B010E2C
:1003CE005224006E000E5320016E000E5420026E59
:1003DE0000C052F001C053F002C054F0010E035C95
:1003EE00006E000E0458016E00C003F001C004F050
:1003FE00D2D724D00350041021E052C0E9FF53C0DD
:10040E00EAFF72C0E1FF73C0E2FFEECFE6FF724B70
:10041E00732B010E5224006E000E5320016E00C08D
:10042E0052F001C053F0010E035C006E000E045832
:0E043E00016E00C003F001C004F0DCD7120014
:10044C0020C401F01F0E01160150010A01E08FD0EB
:10045C0004012451000A01E08AD02151060A41E12D
:10046C0036D000018351010A17E1240E006E1A0EDA
:10047C00016E000E026E120E0026000E01220222E8
:10048C0000C052F001C053F002C054F0090E566E79
:10049C00000E576EC00E556E24D000018351010A18
:1004AC0012E14D0E006E1A0E016E000E026E00C0AF
:1004BC0052F001C053F002C054F0210E566E000EE3
:1004CC00576EC00E556E0DD0800E556E0AD00401BD
:1004DC002351210AC6E02351220ADFE02351230ACB
:1004EC00F3E020C401F0600E0116050E006E005002
:1004FC0004E00132019EFF0FFBD70150010A01E01D
:10050C0036D022D034D033D0760E526E000E536ECD
:10051C00010E566E000E576EC10E556E28D0800E11
:10052C00556E23C476F023D0740E526E000E536EAB
:10053C00010E566E000E576E810E556E18D0800E41
:10054C00556E22C474F013D004012151010ADAE073
:10055C002151090AD8E02151020AD6E021510A0A98
:10056C00DEE02151030AE0E021510B0AE8E0120021
:10057C0004012051800AD8A473D0C00E556E65D0EA
:10058C009D0E006E1A0E016E000E026E00C052F02F
:10059C0001C053F002C054F0120E566E000E576E8E
:1005AC005FD0030E006E000E016E22C404F0000E2C
:1005BC00056ED9DD6E0E0024E96E000E0120EA6E88
:1005CC00EECF52F0EECF53F0EECF54F0020E522499
:1005DC00F66E000E5320F76E000E5420F86E0900D4
:1005EC00F5CF00F00900F5CF01F000C056F001C0C6
:1005FC0057F036D022510001875D23E3030E006EC5
:10060C00000E016E22C404F0000E056EACDD5D0E12
:10061C000024E96E000E0120EA6EEECF52F0EECF10
:10062C0053F0EECF54F052C0F6FF53C0F7FF54C056
:10063C00F8FF0900F5CF00F000C056F0000E576E21
:10064C0001D0556A0DD0556A0BD004012351010A13
:10065C0097E02351020AA5E02351030ACBE0F3D71C
:02066C0012007A
:10066E00558E716A0001846B22C483F08351000A97
:10067E0003E1100E866F03D0200E866F11DD12007F
:10068E000401286B296B47D00401558E2881000187
:10069E008551010A02E10401288352D0558E50D0B3
:1006AE000401558E24BF16D024C403F00F0E03167A
:1006BE0003C000F0000E016E0036009001363C0EB5
:1006CE000024E96E000E0120EA6EEECF04F0EECFAC
:1006DE0005F015D024C403F00F0E031603C000F06E
:1006EE00000E016E003600900136400E0024E96EB9
:1006FE00000E0120EA6EEECF04F0EECF05F004C03E
:10070E00E9FF05C0EAFFEECF01F001A403D004011A
:10071E00010E286F15D020C401F01F0E01160150D6
:10072E00000AB2E020C401F01F0E01160150010AAA
:10073E00B5E020C401F01F0E01160150020AB0E010
:10074E0055AE07D0280E526E040E536E5580020E13
:04075E00566E1200C1
:100762006D9855BE4AD000018FAF28D0020E886F17
:10077200010E4024E16E000E4120E26EE66A40C0A6
:10078200E1FF41C0E2FFC80EE66E010E8925E16E6F
:10079200000E8A21E26E080EE66E020E8925E16ED7
:1007A200000E8A21E26E280EE66E040EE66E89C005
:1007B200E1FF8AC0E2FFC80EE66E1ED0010E892557
:1007C200E16E000E8A21E26E080EE66E020E8925A7
:1007D200E16E000E8A21E26E200EE66E040EE66ED7
:1007E20089C0E1FF8AC0E2FF8C0EE66E40C0E1FFE5
:1007F20041C0E2FF840EE66E80D000018FBF7DD043
:10080200040120AF52D05750275D02E15650265DB9
:1008120004E226C456F027C457F078DD010E000129
:10082200886F010E8925E16E000E8A21E26E080EA4
:10083200E66E020E8925E16E000E8A21E26E200E1E
:10084200E66E040EE66E89C0E1FF8AC0E2FF800E0A
:10085200E66E826B010E8B25E16E000E8C21E26E3C
:10086200080EE66E020E8B25E16E000E8C21E26E02
:10087200200EE66E040EE66E8BC0E1FF8CC0E2FF36
:10088200840EE66E010E826F020E4024E16E000EAF
:100892004120E26E280EE66E040EE66E40C0E1FFD5
:1008A20041C0E2FFC80EE66E28D00001020E886F3A
:1008B200010E4024E16E000E4120E26EE66A40C065
:1008C200E1FF41C0E2FFC80EE66E010E8925E16E2E
:1008D200000E8A21E26E080EE66E020E8925E16E96
:1008E200000E8A21E26E280EE66E040EE66E89C0C4
:0C08F200E1FF8AC0E2FFC80EE66E1200B3
:1008FE000001886B40C0E1FF41C0E2FFE66A040ED2
:10090E004018E16E41C0E2FF000EE21AE66A8FAFB8
:06091E0001D08F9F1200C2
:1009240020C401F0600E0116050E006E005004E0B4
:100934000132019EFF0FFBD70150000A01E05AD09B
:1009440036D0558E080E0001866F54D015DE52D075
:100954008CDE50D0830E526E000E536E5580010E05
:10096400566E558E47D091DE45D029DC43D0840E97
:10097400006E000E016E040124510026D8B0012A35
:1009840000C052F001C053F05580010E566E558ED2
:1009940031D0558E840EE16E000EE26E2451E126B4
:1009A400D8B0E22A22C4E6FF25D024D023D0040103
:1009B4002151050AC6E02151060AC8E02151090A5D
:1009C400C7E02151080AC6E02151000ACCE02151B8
:1009D400010ACBE02151030AC8E021510A0AC7E009
:1009E40021510B0AD6E02151070ADFE021510C0AFC
:0609F400DDE0DCD712007B
:1009FA00010E00018B25E96E000E8C21EA6EEECF06
:100A0A0000F000C002F0000E915D02E10250905D1C
:100A1A0003E290C002F00AD00250905D006E000E10
:100A2A009159016E00C090F001C091F0036A025022
:100A3A00035C1CE2280EE96E040EEA6E0350E926F6
:100A4A00D8B0EA2AEECF00F08DC0E1FF8EC0E2FFF7
:100A5A0000C0E6FF010E8D25006E000E8E21016E8C
:100A6A0000C08DF001C08EF0032AE1D7000E006E9F
:100A7A009151005C02E19051000828E2010E89259B
:100A8A00E16E000E8A21E26E080EE66E020E8925DC
:100A9A00E16E000E8A21E26E280EE66E040EE66E04
:100AAA008BC0E9FF8CC0EAFFEECF00F000BC07D094
:100ABA0089C0E1FF8AC0E2FFC80EE66E06D089C08F
:100ACA00E1FF8AC0E2FF880EE66E19D0010E892581
:100ADA00E16E000E8A21E26E080EE66E020E89258C
:100AEA00E16E000E8A21E26E200EE66E040EE66EBC
:100AFA0089C0E1FF8AC0E2FF840EE66E8F9F120072
:0A0B0A000001715301E09DDC1200B0
:0E0B1400160E6F6E9F0E6B6E3B0E696E12001A
:100B2200240E00016E6F1A0E6F6F000E706FBD0EF5
:100B32005D6E1A0E5E6E000E5F6EAF0E606F1A0E65
:100B4200616F000E626F6E0E636F1A0E646F000E9D
:040B5200656F1200B9
:100B560070A019D08BC0E9FF8CC0EAFFEECF01F080
:100B66000150800A0FE140C0E9FF41C0EAFFEECF25
:100B760001F00150840A06E18BC0E1FF8CC0E2FF60
:0C0B86008C0EE66E7090DF0E68161200F8
:040B9200000012004D
:100B960000018851020A02E12DDF1ED0ADDE82512E
:100BA600000A19E1010E8925E16E000E8A21E26E26
:100BB600080EE66E020E8925E16E000E8A21E26EAF
:100BC600200EE66E040EE66E89C0E1FF8AC0E2FFE3
:0A0BD6008C0EE66E01D0826B120057
:0A0BE0006984EF0E68166D821200A2
:100BEA0040C0E9FF41C0EAFFEECF00F000AE05D0F9
:100BFA0040C0E1FF41C0E2FFE66A0001756B886B05
:0E0C0A00566A576A556A89DE7BDFA6DD120046
:100C1800080E0C6E230E0D6E0D2EFED70C2EFCD773
:020C28001200B8
:040C2A00A19A120079
:100C2E006D92699468A403D0FB0E6816FBD7120070
:0C0C3E00100E0D6E0D2EFED700001200EF
:100C4A006BDF506A516A806B816B6A6A686A5DDF22
:100C5A006D8C6E6A716A6D9C7C6B7D6B000E7D5D1E
:100C6A0002E1080E7C5D17E27CC000F07DC001F055
:100C7A00003600900136003600900136000E00243E
:100C8A00E16E040E0120E26EE66AE66AE66AE66A48
:100C9A007C4B7D2BE3D7160E706E68A603D0F70E39
:100CAA006816FBD7556A8F6B906B916B6D98080E1F
:0C0CBA00406E040E416E836B866B1200CE
:100CC600040E4018006E00C040F000018651080A6C
:100CD6000AE122C46EFF6E50000803E2100E866F12
:100CE60002D0040E866F8851010A3CE1020E4024B0
:100CF600E16E000E4120E26E280EE66E040EE66EF0
:100D060087EC01F000017551020A07E140C0E1FFDE
:100D160041C0E2FF840EE66E24D0040E4018006E39
:100D260000C040F040C0E9FF41C0EAFFEECF00F04E
:100D360000BC0CD0040E4018006E00C040F040C04D
:100D4600E1FF41C0E2FFC80EE66E0BD0040E40186C
:100D5600006E00C040F040C0E1FF41C0E2FF880ED7
:080D6600E66E01D0C9DD1200A8
:100D6E009D0E006E1A0E016E000E026E0E0E002407
:100D7E00F66E000E0120F76E000E0220F86E0900CE
:100D8E00F5CF03F003C004F00F0E0024F66E000E34
:100D9E000120F76E000E0220F86E0900F5CF01F06B
:100DAE000150035C12E29D0E006E1A0E016E000ED3
:100DBE00026E0F0E0024F66E000E0120F76E000E6E
:100DCE000220F86E0900F5CF04F09D0E006E1A0E8B
:100DDE00016E000E026E100E0024F66E000E012043
:100DEE00F76E000E0220F86E0900F5CF01F00150EB
:100DFE00045C12E29D0E006E1A0E016E000E026E63
:100E0E00100E0024F66E000E0120F76E000E02206A
:0E0E1E00F86E0900F5CF04F004C000F01200D9
:100E2C000001A2BF02D0809001D08080A2BD02D070
:100E3C00809201D08082A2BB02D0809401D08084A9
:100E4C00A2B902D0809601D0808666B102D0808A89
:100E5C0001D0809A808897DE8098A2B702D08090CB
:100E6C0001D08080A2B502D0809201D08082A2B342
:100E7C0002D0809401D08084A2B102D0809601D09F
:100E8C00808666B102D0808A01D0809A80887BDE11
:0E0E9C00809866A102D0BADE01D0CBDE120033
:100EAA000001A56BA66BA76B020EA225F66E000EBB
:100EBA00A321F76E000EA421F86E0900F5CF05F004
:100ECA00030EA225F66E000EA321F76E000EA421D2
:100EDA00F86E0900F5CF00F000C003F0000E046EB2
:100EEA0003C001F0006A05500024066E000E0120BE
:100EFA00076EA2C008F0A3C009F0A4C00AF0010E50
:100F0A000824F66E000E0920F76E000E0A20F86E0D
:100F1A000900F5CF01F00150020A1BE1060E082470
:100F2A00F66E000E0920F76E000E0A20F86E090010
:100F3A00F5CF01F00150A55D0CE2060E0824F66E0D
:100F4A00000E0920F76E000E0A20F86E0900F5CF90
:100F5A00A5F0010E0824F66E000E0920F76E000EA9
:100F6A000A20F86E0900F5CF01F00150040A1BE1CE
:100F7A00080E0824F66E000E0920F76E000E0A20ED
:100F8A00F86E0900F5CF01F00150A55D0CE2080EDC
:100F9A000824F66E000E0920F76E000E0A20F86E7D
:100FAA000900F5CFA5F008C0F6FF09C0F7FF0AC08F
:100FBA00F8FF0900F5CF00F00050A625016E000EDB
:100FCA00A721026E01C0A6F002C0A7F00750025C7A
:100FDA0002E10650015C01E30FD008C0F6FF09C028
:100FEA00F7FF0AC0F8FF0900F5CF00F00050082605
:0E0FFA00000E09220A2283D7A5C000F01200C3
:1010080000018651000A0AE16D6A696A7FDD6DB6E2
:1010180002D06D86FCD70001010E866F8651010A49
:1010280008E16DBA06D0686A696A69806988020E43
:10103800866F68A405D069A403D0FB0E6816F3DD9B
:101048006DA202D0EEDDD4D068A018D069A016D069
:10105800F8DD040E866F200E0401026F040E036F84
:10106800080E016F000E0015006E00C000F48C0E13
:101078000011006E00C000F4FE0E681668A805D0C6
:1010880069A803D0A9DDEF0E681668AC04D069AC76
:1010980002D0BF0E681668AA03D069AA01D057DD2E
:1010A80068A202D069B26A6A040E0001865D02E293
:1010B800B8DD9ED069A69BD0A36B040EA35DD8B003
:1010C80096D068A691D06CCF7BF0F70E6816780E94
:1010D8007B15016E0150000AD8A485D0FD0E7B1542
:1010E800016E026AFF0E0216000E021802E1000EDF
:1010F80001186BE17E0E7B15016E01C003F003320F
:10110800039E03C000F0000E016E00360090013609
:10111800003600900136000E0024026E040E0120F5
:10112800036E02C08BF003C08CF002C089F003C0CC
:101138008AF0040E8919006E00C089F002C0E9FF28
:1011480003C0EAFFEECF00F000C001F03C0E01162C
:101158000132019E0132019E01500D0A34E1020E56
:101168008B25E96E000E8C21EA6EEECF01F0EECFF2
:1011780002F00250040A02E1280E011822E1020ED0
:101188008B25E16E000E8C21E26E200EE66E040EB9
:10119800E66EA26B080EA25D14E2200EE16E040E4C
:1011A800E26EA251E126D8B0E22A280EE96E040EBA
:1011B800EA6EA251E926D8B0EA2AEECFE6FFA22BC2
:1011C800E9D70FDD01D0E3DC0DD0FD0E7B15016EF4
:1011D800026AFF0E0216000E021802E1040E011840
:1011E80001E16DDD00D001D002D0A32B66D719DD57
:0211F8001200E3
:0A11FA00D08EA28AA08AF28E1200A5
:101204000001A351000A12E0A2C000F0000E016E1A
:10121400003600900136400E0024E96E000E0120D5
:10122400EA6EEECF04F0EECF05F011D0A2C000F0CC
:10123400000E016E0036009001363C0E0024E96E6B
:10124400000E0120EA6EEECF04F0EECF05F0020EA0
:101254000424E16E000E0520E26EA4C0E6FFA5C0E2
:10126400E6FF010E0424E16E000E0520E26EA6C026
:10127400E6FF04C0E9FF05C0EAFFEECF00F004C0BA
:10128400E1FF05C0E2FF400E0014E66E04C0E9FF72
:1012940005C0EAFFEECF00F004C0E1FF05C0E2FFA5
:1012A400880E0010E66EA351000A1BE0A2C000F0F5
:1012B400000E016E003600900136400E0024026ECE
:1012C400000E0120036E02C0E9FF03C0EAFF040E12
:1012D400EE18006E02C0E1FF03C0E2FF00C0E6FFAB
:1012E4001AD0A2C000F0000E016E00360090013644
:1012F4003C0E0024026E000E0120036E02C0E9FFC2
:1013040003C0EAFF040EEE18006E02C0E1FF03C042
:10131400E2FF00C0E6FF04C000F005C001F01200C7
:10132400000E0001A31902E1000EA21902E1016AF4
:101334000AD0A2C0E9FFA3C0EAFFEECF00F0000E7E
:0C13440000BE010E016E01C000F012009E
:0E135000000166919BC0A2F069DD668112006B
:10135E00200E0001865D03E36DB201D002D0006A5B
:10136E0046D080C0A2F081C0A3F0D5DF00523EE18E
:10137E009EC0A2F0010EA36F9BC0A4F09CC0A5F06E
:10138E009DC0A6F038DF00C080F001C081F0776B01
:10139E00786B796B7A6B80C0A2F081C0A3F0BBDF53
:1013AE0000520FE0010E016E0150000A01E125DE30
:1013BE0000017751781179117A1102E0006A17D085
:1013CE00EAD780C09FF081C0A0F0000E811902E123
:1013DE00000E801909E0010E9F25E96E000EA02176
:1013EE00EA6EEECF00F003D0006A01D0006A120060
:1013FE0000018651000A0BE16D6A696A8AEC05F0FC
:10140E00F5DE6DB602D06D86FCD7010E866F12002A
:0E141E00ACB202D00000FCD79BC0ADFF1200A4
:10142C00A0DC00C09BF0240E0001A26F1A0EA36F6B
:10143C00000EA46F34DD00C09CF09B51005C03E2F5
:0C144C009BC000F002D09CC000F0120019
:101458000001A16B200E865D03E36DB201D002D0BE
:10146800006A2DD050C0A2F051C0A3F057DF00523F
:1014780025E150C09FF051C0A0F0000E511802E1C4
:10148800000E50180AE0010E9F25E96E000EA021FB
:10149800EA6EEECF00F000C0A1F09EC0A2F0A36BF0
:1014A8009BC0A4F09CC0A5F09DC0A6F0A7DE00C01C
:1014B80050F001C051F0A1C000F001D0006A120044
:1014C800AECF01F0ABA202D0AB98AB8801C000F060
:0214D800120000
:0A14DA00000E9EBA010E006E120013
:1014E4000900F5CFE6FF0006FBE10106F9E1120071
:1014F40000018651010A07E16DBA05D0686A698066
:101504006988020E866F68A406D069A404D0FB0E15
:10151400681617EC06F06DA203D015EC06F0DCD0CB
:1015240068A019D069A017D025EC06F0040E866FC8
:10153400200E0401026F040E036F080E016F000EEB
:101544000015006E00C000F48C0E0011006E00C087
:1015540000F4FE0E681668A806D069A804D0F0EC62
:1015640005F0EF0E681668AC04D069AC02D0BF0E6B
:10157400681668AA04D069AA02D0ABEC05F068A288
:1015840002D069B26A6A040E0001865D03E215ECBA
:1015940006F0A2D069A69ED0A96B040EA95DD8B0AE
:1015A40099D068A694D06CCF7BF0F70E6816780EAD
:1015B4007B15016E0150000AD8A488D0FD0E7B155E
:1015C400016E026AFF0E0216000E021802E1000EFE
:1015D40001186DE17E0E7B15016E01C003F003322C
:1015E400039E03C000F0000E016E00360090013629
:1015F400003600900136000E0024026E040E012015
:10160400036E02C08BF003C08CF002C089F003C0EB
:101614008AF0040E8919006E00C089F002C0E9FF47
:1016240003C0EAFFEECF00F000C001F03C0E01164B
:101634000132019E0132019E01500D0A35E1020E74
:101644008B25E96E000E8C21EA6EEECF01F0EECF11
:1016540002F00250040A02E1280E011822E1020EEF
:101664008B25E16E000E8C21E26E200EE66E040ED8
:10167400E66EA86B080EA85D14E2200EE16E040E5F
:10168400E26EA851E126D8B0E22A280EE96E040ED3
:10169400EA6EA851E926D8B0EA2AEECFE6FFA82BD5
:1016A400E9D7F5EC05F002D0CBEC05F00ED0FD0E39
:1016B4007B15016E026AFF0E0216000E021802E18B
:1016C400040E011802E163EC06F000D001D002D050
:0A16D400A92B63D715EC06F01200F5
:1016DE009298929A92969294929292908098809AE0
:1016EE0080908092809480960CEC06F00CEC06F0C4
:1016FE000CEC06F0808480868088C9EC05F080981A
:10170E000CEC06F08088C9EC05F080980CEC06F025
:10171E008088C9EC05F080980CEC06F080968088E5
:10172E00C9EC05F080980CEC06F08088C9EC05F049
:10173E008098809480808088C9EC05F080980CECAD
:10174E0006F0809080868088C9EC05F0809880969F
:10175E008088C9EC05F080980CEC06F08088C9EC06
:10176E0005F0809880868088C9EC05F080980CEC96
:10177E0006F080968088C9EC05F080988080808283
:10178E00808480868088C9EC05F080980CEC06F089
:06179E000001668112004B
:1017A40010D0800E0001966F1AD0C00E966F17D01D
:1017B400940E966F14D0D40E966F11D0800E966F3F
:1017C4000ED000019651010AECE09651020AEDE0B8
:1017D4009651030AEDE09651040AEDE0EFD7970520
:1017E400006E9651002600C096F000C0A2F016ECE0
:1017F40007F066919A6B9A519825E96E000E99212B
:10180400EA6EEE520BE09A519825E96E000E99218A
:10181400EA6EEECF9BF09ADD9A2BEDD7668112002B
:1018240003DE00C087F0010E716F96C059F097C0B7
:101834005AF098C07EF099C07FF025EC06F0010EB6
:0C184400016E0150010A01E1D8DD120024
:1018500059C09BF05AC09CF0400E00019D6F010ED4
:061860009E6FFADD12008C
:1018660096C09BF097C09CF098C09DF0010E0001B9
:061876009E6F72DD1200FE
:08187C00829082928294120016
:101884000001996B96C0E9FF97C0EAFFEECF98F08C
:101894009851000A0EE098C09BF0BFDD0001992B1F
:1018A40099519625E96E000E9721EA6EEECF98F0D5
:0418B400EFD7120058
:1018B8001E0E00016A6F140E6B6F9B0E6C6F000E8C
:1018C8006D6FC80E486E140E496E000E4A6E000EFB
:1018D8004B6EDA0E4C6E140E4D6E000E4E6E000EF0
:1018E8004F6EFF0E446EFF0E456E000E466E000EE4
:1018F800476EAC8A900EAB6E948E949C9EAA03D0D1
:08190800AECF00F0FBD7120086
:1019100061EC0DF00F0EC112070EB412926A946AB8
:10192000829082928294DBDE010E966F010E976F99
:101930002B0E986F000E996F35DF296A2A6A800E88
:101940002A18006E800E750A005C02E1300E295CD8
:101950000DE22A50750A02E12F0E291804E1010E4A
:10196000A26F16EC07F0294A2A2AE9D7B886B06A8E
:10197000670EAF6EAC84A0DF000E966F050E976FFA
:10198000400E986F050E996F4DDF62DF00C058F072
:1019900000522EE05B6A58505B5C14E2400EE16E30
:1019A000050EE26E5B50E126D8B0E22A000EE96E29
:1019B000050EEA6E5B50E926D8B0EA2AEECFE6FFC4
:1019C0005B2AE9D7400E966F050E976F58C098F0C6
:1019D0004ADF005201E1F6D7010EA26F16EC07F0C4
:1019E000400E966F050E976F4DDF0D0E9B6F17DD46
:1019F000296A2A6A2A50270A02E10F0E29180EE1E5
:101A00003DDF6BDD00520AE05FDD00C069F000C021
:101A10009BF005DD0D0E00019B6F01DD294A2A2A8E
:041A2000E9D7FFD72C
:101AC20010EE29F0130E006E010E016E8A0EF66EF4
:0E1AD2001A0EF76E000EF86E72EC0AF012009B
:101A240009022900010100803209040000020300B8
:101A34000000092101010001222100070581034062
:091A440000010705010340000147
:101A4D000600FF0901A10119012940150026FF001B
:101A5D00750895408102190129407508954091023C
:011A6D00C0B8
:101A6E001C036400750072006D0061007A00730043
:0C1A7E0079006E00630062006F007800C9
:021A8A0000005A
:101A8C0047756C6D61792047656E2E2054657374B3
:011A9C000049
:101A9D0012010002000000083412010001000102D1
:021AAD00000136
:0E1AAF000E036400750072006D0061007A0085
:041ABD000403090411
:020000040030CA
:0E000000200C391EFF8381FF0FC00FE00F4060
:00000001FF
