:04000000CBEF0CF046
:020006001200E6
:1000080000C01EF001C01DF002C01CF003C01BF0B0
:1000180004C01AF005C019F008C018F009C017F09C
:100028000AC016F00BC015F0E1CF27F0E2CF28F098
:10003800E9CF25F0EACF26F0F3CF23F0F4CF24F070
:10004800F5CF22F0F8CF1FF0F7CF20F0F6CF21F050
:10005800FAEC0AF0F2A407D0F294D80ED76EF00E9C
:10006800D66E454A462A9EA005D09E903C0ECF6E7D
:10007800B00ECE6E9EB29E92A1A205D0A1923C0E69
:10008800B36EB00EB26EF2A203D0010E486EF292B9
:10009800F0A003D0010E476EF090F0B2F09222C0AB
:1000A800F5FF1FC0F8FF20C0F7FF21C0F6FF23C0EF
:1000B800F3FF24C0F4FF1EC000F01DC001F01CC0F7
:1000C80002F01BC003F01AC004F019C005F018C0F4
:1000D80008F017C009F016C00AF015C00BF025C0CB
:1000E800E9FF26C0EAFF27C0E1FF28C0E2FF1100B0
:1000F8000B6A0A6A096A00500402F4CF09F0F3CFC8
:1001080008F001500502F4CF0BF0F3CF0AF00050CD
:100118000502F3500926F4500A22E86A0B2201501E
:100128000402F3500926F4500A22E86A0B2208C098
:1001380000F009C001F00AC002F00BC003F0120081
:100148001E0E716E100E0001D26F040ED36FD2C056
:10015800E1FFD3C0E2FFE69ED2C0E1FFD3C0E2FFD9
:10016800E69C040ED225E16E000ED321E26EE68CE9
:10017800180ECB6F040ECC6FCBC0E1FFCCC0E2FFF2
:10018800E69ECBC0E1FFCCC0E2FFE69C040ECB2587
:10019800E16E000ECC21E26EE68C020ED225E16EF5
:1001A800000ED321E26ECDC0E6FFCEC0E6FF010E01
:1001B800D225E16E000ED321E26E400EE66ED2C06B
:1001C800E9FFD3C0EAFFEECF00F0D2C0E1FFD3C011
:1001D800E2FF400E0014E66ED2C0E9FFD3C0EAFF8A
:1001E800EECF00F0D2C0E1FFD3C0E2FF880E0010CE
:1001F800E66ED2C0D4F0D3C0D5F0040ED219006E8A
:0602080000C0D2F012005C
:10020E000401286B296B4AD00001618F04012881FB
:10021E000001D851010A02E10401288354D00001E3
:10022E00618F51D00001618F040124BF16D024C408
:10023E0003F00F0E031603C000F0000E016E003621
:10024E0000900136D00E0024E96E000E0120EA6EF9
:10025E00EECF04F0EECF05F015D024C403F00F0E50
:10026E00031603C000F0000E016E0036009001363A
:10027E00C90E0024E96E000E0120EA6EEECF04F0E6
:10028E00EECF05F004C0E9FF05C0EAFFEECF01F0A6
:10029E0001A403D00401010E286F15D020C401F073
:1002AE001F0E01160150000AAFE020C401F01F0E10
:1002BE0001160150010AB3E020C401F01F0E011611
:1002CE000150020AAFE0000161AF07D0280E5E6E4A
:0C02DE00040E5F6E6181020E626F120060
:1002EA0004012251010A13E120C401F01F0E011674
:1002FA000150000A0CE10001618F04012151030A37
:10030A0004E1010E0001D86F02D00001D86B04018C
:10031A002251000AD8A48DD020C401F01F0E011664
:10032A000150020AD8A485D024C401F00F0E011688
:10033A000150000AD8B47DD00001618F040124BFA6
:10034A0016D024C403F00F0E031603C000F0000EEB
:10035A00016E003600900136D00E0024E96E000EC0
:10036A000120EA6EEECF04F0EECF05F015D024C4DA
:10037A0003F00F0E031603C000F0000E016E0036E4
:10038A0000900136C90E0024E96E000E0120EA6EC3
:10039A00EECF04F0EECF05F02151030A07E104C0C5
:1003AA00E1FF05C0E2FF840EE66E43D024C400F0EC
:1003BA000F0E0016700E026E0F0E036E005002260C
:1003CA00D8B0032A02C0E9FF03C0EAFFFE0EEE140A
:1003DA00006EEECF01F0FF0E011602C0E1FF03C06E
:1003EA00E2FF00C0E6FF01C0E6FF24AF11D004C05F
:1003FA00E1FF05C0E2FFE66A040E0418006E00C0C1
:10040A0004F004C0E1FF05C0E2FF400EE66E11D021
:10041A0004C0E1FF05C0E2FF880EE66E040E041870
:10042A00006E00C004F004C0E1FF05C0E2FFC80E80
:04043A00E66E120058
:10043E0020C401F01F0E01160150010A01E094D0F4
:10044E0004012451000A01E08FD02151060A42E135
:10045E0037D05950010A18E1F00E006E1A0E016ED7
:10046E00000E026E120E0026000E0122022200C0A5
:10047E005EF001C05FF002C060F0090E0001626F15
:10048E00000E636FC00E616F25D05950010A13E143
:10049E0000013B0E006E1B0E016E000E026E00C0C0
:1004AE005EF001C05FF002C060F0210E626F000EC0
:1004BE00636FC00E616F0ED00001800E616F0AD0A7
:1004CE0004012351210AC5E02351220ADEE0235103
:1004DE00230AF2E020C401F0600E0116050E006E34
:1004EE00005004E00132019EFF0FFBD70150010ABC
:1004FE0001E03AD026D038D037D0C20E5E6E000E54
:10050E005F6E010E0001626F000E636FC10E616FB0
:10051E002BD00001800E616F23C4C2F025D00001E4
:10052E00C70E5E6E000E5F6E010E626F000E636F81
:10053E00810E616F19D00001800E616F22C4C7F069
:10054E0013D004012151010AD6E02151090AD4E049
:10055E002151020AD2E021510A0ADBE02151030A9D
:0A056E00DEE021510B0AE7E0120065
:1005780004012051800AD8A478D0C00E0001616F10
:1005880069D000017C0E006E1B0E016E000E026E1B
:1005980000C05EF001C05FF002C060F0120E626F32
:1005A800000E636F62D00001030E006E000E016E34
:1005B80022C404F0000E056E9BDD680E0024E96E6F
:1005C800000E0120EA6EEECF5EF0EECF5FF0EECFC8
:1005D80060F0020E5E24F66E000E5F20F76E000ECD
:1005E8006021F86E0900F5CF00F00900F5CF01F0A1
:1005F80000C062F001C063F038D00401225100014C
:10060800D95D23E3030E006E000E016E22C404F0D0
:10061800000E056E6DDD6B0E0024E96E000E0120E4
:10062800EA6EEECF5EF0EECF5FF0EECF60F05EC028
:10063800F6FF5FC0F7FF60C0F8FF0900F5CF00F0D4
:1006480000C062F0000E636F01D0616B0ED0000134
:10065800616B0BD004012351010A93E02351020A74
:0C066800A2E02351030AC9E0F2D71200FF
:100674000001618F716A586A22C459F05950000A06
:1006840003E1100ECF6F03D0200ECF6F5BDD12009D
:10069400000E0001635D02E1080E625D10E262C0BB
:1006A40003F063C004F0D651000A03E1010ED66FD3
:1006B40005D0D651010A02E1020ED66F04D0080E0D
:1006C400036E000E046EC9C0E1FFCAC0E2FFE692E9
:1006D400C9C0E1FFCAC0E2FFE690C9C0E9FFCAC0D1
:1006E400EAFFEECF00F0C9C0E1FFCAC0E2FF045048
:1006F4000010E66E010EC925E16E000ECA21E26EFD
:1007040003C0E6FF0350625D006E04506359016E3E
:1007140000C062F001C063F0280EC36F040EC46F02
:1007240061B12FD0035004102BE05EC0F6FF5FC010
:10073400F7FF60C0F8FF0900F5CF00F0C3C0E1FF88
:10074400C4C0E2FF00C0E6FFC34BC42B010E5E240D
:10075400006E000E5F20016E000E6021026E00C06C
:100764005EF001C05FF002C060F0010E035C006E39
:10077400000E0458016E00C003F001C004F0D2D78B
:1007840024D00350041021E05EC0E9FF5FC0EAFFFB
:10079400C3C0E1FFC4C0E2FFEECFE6FFC34BC42BEE
:1007A400010E5E24006E000E5F20016E00C05EF03C
:1007B40001C05FF0010E035C006E000E0458016E70
:0C07C40000C003F001C004F0DCD71200FC
:1007D0006D98000161BF49D0BBAF28D0020ED76F22
:1007E000010EC925E16E000ECA21E26EE66AC9C09B
:1007F000E1FFCAC0E2FFC80EE66E010EB425E16E4D
:10080000000EB521E26E080EE66E020EB425E16E12
:10081000000EB521E26E280EE66E040EE66EB4C040
:10082000E1FFB5C0E2FFC80EE66E1ED0010EB42592
:10083000E16E000EB521E26E080EE66E020EB425E2
:10084000E16E000EB521E26E200EE66E040EE66E3D
:10085000B4C0E1FFB5C0E2FF8C0EE66EC9C0E1FF97
:10086000CAC0E2FF840EE66E82D0BBBF80D0040116
:1008700020AF55D0000163510401275D04E1000160
:1008800062510401265D04E226C462F027C463F0CD
:1008900001DF010ED76F010EB425E16E000EB52108
:1008A000E26E080EE66E020EB425E16E000EB52172
:1008B000E26E200EE66E040EE66EB4C0E1FFB5C037
:1008C000E2FF800EE66EB66B010EB725E16E000EFC
:1008D000B821E26E080EE66E020EB725E16E000E3C
:1008E000B821E26E200EE66E040EE66EB7C0E1FFA0
:1008F000B8C0E2FF840EE66E010EB66F020EC92587
:10090000E16E000ECA21E26E280EE66E040EE66E5F
:10091000C9C0E1FFCAC0E2FFC80EE66E28D00001E0
:10092000020ED76F010EC925E16E000ECA21E26EDC
:10093000E66AC9C0E1FFCAC0E2FFC80EE66E010E5A
:10094000B425E16E000EB521E26E080EE66E020ED1
:10095000B425E16E000EB521E26E280EE66E040E9F
:10096000E66EB4C0E1FFB5C0E2FFC80EE66E12004D
:0E097000160E6F6E9F0E6B6E3B0E696E1200C0
:10097E00F00E0001686F1A0E696F000E6A6F9E0E00
:10098E006B6F1B0E6C6F000E6D6F190E6E6F1B0E64
:10099E006F6F000E706F8E0E716F1B0E726F000EEA
:0409AE00736F120051
:0A09B2000001C85301E042DD12000D
:1009BC000001D76BC9C0E1FFCAC0E2FFE66A040EB2
:1009CC00C919E16ECAC0E2FF000EE21AE66ABBAFBB
:0609DC0001D0BB9F1200D8
:1009E200010E0001B725E96E000EB821EA6EEECFC6
:1009F20000F000C002F0000EBD5D02E10250BC5DDD
:100A020003E2BCC002F00AD00250BC5D006E000ED0
:100A1200BD59016E00C0BCF001C0BDF0036A0250B6
:100A2200035C1CE2280EE96E040EEA6E0350E9260E
:100A3200D8B0EA2AEECF00F0B9C0E1FFBAC0E2FFB7
:100A420000C0E6FF010EB925006E000EBA21016E4C
:100A520000C0B9F001C0BAF0032AE1D7000E006E5F
:100A6200BD51005C02E1BC51000828E2010EB42530
:100A7200E16E000EB521E26E080EE66E020EB4259E
:100A8200E16E000EB521E26E280EE66E040EE66EF1
:100A9200B7C0E9FFB8C0EAFFEECF00F000BC07D054
:100AA200B4C0E1FFB5C0E2FFC80EE66E06D0B4C026
:100AB200E1FFB5C0E2FF880EE66E19D0010EB42543
:100AC200E16E000EB521E26E080EE66E020EB4254E
:100AD200E16E000EB521E26E200EE66E040EE66EA9
:100AE200B4C0E1FFB5C0E2FF840EE66EBB9F120008
:100AF20020C401F0600E0116050E006E005004E0E5
:100B02000132019EFF0FFBD70150000A01E060D0C5
:100B12003CD00001618F080ECF6F5AD02CDD58D027
:100B2200A8DD56D00001590E5E6E000E5F6E618127
:100B3200010E626F618F4CD007EC01F049D075EC69
:100B420001F046D0580E006E000E016E04012451D1
:100B52000026D8B0012A00C05EF001C05FF000019B
:100B62006181010E626F618F33D00001618F580E77
:100B7200E16E000EE26E04012451E126D8B0E22AB1
:100B820022C4E6FF25D024D023D004012151050A36
:100B9200C0E02151060AC2E02151090AC1E02151F7
:100BA200080AC0E02151000AC7E02151010AC7E04A
:100BB2002151030AC4E021510A0AC4E021510B0A5F
:100BC200D4E02151070ADFE021510C0ADDE0DCD735
:020BD20012000F
:040BD400A19A1200D0
:100BD800D2DED46BD56B526A536A6A6A686AC4DE1D
:100BE8006D8C6E6A716A6D9C656B666B000E665DD6
:100BF80002E1080E655D17E265C000F066C001F00D
:100C0800003600900136003600900136000E0024B0
:100C1800E16E040E0120E26EE66AE66AE66AE66ABA
:100C2800654B662BE3D7160E706E68A603D0F70ED9
:100C38006816FBD7616BBB6BBC6BBD6B6D98080E00
:0C0C4800C96F040ECA6F596ACF6B12000E
:0A0C54006984EF0E68166D8212002D
:100C5E00040E0001C919006E00C0C9F0CF51080A78
:100C6E000AE122C46EFF6E50000803E2100ECF6F31
:100C7E0002D0040ECF6FD751010A3AE1020EC925F8
:100C8E00E16E000ECA21E26E280EE66E040EE66ECE
:100C9E00FADCD651020A07E1C9C0E1FFCAC0E2FF81
:100CAE00840EE66E24D0040EC919006E00C0C9F081
:100CBE00C9C0E9FFCAC0EAFFEECF00F000BC0CD0FD
:100CCE00040EC919006E00C0C9F0C9C0E1FFCAC048
:100CDE00E2FFC80EE66E0BD0040EC919006E00C0FE
:100CEE00C9F0C9C0E1FFCAC0E2FF880EE66E01D0AE
:040CFE005EDE1200A4
:100D020070A019D0B7C0E9FFB8C0EAFFEECF01F07A
:100D12000150800A0FE1C9C0E9FFCAC0EAFFEECF65
:100D220001F00150840A06E1B7C0E1FFB8C0E2FF5A
:0C0D32008C0EE66E7090DF0E681612004A
:100D3E00020E0C6EC80E0D6E0D2EFED70C2EFCD7AD
:020D4E00120091
:100D50000001D751020A02E144DE1ED02FDEB65157
:100D6000000A19E1010EB425E16E000EB521E26E14
:100D7000080EE66E020EB425E16E000EB521E26E9D
:100D8000200EE66E040EE66EB4C0E1FFB5C0E2FFD1
:0A0D90008C0EE66E01D0B66B120067
:100D9A006D92699468A403D0FB0E6816FBD7120003
:0E0DAA00030E0D6E0D2EFED70000000012008D
:100DB800C9C0E9FFCAC0EAFFEECF00F000AE05D017
:100DC800C9C0E1FFCAC0E2FFE66A0001D66BD76B73
:0E0DD800626B636B616B89DEE8DDF6DC120096
:100DE6000001CF51000A0AE16D6A696ABEDD6DB67F
:100DF60002D06D86FCD70001010ECF6FCF51010ADC
:100E060008E16DBA06D0686A696A69806988020E67
:100E1600CF6F68A405D069A403D0FB0E6816BADFAD
:100E26006DA202D0D4DED4D068A018D069A016D0A6
:100E3600D0DE040ECF6F200E0401026F040E036F86
:100E4600080E016F000E0015006E00C000F48C0E37
:100E56000011006E00C000F4FE0E681668A805D0EA
:100E660069A803D0F4DEEF0E681668AC04D069AC4E
:100E760002D0BF0E681668AA03D069AA01D03EDF69
:100E860068A202D069B26A6A040E0001CF5D02E26E
:100E96009EDE9ED069A69BD0EC6B040EEC5DD8B0AE
:100EA60096D068A691D06CCFDEF0F70E6816780E55
:100EB600DE15016E0150000AD8A485D0FD0EDE15A0
:100EC600016E026AFF0E0216000E021802E1000E03
:100ED60001186BE17E0EDE15016E01C003F00332D0
:100EE600039E03C000F0000E016E0036009001362E
:100EF600003600900136000E0024026E040E01201A
:100F0600036E02C0B7F003C0B8F002C0B4F003C06D
:100F1600B5F0040EB419006E00C0B4F002C0E9FFCB
:100F260003C0EAFFEECF00F000C001F03C0E011650
:100F36000132019E0132019E01500D0A34E1020E7A
:100F4600B725E96E000EB821EA6EEECF01F0EECFBE
:100F560002F00250040A02E1280E011822E1020EF4
:100F6600B725E16E000EB821E26E200EE66E040E85
:100F7600E66EEB6B080EEB5D14E2200EE16E040EDE
:100F8600E26EEB51E126D8B0E22A280EE96E040E95
:100F9600EA6EEB51E926D8B0EA2AEECFE6FFEB2B54
:100FA600E9D707DF01D0D1DE0DD0FD0EDE15016ECB
:100FB600026AFF0E0216000E021802E1040E011864
:100FC60001E14ADE00D001D002D0EC2B66D7FFDD6E
:020FD600120007
:100FD8000001EBBF02D0809001D08080EBBD02D031
:100FE800809201D08082EBBB02D0809401D08084B3
:100FF800EBB902D0809601D0808651B002D0808AA9
:1010080001D0809A808803EC00F08098EBB702D07A
:10101800809001D08080EBB502D0809201D0808290
:10102800EBB302D0809401D08084EBB102D08096DB
:1010380001D0808651B002D0808A01D0809A808801
:1010480003EC00F0809851A002D075DE01D0A9DE33
:02105800120084
:10105A00000E0001EC1902E1000EEB1902E1016A2F
:10106A000AD0EBC0E9FFECC0EAFFEECF00F0000EB9
:0C107A0000BE010E016E01C000F012006B
:101086000001EE6BEF6BF06B020EEB25F66E000EB9
:10109600EC21F76E000EED21F86E0900F5CF05F094
:1010A600030EEB25F66E000EEC21F76E000EED2119
:1010B600F86E0900F5CF00F000C003F0000E046ED4
:1010C60003C001F0006A05500024066E000E0120E0
:1010D600076EEBC008F0ECC009F0EDC00AF0010E97
:1010E6000824F66E000E0920F76E000E0A20F86E30
:1010F6000900F5CF01F00150020A1BE1060E082493
:10110600F66E000E0920F76E000E0A20F86E090032
:10111600F5CF01F00150EE5D0CE2060E0824F66EE6
:10112600000E0920F76E000E0A20F86E0900F5CFB2
:10113600EEF0010E0824F66E000E0920F76E000E82
:101146000A20F86E0900F5CF01F00150040A1BE1F0
:10115600080E0824F66E000E0920F76E000E0A200F
:10116600F86E0900F5CF01F00150EE5D0CE2080EB5
:101176000824F66E000E0920F76E000E0A20F86E9F
:101186000900F5CFEEF008C0F6FF09C0F7FF0AC068
:10119600F8FF0900F5CF00F00050EF25016E000EB4
:1011A600F021026E01C0EFF002C0F0F00750025CC1
:1011B60002E10650015C01E30FD008C0F6FF09C04A
:1011C600F7FF0AC0F8FF0900F5CF00F00050082627
:0E11D600000E09220A2283D7EEC000F012009C
:1011E4007C0E006E1B0E016E000E026E0E0E0024AD
:1011F400F66E000E0120F76E000E0220F86E090054
:10120400F5CF03F003C004F00F0E0024F66E000EB9
:101214000120F76E000E0220F86E0900F5CF01F0F0
:101224000150035C12E27C0E006E1B0E016E000E78
:10123400026E0F0E0024F66E000E0120F76E000EF3
:101244000220F86E0900F5CF04F07C0E006E1B0E30
:10125400016E000E026E100E0024F66E000E0120C8
:10126400F76E000E0220F86E0900F5CF01F0015070
:10127400045C12E27C0E006E1B0E016E000E026E08
:10128400100E0024F66E000E0120F76E000E0220F0
:0E129400F86E0900F5CF04F004C000F012005F
:1012A2000001EC51000A12E0EBC000F0000E016EEA
:1012B200003600900136C90E0024E96E000E0120AE
:1012C200EA6EEECF04F0EECF05F011D0EBC000F0E5
:1012D200000E016E003600900136D00E0024E96E39
:1012E200000E0120EA6EEECF04F0EECF05F0020E02
:1012F2000424E16E000E0520E26EEDC0E6FFEEC0B2
:10130200E6FF010E0424E16E000E0520E26EEFC03E
:10131200E6FF04C0E9FF05C0EAFFEECF00F004C01B
:10132200E1FF05C0E2FF400E0014E66E04C0E9FFD3
:1013320005C0EAFFEECF00F004C0E1FF05C0E2FF06
:10134200880E0010E66EEC51000A1BE0EBC000F0C4
:10135200000E016E003600900136C90E0024026EA6
:10136200000E0120036E02C0E9FF03C0EAFF040E73
:10137200EE18006E02C0E1FF03C0E2FF00C0E6FF0C
:101382001AD0EBC000F0000E016E0036009001365C
:10139200D00E0024026E000E0120036E02C0E9FF8F
:1013A20003C0EAFF040EEE18006E02C0E1FF03C0A4
:1013B200E2FF00C0E6FF04C000F005C001F0120029
:0A13C200D08EA28AA08AF28E1200DB
:0C13CC005190E4C0EBF002DE51801200F2
:1013D80005DF00C0E4F0F00E0001EB6F1A0EEC6FB1
:1013E800000EED6F4CDE00C0E5F0E451005C03E256
:0C13F800E4C000F002D0E5C000F01200DC
:101404000001CF51000A0BE16D6A696AB8EC04F07F
:10141400D6DF6DB602D06D86FCD7010ECF6F1200F9
:10142400200E0001CF5D03E36DB201D002D0006A4B
:1014340047D052C0EBF053C0ECF00DDE00523FE158
:10144400E7C0EBF0010EEC6FE4C0EDF0E5C0EEF0A8
:10145400E6C0EFF024DF00C052F001C053F0DA6BB5
:10146400DB6BDC6BDD6B52C0EBF053C0ECF0F3DDF7
:1014740000520FE0010E016E0150000A01E1B1DCDF
:101484000001DA51DB11DC11DD1102E0006A18D031
:10149400EAD752C0E8F053C0E9F0000E531802E155
:1014A400000E52180AE00001010EE825E96E000E54
:1014B400E921EA6EEECF00F003D0006A01D0006AA1
:0214C400120014
:0E14C600ACB202D00000FCD7E4C0ADFF1200B3
:1014D4000001EA6B200ECF5D03E36DB201D002D0B0
:1014E400006A2DD0D4C0EBF0D5C0ECF0B4DD0052CE
:1014F40025E1D4C0E8F0D5C0E9F0000ED51902E129
:10150400000ED4190AE0010EE825E96E000EE92167
:10151400EA6EEECF00F000C0EAF0E7C0EBF0EC6B4F
:10152400E4C0EDF0E5C0EEF0E6C0EFF0B8DE00C0D8
:10153400D4F001C0D5F0EAC000F001D0006A120076
:10154400AECF01F0ABA202D0AB98AB8801C000F0E3
:02155400120083
:0A155600000E9EBA010E006E120096
:10156000DFC0E4F0E0C0E5F0E1C0E6F0010E00010C
:06157000E76F58DF1200D6
:1015760010D0800E0001DF6F1AD0C00EDF6F17D0BB
:10158600940EDF6F14D0D40EDF6F11D0800EDF6F94
:101596000ED00001DF51010AECE0DF51020AEDE056
:1015A600DF51030AEDE0DF51040AEDE0EFD7E00575
:1015B600006EDF51002600C0DFF000C0EBF009DD51
:1015C6005190E36BE351E125E96E000EE221EA6EEC
:1015D600EE520BE0E351E125E96E000EE221EA6EE0
:0E15E600EECFE4F0F0DEE32BEDD751801200E3
:1015F4000001CF51010A07E16DBA05D0686A69801C
:101604006988020ECF6F68A406D069A404D0FB0ECB
:101614006816CDEC06F06DA203D0EAEC05F0DCD040
:1016240068A019D069A017D0ECEC05F0040ECF6FB8
:10163400200E0401026F040E036F080E016F000EEA
:101644000015006E00C000F48C0E0011006E00C086
:1016540000F4FE0E681668A806D069A804D02AEC27
:1016640006F0EF0E681668AC04D069AC02D0BF0E69
:10167400681668AA04D069AA02D081EC06F068A2B0
:1016840002D069B26A6A040E0001CF5D03E2EAEC9B
:1016940005F0A2D069A69ED0F26B040EF25DD8B01C
:1016A40099D068A694D06CCFDEF0F70E6816780E49
:1016B400DE15016E0150000AD8A488D0FD0EDE1597
:1016C400016E026AFF0E0216000E021802E1000EFD
:1016D40001186DE17E0EDE15016E01C003F00332C8
:1016E400039E03C000F0000E016E00360090013628
:1016F400003600900136000E0024026E040E012014
:10170400036E02C0B7F003C0B8F002C0B4F003C067
:10171400B5F0040EB419006E00C0B4F002C0E9FFC5
:1017240003C0EAFFEECF00F000C001F03C0E01164A
:101734000132019E0132019E01500D0A35E1020E73
:10174400B725E96E000EB821EA6EEECF01F0EECFB8
:1017540002F00250040A02E1280E011822E1020EEE
:10176400B725E16E000EB821E26E200EE66E040E7F
:10177400E66EF16B080EF15D14E2200EE16E040ECC
:10178400E26EF151E126D8B0E22A280EE96E040E89
:10179400EA6EF151E926D8B0EA2AEECFE6FFF12B42
:1017A400E9D7DCEC06F002D0A8EC06F00ED0FD0E72
:1017B400DE15016E026AFF0E0216000E021802E127
:1017C400040E011802E12FEC06F000D001D002D083
:0A17D400F22B63D7EAEC05F01200D7
:1017DE000900F5CFE6FF0006FBE10106F9E1120074
:1017EE009298929A92969294929292908098809ACF
:1017FE0080908092809480969FEC06F09FEC06F08D
:10180E009FEC06F080848086808803EC00F0809840
:10181E009FEC06F0808803EC00F080989FEC06F0B9
:10182E00808803EC00F080989FEC06F0809680880C
:10183E0003EC00F080989FEC06F0808803EC00F03B
:10184E00809880948080808803EC00F080989FECD4
:10185E0006F080908086808803EC00F08098809659
:10186E00808803EC00F080989FEC06F0808803ECF3
:10187E0000F080988086808803EC00F080989FECC2
:10188E0006F08096808803EC00F08098808080823D
:10189E0080848086808803EC00F080989FEC06F0B0
:0418AE005180120053
:0818B200F086F28EF0901200A6
:1018BA008EDD00C0D9F0010EC86FDFC0CDF0E0C0E8
:1018CA00CEF0E1C0C5F0E2C0C6F0ECEC05F0010EC6
:0C18DA00016E0150010A01E190DD1200D6
:0818E600F288F28EF29212006A
:1018EE000001E26BDFC0E9FFE0C0EAFFEECFE1F0FE
:1018FE00E151000A0EE0E1C0E4F0DEDD0001E22B72
:10190E00E251DF25E96E000EE021EA6EEECFE1F046
:04191E00EFD71200ED
:10192200CDC0E4F0CEC0E5F0400E0001E66F010E3E
:06193200E76FCFDD12009B
:08193800829082928294120059
:10194000C60E496E140E4A6EE40E4B6E000E4C6EBF
:10195000440E4D6E150E4E6E000E4F6E000E506E04
:10196000560E546E150E556E000E566E000E576EC6
:10197000FF0E5A6EFF0E5B6E000E5C6E000E5D6E0B
:10198000AC8A900EAB6E948E949C9EAA03D0AECF80
:0619900000F0FBD712007D
:10199600D1EC0DF00F0EC112070EB412926A936AC3
:1019A600946A956A806A816A826A836A1DDF010E7B
:1019B6000001DF6F010EE06F300EE16F000EE26F87
:1019C600D7DD020E0B6E450E0C6EA90E0D6E0D2E9A
:1019D600FED70C2EFCD70B2EFAD700000000010E06
:1019E600EB6FECEC07F0B886B06A190EAF6EAC84FC
:1019F600A4DF290E0001DF6F000EE06F75DF000E19
:101A0600DF6F050EE06F400EE16F050EE26F52DFED
:101A160067DF4CDF8EDF82DF00C064F00050000A13
:101A26004FE081B04DD081B24BD0676B6451675D9A
:101A360014E2400EE16E050EE26E6751E126D8B063
:101A4600E22A000EE96E050EEA6E6751E926D8B065
:101A5600EA2AEECFE6FF672BE9D70001400EDF6FDB
:101A6600050EE06F64C0E1F078DD005201E1F5D7C4
:101A760005014051570A10E146514F0A0DE182B067
:101A86000BD082B209D082B407D08380400E000109
:101A9600DF6F050EE06F28DF05014051580A10E19F
:101AA6004651450A0DE182B00BD082B209D082B40C
:101AB60007D083903D0E0001DF6F000EE06F14DF4C
:101AC60082B011D082B20FD082B40DD081B00BD0CB
:101AD60081B209D03DDD005206E031DD00C0B4F030
:0A1AE60000C0E4F0EDDC97D7FFD755
:101BA20010EE29F0200E006E010E016E5C0EF66E34
:0E1BB2001B0EF76E000EF86EEFEC0BF012003B
:101AF00009022900010100803209040000020300EC
:101B00000000092101010001222100070581034095
:091B10000001070501034000017A
:101B190022034400750072006D0061007A00200004
:101B2900540065006B006E006F006C006F006A0066
:021B3900690041
:101B3B000600FF0901A10119012940150026FF002C
:101B4B00750895408102190129407508954091024D
:011B5B00C0C9
:071B5C0064656E656D650014
:0D1B630053796E63426F78205465737400EF
:081B70006C65645F6F6666009E
:021B780000006B
:011B7A00006A
:011B7B000069
:101B7C0012010002000000083412010001000102F1
:021B8C00000156
:101B8E001003530079006E00630042006F0078006E
:041B9E00040309042F
:020000040030CA
:0E000000200C391EFF8381FF0FC00FE00F4060
:00000001FF
